{
  "contracts/DOW.sol": {
    "DOW": {
      "abi": [
        {
          "inputs": [],
          "stateMutability": "nonpayable",
          "type": "constructor"
        },
        {
          "inputs": [],
          "name": "Enter4Numbers",
          "type": "error"
        },
        {
          "inputs": [],
          "name": "InsufficientTokens",
          "type": "error"
        },
        {
          "inputs": [],
          "name": "NotOwner",
          "type": "error"
        },
        {
          "inputs": [],
          "name": "NumbersMustBeUnique",
          "type": "error"
        },
        {
          "inputs": [],
          "name": "YouLost",
          "type": "error"
        },
        {
          "anonymous": false,
          "inputs": [
            {
              "indexed": true,
              "internalType": "address",
              "name": "owner",
              "type": "address"
            },
            {
              "indexed": true,
              "internalType": "address",
              "name": "spender",
              "type": "address"
            },
            {
              "indexed": false,
              "internalType": "uint256",
              "name": "value",
              "type": "uint256"
            }
          ],
          "name": "Approval",
          "type": "event"
        },
        {
          "anonymous": false,
          "inputs": [
            {
              "indexed": false,
              "internalType": "uint256",
              "name": "tries",
              "type": "uint256"
            },
            {
              "indexed": false,
              "internalType": "uint256",
              "name": "dead",
              "type": "uint256"
            },
            {
              "indexed": false,
              "internalType": "uint256",
              "name": "wounded",
              "type": "uint256"
            }
          ],
          "name": "PlayerGuesses",
          "type": "event"
        },
        {
          "anonymous": false,
          "inputs": [
            {
              "indexed": true,
              "internalType": "address",
              "name": "from",
              "type": "address"
            },
            {
              "indexed": true,
              "internalType": "address",
              "name": "to",
              "type": "address"
            },
            {
              "indexed": false,
              "internalType": "uint256",
              "name": "value",
              "type": "uint256"
            }
          ],
          "name": "Transfer",
          "type": "event"
        },
        {
          "anonymous": false,
          "inputs": [
            {
              "indexed": false,
              "internalType": "string",
              "name": "message",
              "type": "string"
            }
          ],
          "name": "Warnings",
          "type": "event"
        },
        {
          "anonymous": false,
          "inputs": [
            {
              "indexed": false,
              "internalType": "string",
              "name": "message",
              "type": "string"
            }
          ],
          "name": "WonOrLost",
          "type": "event"
        },
        {
          "inputs": [
            {
              "internalType": "address",
              "name": "owner",
              "type": "address"
            },
            {
              "internalType": "address",
              "name": "spender",
              "type": "address"
            }
          ],
          "name": "allowance",
          "outputs": [
            {
              "internalType": "uint256",
              "name": "",
              "type": "uint256"
            }
          ],
          "stateMutability": "view",
          "type": "function"
        },
        {
          "inputs": [
            {
              "internalType": "address",
              "name": "spender",
              "type": "address"
            },
            {
              "internalType": "uint256",
              "name": "amount",
              "type": "uint256"
            }
          ],
          "name": "approve",
          "outputs": [
            {
              "internalType": "bool",
              "name": "",
              "type": "bool"
            }
          ],
          "stateMutability": "nonpayable",
          "type": "function"
        },
        {
          "inputs": [
            {
              "internalType": "address",
              "name": "account",
              "type": "address"
            }
          ],
          "name": "balanceOf",
          "outputs": [
            {
              "internalType": "uint256",
              "name": "",
              "type": "uint256"
            }
          ],
          "stateMutability": "view",
          "type": "function"
        },
        {
          "inputs": [],
          "name": "decimals",
          "outputs": [
            {
              "internalType": "uint8",
              "name": "",
              "type": "uint8"
            }
          ],
          "stateMutability": "view",
          "type": "function"
        },
        {
          "inputs": [
            {
              "internalType": "address",
              "name": "spender",
              "type": "address"
            },
            {
              "internalType": "uint256",
              "name": "subtractedValue",
              "type": "uint256"
            }
          ],
          "name": "decreaseAllowance",
          "outputs": [
            {
              "internalType": "bool",
              "name": "",
              "type": "bool"
            }
          ],
          "stateMutability": "nonpayable",
          "type": "function"
        },
        {
          "inputs": [
            {
              "internalType": "address",
              "name": "spender",
              "type": "address"
            },
            {
              "internalType": "uint256",
              "name": "addedValue",
              "type": "uint256"
            }
          ],
          "name": "increaseAllowance",
          "outputs": [
            {
              "internalType": "bool",
              "name": "",
              "type": "bool"
            }
          ],
          "stateMutability": "nonpayable",
          "type": "function"
        },
        {
          "inputs": [],
          "name": "name",
          "outputs": [
            {
              "internalType": "string",
              "name": "",
              "type": "string"
            }
          ],
          "stateMutability": "view",
          "type": "function"
        },
        {
          "inputs": [
            {
              "internalType": "uint256[]",
              "name": "numArr",
              "type": "uint256[]"
            }
          ],
          "name": "playGame",
          "outputs": [
            {
              "internalType": "uint256",
              "name": "wounded",
              "type": "uint256"
            },
            {
              "internalType": "uint256",
              "name": "dead",
              "type": "uint256"
            },
            {
              "internalType": "string",
              "name": "message",
              "type": "string"
            }
          ],
          "stateMutability": "nonpayable",
          "type": "function"
        },
        {
          "inputs": [],
          "name": "startGame",
          "outputs": [],
          "stateMutability": "nonpayable",
          "type": "function"
        },
        {
          "inputs": [],
          "name": "symbol",
          "outputs": [
            {
              "internalType": "string",
              "name": "",
              "type": "string"
            }
          ],
          "stateMutability": "view",
          "type": "function"
        },
        {
          "inputs": [],
          "name": "totalSupply",
          "outputs": [
            {
              "internalType": "uint256",
              "name": "",
              "type": "uint256"
            }
          ],
          "stateMutability": "view",
          "type": "function"
        },
        {
          "inputs": [
            {
              "internalType": "address",
              "name": "to",
              "type": "address"
            },
            {
              "internalType": "uint256",
              "name": "amount",
              "type": "uint256"
            }
          ],
          "name": "transfer",
          "outputs": [
            {
              "internalType": "bool",
              "name": "",
              "type": "bool"
            }
          ],
          "stateMutability": "nonpayable",
          "type": "function"
        },
        {
          "inputs": [
            {
              "internalType": "address",
              "name": "from",
              "type": "address"
            },
            {
              "internalType": "address",
              "name": "to",
              "type": "address"
            },
            {
              "internalType": "uint256",
              "name": "amount",
              "type": "uint256"
            }
          ],
          "name": "transferFrom",
          "outputs": [
            {
              "internalType": "bool",
              "name": "",
              "type": "bool"
            }
          ],
          "stateMutability": "nonpayable",
          "type": "function"
        },
        {
          "inputs": [
            {
              "internalType": "uint256",
              "name": "_amount",
              "type": "uint256"
            }
          ],
          "name": "transferToCreator",
          "outputs": [],
          "stateMutability": "nonpayable",
          "type": "function"
        }
      ],
      "evm": {
        "bytecode": {
          "linkReferences": {},
          "object": "60806040523480156200001157600080fd5b506040518060400160405280600f81526020017f44656164206f7220576f756e64656400000000000000000000000000000000008152506040518060400160405280600381526020017f444f57000000000000000000000000000000000000000000000000000000000081525081600390805190602001906200009692919062000298565b508060049080519060200190620000af92919062000298565b50505033600660006101000a81548173ffffffffffffffffffffffffffffffffffffffff021916908373ffffffffffffffffffffffffffffffffffffffff1602179055506200010f3069d3c21bcecceda10000006200011560201b60201c565b620004f4565b600073ffffffffffffffffffffffffffffffffffffffff168273ffffffffffffffffffffffffffffffffffffffff16141562000188576040517f08c379a00000000000000000000000000000000000000000000000000000000081526004016200017f9062000380565b60405180910390fd5b6200019c600083836200028e60201b60201c565b8060026000828254620001b09190620003d0565b92505081905550806000808473ffffffffffffffffffffffffffffffffffffffff1673ffffffffffffffffffffffffffffffffffffffff1681526020019081526020016000206000828254620002079190620003d0565b925050819055508173ffffffffffffffffffffffffffffffffffffffff16600073ffffffffffffffffffffffffffffffffffffffff167fddf252ad1be2c89b69c2b068fc378daa952ba7f163c4a11628f55a4df523b3ef836040516200026e9190620003a2565b60405180910390a36200028a600083836200029360201b60201c565b5050565b505050565b505050565b828054620002a69062000437565b90600052602060002090601f016020900481019282620002ca576000855562000316565b82601f10620002e557805160ff191683800117855562000316565b8280016001018555821562000316579182015b8281111562000315578251825591602001919060010190620002f8565b5b50905062000325919062000329565b5090565b5b80821115620003445760008160009055506001016200032a565b5090565b600062000357601f83620003bf565b91506200036482620004cb565b602082019050919050565b6200037a816200042d565b82525050565b600060208201905081810360008301526200039b8162000348565b9050919050565b6000602082019050620003b960008301846200036f565b92915050565b600082825260208201905092915050565b6000620003dd826200042d565b9150620003ea836200042d565b9250827fffffffffffffffffffffffffffffffffffffffffffffffffffffffffffffffff038211156200042257620004216200046d565b5b828201905092915050565b6000819050919050565b600060028204905060018216806200045057607f821691505b602082108114156200046757620004666200049c565b5b50919050565b7f4e487b7100000000000000000000000000000000000000000000000000000000600052601160045260246000fd5b7f4e487b7100000000000000000000000000000000000000000000000000000000600052602260045260246000fd5b7f45524332303a206d696e7420746f20746865207a65726f206164647265737300600082015250565b612a0d80620005046000396000f3fe608060405234801561001057600080fd5b50600436106100ea5760003560e01c806370a082311161008c578063a9059cbb11610066578063a9059cbb14610273578063d65ab5f2146102a3578063dd62ed3e146102ad578063fcb1d746146102dd576100ea565b806370a08231146101f557806395d89b4114610225578063a457c2d714610243576100ea565b806318160ddd116100c857806318160ddd1461015957806323b872dd14610177578063313ce567146101a757806339509351146101c5576100ea565b806306fdde03146100ef578063095ea7b31461010d5780630b4dab981461013d575b600080fd5b6100f761030f565b6040516101049190611fe5565b60405180910390f35b61012760048036038101906101229190611c6d565b6103a1565b6040516101349190611fca565b60405180910390f35b61015760048036038101906101529190611cf6565b6103c4565b005b61016161047b565b60405161016e91906121a7565b60405180910390f35b610191600480360381019061018c9190611c1a565b610485565b60405161019e9190611fca565b60405180910390f35b6101af6104b4565b6040516101bc9190612200565b60405180910390f35b6101df60048036038101906101da9190611c6d565b6104bd565b6040516101ec9190611fca565b60405180910390f35b61020f600480360381019061020a9190611bad565b610567565b60405161021c91906121a7565b60405180910390f35b61022d6105af565b60405161023a9190611fe5565b60405180910390f35b61025d60048036038101906102589190611c6d565b610641565b60405161026a9190611fca565b60405180910390f35b61028d60048036038101906102889190611c6d565b61072b565b60405161029a9190611fca565b60405180910390f35b6102ab61074e565b005b6102c760048036038101906102c29190611bda565b610889565b6040516102d491906121a7565b60405180910390f35b6102f760048036038101906102f29190611cad565b610910565b604051610306939291906121c2565b60405180910390f35b60606003805461031e906123e3565b80601f016020809104026020016040519081016040528092919081815260200182805461034a906123e3565b80156103975780601f1061036c57610100808354040283529160200191610397565b820191906000526020600020905b81548152906001019060200180831161037a57829003601f168201915b5050505050905090565b6000806103ac610c58565b90506103b9818585610c60565b600191505092915050565b600660009054906101000a900473ffffffffffffffffffffffffffffffffffffffff1673ffffffffffffffffffffffffffffffffffffffff163373ffffffffffffffffffffffffffffffffffffffff161461044b576040517f30cd747100000000000000000000000000000000000000000000000000000000815260040160405180910390fd5b61047830600660009054906101000a900473ffffffffffffffffffffffffffffffffffffffff1683610e2b565b50565b6000600254905090565b600080610490610c58565b905061049d8582856110ac565b6104a8858585610e2b565b60019150509392505050565b60006012905090565b6000806104c8610c58565b905061055c818585600160008673ffffffffffffffffffffffffffffffffffffffff1673ffffffffffffffffffffffffffffffffffffffff16815260200190815260200160002060008973ffffffffffffffffffffffffffffffffffffffff1673ffffffffffffffffffffffffffffffffffffffff1681526020019081526020016000205461055791906122bf565b610c60565b600191505092915050565b60008060008373ffffffffffffffffffffffffffffffffffffffff1673ffffffffffffffffffffffffffffffffffffffff168152602001908152602001600020549050919050565b6060600480546105be906123e3565b80601f01602080910402602001604051908101604052809291908181526020018280546105ea906123e3565b80156106375780601f1061060c57610100808354040283529160200191610637565b820191906000526020600020905b81548152906001019060200180831161061a57829003601f168201915b5050505050905090565b60008061064c610c58565b90506000600160008373ffffffffffffffffffffffffffffffffffffffff1673ffffffffffffffffffffffffffffffffffffffff16815260200190815260200160002060008673ffffffffffffffffffffffffffffffffffffffff1673ffffffffffffffffffffffffffffffffffffffff16815260200190815260200160002054905083811015610712576040517f08c379a000000000000000000000000000000000000000000000000000000000815260040161070990612167565b60405180910390fd5b61071f8286868403610c60565b60019250505092915050565b600080610736610c58565b9050610743818585610e2b565b600191505092915050565b6000600760003373ffffffffffffffffffffffffffffffffffffffff1673ffffffffffffffffffffffffffffffffffffffff1681526020019081526020016000209050610799611138565b6107ac3368056bc75e2d631000006111be565b5b6004816001018054905010156108865760006107c761131e565b90506000805b836001018054905081101561082057828460010182815481106107f3576107f26125d4565b5b9060005260206000200154141561080d5760019150610820565b808061081890612446565b9150506107cd565b508061087f5782600101829080600181540180825580915050600190039060005260206000200160009091909190915055818360030160006001866001018054905061086c9190612315565b8152602001908152602001600020819055505b50506107ad565b50565b6000600160008473ffffffffffffffffffffffffffffffffffffffff1673ffffffffffffffffffffffffffffffffffffffff16815260200190815260200160002060008373ffffffffffffffffffffffffffffffffffffffff1673ffffffffffffffffffffffffffffffffffffffff16815260200190815260200160002054905092915050565b600080606083600481511461095a576040517f08c379a0000000000000000000000000000000000000000000000000000000008152600401610951906120a7565b60405180910390fd5b6001151561096782611380565b1515146109a9576040517f08c379a00000000000000000000000000000000000000000000000000000000081526004016109a0906120c7565b60405180910390fd5b6109b285611429565b80945081955050506000600760003373ffffffffffffffffffffffffffffffffffffffff1673ffffffffffffffffffffffffffffffffffffffff1681526020019081526020016000209050683635c9adc5dea00000610a1033610567565b108015610a1d5750600484145b15610a2b57610a2a61074e565b5b683635c9adc5dea00000610a3e33610567565b108015610a4b5750600484105b15610ac657610a5984611565565b925060008160000160006101000a81548160ff021916908360ff1602179055507f724a5668431aac6c0fa9dcb7110322ca2fee6b029956d275c779ffcd6f0b06b48160000160009054906101000a900460ff168587604051610abd9392919061221b565b60405180910390a15b610ad933683635c9adc5dea0000061189a565b80600001600081819054906101000a900460ff1680929190610afa9061248f565b91906101000a81548160ff021916908360ff16021790555050858160020160008360000160009054906101000a900460ff1660ff1681526020019081526020016000209080519060200190610b50929190611a7b565b5060088160000160009054906101000a900460ff1660ff161180610b745750600484145b15610b8257610b8161074e565b5b60088160000160009054906101000a900460ff1660ff161115610bda576040517f08c379a0000000000000000000000000000000000000000000000000000000008152600401610bd190612147565b60405180910390fd5b610be384611565565b925060008160000160006101000a81548160ff021916908360ff1602179055507f724a5668431aac6c0fa9dcb7110322ca2fee6b029956d275c779ffcd6f0b06b48160000160009054906101000a900460ff168587604051610c479392919061221b565b60405180910390a150509193909250565b600033905090565b600073ffffffffffffffffffffffffffffffffffffffff168373ffffffffffffffffffffffffffffffffffffffff161415610cd0576040517f08c379a0000000000000000000000000000000000000000000000000000000008152600401610cc790612127565b60405180910390fd5b600073ffffffffffffffffffffffffffffffffffffffff168273ffffffffffffffffffffffffffffffffffffffff161415610d40576040517f08c379a0000000000000000000000000000000000000000000000000000000008152600401610d3790612047565b60405180910390fd5b80600160008573ffffffffffffffffffffffffffffffffffffffff1673ffffffffffffffffffffffffffffffffffffffff16815260200190815260200160002060008473ffffffffffffffffffffffffffffffffffffffff1673ffffffffffffffffffffffffffffffffffffffff168152602001908152602001600020819055508173ffffffffffffffffffffffffffffffffffffffff168373ffffffffffffffffffffffffffffffffffffffff167f8c5be1e5ebec7d5bd14f71427d1e84f3dd0314c0f7b2291e5b200ac8c7c3b92583604051610e1e91906121a7565b60405180910390a3505050565b600073ffffffffffffffffffffffffffffffffffffffff168373ffffffffffffffffffffffffffffffffffffffff161415610e9b576040517f08c379a0000000000000000000000000000000000000000000000000000000008152600401610e9290612107565b60405180910390fd5b600073ffffffffffffffffffffffffffffffffffffffff168273ffffffffffffffffffffffffffffffffffffffff161415610f0b576040517f08c379a0000000000000000000000000000000000000000000000000000000008152600401610f0290612007565b60405180910390fd5b610f16838383611a71565b60008060008573ffffffffffffffffffffffffffffffffffffffff1673ffffffffffffffffffffffffffffffffffffffff16815260200190815260200160002054905081811015610f9c576040517f08c379a0000000000000000000000000000000000000000000000000000000008152600401610f9390612087565b60405180910390fd5b8181036000808673ffffffffffffffffffffffffffffffffffffffff1673ffffffffffffffffffffffffffffffffffffffff16815260200190815260200160002081905550816000808573ffffffffffffffffffffffffffffffffffffffff1673ffffffffffffffffffffffffffffffffffffffff168152602001908152602001600020600082825461102f91906122bf565b925050819055508273ffffffffffffffffffffffffffffffffffffffff168473ffffffffffffffffffffffffffffffffffffffff167fddf252ad1be2c89b69c2b068fc378daa952ba7f163c4a11628f55a4df523b3ef8460405161109391906121a7565b60405180910390a36110a6848484611a76565b50505050565b60006110b88484610889565b90507fffffffffffffffffffffffffffffffffffffffffffffffffffffffffffffffff81146111325781811015611124576040517f08c379a000000000000000000000000000000000000000000000000000000000815260040161111b90612067565b60405180910390fd5b6111318484848403610c60565b5b50505050565b6000600760003373ffffffffffffffffffffffffffffffffffffffff1673ffffffffffffffffffffffffffffffffffffffff16815260200190815260200160002090505b6000816001018054905011156111bb57806001018054806111a05761119f6125a5565b5b6001900381819060005260206000200160009055905561117c565b50565b600073ffffffffffffffffffffffffffffffffffffffff168273ffffffffffffffffffffffffffffffffffffffff16141561122e576040517f08c379a000000000000000000000000000000000000000000000000000000000815260040161122590612187565b60405180910390fd5b61123a60008383611a71565b806002600082825461124c91906122bf565b92505081905550806000808473ffffffffffffffffffffffffffffffffffffffff1673ffffffffffffffffffffffffffffffffffffffff16815260200190815260200160002060008282546112a191906122bf565b925050819055508173ffffffffffffffffffffffffffffffffffffffff16600073ffffffffffffffffffffffffffffffffffffffff167fddf252ad1be2c89b69c2b068fc378daa952ba7f163c4a11628f55a4df523b3ef8360405161130691906121a7565b60405180910390a361131a60008383611a76565b5050565b600080600a905060016005600082825461133891906122bf565b9250508190555080426005543360405160200161135793929190611f8d565b6040516020818303038152906040528051906020012060001c61137a91906124e7565b91505090565b600080600090505b825181101561141e5760008382815181106113a6576113a56125d4565b5b6020026020010151905060005b8451811015611409578083141580156113e557508481815181106113da576113d96125d4565b5b602002602001015182145b156113f65760009350505050611424565b808061140190612446565b9150506113b3565b5050808061141690612446565b915050611388565b50600190505b919050565b6000806000600760003373ffffffffffffffffffffffffffffffffffffffff1673ffffffffffffffffffffffffffffffffffffffff168152602001908152602001600020905060005b845181101561155e5760008582815181106114905761148f6125d4565b5b6020026020010151905060005b83600101805490508110156115495780831480156114da57508360010181815481106114cc576114cb6125d4565b5b906000526020600020015482145b156114f25784806114ea90612446565b955050611536565b8083141580156115215750836001018181548110611513576115126125d4565b5b906000526020600020015482145b1561153557858061153190612446565b9650505b5b808061154190612446565b91505061149d565b5050808061155690612446565b915050611472565b5050915091565b60606000600760003373ffffffffffffffffffffffffffffffffffffffff1673ffffffffffffffffffffffffffffffffffffffff168152602001908152602001600020905060048160000160009054906101000a900460ff1660ff16111580156115cf5750600483145b15611644576040518060400160405280600981526020017f416c6c204465616421000000000000000000000000000000000000000000000081525091507f819b4d2d513904cf19fbe6a72ae78ae4887b651739debf1d083ab71a7a584d778260405161163b9190611fe5565b60405180910390a15b60048160000160009054906101000a900460ff1660ff1611801561167c575060088160000160009054906101000a900460ff1660ff16105b80156116885750600483145b156116fd576040518060400160405280600981526020017f416c6c204465616421000000000000000000000000000000000000000000000081525091507f819b4d2d513904cf19fbe6a72ae78ae4887b651739debf1d083ab71a7a584d77826040516116f49190611fe5565b60405180910390a15b60068160000160009054906101000a900460ff1660ff16148015611722575060048314155b15611797576040518060400160405280600d81526020017f3220747269616c73206c6566740000000000000000000000000000000000000081525091507fa52cac5f157d10d7a83ee566ef1576b43ae8e203f332b50b861ca430e030d2638260405161178e9190611fe5565b60405180910390a15b60078160000160009054906101000a900460ff1660ff161480156117bc575060048314155b15611831576040518060400160405280600b81526020017f46696e616c20747269616c00000000000000000000000000000000000000000081525091507fa52cac5f157d10d7a83ee566ef1576b43ae8e203f332b50b861ca430e030d263826040516118289190611fe5565b60405180910390a15b60088160000160009054906101000a900460ff1660ff16148015611856575060048314155b15611894576040518060400160405280600881526020017f596f75204c6f737400000000000000000000000000000000000000000000000081525091505b50919050565b600073ffffffffffffffffffffffffffffffffffffffff168273ffffffffffffffffffffffffffffffffffffffff16141561190a576040517f08c379a0000000000000000000000000000000000000000000000000000000008152600401611901906120e7565b60405180910390fd5b61191682600083611a71565b60008060008473ffffffffffffffffffffffffffffffffffffffff1673ffffffffffffffffffffffffffffffffffffffff1681526020019081526020016000205490508181101561199c576040517f08c379a000000000000000000000000000000000000000000000000000000000815260040161199390612027565b60405180910390fd5b8181036000808573ffffffffffffffffffffffffffffffffffffffff1673ffffffffffffffffffffffffffffffffffffffff1681526020019081526020016000208190555081600260008282546119f39190612315565b92505081905550600073ffffffffffffffffffffffffffffffffffffffff168373ffffffffffffffffffffffffffffffffffffffff167fddf252ad1be2c89b69c2b068fc378daa952ba7f163c4a11628f55a4df523b3ef84604051611a5891906121a7565b60405180910390a3611a6c83600084611a76565b505050565b505050565b505050565b828054828255906000526020600020908101928215611ab7579160200282015b82811115611ab6578251825591602001919060010190611a9b565b5b509050611ac49190611ac8565b5090565b5b80821115611ae1576000816000905550600101611ac9565b5090565b6000611af8611af384612277565b612252565b90508083825260208201905082856020860282011115611b1b57611b1a612637565b5b60005b85811015611b4b5781611b318882611b98565b845260208401935060208301925050600181019050611b1e565b5050509392505050565b600081359050611b64816129a9565b92915050565b600082601f830112611b7f57611b7e612632565b5b8135611b8f848260208601611ae5565b91505092915050565b600081359050611ba7816129c0565b92915050565b600060208284031215611bc357611bc2612641565b5b6000611bd184828501611b55565b91505092915050565b60008060408385031215611bf157611bf0612641565b5b6000611bff85828601611b55565b9250506020611c1085828601611b55565b9150509250929050565b600080600060608486031215611c3357611c32612641565b5b6000611c4186828701611b55565b9350506020611c5286828701611b55565b9250506040611c6386828701611b98565b9150509250925092565b60008060408385031215611c8457611c83612641565b5b6000611c9285828601611b55565b9250506020611ca385828601611b98565b9150509250929050565b600060208284031215611cc357611cc2612641565b5b600082013567ffffffffffffffff811115611ce157611ce061263c565b5b611ced84828501611b6a565b91505092915050565b600060208284031215611d0c57611d0b612641565b5b6000611d1a84828501611b98565b91505092915050565b611d34611d2f82612349565b6124b9565b82525050565b611d438161235b565b82525050565b6000611d54826122a3565b611d5e81856122ae565b9350611d6e8185602086016123b0565b611d7781612646565b840191505092915050565b6000611d8f6023836122ae565b9150611d9a82612664565b604082019050919050565b6000611db26022836122ae565b9150611dbd826126b3565b604082019050919050565b6000611dd56022836122ae565b9150611de082612702565b604082019050919050565b6000611df8601d836122ae565b9150611e0382612751565b602082019050919050565b6000611e1b6026836122ae565b9150611e268261277a565b604082019050919050565b6000611e3e600f836122ae565b9150611e49826127c9565b602082019050919050565b6000611e616016836122ae565b9150611e6c826127f2565b602082019050919050565b6000611e846021836122ae565b9150611e8f8261281b565b604082019050919050565b6000611ea76025836122ae565b9150611eb28261286a565b604082019050919050565b6000611eca6024836122ae565b9150611ed5826128b9565b604082019050919050565b6000611eed6010836122ae565b9150611ef882612908565b602082019050919050565b6000611f106025836122ae565b9150611f1b82612931565b604082019050919050565b6000611f33601f836122ae565b9150611f3e82612980565b602082019050919050565b611f5281612387565b82525050565b611f69611f6482612387565b6124dd565b82525050565b611f788161239e565b82525050565b611f8781612391565b82525050565b6000611f998286611f58565b602082019150611fa98285611f58565b602082019150611fb98284611d23565b601482019150819050949350505050565b6000602082019050611fdf6000830184611d3a565b92915050565b60006020820190508181036000830152611fff8184611d49565b905092915050565b6000602082019050818103600083015261202081611d82565b9050919050565b6000602082019050818103600083015261204081611da5565b9050919050565b6000602082019050818103600083015261206081611dc8565b9050919050565b6000602082019050818103600083015261208081611deb565b9050919050565b600060208201905081810360008301526120a081611e0e565b9050919050565b600060208201905081810360008301526120c081611e31565b9050919050565b600060208201905081810360008301526120e081611e54565b9050919050565b6000602082019050818103600083015261210081611e77565b9050919050565b6000602082019050818103600083015261212081611e9a565b9050919050565b6000602082019050818103600083015261214081611ebd565b9050919050565b6000602082019050818103600083015261216081611ee0565b9050919050565b6000602082019050818103600083015261218081611f03565b9050919050565b600060208201905081810360008301526121a081611f26565b9050919050565b60006020820190506121bc6000830184611f49565b92915050565b60006060820190506121d76000830186611f49565b6121e46020830185611f49565b81810360408301526121f68184611d49565b9050949350505050565b60006020820190506122156000830184611f7e565b92915050565b60006060820190506122306000830186611f6f565b61223d6020830185611f49565b61224a6040830184611f49565b949350505050565b600061225c61226d565b90506122688282612415565b919050565b6000604051905090565b600067ffffffffffffffff82111561229257612291612603565b5b602082029050602081019050919050565b600081519050919050565b600082825260208201905092915050565b60006122ca82612387565b91506122d583612387565b9250827fffffffffffffffffffffffffffffffffffffffffffffffffffffffffffffffff0382111561230a57612309612518565b5b828201905092915050565b600061232082612387565b915061232b83612387565b92508282101561233e5761233d612518565b5b828203905092915050565b600061235482612367565b9050919050565b60008115159050919050565b600073ffffffffffffffffffffffffffffffffffffffff82169050919050565b6000819050919050565b600060ff82169050919050565b60006123a982612391565b9050919050565b60005b838110156123ce5780820151818401526020810190506123b3565b838111156123dd576000848401525b50505050565b600060028204905060018216806123fb57607f821691505b6020821081141561240f5761240e612576565b5b50919050565b61241e82612646565b810181811067ffffffffffffffff8211171561243d5761243c612603565b5b80604052505050565b600061245182612387565b91507fffffffffffffffffffffffffffffffffffffffffffffffffffffffffffffffff82141561248457612483612518565b5b600182019050919050565b600061249a82612391565b915060ff8214156124ae576124ad612518565b5b600182019050919050565b60006124c4826124cb565b9050919050565b60006124d682612657565b9050919050565b6000819050919050565b60006124f282612387565b91506124fd83612387565b92508261250d5761250c612547565b5b828206905092915050565b7f4e487b7100000000000000000000000000000000000000000000000000000000600052601160045260246000fd5b7f4e487b7100000000000000000000000000000000000000000000000000000000600052601260045260246000fd5b7f4e487b7100000000000000000000000000000000000000000000000000000000600052602260045260246000fd5b7f4e487b7100000000000000000000000000000000000000000000000000000000600052603160045260246000fd5b7f4e487b7100000000000000000000000000000000000000000000000000000000600052603260045260246000fd5b7f4e487b7100000000000000000000000000000000000000000000000000000000600052604160045260246000fd5b600080fd5b600080fd5b600080fd5b600080fd5b6000601f19601f8301169050919050565b60008160601b9050919050565b7f45524332303a207472616e7366657220746f20746865207a65726f206164647260008201527f6573730000000000000000000000000000000000000000000000000000000000602082015250565b7f45524332303a206275726e20616d6f756e7420657863656564732062616c616e60008201527f6365000000000000000000000000000000000000000000000000000000000000602082015250565b7f45524332303a20617070726f766520746f20746865207a65726f20616464726560008201527f7373000000000000000000000000000000000000000000000000000000000000602082015250565b7f45524332303a20696e73756666696369656e7420616c6c6f77616e6365000000600082015250565b7f45524332303a207472616e7366657220616d6f756e742065786365656473206260008201527f616c616e63650000000000000000000000000000000000000000000000000000602082015250565b7f456e7465722034206e756d626572730000000000000000000000000000000000600082015250565b7f4e756d62657273206d75737420626520756e6971756500000000000000000000600082015250565b7f45524332303a206275726e2066726f6d20746865207a65726f2061646472657360008201527f7300000000000000000000000000000000000000000000000000000000000000602082015250565b7f45524332303a207472616e736665722066726f6d20746865207a65726f20616460008201527f6472657373000000000000000000000000000000000000000000000000000000602082015250565b7f45524332303a20617070726f76652066726f6d20746865207a65726f2061646460008201527f7265737300000000000000000000000000000000000000000000000000000000602082015250565b7f596f75204c6f737420616c726561647900000000000000000000000000000000600082015250565b7f45524332303a2064656372656173656420616c6c6f77616e63652062656c6f7760008201527f207a65726f000000000000000000000000000000000000000000000000000000602082015250565b7f45524332303a206d696e7420746f20746865207a65726f206164647265737300600082015250565b6129b281612349565b81146129bd57600080fd5b50565b6129c981612387565b81146129d457600080fd5b5056fea26469706673582212207e2398a07df545a17327d61da0b20a6311d160955f52338f62a0c46c607c1faa64736f6c63430008070033",
          "opcodes": "PUSH1 0x80 PUSH1 0x40 MSTORE CALLVALUE DUP1 ISZERO PUSH3 0x11 JUMPI PUSH1 0x0 DUP1 REVERT JUMPDEST POP PUSH1 0x40 MLOAD DUP1 PUSH1 0x40 ADD PUSH1 0x40 MSTORE DUP1 PUSH1 0xF DUP2 MSTORE PUSH1 0x20 ADD PUSH32 0x44656164206F7220576F756E6465640000000000000000000000000000000000 DUP2 MSTORE POP PUSH1 0x40 MLOAD DUP1 PUSH1 0x40 ADD PUSH1 0x40 MSTORE DUP1 PUSH1 0x3 DUP2 MSTORE PUSH1 0x20 ADD PUSH32 0x444F570000000000000000000000000000000000000000000000000000000000 DUP2 MSTORE POP DUP2 PUSH1 0x3 SWAP1 DUP1 MLOAD SWAP1 PUSH1 0x20 ADD SWAP1 PUSH3 0x96 SWAP3 SWAP2 SWAP1 PUSH3 0x298 JUMP JUMPDEST POP DUP1 PUSH1 0x4 SWAP1 DUP1 MLOAD SWAP1 PUSH1 0x20 ADD SWAP1 PUSH3 0xAF SWAP3 SWAP2 SWAP1 PUSH3 0x298 JUMP JUMPDEST POP POP POP CALLER PUSH1 0x6 PUSH1 0x0 PUSH2 0x100 EXP DUP2 SLOAD DUP2 PUSH20 0xFFFFFFFFFFFFFFFFFFFFFFFFFFFFFFFFFFFFFFFF MUL NOT AND SWAP1 DUP4 PUSH20 0xFFFFFFFFFFFFFFFFFFFFFFFFFFFFFFFFFFFFFFFF AND MUL OR SWAP1 SSTORE POP PUSH3 0x10F ADDRESS PUSH10 0xD3C21BCECCEDA1000000 PUSH3 0x115 PUSH1 0x20 SHL PUSH1 0x20 SHR JUMP JUMPDEST PUSH3 0x4F4 JUMP JUMPDEST PUSH1 0x0 PUSH20 0xFFFFFFFFFFFFFFFFFFFFFFFFFFFFFFFFFFFFFFFF AND DUP3 PUSH20 0xFFFFFFFFFFFFFFFFFFFFFFFFFFFFFFFFFFFFFFFF AND EQ ISZERO PUSH3 0x188 JUMPI PUSH1 0x40 MLOAD PUSH32 0x8C379A000000000000000000000000000000000000000000000000000000000 DUP2 MSTORE PUSH1 0x4 ADD PUSH3 0x17F SWAP1 PUSH3 0x380 JUMP JUMPDEST PUSH1 0x40 MLOAD DUP1 SWAP2 SUB SWAP1 REVERT JUMPDEST PUSH3 0x19C PUSH1 0x0 DUP4 DUP4 PUSH3 0x28E PUSH1 0x20 SHL PUSH1 0x20 SHR JUMP JUMPDEST DUP1 PUSH1 0x2 PUSH1 0x0 DUP3 DUP3 SLOAD PUSH3 0x1B0 SWAP2 SWAP1 PUSH3 0x3D0 JUMP JUMPDEST SWAP3 POP POP DUP2 SWAP1 SSTORE POP DUP1 PUSH1 0x0 DUP1 DUP5 PUSH20 0xFFFFFFFFFFFFFFFFFFFFFFFFFFFFFFFFFFFFFFFF AND PUSH20 0xFFFFFFFFFFFFFFFFFFFFFFFFFFFFFFFFFFFFFFFF AND DUP2 MSTORE PUSH1 0x20 ADD SWAP1 DUP2 MSTORE PUSH1 0x20 ADD PUSH1 0x0 KECCAK256 PUSH1 0x0 DUP3 DUP3 SLOAD PUSH3 0x207 SWAP2 SWAP1 PUSH3 0x3D0 JUMP JUMPDEST SWAP3 POP POP DUP2 SWAP1 SSTORE POP DUP2 PUSH20 0xFFFFFFFFFFFFFFFFFFFFFFFFFFFFFFFFFFFFFFFF AND PUSH1 0x0 PUSH20 0xFFFFFFFFFFFFFFFFFFFFFFFFFFFFFFFFFFFFFFFF AND PUSH32 0xDDF252AD1BE2C89B69C2B068FC378DAA952BA7F163C4A11628F55A4DF523B3EF DUP4 PUSH1 0x40 MLOAD PUSH3 0x26E SWAP2 SWAP1 PUSH3 0x3A2 JUMP JUMPDEST PUSH1 0x40 MLOAD DUP1 SWAP2 SUB SWAP1 LOG3 PUSH3 0x28A PUSH1 0x0 DUP4 DUP4 PUSH3 0x293 PUSH1 0x20 SHL PUSH1 0x20 SHR JUMP JUMPDEST POP POP JUMP JUMPDEST POP POP POP JUMP JUMPDEST POP POP POP JUMP JUMPDEST DUP3 DUP1 SLOAD PUSH3 0x2A6 SWAP1 PUSH3 0x437 JUMP JUMPDEST SWAP1 PUSH1 0x0 MSTORE PUSH1 0x20 PUSH1 0x0 KECCAK256 SWAP1 PUSH1 0x1F ADD PUSH1 0x20 SWAP1 DIV DUP2 ADD SWAP3 DUP3 PUSH3 0x2CA JUMPI PUSH1 0x0 DUP6 SSTORE PUSH3 0x316 JUMP JUMPDEST DUP3 PUSH1 0x1F LT PUSH3 0x2E5 JUMPI DUP1 MLOAD PUSH1 0xFF NOT AND DUP4 DUP1 ADD OR DUP6 SSTORE PUSH3 0x316 JUMP JUMPDEST DUP3 DUP1 ADD PUSH1 0x1 ADD DUP6 SSTORE DUP3 ISZERO PUSH3 0x316 JUMPI SWAP2 DUP3 ADD JUMPDEST DUP3 DUP2 GT ISZERO PUSH3 0x315 JUMPI DUP3 MLOAD DUP3 SSTORE SWAP2 PUSH1 0x20 ADD SWAP2 SWAP1 PUSH1 0x1 ADD SWAP1 PUSH3 0x2F8 JUMP JUMPDEST JUMPDEST POP SWAP1 POP PUSH3 0x325 SWAP2 SWAP1 PUSH3 0x329 JUMP JUMPDEST POP SWAP1 JUMP JUMPDEST JUMPDEST DUP1 DUP3 GT ISZERO PUSH3 0x344 JUMPI PUSH1 0x0 DUP2 PUSH1 0x0 SWAP1 SSTORE POP PUSH1 0x1 ADD PUSH3 0x32A JUMP JUMPDEST POP SWAP1 JUMP JUMPDEST PUSH1 0x0 PUSH3 0x357 PUSH1 0x1F DUP4 PUSH3 0x3BF JUMP JUMPDEST SWAP2 POP PUSH3 0x364 DUP3 PUSH3 0x4CB JUMP JUMPDEST PUSH1 0x20 DUP3 ADD SWAP1 POP SWAP2 SWAP1 POP JUMP JUMPDEST PUSH3 0x37A DUP2 PUSH3 0x42D JUMP JUMPDEST DUP3 MSTORE POP POP JUMP JUMPDEST PUSH1 0x0 PUSH1 0x20 DUP3 ADD SWAP1 POP DUP2 DUP2 SUB PUSH1 0x0 DUP4 ADD MSTORE PUSH3 0x39B DUP2 PUSH3 0x348 JUMP JUMPDEST SWAP1 POP SWAP2 SWAP1 POP JUMP JUMPDEST PUSH1 0x0 PUSH1 0x20 DUP3 ADD SWAP1 POP PUSH3 0x3B9 PUSH1 0x0 DUP4 ADD DUP5 PUSH3 0x36F JUMP JUMPDEST SWAP3 SWAP2 POP POP JUMP JUMPDEST PUSH1 0x0 DUP3 DUP3 MSTORE PUSH1 0x20 DUP3 ADD SWAP1 POP SWAP3 SWAP2 POP POP JUMP JUMPDEST PUSH1 0x0 PUSH3 0x3DD DUP3 PUSH3 0x42D JUMP JUMPDEST SWAP2 POP PUSH3 0x3EA DUP4 PUSH3 0x42D JUMP JUMPDEST SWAP3 POP DUP3 PUSH32 0xFFFFFFFFFFFFFFFFFFFFFFFFFFFFFFFFFFFFFFFFFFFFFFFFFFFFFFFFFFFFFFFF SUB DUP3 GT ISZERO PUSH3 0x422 JUMPI PUSH3 0x421 PUSH3 0x46D JUMP JUMPDEST JUMPDEST DUP3 DUP3 ADD SWAP1 POP SWAP3 SWAP2 POP POP JUMP JUMPDEST PUSH1 0x0 DUP2 SWAP1 POP SWAP2 SWAP1 POP JUMP JUMPDEST PUSH1 0x0 PUSH1 0x2 DUP3 DIV SWAP1 POP PUSH1 0x1 DUP3 AND DUP1 PUSH3 0x450 JUMPI PUSH1 0x7F DUP3 AND SWAP2 POP JUMPDEST PUSH1 0x20 DUP3 LT DUP2 EQ ISZERO PUSH3 0x467 JUMPI PUSH3 0x466 PUSH3 0x49C JUMP JUMPDEST JUMPDEST POP SWAP2 SWAP1 POP JUMP JUMPDEST PUSH32 0x4E487B7100000000000000000000000000000000000000000000000000000000 PUSH1 0x0 MSTORE PUSH1 0x11 PUSH1 0x4 MSTORE PUSH1 0x24 PUSH1 0x0 REVERT JUMPDEST PUSH32 0x4E487B7100000000000000000000000000000000000000000000000000000000 PUSH1 0x0 MSTORE PUSH1 0x22 PUSH1 0x4 MSTORE PUSH1 0x24 PUSH1 0x0 REVERT JUMPDEST PUSH32 0x45524332303A206D696E7420746F20746865207A65726F206164647265737300 PUSH1 0x0 DUP3 ADD MSTORE POP JUMP JUMPDEST PUSH2 0x2A0D DUP1 PUSH3 0x504 PUSH1 0x0 CODECOPY PUSH1 0x0 RETURN INVALID PUSH1 0x80 PUSH1 0x40 MSTORE CALLVALUE DUP1 ISZERO PUSH2 0x10 JUMPI PUSH1 0x0 DUP1 REVERT JUMPDEST POP PUSH1 0x4 CALLDATASIZE LT PUSH2 0xEA JUMPI PUSH1 0x0 CALLDATALOAD PUSH1 0xE0 SHR DUP1 PUSH4 0x70A08231 GT PUSH2 0x8C JUMPI DUP1 PUSH4 0xA9059CBB GT PUSH2 0x66 JUMPI DUP1 PUSH4 0xA9059CBB EQ PUSH2 0x273 JUMPI DUP1 PUSH4 0xD65AB5F2 EQ PUSH2 0x2A3 JUMPI DUP1 PUSH4 0xDD62ED3E EQ PUSH2 0x2AD JUMPI DUP1 PUSH4 0xFCB1D746 EQ PUSH2 0x2DD JUMPI PUSH2 0xEA JUMP JUMPDEST DUP1 PUSH4 0x70A08231 EQ PUSH2 0x1F5 JUMPI DUP1 PUSH4 0x95D89B41 EQ PUSH2 0x225 JUMPI DUP1 PUSH4 0xA457C2D7 EQ PUSH2 0x243 JUMPI PUSH2 0xEA JUMP JUMPDEST DUP1 PUSH4 0x18160DDD GT PUSH2 0xC8 JUMPI DUP1 PUSH4 0x18160DDD EQ PUSH2 0x159 JUMPI DUP1 PUSH4 0x23B872DD EQ PUSH2 0x177 JUMPI DUP1 PUSH4 0x313CE567 EQ PUSH2 0x1A7 JUMPI DUP1 PUSH4 0x39509351 EQ PUSH2 0x1C5 JUMPI PUSH2 0xEA JUMP JUMPDEST DUP1 PUSH4 0x6FDDE03 EQ PUSH2 0xEF JUMPI DUP1 PUSH4 0x95EA7B3 EQ PUSH2 0x10D JUMPI DUP1 PUSH4 0xB4DAB98 EQ PUSH2 0x13D JUMPI JUMPDEST PUSH1 0x0 DUP1 REVERT JUMPDEST PUSH2 0xF7 PUSH2 0x30F JUMP JUMPDEST PUSH1 0x40 MLOAD PUSH2 0x104 SWAP2 SWAP1 PUSH2 0x1FE5 JUMP JUMPDEST PUSH1 0x40 MLOAD DUP1 SWAP2 SUB SWAP1 RETURN JUMPDEST PUSH2 0x127 PUSH1 0x4 DUP1 CALLDATASIZE SUB DUP2 ADD SWAP1 PUSH2 0x122 SWAP2 SWAP1 PUSH2 0x1C6D JUMP JUMPDEST PUSH2 0x3A1 JUMP JUMPDEST PUSH1 0x40 MLOAD PUSH2 0x134 SWAP2 SWAP1 PUSH2 0x1FCA JUMP JUMPDEST PUSH1 0x40 MLOAD DUP1 SWAP2 SUB SWAP1 RETURN JUMPDEST PUSH2 0x157 PUSH1 0x4 DUP1 CALLDATASIZE SUB DUP2 ADD SWAP1 PUSH2 0x152 SWAP2 SWAP1 PUSH2 0x1CF6 JUMP JUMPDEST PUSH2 0x3C4 JUMP JUMPDEST STOP JUMPDEST PUSH2 0x161 PUSH2 0x47B JUMP JUMPDEST PUSH1 0x40 MLOAD PUSH2 0x16E SWAP2 SWAP1 PUSH2 0x21A7 JUMP JUMPDEST PUSH1 0x40 MLOAD DUP1 SWAP2 SUB SWAP1 RETURN JUMPDEST PUSH2 0x191 PUSH1 0x4 DUP1 CALLDATASIZE SUB DUP2 ADD SWAP1 PUSH2 0x18C SWAP2 SWAP1 PUSH2 0x1C1A JUMP JUMPDEST PUSH2 0x485 JUMP JUMPDEST PUSH1 0x40 MLOAD PUSH2 0x19E SWAP2 SWAP1 PUSH2 0x1FCA JUMP JUMPDEST PUSH1 0x40 MLOAD DUP1 SWAP2 SUB SWAP1 RETURN JUMPDEST PUSH2 0x1AF PUSH2 0x4B4 JUMP JUMPDEST PUSH1 0x40 MLOAD PUSH2 0x1BC SWAP2 SWAP1 PUSH2 0x2200 JUMP JUMPDEST PUSH1 0x40 MLOAD DUP1 SWAP2 SUB SWAP1 RETURN JUMPDEST PUSH2 0x1DF PUSH1 0x4 DUP1 CALLDATASIZE SUB DUP2 ADD SWAP1 PUSH2 0x1DA SWAP2 SWAP1 PUSH2 0x1C6D JUMP JUMPDEST PUSH2 0x4BD JUMP JUMPDEST PUSH1 0x40 MLOAD PUSH2 0x1EC SWAP2 SWAP1 PUSH2 0x1FCA JUMP JUMPDEST PUSH1 0x40 MLOAD DUP1 SWAP2 SUB SWAP1 RETURN JUMPDEST PUSH2 0x20F PUSH1 0x4 DUP1 CALLDATASIZE SUB DUP2 ADD SWAP1 PUSH2 0x20A SWAP2 SWAP1 PUSH2 0x1BAD JUMP JUMPDEST PUSH2 0x567 JUMP JUMPDEST PUSH1 0x40 MLOAD PUSH2 0x21C SWAP2 SWAP1 PUSH2 0x21A7 JUMP JUMPDEST PUSH1 0x40 MLOAD DUP1 SWAP2 SUB SWAP1 RETURN JUMPDEST PUSH2 0x22D PUSH2 0x5AF JUMP JUMPDEST PUSH1 0x40 MLOAD PUSH2 0x23A SWAP2 SWAP1 PUSH2 0x1FE5 JUMP JUMPDEST PUSH1 0x40 MLOAD DUP1 SWAP2 SUB SWAP1 RETURN JUMPDEST PUSH2 0x25D PUSH1 0x4 DUP1 CALLDATASIZE SUB DUP2 ADD SWAP1 PUSH2 0x258 SWAP2 SWAP1 PUSH2 0x1C6D JUMP JUMPDEST PUSH2 0x641 JUMP JUMPDEST PUSH1 0x40 MLOAD PUSH2 0x26A SWAP2 SWAP1 PUSH2 0x1FCA JUMP JUMPDEST PUSH1 0x40 MLOAD DUP1 SWAP2 SUB SWAP1 RETURN JUMPDEST PUSH2 0x28D PUSH1 0x4 DUP1 CALLDATASIZE SUB DUP2 ADD SWAP1 PUSH2 0x288 SWAP2 SWAP1 PUSH2 0x1C6D JUMP JUMPDEST PUSH2 0x72B JUMP JUMPDEST PUSH1 0x40 MLOAD PUSH2 0x29A SWAP2 SWAP1 PUSH2 0x1FCA JUMP JUMPDEST PUSH1 0x40 MLOAD DUP1 SWAP2 SUB SWAP1 RETURN JUMPDEST PUSH2 0x2AB PUSH2 0x74E JUMP JUMPDEST STOP JUMPDEST PUSH2 0x2C7 PUSH1 0x4 DUP1 CALLDATASIZE SUB DUP2 ADD SWAP1 PUSH2 0x2C2 SWAP2 SWAP1 PUSH2 0x1BDA JUMP JUMPDEST PUSH2 0x889 JUMP JUMPDEST PUSH1 0x40 MLOAD PUSH2 0x2D4 SWAP2 SWAP1 PUSH2 0x21A7 JUMP JUMPDEST PUSH1 0x40 MLOAD DUP1 SWAP2 SUB SWAP1 RETURN JUMPDEST PUSH2 0x2F7 PUSH1 0x4 DUP1 CALLDATASIZE SUB DUP2 ADD SWAP1 PUSH2 0x2F2 SWAP2 SWAP1 PUSH2 0x1CAD JUMP JUMPDEST PUSH2 0x910 JUMP JUMPDEST PUSH1 0x40 MLOAD PUSH2 0x306 SWAP4 SWAP3 SWAP2 SWAP1 PUSH2 0x21C2 JUMP JUMPDEST PUSH1 0x40 MLOAD DUP1 SWAP2 SUB SWAP1 RETURN JUMPDEST PUSH1 0x60 PUSH1 0x3 DUP1 SLOAD PUSH2 0x31E SWAP1 PUSH2 0x23E3 JUMP JUMPDEST DUP1 PUSH1 0x1F ADD PUSH1 0x20 DUP1 SWAP2 DIV MUL PUSH1 0x20 ADD PUSH1 0x40 MLOAD SWAP1 DUP2 ADD PUSH1 0x40 MSTORE DUP1 SWAP3 SWAP2 SWAP1 DUP2 DUP2 MSTORE PUSH1 0x20 ADD DUP3 DUP1 SLOAD PUSH2 0x34A SWAP1 PUSH2 0x23E3 JUMP JUMPDEST DUP1 ISZERO PUSH2 0x397 JUMPI DUP1 PUSH1 0x1F LT PUSH2 0x36C JUMPI PUSH2 0x100 DUP1 DUP4 SLOAD DIV MUL DUP4 MSTORE SWAP2 PUSH1 0x20 ADD SWAP2 PUSH2 0x397 JUMP JUMPDEST DUP3 ADD SWAP2 SWAP1 PUSH1 0x0 MSTORE PUSH1 0x20 PUSH1 0x0 KECCAK256 SWAP1 JUMPDEST DUP2 SLOAD DUP2 MSTORE SWAP1 PUSH1 0x1 ADD SWAP1 PUSH1 0x20 ADD DUP1 DUP4 GT PUSH2 0x37A JUMPI DUP3 SWAP1 SUB PUSH1 0x1F AND DUP3 ADD SWAP2 JUMPDEST POP POP POP POP POP SWAP1 POP SWAP1 JUMP JUMPDEST PUSH1 0x0 DUP1 PUSH2 0x3AC PUSH2 0xC58 JUMP JUMPDEST SWAP1 POP PUSH2 0x3B9 DUP2 DUP6 DUP6 PUSH2 0xC60 JUMP JUMPDEST PUSH1 0x1 SWAP2 POP POP SWAP3 SWAP2 POP POP JUMP JUMPDEST PUSH1 0x6 PUSH1 0x0 SWAP1 SLOAD SWAP1 PUSH2 0x100 EXP SWAP1 DIV PUSH20 0xFFFFFFFFFFFFFFFFFFFFFFFFFFFFFFFFFFFFFFFF AND PUSH20 0xFFFFFFFFFFFFFFFFFFFFFFFFFFFFFFFFFFFFFFFF AND CALLER PUSH20 0xFFFFFFFFFFFFFFFFFFFFFFFFFFFFFFFFFFFFFFFF AND EQ PUSH2 0x44B JUMPI PUSH1 0x40 MLOAD PUSH32 0x30CD747100000000000000000000000000000000000000000000000000000000 DUP2 MSTORE PUSH1 0x4 ADD PUSH1 0x40 MLOAD DUP1 SWAP2 SUB SWAP1 REVERT JUMPDEST PUSH2 0x478 ADDRESS PUSH1 0x6 PUSH1 0x0 SWAP1 SLOAD SWAP1 PUSH2 0x100 EXP SWAP1 DIV PUSH20 0xFFFFFFFFFFFFFFFFFFFFFFFFFFFFFFFFFFFFFFFF AND DUP4 PUSH2 0xE2B JUMP JUMPDEST POP JUMP JUMPDEST PUSH1 0x0 PUSH1 0x2 SLOAD SWAP1 POP SWAP1 JUMP JUMPDEST PUSH1 0x0 DUP1 PUSH2 0x490 PUSH2 0xC58 JUMP JUMPDEST SWAP1 POP PUSH2 0x49D DUP6 DUP3 DUP6 PUSH2 0x10AC JUMP JUMPDEST PUSH2 0x4A8 DUP6 DUP6 DUP6 PUSH2 0xE2B JUMP JUMPDEST PUSH1 0x1 SWAP2 POP POP SWAP4 SWAP3 POP POP POP JUMP JUMPDEST PUSH1 0x0 PUSH1 0x12 SWAP1 POP SWAP1 JUMP JUMPDEST PUSH1 0x0 DUP1 PUSH2 0x4C8 PUSH2 0xC58 JUMP JUMPDEST SWAP1 POP PUSH2 0x55C DUP2 DUP6 DUP6 PUSH1 0x1 PUSH1 0x0 DUP7 PUSH20 0xFFFFFFFFFFFFFFFFFFFFFFFFFFFFFFFFFFFFFFFF AND PUSH20 0xFFFFFFFFFFFFFFFFFFFFFFFFFFFFFFFFFFFFFFFF AND DUP2 MSTORE PUSH1 0x20 ADD SWAP1 DUP2 MSTORE PUSH1 0x20 ADD PUSH1 0x0 KECCAK256 PUSH1 0x0 DUP10 PUSH20 0xFFFFFFFFFFFFFFFFFFFFFFFFFFFFFFFFFFFFFFFF AND PUSH20 0xFFFFFFFFFFFFFFFFFFFFFFFFFFFFFFFFFFFFFFFF AND DUP2 MSTORE PUSH1 0x20 ADD SWAP1 DUP2 MSTORE PUSH1 0x20 ADD PUSH1 0x0 KECCAK256 SLOAD PUSH2 0x557 SWAP2 SWAP1 PUSH2 0x22BF JUMP JUMPDEST PUSH2 0xC60 JUMP JUMPDEST PUSH1 0x1 SWAP2 POP POP SWAP3 SWAP2 POP POP JUMP JUMPDEST PUSH1 0x0 DUP1 PUSH1 0x0 DUP4 PUSH20 0xFFFFFFFFFFFFFFFFFFFFFFFFFFFFFFFFFFFFFFFF AND PUSH20 0xFFFFFFFFFFFFFFFFFFFFFFFFFFFFFFFFFFFFFFFF AND DUP2 MSTORE PUSH1 0x20 ADD SWAP1 DUP2 MSTORE PUSH1 0x20 ADD PUSH1 0x0 KECCAK256 SLOAD SWAP1 POP SWAP2 SWAP1 POP JUMP JUMPDEST PUSH1 0x60 PUSH1 0x4 DUP1 SLOAD PUSH2 0x5BE SWAP1 PUSH2 0x23E3 JUMP JUMPDEST DUP1 PUSH1 0x1F ADD PUSH1 0x20 DUP1 SWAP2 DIV MUL PUSH1 0x20 ADD PUSH1 0x40 MLOAD SWAP1 DUP2 ADD PUSH1 0x40 MSTORE DUP1 SWAP3 SWAP2 SWAP1 DUP2 DUP2 MSTORE PUSH1 0x20 ADD DUP3 DUP1 SLOAD PUSH2 0x5EA SWAP1 PUSH2 0x23E3 JUMP JUMPDEST DUP1 ISZERO PUSH2 0x637 JUMPI DUP1 PUSH1 0x1F LT PUSH2 0x60C JUMPI PUSH2 0x100 DUP1 DUP4 SLOAD DIV MUL DUP4 MSTORE SWAP2 PUSH1 0x20 ADD SWAP2 PUSH2 0x637 JUMP JUMPDEST DUP3 ADD SWAP2 SWAP1 PUSH1 0x0 MSTORE PUSH1 0x20 PUSH1 0x0 KECCAK256 SWAP1 JUMPDEST DUP2 SLOAD DUP2 MSTORE SWAP1 PUSH1 0x1 ADD SWAP1 PUSH1 0x20 ADD DUP1 DUP4 GT PUSH2 0x61A JUMPI DUP3 SWAP1 SUB PUSH1 0x1F AND DUP3 ADD SWAP2 JUMPDEST POP POP POP POP POP SWAP1 POP SWAP1 JUMP JUMPDEST PUSH1 0x0 DUP1 PUSH2 0x64C PUSH2 0xC58 JUMP JUMPDEST SWAP1 POP PUSH1 0x0 PUSH1 0x1 PUSH1 0x0 DUP4 PUSH20 0xFFFFFFFFFFFFFFFFFFFFFFFFFFFFFFFFFFFFFFFF AND PUSH20 0xFFFFFFFFFFFFFFFFFFFFFFFFFFFFFFFFFFFFFFFF AND DUP2 MSTORE PUSH1 0x20 ADD SWAP1 DUP2 MSTORE PUSH1 0x20 ADD PUSH1 0x0 KECCAK256 PUSH1 0x0 DUP7 PUSH20 0xFFFFFFFFFFFFFFFFFFFFFFFFFFFFFFFFFFFFFFFF AND PUSH20 0xFFFFFFFFFFFFFFFFFFFFFFFFFFFFFFFFFFFFFFFF AND DUP2 MSTORE PUSH1 0x20 ADD SWAP1 DUP2 MSTORE PUSH1 0x20 ADD PUSH1 0x0 KECCAK256 SLOAD SWAP1 POP DUP4 DUP2 LT ISZERO PUSH2 0x712 JUMPI PUSH1 0x40 MLOAD PUSH32 0x8C379A000000000000000000000000000000000000000000000000000000000 DUP2 MSTORE PUSH1 0x4 ADD PUSH2 0x709 SWAP1 PUSH2 0x2167 JUMP JUMPDEST PUSH1 0x40 MLOAD DUP1 SWAP2 SUB SWAP1 REVERT JUMPDEST PUSH2 0x71F DUP3 DUP7 DUP7 DUP5 SUB PUSH2 0xC60 JUMP JUMPDEST PUSH1 0x1 SWAP3 POP POP POP SWAP3 SWAP2 POP POP JUMP JUMPDEST PUSH1 0x0 DUP1 PUSH2 0x736 PUSH2 0xC58 JUMP JUMPDEST SWAP1 POP PUSH2 0x743 DUP2 DUP6 DUP6 PUSH2 0xE2B JUMP JUMPDEST PUSH1 0x1 SWAP2 POP POP SWAP3 SWAP2 POP POP JUMP JUMPDEST PUSH1 0x0 PUSH1 0x7 PUSH1 0x0 CALLER PUSH20 0xFFFFFFFFFFFFFFFFFFFFFFFFFFFFFFFFFFFFFFFF AND PUSH20 0xFFFFFFFFFFFFFFFFFFFFFFFFFFFFFFFFFFFFFFFF AND DUP2 MSTORE PUSH1 0x20 ADD SWAP1 DUP2 MSTORE PUSH1 0x20 ADD PUSH1 0x0 KECCAK256 SWAP1 POP PUSH2 0x799 PUSH2 0x1138 JUMP JUMPDEST PUSH2 0x7AC CALLER PUSH9 0x56BC75E2D63100000 PUSH2 0x11BE JUMP JUMPDEST JUMPDEST PUSH1 0x4 DUP2 PUSH1 0x1 ADD DUP1 SLOAD SWAP1 POP LT ISZERO PUSH2 0x886 JUMPI PUSH1 0x0 PUSH2 0x7C7 PUSH2 0x131E JUMP JUMPDEST SWAP1 POP PUSH1 0x0 DUP1 JUMPDEST DUP4 PUSH1 0x1 ADD DUP1 SLOAD SWAP1 POP DUP2 LT ISZERO PUSH2 0x820 JUMPI DUP3 DUP5 PUSH1 0x1 ADD DUP3 DUP2 SLOAD DUP2 LT PUSH2 0x7F3 JUMPI PUSH2 0x7F2 PUSH2 0x25D4 JUMP JUMPDEST JUMPDEST SWAP1 PUSH1 0x0 MSTORE PUSH1 0x20 PUSH1 0x0 KECCAK256 ADD SLOAD EQ ISZERO PUSH2 0x80D JUMPI PUSH1 0x1 SWAP2 POP PUSH2 0x820 JUMP JUMPDEST DUP1 DUP1 PUSH2 0x818 SWAP1 PUSH2 0x2446 JUMP JUMPDEST SWAP2 POP POP PUSH2 0x7CD JUMP JUMPDEST POP DUP1 PUSH2 0x87F JUMPI DUP3 PUSH1 0x1 ADD DUP3 SWAP1 DUP1 PUSH1 0x1 DUP2 SLOAD ADD DUP1 DUP3 SSTORE DUP1 SWAP2 POP POP PUSH1 0x1 SWAP1 SUB SWAP1 PUSH1 0x0 MSTORE PUSH1 0x20 PUSH1 0x0 KECCAK256 ADD PUSH1 0x0 SWAP1 SWAP2 SWAP1 SWAP2 SWAP1 SWAP2 POP SSTORE DUP2 DUP4 PUSH1 0x3 ADD PUSH1 0x0 PUSH1 0x1 DUP7 PUSH1 0x1 ADD DUP1 SLOAD SWAP1 POP PUSH2 0x86C SWAP2 SWAP1 PUSH2 0x2315 JUMP JUMPDEST DUP2 MSTORE PUSH1 0x20 ADD SWAP1 DUP2 MSTORE PUSH1 0x20 ADD PUSH1 0x0 KECCAK256 DUP2 SWAP1 SSTORE POP JUMPDEST POP POP PUSH2 0x7AD JUMP JUMPDEST POP JUMP JUMPDEST PUSH1 0x0 PUSH1 0x1 PUSH1 0x0 DUP5 PUSH20 0xFFFFFFFFFFFFFFFFFFFFFFFFFFFFFFFFFFFFFFFF AND PUSH20 0xFFFFFFFFFFFFFFFFFFFFFFFFFFFFFFFFFFFFFFFF AND DUP2 MSTORE PUSH1 0x20 ADD SWAP1 DUP2 MSTORE PUSH1 0x20 ADD PUSH1 0x0 KECCAK256 PUSH1 0x0 DUP4 PUSH20 0xFFFFFFFFFFFFFFFFFFFFFFFFFFFFFFFFFFFFFFFF AND PUSH20 0xFFFFFFFFFFFFFFFFFFFFFFFFFFFFFFFFFFFFFFFF AND DUP2 MSTORE PUSH1 0x20 ADD SWAP1 DUP2 MSTORE PUSH1 0x20 ADD PUSH1 0x0 KECCAK256 SLOAD SWAP1 POP SWAP3 SWAP2 POP POP JUMP JUMPDEST PUSH1 0x0 DUP1 PUSH1 0x60 DUP4 PUSH1 0x4 DUP2 MLOAD EQ PUSH2 0x95A JUMPI PUSH1 0x40 MLOAD PUSH32 0x8C379A000000000000000000000000000000000000000000000000000000000 DUP2 MSTORE PUSH1 0x4 ADD PUSH2 0x951 SWAP1 PUSH2 0x20A7 JUMP JUMPDEST PUSH1 0x40 MLOAD DUP1 SWAP2 SUB SWAP1 REVERT JUMPDEST PUSH1 0x1 ISZERO ISZERO PUSH2 0x967 DUP3 PUSH2 0x1380 JUMP JUMPDEST ISZERO ISZERO EQ PUSH2 0x9A9 JUMPI PUSH1 0x40 MLOAD PUSH32 0x8C379A000000000000000000000000000000000000000000000000000000000 DUP2 MSTORE PUSH1 0x4 ADD PUSH2 0x9A0 SWAP1 PUSH2 0x20C7 JUMP JUMPDEST PUSH1 0x40 MLOAD DUP1 SWAP2 SUB SWAP1 REVERT JUMPDEST PUSH2 0x9B2 DUP6 PUSH2 0x1429 JUMP JUMPDEST DUP1 SWAP5 POP DUP2 SWAP6 POP POP POP PUSH1 0x0 PUSH1 0x7 PUSH1 0x0 CALLER PUSH20 0xFFFFFFFFFFFFFFFFFFFFFFFFFFFFFFFFFFFFFFFF AND PUSH20 0xFFFFFFFFFFFFFFFFFFFFFFFFFFFFFFFFFFFFFFFF AND DUP2 MSTORE PUSH1 0x20 ADD SWAP1 DUP2 MSTORE PUSH1 0x20 ADD PUSH1 0x0 KECCAK256 SWAP1 POP PUSH9 0x3635C9ADC5DEA00000 PUSH2 0xA10 CALLER PUSH2 0x567 JUMP JUMPDEST LT DUP1 ISZERO PUSH2 0xA1D JUMPI POP PUSH1 0x4 DUP5 EQ JUMPDEST ISZERO PUSH2 0xA2B JUMPI PUSH2 0xA2A PUSH2 0x74E JUMP JUMPDEST JUMPDEST PUSH9 0x3635C9ADC5DEA00000 PUSH2 0xA3E CALLER PUSH2 0x567 JUMP JUMPDEST LT DUP1 ISZERO PUSH2 0xA4B JUMPI POP PUSH1 0x4 DUP5 LT JUMPDEST ISZERO PUSH2 0xAC6 JUMPI PUSH2 0xA59 DUP5 PUSH2 0x1565 JUMP JUMPDEST SWAP3 POP PUSH1 0x0 DUP2 PUSH1 0x0 ADD PUSH1 0x0 PUSH2 0x100 EXP DUP2 SLOAD DUP2 PUSH1 0xFF MUL NOT AND SWAP1 DUP4 PUSH1 0xFF AND MUL OR SWAP1 SSTORE POP PUSH32 0x724A5668431AAC6C0FA9DCB7110322CA2FEE6B029956D275C779FFCD6F0B06B4 DUP2 PUSH1 0x0 ADD PUSH1 0x0 SWAP1 SLOAD SWAP1 PUSH2 0x100 EXP SWAP1 DIV PUSH1 0xFF AND DUP6 DUP8 PUSH1 0x40 MLOAD PUSH2 0xABD SWAP4 SWAP3 SWAP2 SWAP1 PUSH2 0x221B JUMP JUMPDEST PUSH1 0x40 MLOAD DUP1 SWAP2 SUB SWAP1 LOG1 JUMPDEST PUSH2 0xAD9 CALLER PUSH9 0x3635C9ADC5DEA00000 PUSH2 0x189A JUMP JUMPDEST DUP1 PUSH1 0x0 ADD PUSH1 0x0 DUP2 DUP2 SWAP1 SLOAD SWAP1 PUSH2 0x100 EXP SWAP1 DIV PUSH1 0xFF AND DUP1 SWAP3 SWAP2 SWAP1 PUSH2 0xAFA SWAP1 PUSH2 0x248F JUMP JUMPDEST SWAP2 SWAP1 PUSH2 0x100 EXP DUP2 SLOAD DUP2 PUSH1 0xFF MUL NOT AND SWAP1 DUP4 PUSH1 0xFF AND MUL OR SWAP1 SSTORE POP POP DUP6 DUP2 PUSH1 0x2 ADD PUSH1 0x0 DUP4 PUSH1 0x0 ADD PUSH1 0x0 SWAP1 SLOAD SWAP1 PUSH2 0x100 EXP SWAP1 DIV PUSH1 0xFF AND PUSH1 0xFF AND DUP2 MSTORE PUSH1 0x20 ADD SWAP1 DUP2 MSTORE PUSH1 0x20 ADD PUSH1 0x0 KECCAK256 SWAP1 DUP1 MLOAD SWAP1 PUSH1 0x20 ADD SWAP1 PUSH2 0xB50 SWAP3 SWAP2 SWAP1 PUSH2 0x1A7B JUMP JUMPDEST POP PUSH1 0x8 DUP2 PUSH1 0x0 ADD PUSH1 0x0 SWAP1 SLOAD SWAP1 PUSH2 0x100 EXP SWAP1 DIV PUSH1 0xFF AND PUSH1 0xFF AND GT DUP1 PUSH2 0xB74 JUMPI POP PUSH1 0x4 DUP5 EQ JUMPDEST ISZERO PUSH2 0xB82 JUMPI PUSH2 0xB81 PUSH2 0x74E JUMP JUMPDEST JUMPDEST PUSH1 0x8 DUP2 PUSH1 0x0 ADD PUSH1 0x0 SWAP1 SLOAD SWAP1 PUSH2 0x100 EXP SWAP1 DIV PUSH1 0xFF AND PUSH1 0xFF AND GT ISZERO PUSH2 0xBDA JUMPI PUSH1 0x40 MLOAD PUSH32 0x8C379A000000000000000000000000000000000000000000000000000000000 DUP2 MSTORE PUSH1 0x4 ADD PUSH2 0xBD1 SWAP1 PUSH2 0x2147 JUMP JUMPDEST PUSH1 0x40 MLOAD DUP1 SWAP2 SUB SWAP1 REVERT JUMPDEST PUSH2 0xBE3 DUP5 PUSH2 0x1565 JUMP JUMPDEST SWAP3 POP PUSH1 0x0 DUP2 PUSH1 0x0 ADD PUSH1 0x0 PUSH2 0x100 EXP DUP2 SLOAD DUP2 PUSH1 0xFF MUL NOT AND SWAP1 DUP4 PUSH1 0xFF AND MUL OR SWAP1 SSTORE POP PUSH32 0x724A5668431AAC6C0FA9DCB7110322CA2FEE6B029956D275C779FFCD6F0B06B4 DUP2 PUSH1 0x0 ADD PUSH1 0x0 SWAP1 SLOAD SWAP1 PUSH2 0x100 EXP SWAP1 DIV PUSH1 0xFF AND DUP6 DUP8 PUSH1 0x40 MLOAD PUSH2 0xC47 SWAP4 SWAP3 SWAP2 SWAP1 PUSH2 0x221B JUMP JUMPDEST PUSH1 0x40 MLOAD DUP1 SWAP2 SUB SWAP1 LOG1 POP POP SWAP2 SWAP4 SWAP1 SWAP3 POP JUMP JUMPDEST PUSH1 0x0 CALLER SWAP1 POP SWAP1 JUMP JUMPDEST PUSH1 0x0 PUSH20 0xFFFFFFFFFFFFFFFFFFFFFFFFFFFFFFFFFFFFFFFF AND DUP4 PUSH20 0xFFFFFFFFFFFFFFFFFFFFFFFFFFFFFFFFFFFFFFFF AND EQ ISZERO PUSH2 0xCD0 JUMPI PUSH1 0x40 MLOAD PUSH32 0x8C379A000000000000000000000000000000000000000000000000000000000 DUP2 MSTORE PUSH1 0x4 ADD PUSH2 0xCC7 SWAP1 PUSH2 0x2127 JUMP JUMPDEST PUSH1 0x40 MLOAD DUP1 SWAP2 SUB SWAP1 REVERT JUMPDEST PUSH1 0x0 PUSH20 0xFFFFFFFFFFFFFFFFFFFFFFFFFFFFFFFFFFFFFFFF AND DUP3 PUSH20 0xFFFFFFFFFFFFFFFFFFFFFFFFFFFFFFFFFFFFFFFF AND EQ ISZERO PUSH2 0xD40 JUMPI PUSH1 0x40 MLOAD PUSH32 0x8C379A000000000000000000000000000000000000000000000000000000000 DUP2 MSTORE PUSH1 0x4 ADD PUSH2 0xD37 SWAP1 PUSH2 0x2047 JUMP JUMPDEST PUSH1 0x40 MLOAD DUP1 SWAP2 SUB SWAP1 REVERT JUMPDEST DUP1 PUSH1 0x1 PUSH1 0x0 DUP6 PUSH20 0xFFFFFFFFFFFFFFFFFFFFFFFFFFFFFFFFFFFFFFFF AND PUSH20 0xFFFFFFFFFFFFFFFFFFFFFFFFFFFFFFFFFFFFFFFF AND DUP2 MSTORE PUSH1 0x20 ADD SWAP1 DUP2 MSTORE PUSH1 0x20 ADD PUSH1 0x0 KECCAK256 PUSH1 0x0 DUP5 PUSH20 0xFFFFFFFFFFFFFFFFFFFFFFFFFFFFFFFFFFFFFFFF AND PUSH20 0xFFFFFFFFFFFFFFFFFFFFFFFFFFFFFFFFFFFFFFFF AND DUP2 MSTORE PUSH1 0x20 ADD SWAP1 DUP2 MSTORE PUSH1 0x20 ADD PUSH1 0x0 KECCAK256 DUP2 SWAP1 SSTORE POP DUP2 PUSH20 0xFFFFFFFFFFFFFFFFFFFFFFFFFFFFFFFFFFFFFFFF AND DUP4 PUSH20 0xFFFFFFFFFFFFFFFFFFFFFFFFFFFFFFFFFFFFFFFF AND PUSH32 0x8C5BE1E5EBEC7D5BD14F71427D1E84F3DD0314C0F7B2291E5B200AC8C7C3B925 DUP4 PUSH1 0x40 MLOAD PUSH2 0xE1E SWAP2 SWAP1 PUSH2 0x21A7 JUMP JUMPDEST PUSH1 0x40 MLOAD DUP1 SWAP2 SUB SWAP1 LOG3 POP POP POP JUMP JUMPDEST PUSH1 0x0 PUSH20 0xFFFFFFFFFFFFFFFFFFFFFFFFFFFFFFFFFFFFFFFF AND DUP4 PUSH20 0xFFFFFFFFFFFFFFFFFFFFFFFFFFFFFFFFFFFFFFFF AND EQ ISZERO PUSH2 0xE9B JUMPI PUSH1 0x40 MLOAD PUSH32 0x8C379A000000000000000000000000000000000000000000000000000000000 DUP2 MSTORE PUSH1 0x4 ADD PUSH2 0xE92 SWAP1 PUSH2 0x2107 JUMP JUMPDEST PUSH1 0x40 MLOAD DUP1 SWAP2 SUB SWAP1 REVERT JUMPDEST PUSH1 0x0 PUSH20 0xFFFFFFFFFFFFFFFFFFFFFFFFFFFFFFFFFFFFFFFF AND DUP3 PUSH20 0xFFFFFFFFFFFFFFFFFFFFFFFFFFFFFFFFFFFFFFFF AND EQ ISZERO PUSH2 0xF0B JUMPI PUSH1 0x40 MLOAD PUSH32 0x8C379A000000000000000000000000000000000000000000000000000000000 DUP2 MSTORE PUSH1 0x4 ADD PUSH2 0xF02 SWAP1 PUSH2 0x2007 JUMP JUMPDEST PUSH1 0x40 MLOAD DUP1 SWAP2 SUB SWAP1 REVERT JUMPDEST PUSH2 0xF16 DUP4 DUP4 DUP4 PUSH2 0x1A71 JUMP JUMPDEST PUSH1 0x0 DUP1 PUSH1 0x0 DUP6 PUSH20 0xFFFFFFFFFFFFFFFFFFFFFFFFFFFFFFFFFFFFFFFF AND PUSH20 0xFFFFFFFFFFFFFFFFFFFFFFFFFFFFFFFFFFFFFFFF AND DUP2 MSTORE PUSH1 0x20 ADD SWAP1 DUP2 MSTORE PUSH1 0x20 ADD PUSH1 0x0 KECCAK256 SLOAD SWAP1 POP DUP2 DUP2 LT ISZERO PUSH2 0xF9C JUMPI PUSH1 0x40 MLOAD PUSH32 0x8C379A000000000000000000000000000000000000000000000000000000000 DUP2 MSTORE PUSH1 0x4 ADD PUSH2 0xF93 SWAP1 PUSH2 0x2087 JUMP JUMPDEST PUSH1 0x40 MLOAD DUP1 SWAP2 SUB SWAP1 REVERT JUMPDEST DUP2 DUP2 SUB PUSH1 0x0 DUP1 DUP7 PUSH20 0xFFFFFFFFFFFFFFFFFFFFFFFFFFFFFFFFFFFFFFFF AND PUSH20 0xFFFFFFFFFFFFFFFFFFFFFFFFFFFFFFFFFFFFFFFF AND DUP2 MSTORE PUSH1 0x20 ADD SWAP1 DUP2 MSTORE PUSH1 0x20 ADD PUSH1 0x0 KECCAK256 DUP2 SWAP1 SSTORE POP DUP2 PUSH1 0x0 DUP1 DUP6 PUSH20 0xFFFFFFFFFFFFFFFFFFFFFFFFFFFFFFFFFFFFFFFF AND PUSH20 0xFFFFFFFFFFFFFFFFFFFFFFFFFFFFFFFFFFFFFFFF AND DUP2 MSTORE PUSH1 0x20 ADD SWAP1 DUP2 MSTORE PUSH1 0x20 ADD PUSH1 0x0 KECCAK256 PUSH1 0x0 DUP3 DUP3 SLOAD PUSH2 0x102F SWAP2 SWAP1 PUSH2 0x22BF JUMP JUMPDEST SWAP3 POP POP DUP2 SWAP1 SSTORE POP DUP3 PUSH20 0xFFFFFFFFFFFFFFFFFFFFFFFFFFFFFFFFFFFFFFFF AND DUP5 PUSH20 0xFFFFFFFFFFFFFFFFFFFFFFFFFFFFFFFFFFFFFFFF AND PUSH32 0xDDF252AD1BE2C89B69C2B068FC378DAA952BA7F163C4A11628F55A4DF523B3EF DUP5 PUSH1 0x40 MLOAD PUSH2 0x1093 SWAP2 SWAP1 PUSH2 0x21A7 JUMP JUMPDEST PUSH1 0x40 MLOAD DUP1 SWAP2 SUB SWAP1 LOG3 PUSH2 0x10A6 DUP5 DUP5 DUP5 PUSH2 0x1A76 JUMP JUMPDEST POP POP POP POP JUMP JUMPDEST PUSH1 0x0 PUSH2 0x10B8 DUP5 DUP5 PUSH2 0x889 JUMP JUMPDEST SWAP1 POP PUSH32 0xFFFFFFFFFFFFFFFFFFFFFFFFFFFFFFFFFFFFFFFFFFFFFFFFFFFFFFFFFFFFFFFF DUP2 EQ PUSH2 0x1132 JUMPI DUP2 DUP2 LT ISZERO PUSH2 0x1124 JUMPI PUSH1 0x40 MLOAD PUSH32 0x8C379A000000000000000000000000000000000000000000000000000000000 DUP2 MSTORE PUSH1 0x4 ADD PUSH2 0x111B SWAP1 PUSH2 0x2067 JUMP JUMPDEST PUSH1 0x40 MLOAD DUP1 SWAP2 SUB SWAP1 REVERT JUMPDEST PUSH2 0x1131 DUP5 DUP5 DUP5 DUP5 SUB PUSH2 0xC60 JUMP JUMPDEST JUMPDEST POP POP POP POP JUMP JUMPDEST PUSH1 0x0 PUSH1 0x7 PUSH1 0x0 CALLER PUSH20 0xFFFFFFFFFFFFFFFFFFFFFFFFFFFFFFFFFFFFFFFF AND PUSH20 0xFFFFFFFFFFFFFFFFFFFFFFFFFFFFFFFFFFFFFFFF AND DUP2 MSTORE PUSH1 0x20 ADD SWAP1 DUP2 MSTORE PUSH1 0x20 ADD PUSH1 0x0 KECCAK256 SWAP1 POP JUMPDEST PUSH1 0x0 DUP2 PUSH1 0x1 ADD DUP1 SLOAD SWAP1 POP GT ISZERO PUSH2 0x11BB JUMPI DUP1 PUSH1 0x1 ADD DUP1 SLOAD DUP1 PUSH2 0x11A0 JUMPI PUSH2 0x119F PUSH2 0x25A5 JUMP JUMPDEST JUMPDEST PUSH1 0x1 SWAP1 SUB DUP2 DUP2 SWAP1 PUSH1 0x0 MSTORE PUSH1 0x20 PUSH1 0x0 KECCAK256 ADD PUSH1 0x0 SWAP1 SSTORE SWAP1 SSTORE PUSH2 0x117C JUMP JUMPDEST POP JUMP JUMPDEST PUSH1 0x0 PUSH20 0xFFFFFFFFFFFFFFFFFFFFFFFFFFFFFFFFFFFFFFFF AND DUP3 PUSH20 0xFFFFFFFFFFFFFFFFFFFFFFFFFFFFFFFFFFFFFFFF AND EQ ISZERO PUSH2 0x122E JUMPI PUSH1 0x40 MLOAD PUSH32 0x8C379A000000000000000000000000000000000000000000000000000000000 DUP2 MSTORE PUSH1 0x4 ADD PUSH2 0x1225 SWAP1 PUSH2 0x2187 JUMP JUMPDEST PUSH1 0x40 MLOAD DUP1 SWAP2 SUB SWAP1 REVERT JUMPDEST PUSH2 0x123A PUSH1 0x0 DUP4 DUP4 PUSH2 0x1A71 JUMP JUMPDEST DUP1 PUSH1 0x2 PUSH1 0x0 DUP3 DUP3 SLOAD PUSH2 0x124C SWAP2 SWAP1 PUSH2 0x22BF JUMP JUMPDEST SWAP3 POP POP DUP2 SWAP1 SSTORE POP DUP1 PUSH1 0x0 DUP1 DUP5 PUSH20 0xFFFFFFFFFFFFFFFFFFFFFFFFFFFFFFFFFFFFFFFF AND PUSH20 0xFFFFFFFFFFFFFFFFFFFFFFFFFFFFFFFFFFFFFFFF AND DUP2 MSTORE PUSH1 0x20 ADD SWAP1 DUP2 MSTORE PUSH1 0x20 ADD PUSH1 0x0 KECCAK256 PUSH1 0x0 DUP3 DUP3 SLOAD PUSH2 0x12A1 SWAP2 SWAP1 PUSH2 0x22BF JUMP JUMPDEST SWAP3 POP POP DUP2 SWAP1 SSTORE POP DUP2 PUSH20 0xFFFFFFFFFFFFFFFFFFFFFFFFFFFFFFFFFFFFFFFF AND PUSH1 0x0 PUSH20 0xFFFFFFFFFFFFFFFFFFFFFFFFFFFFFFFFFFFFFFFF AND PUSH32 0xDDF252AD1BE2C89B69C2B068FC378DAA952BA7F163C4A11628F55A4DF523B3EF DUP4 PUSH1 0x40 MLOAD PUSH2 0x1306 SWAP2 SWAP1 PUSH2 0x21A7 JUMP JUMPDEST PUSH1 0x40 MLOAD DUP1 SWAP2 SUB SWAP1 LOG3 PUSH2 0x131A PUSH1 0x0 DUP4 DUP4 PUSH2 0x1A76 JUMP JUMPDEST POP POP JUMP JUMPDEST PUSH1 0x0 DUP1 PUSH1 0xA SWAP1 POP PUSH1 0x1 PUSH1 0x5 PUSH1 0x0 DUP3 DUP3 SLOAD PUSH2 0x1338 SWAP2 SWAP1 PUSH2 0x22BF JUMP JUMPDEST SWAP3 POP POP DUP2 SWAP1 SSTORE POP DUP1 TIMESTAMP PUSH1 0x5 SLOAD CALLER PUSH1 0x40 MLOAD PUSH1 0x20 ADD PUSH2 0x1357 SWAP4 SWAP3 SWAP2 SWAP1 PUSH2 0x1F8D JUMP JUMPDEST PUSH1 0x40 MLOAD PUSH1 0x20 DUP2 DUP4 SUB SUB DUP2 MSTORE SWAP1 PUSH1 0x40 MSTORE DUP1 MLOAD SWAP1 PUSH1 0x20 ADD KECCAK256 PUSH1 0x0 SHR PUSH2 0x137A SWAP2 SWAP1 PUSH2 0x24E7 JUMP JUMPDEST SWAP2 POP POP SWAP1 JUMP JUMPDEST PUSH1 0x0 DUP1 PUSH1 0x0 SWAP1 POP JUMPDEST DUP3 MLOAD DUP2 LT ISZERO PUSH2 0x141E JUMPI PUSH1 0x0 DUP4 DUP3 DUP2 MLOAD DUP2 LT PUSH2 0x13A6 JUMPI PUSH2 0x13A5 PUSH2 0x25D4 JUMP JUMPDEST JUMPDEST PUSH1 0x20 MUL PUSH1 0x20 ADD ADD MLOAD SWAP1 POP PUSH1 0x0 JUMPDEST DUP5 MLOAD DUP2 LT ISZERO PUSH2 0x1409 JUMPI DUP1 DUP4 EQ ISZERO DUP1 ISZERO PUSH2 0x13E5 JUMPI POP DUP5 DUP2 DUP2 MLOAD DUP2 LT PUSH2 0x13DA JUMPI PUSH2 0x13D9 PUSH2 0x25D4 JUMP JUMPDEST JUMPDEST PUSH1 0x20 MUL PUSH1 0x20 ADD ADD MLOAD DUP3 EQ JUMPDEST ISZERO PUSH2 0x13F6 JUMPI PUSH1 0x0 SWAP4 POP POP POP POP PUSH2 0x1424 JUMP JUMPDEST DUP1 DUP1 PUSH2 0x1401 SWAP1 PUSH2 0x2446 JUMP JUMPDEST SWAP2 POP POP PUSH2 0x13B3 JUMP JUMPDEST POP POP DUP1 DUP1 PUSH2 0x1416 SWAP1 PUSH2 0x2446 JUMP JUMPDEST SWAP2 POP POP PUSH2 0x1388 JUMP JUMPDEST POP PUSH1 0x1 SWAP1 POP JUMPDEST SWAP2 SWAP1 POP JUMP JUMPDEST PUSH1 0x0 DUP1 PUSH1 0x0 PUSH1 0x7 PUSH1 0x0 CALLER PUSH20 0xFFFFFFFFFFFFFFFFFFFFFFFFFFFFFFFFFFFFFFFF AND PUSH20 0xFFFFFFFFFFFFFFFFFFFFFFFFFFFFFFFFFFFFFFFF AND DUP2 MSTORE PUSH1 0x20 ADD SWAP1 DUP2 MSTORE PUSH1 0x20 ADD PUSH1 0x0 KECCAK256 SWAP1 POP PUSH1 0x0 JUMPDEST DUP5 MLOAD DUP2 LT ISZERO PUSH2 0x155E JUMPI PUSH1 0x0 DUP6 DUP3 DUP2 MLOAD DUP2 LT PUSH2 0x1490 JUMPI PUSH2 0x148F PUSH2 0x25D4 JUMP JUMPDEST JUMPDEST PUSH1 0x20 MUL PUSH1 0x20 ADD ADD MLOAD SWAP1 POP PUSH1 0x0 JUMPDEST DUP4 PUSH1 0x1 ADD DUP1 SLOAD SWAP1 POP DUP2 LT ISZERO PUSH2 0x1549 JUMPI DUP1 DUP4 EQ DUP1 ISZERO PUSH2 0x14DA JUMPI POP DUP4 PUSH1 0x1 ADD DUP2 DUP2 SLOAD DUP2 LT PUSH2 0x14CC JUMPI PUSH2 0x14CB PUSH2 0x25D4 JUMP JUMPDEST JUMPDEST SWAP1 PUSH1 0x0 MSTORE PUSH1 0x20 PUSH1 0x0 KECCAK256 ADD SLOAD DUP3 EQ JUMPDEST ISZERO PUSH2 0x14F2 JUMPI DUP5 DUP1 PUSH2 0x14EA SWAP1 PUSH2 0x2446 JUMP JUMPDEST SWAP6 POP POP PUSH2 0x1536 JUMP JUMPDEST DUP1 DUP4 EQ ISZERO DUP1 ISZERO PUSH2 0x1521 JUMPI POP DUP4 PUSH1 0x1 ADD DUP2 DUP2 SLOAD DUP2 LT PUSH2 0x1513 JUMPI PUSH2 0x1512 PUSH2 0x25D4 JUMP JUMPDEST JUMPDEST SWAP1 PUSH1 0x0 MSTORE PUSH1 0x20 PUSH1 0x0 KECCAK256 ADD SLOAD DUP3 EQ JUMPDEST ISZERO PUSH2 0x1535 JUMPI DUP6 DUP1 PUSH2 0x1531 SWAP1 PUSH2 0x2446 JUMP JUMPDEST SWAP7 POP POP JUMPDEST JUMPDEST DUP1 DUP1 PUSH2 0x1541 SWAP1 PUSH2 0x2446 JUMP JUMPDEST SWAP2 POP POP PUSH2 0x149D JUMP JUMPDEST POP POP DUP1 DUP1 PUSH2 0x1556 SWAP1 PUSH2 0x2446 JUMP JUMPDEST SWAP2 POP POP PUSH2 0x1472 JUMP JUMPDEST POP POP SWAP2 POP SWAP2 JUMP JUMPDEST PUSH1 0x60 PUSH1 0x0 PUSH1 0x7 PUSH1 0x0 CALLER PUSH20 0xFFFFFFFFFFFFFFFFFFFFFFFFFFFFFFFFFFFFFFFF AND PUSH20 0xFFFFFFFFFFFFFFFFFFFFFFFFFFFFFFFFFFFFFFFF AND DUP2 MSTORE PUSH1 0x20 ADD SWAP1 DUP2 MSTORE PUSH1 0x20 ADD PUSH1 0x0 KECCAK256 SWAP1 POP PUSH1 0x4 DUP2 PUSH1 0x0 ADD PUSH1 0x0 SWAP1 SLOAD SWAP1 PUSH2 0x100 EXP SWAP1 DIV PUSH1 0xFF AND PUSH1 0xFF AND GT ISZERO DUP1 ISZERO PUSH2 0x15CF JUMPI POP PUSH1 0x4 DUP4 EQ JUMPDEST ISZERO PUSH2 0x1644 JUMPI PUSH1 0x40 MLOAD DUP1 PUSH1 0x40 ADD PUSH1 0x40 MSTORE DUP1 PUSH1 0x9 DUP2 MSTORE PUSH1 0x20 ADD PUSH32 0x416C6C2044656164210000000000000000000000000000000000000000000000 DUP2 MSTORE POP SWAP2 POP PUSH32 0x819B4D2D513904CF19FBE6A72AE78AE4887B651739DEBF1D083AB71A7A584D77 DUP3 PUSH1 0x40 MLOAD PUSH2 0x163B SWAP2 SWAP1 PUSH2 0x1FE5 JUMP JUMPDEST PUSH1 0x40 MLOAD DUP1 SWAP2 SUB SWAP1 LOG1 JUMPDEST PUSH1 0x4 DUP2 PUSH1 0x0 ADD PUSH1 0x0 SWAP1 SLOAD SWAP1 PUSH2 0x100 EXP SWAP1 DIV PUSH1 0xFF AND PUSH1 0xFF AND GT DUP1 ISZERO PUSH2 0x167C JUMPI POP PUSH1 0x8 DUP2 PUSH1 0x0 ADD PUSH1 0x0 SWAP1 SLOAD SWAP1 PUSH2 0x100 EXP SWAP1 DIV PUSH1 0xFF AND PUSH1 0xFF AND LT JUMPDEST DUP1 ISZERO PUSH2 0x1688 JUMPI POP PUSH1 0x4 DUP4 EQ JUMPDEST ISZERO PUSH2 0x16FD JUMPI PUSH1 0x40 MLOAD DUP1 PUSH1 0x40 ADD PUSH1 0x40 MSTORE DUP1 PUSH1 0x9 DUP2 MSTORE PUSH1 0x20 ADD PUSH32 0x416C6C2044656164210000000000000000000000000000000000000000000000 DUP2 MSTORE POP SWAP2 POP PUSH32 0x819B4D2D513904CF19FBE6A72AE78AE4887B651739DEBF1D083AB71A7A584D77 DUP3 PUSH1 0x40 MLOAD PUSH2 0x16F4 SWAP2 SWAP1 PUSH2 0x1FE5 JUMP JUMPDEST PUSH1 0x40 MLOAD DUP1 SWAP2 SUB SWAP1 LOG1 JUMPDEST PUSH1 0x6 DUP2 PUSH1 0x0 ADD PUSH1 0x0 SWAP1 SLOAD SWAP1 PUSH2 0x100 EXP SWAP1 DIV PUSH1 0xFF AND PUSH1 0xFF AND EQ DUP1 ISZERO PUSH2 0x1722 JUMPI POP PUSH1 0x4 DUP4 EQ ISZERO JUMPDEST ISZERO PUSH2 0x1797 JUMPI PUSH1 0x40 MLOAD DUP1 PUSH1 0x40 ADD PUSH1 0x40 MSTORE DUP1 PUSH1 0xD DUP2 MSTORE PUSH1 0x20 ADD PUSH32 0x3220747269616C73206C65667400000000000000000000000000000000000000 DUP2 MSTORE POP SWAP2 POP PUSH32 0xA52CAC5F157D10D7A83EE566EF1576B43AE8E203F332B50B861CA430E030D263 DUP3 PUSH1 0x40 MLOAD PUSH2 0x178E SWAP2 SWAP1 PUSH2 0x1FE5 JUMP JUMPDEST PUSH1 0x40 MLOAD DUP1 SWAP2 SUB SWAP1 LOG1 JUMPDEST PUSH1 0x7 DUP2 PUSH1 0x0 ADD PUSH1 0x0 SWAP1 SLOAD SWAP1 PUSH2 0x100 EXP SWAP1 DIV PUSH1 0xFF AND PUSH1 0xFF AND EQ DUP1 ISZERO PUSH2 0x17BC JUMPI POP PUSH1 0x4 DUP4 EQ ISZERO JUMPDEST ISZERO PUSH2 0x1831 JUMPI PUSH1 0x40 MLOAD DUP1 PUSH1 0x40 ADD PUSH1 0x40 MSTORE DUP1 PUSH1 0xB DUP2 MSTORE PUSH1 0x20 ADD PUSH32 0x46696E616C20747269616C000000000000000000000000000000000000000000 DUP2 MSTORE POP SWAP2 POP PUSH32 0xA52CAC5F157D10D7A83EE566EF1576B43AE8E203F332B50B861CA430E030D263 DUP3 PUSH1 0x40 MLOAD PUSH2 0x1828 SWAP2 SWAP1 PUSH2 0x1FE5 JUMP JUMPDEST PUSH1 0x40 MLOAD DUP1 SWAP2 SUB SWAP1 LOG1 JUMPDEST PUSH1 0x8 DUP2 PUSH1 0x0 ADD PUSH1 0x0 SWAP1 SLOAD SWAP1 PUSH2 0x100 EXP SWAP1 DIV PUSH1 0xFF AND PUSH1 0xFF AND EQ DUP1 ISZERO PUSH2 0x1856 JUMPI POP PUSH1 0x4 DUP4 EQ ISZERO JUMPDEST ISZERO PUSH2 0x1894 JUMPI PUSH1 0x40 MLOAD DUP1 PUSH1 0x40 ADD PUSH1 0x40 MSTORE DUP1 PUSH1 0x8 DUP2 MSTORE PUSH1 0x20 ADD PUSH32 0x596F75204C6F7374000000000000000000000000000000000000000000000000 DUP2 MSTORE POP SWAP2 POP JUMPDEST POP SWAP2 SWAP1 POP JUMP JUMPDEST PUSH1 0x0 PUSH20 0xFFFFFFFFFFFFFFFFFFFFFFFFFFFFFFFFFFFFFFFF AND DUP3 PUSH20 0xFFFFFFFFFFFFFFFFFFFFFFFFFFFFFFFFFFFFFFFF AND EQ ISZERO PUSH2 0x190A JUMPI PUSH1 0x40 MLOAD PUSH32 0x8C379A000000000000000000000000000000000000000000000000000000000 DUP2 MSTORE PUSH1 0x4 ADD PUSH2 0x1901 SWAP1 PUSH2 0x20E7 JUMP JUMPDEST PUSH1 0x40 MLOAD DUP1 SWAP2 SUB SWAP1 REVERT JUMPDEST PUSH2 0x1916 DUP3 PUSH1 0x0 DUP4 PUSH2 0x1A71 JUMP JUMPDEST PUSH1 0x0 DUP1 PUSH1 0x0 DUP5 PUSH20 0xFFFFFFFFFFFFFFFFFFFFFFFFFFFFFFFFFFFFFFFF AND PUSH20 0xFFFFFFFFFFFFFFFFFFFFFFFFFFFFFFFFFFFFFFFF AND DUP2 MSTORE PUSH1 0x20 ADD SWAP1 DUP2 MSTORE PUSH1 0x20 ADD PUSH1 0x0 KECCAK256 SLOAD SWAP1 POP DUP2 DUP2 LT ISZERO PUSH2 0x199C JUMPI PUSH1 0x40 MLOAD PUSH32 0x8C379A000000000000000000000000000000000000000000000000000000000 DUP2 MSTORE PUSH1 0x4 ADD PUSH2 0x1993 SWAP1 PUSH2 0x2027 JUMP JUMPDEST PUSH1 0x40 MLOAD DUP1 SWAP2 SUB SWAP1 REVERT JUMPDEST DUP2 DUP2 SUB PUSH1 0x0 DUP1 DUP6 PUSH20 0xFFFFFFFFFFFFFFFFFFFFFFFFFFFFFFFFFFFFFFFF AND PUSH20 0xFFFFFFFFFFFFFFFFFFFFFFFFFFFFFFFFFFFFFFFF AND DUP2 MSTORE PUSH1 0x20 ADD SWAP1 DUP2 MSTORE PUSH1 0x20 ADD PUSH1 0x0 KECCAK256 DUP2 SWAP1 SSTORE POP DUP2 PUSH1 0x2 PUSH1 0x0 DUP3 DUP3 SLOAD PUSH2 0x19F3 SWAP2 SWAP1 PUSH2 0x2315 JUMP JUMPDEST SWAP3 POP POP DUP2 SWAP1 SSTORE POP PUSH1 0x0 PUSH20 0xFFFFFFFFFFFFFFFFFFFFFFFFFFFFFFFFFFFFFFFF AND DUP4 PUSH20 0xFFFFFFFFFFFFFFFFFFFFFFFFFFFFFFFFFFFFFFFF AND PUSH32 0xDDF252AD1BE2C89B69C2B068FC378DAA952BA7F163C4A11628F55A4DF523B3EF DUP5 PUSH1 0x40 MLOAD PUSH2 0x1A58 SWAP2 SWAP1 PUSH2 0x21A7 JUMP JUMPDEST PUSH1 0x40 MLOAD DUP1 SWAP2 SUB SWAP1 LOG3 PUSH2 0x1A6C DUP4 PUSH1 0x0 DUP5 PUSH2 0x1A76 JUMP JUMPDEST POP POP POP JUMP JUMPDEST POP POP POP JUMP JUMPDEST POP POP POP JUMP JUMPDEST DUP3 DUP1 SLOAD DUP3 DUP3 SSTORE SWAP1 PUSH1 0x0 MSTORE PUSH1 0x20 PUSH1 0x0 KECCAK256 SWAP1 DUP2 ADD SWAP3 DUP3 ISZERO PUSH2 0x1AB7 JUMPI SWAP2 PUSH1 0x20 MUL DUP3 ADD JUMPDEST DUP3 DUP2 GT ISZERO PUSH2 0x1AB6 JUMPI DUP3 MLOAD DUP3 SSTORE SWAP2 PUSH1 0x20 ADD SWAP2 SWAP1 PUSH1 0x1 ADD SWAP1 PUSH2 0x1A9B JUMP JUMPDEST JUMPDEST POP SWAP1 POP PUSH2 0x1AC4 SWAP2 SWAP1 PUSH2 0x1AC8 JUMP JUMPDEST POP SWAP1 JUMP JUMPDEST JUMPDEST DUP1 DUP3 GT ISZERO PUSH2 0x1AE1 JUMPI PUSH1 0x0 DUP2 PUSH1 0x0 SWAP1 SSTORE POP PUSH1 0x1 ADD PUSH2 0x1AC9 JUMP JUMPDEST POP SWAP1 JUMP JUMPDEST PUSH1 0x0 PUSH2 0x1AF8 PUSH2 0x1AF3 DUP5 PUSH2 0x2277 JUMP JUMPDEST PUSH2 0x2252 JUMP JUMPDEST SWAP1 POP DUP1 DUP4 DUP3 MSTORE PUSH1 0x20 DUP3 ADD SWAP1 POP DUP3 DUP6 PUSH1 0x20 DUP7 MUL DUP3 ADD GT ISZERO PUSH2 0x1B1B JUMPI PUSH2 0x1B1A PUSH2 0x2637 JUMP JUMPDEST JUMPDEST PUSH1 0x0 JUMPDEST DUP6 DUP2 LT ISZERO PUSH2 0x1B4B JUMPI DUP2 PUSH2 0x1B31 DUP9 DUP3 PUSH2 0x1B98 JUMP JUMPDEST DUP5 MSTORE PUSH1 0x20 DUP5 ADD SWAP4 POP PUSH1 0x20 DUP4 ADD SWAP3 POP POP PUSH1 0x1 DUP2 ADD SWAP1 POP PUSH2 0x1B1E JUMP JUMPDEST POP POP POP SWAP4 SWAP3 POP POP POP JUMP JUMPDEST PUSH1 0x0 DUP2 CALLDATALOAD SWAP1 POP PUSH2 0x1B64 DUP2 PUSH2 0x29A9 JUMP JUMPDEST SWAP3 SWAP2 POP POP JUMP JUMPDEST PUSH1 0x0 DUP3 PUSH1 0x1F DUP4 ADD SLT PUSH2 0x1B7F JUMPI PUSH2 0x1B7E PUSH2 0x2632 JUMP JUMPDEST JUMPDEST DUP2 CALLDATALOAD PUSH2 0x1B8F DUP5 DUP3 PUSH1 0x20 DUP7 ADD PUSH2 0x1AE5 JUMP JUMPDEST SWAP2 POP POP SWAP3 SWAP2 POP POP JUMP JUMPDEST PUSH1 0x0 DUP2 CALLDATALOAD SWAP1 POP PUSH2 0x1BA7 DUP2 PUSH2 0x29C0 JUMP JUMPDEST SWAP3 SWAP2 POP POP JUMP JUMPDEST PUSH1 0x0 PUSH1 0x20 DUP3 DUP5 SUB SLT ISZERO PUSH2 0x1BC3 JUMPI PUSH2 0x1BC2 PUSH2 0x2641 JUMP JUMPDEST JUMPDEST PUSH1 0x0 PUSH2 0x1BD1 DUP5 DUP3 DUP6 ADD PUSH2 0x1B55 JUMP JUMPDEST SWAP2 POP POP SWAP3 SWAP2 POP POP JUMP JUMPDEST PUSH1 0x0 DUP1 PUSH1 0x40 DUP4 DUP6 SUB SLT ISZERO PUSH2 0x1BF1 JUMPI PUSH2 0x1BF0 PUSH2 0x2641 JUMP JUMPDEST JUMPDEST PUSH1 0x0 PUSH2 0x1BFF DUP6 DUP3 DUP7 ADD PUSH2 0x1B55 JUMP JUMPDEST SWAP3 POP POP PUSH1 0x20 PUSH2 0x1C10 DUP6 DUP3 DUP7 ADD PUSH2 0x1B55 JUMP JUMPDEST SWAP2 POP POP SWAP3 POP SWAP3 SWAP1 POP JUMP JUMPDEST PUSH1 0x0 DUP1 PUSH1 0x0 PUSH1 0x60 DUP5 DUP7 SUB SLT ISZERO PUSH2 0x1C33 JUMPI PUSH2 0x1C32 PUSH2 0x2641 JUMP JUMPDEST JUMPDEST PUSH1 0x0 PUSH2 0x1C41 DUP7 DUP3 DUP8 ADD PUSH2 0x1B55 JUMP JUMPDEST SWAP4 POP POP PUSH1 0x20 PUSH2 0x1C52 DUP7 DUP3 DUP8 ADD PUSH2 0x1B55 JUMP JUMPDEST SWAP3 POP POP PUSH1 0x40 PUSH2 0x1C63 DUP7 DUP3 DUP8 ADD PUSH2 0x1B98 JUMP JUMPDEST SWAP2 POP POP SWAP3 POP SWAP3 POP SWAP3 JUMP JUMPDEST PUSH1 0x0 DUP1 PUSH1 0x40 DUP4 DUP6 SUB SLT ISZERO PUSH2 0x1C84 JUMPI PUSH2 0x1C83 PUSH2 0x2641 JUMP JUMPDEST JUMPDEST PUSH1 0x0 PUSH2 0x1C92 DUP6 DUP3 DUP7 ADD PUSH2 0x1B55 JUMP JUMPDEST SWAP3 POP POP PUSH1 0x20 PUSH2 0x1CA3 DUP6 DUP3 DUP7 ADD PUSH2 0x1B98 JUMP JUMPDEST SWAP2 POP POP SWAP3 POP SWAP3 SWAP1 POP JUMP JUMPDEST PUSH1 0x0 PUSH1 0x20 DUP3 DUP5 SUB SLT ISZERO PUSH2 0x1CC3 JUMPI PUSH2 0x1CC2 PUSH2 0x2641 JUMP JUMPDEST JUMPDEST PUSH1 0x0 DUP3 ADD CALLDATALOAD PUSH8 0xFFFFFFFFFFFFFFFF DUP2 GT ISZERO PUSH2 0x1CE1 JUMPI PUSH2 0x1CE0 PUSH2 0x263C JUMP JUMPDEST JUMPDEST PUSH2 0x1CED DUP5 DUP3 DUP6 ADD PUSH2 0x1B6A JUMP JUMPDEST SWAP2 POP POP SWAP3 SWAP2 POP POP JUMP JUMPDEST PUSH1 0x0 PUSH1 0x20 DUP3 DUP5 SUB SLT ISZERO PUSH2 0x1D0C JUMPI PUSH2 0x1D0B PUSH2 0x2641 JUMP JUMPDEST JUMPDEST PUSH1 0x0 PUSH2 0x1D1A DUP5 DUP3 DUP6 ADD PUSH2 0x1B98 JUMP JUMPDEST SWAP2 POP POP SWAP3 SWAP2 POP POP JUMP JUMPDEST PUSH2 0x1D34 PUSH2 0x1D2F DUP3 PUSH2 0x2349 JUMP JUMPDEST PUSH2 0x24B9 JUMP JUMPDEST DUP3 MSTORE POP POP JUMP JUMPDEST PUSH2 0x1D43 DUP2 PUSH2 0x235B JUMP JUMPDEST DUP3 MSTORE POP POP JUMP JUMPDEST PUSH1 0x0 PUSH2 0x1D54 DUP3 PUSH2 0x22A3 JUMP JUMPDEST PUSH2 0x1D5E DUP2 DUP6 PUSH2 0x22AE JUMP JUMPDEST SWAP4 POP PUSH2 0x1D6E DUP2 DUP6 PUSH1 0x20 DUP7 ADD PUSH2 0x23B0 JUMP JUMPDEST PUSH2 0x1D77 DUP2 PUSH2 0x2646 JUMP JUMPDEST DUP5 ADD SWAP2 POP POP SWAP3 SWAP2 POP POP JUMP JUMPDEST PUSH1 0x0 PUSH2 0x1D8F PUSH1 0x23 DUP4 PUSH2 0x22AE JUMP JUMPDEST SWAP2 POP PUSH2 0x1D9A DUP3 PUSH2 0x2664 JUMP JUMPDEST PUSH1 0x40 DUP3 ADD SWAP1 POP SWAP2 SWAP1 POP JUMP JUMPDEST PUSH1 0x0 PUSH2 0x1DB2 PUSH1 0x22 DUP4 PUSH2 0x22AE JUMP JUMPDEST SWAP2 POP PUSH2 0x1DBD DUP3 PUSH2 0x26B3 JUMP JUMPDEST PUSH1 0x40 DUP3 ADD SWAP1 POP SWAP2 SWAP1 POP JUMP JUMPDEST PUSH1 0x0 PUSH2 0x1DD5 PUSH1 0x22 DUP4 PUSH2 0x22AE JUMP JUMPDEST SWAP2 POP PUSH2 0x1DE0 DUP3 PUSH2 0x2702 JUMP JUMPDEST PUSH1 0x40 DUP3 ADD SWAP1 POP SWAP2 SWAP1 POP JUMP JUMPDEST PUSH1 0x0 PUSH2 0x1DF8 PUSH1 0x1D DUP4 PUSH2 0x22AE JUMP JUMPDEST SWAP2 POP PUSH2 0x1E03 DUP3 PUSH2 0x2751 JUMP JUMPDEST PUSH1 0x20 DUP3 ADD SWAP1 POP SWAP2 SWAP1 POP JUMP JUMPDEST PUSH1 0x0 PUSH2 0x1E1B PUSH1 0x26 DUP4 PUSH2 0x22AE JUMP JUMPDEST SWAP2 POP PUSH2 0x1E26 DUP3 PUSH2 0x277A JUMP JUMPDEST PUSH1 0x40 DUP3 ADD SWAP1 POP SWAP2 SWAP1 POP JUMP JUMPDEST PUSH1 0x0 PUSH2 0x1E3E PUSH1 0xF DUP4 PUSH2 0x22AE JUMP JUMPDEST SWAP2 POP PUSH2 0x1E49 DUP3 PUSH2 0x27C9 JUMP JUMPDEST PUSH1 0x20 DUP3 ADD SWAP1 POP SWAP2 SWAP1 POP JUMP JUMPDEST PUSH1 0x0 PUSH2 0x1E61 PUSH1 0x16 DUP4 PUSH2 0x22AE JUMP JUMPDEST SWAP2 POP PUSH2 0x1E6C DUP3 PUSH2 0x27F2 JUMP JUMPDEST PUSH1 0x20 DUP3 ADD SWAP1 POP SWAP2 SWAP1 POP JUMP JUMPDEST PUSH1 0x0 PUSH2 0x1E84 PUSH1 0x21 DUP4 PUSH2 0x22AE JUMP JUMPDEST SWAP2 POP PUSH2 0x1E8F DUP3 PUSH2 0x281B JUMP JUMPDEST PUSH1 0x40 DUP3 ADD SWAP1 POP SWAP2 SWAP1 POP JUMP JUMPDEST PUSH1 0x0 PUSH2 0x1EA7 PUSH1 0x25 DUP4 PUSH2 0x22AE JUMP JUMPDEST SWAP2 POP PUSH2 0x1EB2 DUP3 PUSH2 0x286A JUMP JUMPDEST PUSH1 0x40 DUP3 ADD SWAP1 POP SWAP2 SWAP1 POP JUMP JUMPDEST PUSH1 0x0 PUSH2 0x1ECA PUSH1 0x24 DUP4 PUSH2 0x22AE JUMP JUMPDEST SWAP2 POP PUSH2 0x1ED5 DUP3 PUSH2 0x28B9 JUMP JUMPDEST PUSH1 0x40 DUP3 ADD SWAP1 POP SWAP2 SWAP1 POP JUMP JUMPDEST PUSH1 0x0 PUSH2 0x1EED PUSH1 0x10 DUP4 PUSH2 0x22AE JUMP JUMPDEST SWAP2 POP PUSH2 0x1EF8 DUP3 PUSH2 0x2908 JUMP JUMPDEST PUSH1 0x20 DUP3 ADD SWAP1 POP SWAP2 SWAP1 POP JUMP JUMPDEST PUSH1 0x0 PUSH2 0x1F10 PUSH1 0x25 DUP4 PUSH2 0x22AE JUMP JUMPDEST SWAP2 POP PUSH2 0x1F1B DUP3 PUSH2 0x2931 JUMP JUMPDEST PUSH1 0x40 DUP3 ADD SWAP1 POP SWAP2 SWAP1 POP JUMP JUMPDEST PUSH1 0x0 PUSH2 0x1F33 PUSH1 0x1F DUP4 PUSH2 0x22AE JUMP JUMPDEST SWAP2 POP PUSH2 0x1F3E DUP3 PUSH2 0x2980 JUMP JUMPDEST PUSH1 0x20 DUP3 ADD SWAP1 POP SWAP2 SWAP1 POP JUMP JUMPDEST PUSH2 0x1F52 DUP2 PUSH2 0x2387 JUMP JUMPDEST DUP3 MSTORE POP POP JUMP JUMPDEST PUSH2 0x1F69 PUSH2 0x1F64 DUP3 PUSH2 0x2387 JUMP JUMPDEST PUSH2 0x24DD JUMP JUMPDEST DUP3 MSTORE POP POP JUMP JUMPDEST PUSH2 0x1F78 DUP2 PUSH2 0x239E JUMP JUMPDEST DUP3 MSTORE POP POP JUMP JUMPDEST PUSH2 0x1F87 DUP2 PUSH2 0x2391 JUMP JUMPDEST DUP3 MSTORE POP POP JUMP JUMPDEST PUSH1 0x0 PUSH2 0x1F99 DUP3 DUP7 PUSH2 0x1F58 JUMP JUMPDEST PUSH1 0x20 DUP3 ADD SWAP2 POP PUSH2 0x1FA9 DUP3 DUP6 PUSH2 0x1F58 JUMP JUMPDEST PUSH1 0x20 DUP3 ADD SWAP2 POP PUSH2 0x1FB9 DUP3 DUP5 PUSH2 0x1D23 JUMP JUMPDEST PUSH1 0x14 DUP3 ADD SWAP2 POP DUP2 SWAP1 POP SWAP5 SWAP4 POP POP POP POP JUMP JUMPDEST PUSH1 0x0 PUSH1 0x20 DUP3 ADD SWAP1 POP PUSH2 0x1FDF PUSH1 0x0 DUP4 ADD DUP5 PUSH2 0x1D3A JUMP JUMPDEST SWAP3 SWAP2 POP POP JUMP JUMPDEST PUSH1 0x0 PUSH1 0x20 DUP3 ADD SWAP1 POP DUP2 DUP2 SUB PUSH1 0x0 DUP4 ADD MSTORE PUSH2 0x1FFF DUP2 DUP5 PUSH2 0x1D49 JUMP JUMPDEST SWAP1 POP SWAP3 SWAP2 POP POP JUMP JUMPDEST PUSH1 0x0 PUSH1 0x20 DUP3 ADD SWAP1 POP DUP2 DUP2 SUB PUSH1 0x0 DUP4 ADD MSTORE PUSH2 0x2020 DUP2 PUSH2 0x1D82 JUMP JUMPDEST SWAP1 POP SWAP2 SWAP1 POP JUMP JUMPDEST PUSH1 0x0 PUSH1 0x20 DUP3 ADD SWAP1 POP DUP2 DUP2 SUB PUSH1 0x0 DUP4 ADD MSTORE PUSH2 0x2040 DUP2 PUSH2 0x1DA5 JUMP JUMPDEST SWAP1 POP SWAP2 SWAP1 POP JUMP JUMPDEST PUSH1 0x0 PUSH1 0x20 DUP3 ADD SWAP1 POP DUP2 DUP2 SUB PUSH1 0x0 DUP4 ADD MSTORE PUSH2 0x2060 DUP2 PUSH2 0x1DC8 JUMP JUMPDEST SWAP1 POP SWAP2 SWAP1 POP JUMP JUMPDEST PUSH1 0x0 PUSH1 0x20 DUP3 ADD SWAP1 POP DUP2 DUP2 SUB PUSH1 0x0 DUP4 ADD MSTORE PUSH2 0x2080 DUP2 PUSH2 0x1DEB JUMP JUMPDEST SWAP1 POP SWAP2 SWAP1 POP JUMP JUMPDEST PUSH1 0x0 PUSH1 0x20 DUP3 ADD SWAP1 POP DUP2 DUP2 SUB PUSH1 0x0 DUP4 ADD MSTORE PUSH2 0x20A0 DUP2 PUSH2 0x1E0E JUMP JUMPDEST SWAP1 POP SWAP2 SWAP1 POP JUMP JUMPDEST PUSH1 0x0 PUSH1 0x20 DUP3 ADD SWAP1 POP DUP2 DUP2 SUB PUSH1 0x0 DUP4 ADD MSTORE PUSH2 0x20C0 DUP2 PUSH2 0x1E31 JUMP JUMPDEST SWAP1 POP SWAP2 SWAP1 POP JUMP JUMPDEST PUSH1 0x0 PUSH1 0x20 DUP3 ADD SWAP1 POP DUP2 DUP2 SUB PUSH1 0x0 DUP4 ADD MSTORE PUSH2 0x20E0 DUP2 PUSH2 0x1E54 JUMP JUMPDEST SWAP1 POP SWAP2 SWAP1 POP JUMP JUMPDEST PUSH1 0x0 PUSH1 0x20 DUP3 ADD SWAP1 POP DUP2 DUP2 SUB PUSH1 0x0 DUP4 ADD MSTORE PUSH2 0x2100 DUP2 PUSH2 0x1E77 JUMP JUMPDEST SWAP1 POP SWAP2 SWAP1 POP JUMP JUMPDEST PUSH1 0x0 PUSH1 0x20 DUP3 ADD SWAP1 POP DUP2 DUP2 SUB PUSH1 0x0 DUP4 ADD MSTORE PUSH2 0x2120 DUP2 PUSH2 0x1E9A JUMP JUMPDEST SWAP1 POP SWAP2 SWAP1 POP JUMP JUMPDEST PUSH1 0x0 PUSH1 0x20 DUP3 ADD SWAP1 POP DUP2 DUP2 SUB PUSH1 0x0 DUP4 ADD MSTORE PUSH2 0x2140 DUP2 PUSH2 0x1EBD JUMP JUMPDEST SWAP1 POP SWAP2 SWAP1 POP JUMP JUMPDEST PUSH1 0x0 PUSH1 0x20 DUP3 ADD SWAP1 POP DUP2 DUP2 SUB PUSH1 0x0 DUP4 ADD MSTORE PUSH2 0x2160 DUP2 PUSH2 0x1EE0 JUMP JUMPDEST SWAP1 POP SWAP2 SWAP1 POP JUMP JUMPDEST PUSH1 0x0 PUSH1 0x20 DUP3 ADD SWAP1 POP DUP2 DUP2 SUB PUSH1 0x0 DUP4 ADD MSTORE PUSH2 0x2180 DUP2 PUSH2 0x1F03 JUMP JUMPDEST SWAP1 POP SWAP2 SWAP1 POP JUMP JUMPDEST PUSH1 0x0 PUSH1 0x20 DUP3 ADD SWAP1 POP DUP2 DUP2 SUB PUSH1 0x0 DUP4 ADD MSTORE PUSH2 0x21A0 DUP2 PUSH2 0x1F26 JUMP JUMPDEST SWAP1 POP SWAP2 SWAP1 POP JUMP JUMPDEST PUSH1 0x0 PUSH1 0x20 DUP3 ADD SWAP1 POP PUSH2 0x21BC PUSH1 0x0 DUP4 ADD DUP5 PUSH2 0x1F49 JUMP JUMPDEST SWAP3 SWAP2 POP POP JUMP JUMPDEST PUSH1 0x0 PUSH1 0x60 DUP3 ADD SWAP1 POP PUSH2 0x21D7 PUSH1 0x0 DUP4 ADD DUP7 PUSH2 0x1F49 JUMP JUMPDEST PUSH2 0x21E4 PUSH1 0x20 DUP4 ADD DUP6 PUSH2 0x1F49 JUMP JUMPDEST DUP2 DUP2 SUB PUSH1 0x40 DUP4 ADD MSTORE PUSH2 0x21F6 DUP2 DUP5 PUSH2 0x1D49 JUMP JUMPDEST SWAP1 POP SWAP5 SWAP4 POP POP POP POP JUMP JUMPDEST PUSH1 0x0 PUSH1 0x20 DUP3 ADD SWAP1 POP PUSH2 0x2215 PUSH1 0x0 DUP4 ADD DUP5 PUSH2 0x1F7E JUMP JUMPDEST SWAP3 SWAP2 POP POP JUMP JUMPDEST PUSH1 0x0 PUSH1 0x60 DUP3 ADD SWAP1 POP PUSH2 0x2230 PUSH1 0x0 DUP4 ADD DUP7 PUSH2 0x1F6F JUMP JUMPDEST PUSH2 0x223D PUSH1 0x20 DUP4 ADD DUP6 PUSH2 0x1F49 JUMP JUMPDEST PUSH2 0x224A PUSH1 0x40 DUP4 ADD DUP5 PUSH2 0x1F49 JUMP JUMPDEST SWAP5 SWAP4 POP POP POP POP JUMP JUMPDEST PUSH1 0x0 PUSH2 0x225C PUSH2 0x226D JUMP JUMPDEST SWAP1 POP PUSH2 0x2268 DUP3 DUP3 PUSH2 0x2415 JUMP JUMPDEST SWAP2 SWAP1 POP JUMP JUMPDEST PUSH1 0x0 PUSH1 0x40 MLOAD SWAP1 POP SWAP1 JUMP JUMPDEST PUSH1 0x0 PUSH8 0xFFFFFFFFFFFFFFFF DUP3 GT ISZERO PUSH2 0x2292 JUMPI PUSH2 0x2291 PUSH2 0x2603 JUMP JUMPDEST JUMPDEST PUSH1 0x20 DUP3 MUL SWAP1 POP PUSH1 0x20 DUP2 ADD SWAP1 POP SWAP2 SWAP1 POP JUMP JUMPDEST PUSH1 0x0 DUP2 MLOAD SWAP1 POP SWAP2 SWAP1 POP JUMP JUMPDEST PUSH1 0x0 DUP3 DUP3 MSTORE PUSH1 0x20 DUP3 ADD SWAP1 POP SWAP3 SWAP2 POP POP JUMP JUMPDEST PUSH1 0x0 PUSH2 0x22CA DUP3 PUSH2 0x2387 JUMP JUMPDEST SWAP2 POP PUSH2 0x22D5 DUP4 PUSH2 0x2387 JUMP JUMPDEST SWAP3 POP DUP3 PUSH32 0xFFFFFFFFFFFFFFFFFFFFFFFFFFFFFFFFFFFFFFFFFFFFFFFFFFFFFFFFFFFFFFFF SUB DUP3 GT ISZERO PUSH2 0x230A JUMPI PUSH2 0x2309 PUSH2 0x2518 JUMP JUMPDEST JUMPDEST DUP3 DUP3 ADD SWAP1 POP SWAP3 SWAP2 POP POP JUMP JUMPDEST PUSH1 0x0 PUSH2 0x2320 DUP3 PUSH2 0x2387 JUMP JUMPDEST SWAP2 POP PUSH2 0x232B DUP4 PUSH2 0x2387 JUMP JUMPDEST SWAP3 POP DUP3 DUP3 LT ISZERO PUSH2 0x233E JUMPI PUSH2 0x233D PUSH2 0x2518 JUMP JUMPDEST JUMPDEST DUP3 DUP3 SUB SWAP1 POP SWAP3 SWAP2 POP POP JUMP JUMPDEST PUSH1 0x0 PUSH2 0x2354 DUP3 PUSH2 0x2367 JUMP JUMPDEST SWAP1 POP SWAP2 SWAP1 POP JUMP JUMPDEST PUSH1 0x0 DUP2 ISZERO ISZERO SWAP1 POP SWAP2 SWAP1 POP JUMP JUMPDEST PUSH1 0x0 PUSH20 0xFFFFFFFFFFFFFFFFFFFFFFFFFFFFFFFFFFFFFFFF DUP3 AND SWAP1 POP SWAP2 SWAP1 POP JUMP JUMPDEST PUSH1 0x0 DUP2 SWAP1 POP SWAP2 SWAP1 POP JUMP JUMPDEST PUSH1 0x0 PUSH1 0xFF DUP3 AND SWAP1 POP SWAP2 SWAP1 POP JUMP JUMPDEST PUSH1 0x0 PUSH2 0x23A9 DUP3 PUSH2 0x2391 JUMP JUMPDEST SWAP1 POP SWAP2 SWAP1 POP JUMP JUMPDEST PUSH1 0x0 JUMPDEST DUP4 DUP2 LT ISZERO PUSH2 0x23CE JUMPI DUP1 DUP3 ADD MLOAD DUP2 DUP5 ADD MSTORE PUSH1 0x20 DUP2 ADD SWAP1 POP PUSH2 0x23B3 JUMP JUMPDEST DUP4 DUP2 GT ISZERO PUSH2 0x23DD JUMPI PUSH1 0x0 DUP5 DUP5 ADD MSTORE JUMPDEST POP POP POP POP JUMP JUMPDEST PUSH1 0x0 PUSH1 0x2 DUP3 DIV SWAP1 POP PUSH1 0x1 DUP3 AND DUP1 PUSH2 0x23FB JUMPI PUSH1 0x7F DUP3 AND SWAP2 POP JUMPDEST PUSH1 0x20 DUP3 LT DUP2 EQ ISZERO PUSH2 0x240F JUMPI PUSH2 0x240E PUSH2 0x2576 JUMP JUMPDEST JUMPDEST POP SWAP2 SWAP1 POP JUMP JUMPDEST PUSH2 0x241E DUP3 PUSH2 0x2646 JUMP JUMPDEST DUP2 ADD DUP2 DUP2 LT PUSH8 0xFFFFFFFFFFFFFFFF DUP3 GT OR ISZERO PUSH2 0x243D JUMPI PUSH2 0x243C PUSH2 0x2603 JUMP JUMPDEST JUMPDEST DUP1 PUSH1 0x40 MSTORE POP POP POP JUMP JUMPDEST PUSH1 0x0 PUSH2 0x2451 DUP3 PUSH2 0x2387 JUMP JUMPDEST SWAP2 POP PUSH32 0xFFFFFFFFFFFFFFFFFFFFFFFFFFFFFFFFFFFFFFFFFFFFFFFFFFFFFFFFFFFFFFFF DUP3 EQ ISZERO PUSH2 0x2484 JUMPI PUSH2 0x2483 PUSH2 0x2518 JUMP JUMPDEST JUMPDEST PUSH1 0x1 DUP3 ADD SWAP1 POP SWAP2 SWAP1 POP JUMP JUMPDEST PUSH1 0x0 PUSH2 0x249A DUP3 PUSH2 0x2391 JUMP JUMPDEST SWAP2 POP PUSH1 0xFF DUP3 EQ ISZERO PUSH2 0x24AE JUMPI PUSH2 0x24AD PUSH2 0x2518 JUMP JUMPDEST JUMPDEST PUSH1 0x1 DUP3 ADD SWAP1 POP SWAP2 SWAP1 POP JUMP JUMPDEST PUSH1 0x0 PUSH2 0x24C4 DUP3 PUSH2 0x24CB JUMP JUMPDEST SWAP1 POP SWAP2 SWAP1 POP JUMP JUMPDEST PUSH1 0x0 PUSH2 0x24D6 DUP3 PUSH2 0x2657 JUMP JUMPDEST SWAP1 POP SWAP2 SWAP1 POP JUMP JUMPDEST PUSH1 0x0 DUP2 SWAP1 POP SWAP2 SWAP1 POP JUMP JUMPDEST PUSH1 0x0 PUSH2 0x24F2 DUP3 PUSH2 0x2387 JUMP JUMPDEST SWAP2 POP PUSH2 0x24FD DUP4 PUSH2 0x2387 JUMP JUMPDEST SWAP3 POP DUP3 PUSH2 0x250D JUMPI PUSH2 0x250C PUSH2 0x2547 JUMP JUMPDEST JUMPDEST DUP3 DUP3 MOD SWAP1 POP SWAP3 SWAP2 POP POP JUMP JUMPDEST PUSH32 0x4E487B7100000000000000000000000000000000000000000000000000000000 PUSH1 0x0 MSTORE PUSH1 0x11 PUSH1 0x4 MSTORE PUSH1 0x24 PUSH1 0x0 REVERT JUMPDEST PUSH32 0x4E487B7100000000000000000000000000000000000000000000000000000000 PUSH1 0x0 MSTORE PUSH1 0x12 PUSH1 0x4 MSTORE PUSH1 0x24 PUSH1 0x0 REVERT JUMPDEST PUSH32 0x4E487B7100000000000000000000000000000000000000000000000000000000 PUSH1 0x0 MSTORE PUSH1 0x22 PUSH1 0x4 MSTORE PUSH1 0x24 PUSH1 0x0 REVERT JUMPDEST PUSH32 0x4E487B7100000000000000000000000000000000000000000000000000000000 PUSH1 0x0 MSTORE PUSH1 0x31 PUSH1 0x4 MSTORE PUSH1 0x24 PUSH1 0x0 REVERT JUMPDEST PUSH32 0x4E487B7100000000000000000000000000000000000000000000000000000000 PUSH1 0x0 MSTORE PUSH1 0x32 PUSH1 0x4 MSTORE PUSH1 0x24 PUSH1 0x0 REVERT JUMPDEST PUSH32 0x4E487B7100000000000000000000000000000000000000000000000000000000 PUSH1 0x0 MSTORE PUSH1 0x41 PUSH1 0x4 MSTORE PUSH1 0x24 PUSH1 0x0 REVERT JUMPDEST PUSH1 0x0 DUP1 REVERT JUMPDEST PUSH1 0x0 DUP1 REVERT JUMPDEST PUSH1 0x0 DUP1 REVERT JUMPDEST PUSH1 0x0 DUP1 REVERT JUMPDEST PUSH1 0x0 PUSH1 0x1F NOT PUSH1 0x1F DUP4 ADD AND SWAP1 POP SWAP2 SWAP1 POP JUMP JUMPDEST PUSH1 0x0 DUP2 PUSH1 0x60 SHL SWAP1 POP SWAP2 SWAP1 POP JUMP JUMPDEST PUSH32 0x45524332303A207472616E7366657220746F20746865207A65726F2061646472 PUSH1 0x0 DUP3 ADD MSTORE PUSH32 0x6573730000000000000000000000000000000000000000000000000000000000 PUSH1 0x20 DUP3 ADD MSTORE POP JUMP JUMPDEST PUSH32 0x45524332303A206275726E20616D6F756E7420657863656564732062616C616E PUSH1 0x0 DUP3 ADD MSTORE PUSH32 0x6365000000000000000000000000000000000000000000000000000000000000 PUSH1 0x20 DUP3 ADD MSTORE POP JUMP JUMPDEST PUSH32 0x45524332303A20617070726F766520746F20746865207A65726F206164647265 PUSH1 0x0 DUP3 ADD MSTORE PUSH32 0x7373000000000000000000000000000000000000000000000000000000000000 PUSH1 0x20 DUP3 ADD MSTORE POP JUMP JUMPDEST PUSH32 0x45524332303A20696E73756666696369656E7420616C6C6F77616E6365000000 PUSH1 0x0 DUP3 ADD MSTORE POP JUMP JUMPDEST PUSH32 0x45524332303A207472616E7366657220616D6F756E7420657863656564732062 PUSH1 0x0 DUP3 ADD MSTORE PUSH32 0x616C616E63650000000000000000000000000000000000000000000000000000 PUSH1 0x20 DUP3 ADD MSTORE POP JUMP JUMPDEST PUSH32 0x456E7465722034206E756D626572730000000000000000000000000000000000 PUSH1 0x0 DUP3 ADD MSTORE POP JUMP JUMPDEST PUSH32 0x4E756D62657273206D75737420626520756E6971756500000000000000000000 PUSH1 0x0 DUP3 ADD MSTORE POP JUMP JUMPDEST PUSH32 0x45524332303A206275726E2066726F6D20746865207A65726F20616464726573 PUSH1 0x0 DUP3 ADD MSTORE PUSH32 0x7300000000000000000000000000000000000000000000000000000000000000 PUSH1 0x20 DUP3 ADD MSTORE POP JUMP JUMPDEST PUSH32 0x45524332303A207472616E736665722066726F6D20746865207A65726F206164 PUSH1 0x0 DUP3 ADD MSTORE PUSH32 0x6472657373000000000000000000000000000000000000000000000000000000 PUSH1 0x20 DUP3 ADD MSTORE POP JUMP JUMPDEST PUSH32 0x45524332303A20617070726F76652066726F6D20746865207A65726F20616464 PUSH1 0x0 DUP3 ADD MSTORE PUSH32 0x7265737300000000000000000000000000000000000000000000000000000000 PUSH1 0x20 DUP3 ADD MSTORE POP JUMP JUMPDEST PUSH32 0x596F75204C6F737420616C726561647900000000000000000000000000000000 PUSH1 0x0 DUP3 ADD MSTORE POP JUMP JUMPDEST PUSH32 0x45524332303A2064656372656173656420616C6C6F77616E63652062656C6F77 PUSH1 0x0 DUP3 ADD MSTORE PUSH32 0x207A65726F000000000000000000000000000000000000000000000000000000 PUSH1 0x20 DUP3 ADD MSTORE POP JUMP JUMPDEST PUSH32 0x45524332303A206D696E7420746F20746865207A65726F206164647265737300 PUSH1 0x0 DUP3 ADD MSTORE POP JUMP JUMPDEST PUSH2 0x29B2 DUP2 PUSH2 0x2349 JUMP JUMPDEST DUP2 EQ PUSH2 0x29BD JUMPI PUSH1 0x0 DUP1 REVERT JUMPDEST POP JUMP JUMPDEST PUSH2 0x29C9 DUP2 PUSH2 0x2387 JUMP JUMPDEST DUP2 EQ PUSH2 0x29D4 JUMPI PUSH1 0x0 DUP1 REVERT JUMPDEST POP JUMP INVALID LOG2 PUSH5 0x6970667358 0x22 SLT KECCAK256 PUSH31 0x2398A07DF545A17327D61DA0B20A6311D160955F52338F62A0C46C607C1FAA PUSH5 0x736F6C6343 STOP ADDMOD SMOD STOP CALLER "
        },
        "methodIdentifiers": {
          "allowance(address,address)": "dd62ed3e",
          "approve(address,uint256)": "095ea7b3",
          "balanceOf(address)": "70a08231",
          "decimals()": "313ce567",
          "decreaseAllowance(address,uint256)": "a457c2d7",
          "increaseAllowance(address,uint256)": "39509351",
          "name()": "06fdde03",
          "playGame(uint256[])": "fcb1d746",
          "startGame()": "d65ab5f2",
          "symbol()": "95d89b41",
          "totalSupply()": "18160ddd",
          "transfer(address,uint256)": "a9059cbb",
          "transferFrom(address,address,uint256)": "23b872dd",
          "transferToCreator(uint256)": "0b4dab98"
        }
      }
    }
  }
}