{
  "contracts/DOW.sol": {
    "DOW": {
      "abi": [
        {
          "inputs": [],
          "stateMutability": "nonpayable",
          "type": "constructor"
        },
        {
          "inputs": [],
          "name": "Enter4Numbers",
          "type": "error"
        },
        {
          "inputs": [],
          "name": "InsufficientTokens",
          "type": "error"
        },
        {
          "inputs": [],
          "name": "NotOwner",
          "type": "error"
        },
        {
          "inputs": [],
          "name": "NumbersMustBeUnique",
          "type": "error"
        },
        {
          "inputs": [],
          "name": "YouLost",
          "type": "error"
        },
        {
          "anonymous": false,
          "inputs": [
            {
              "indexed": true,
              "internalType": "address",
              "name": "owner",
              "type": "address"
            },
            {
              "indexed": true,
              "internalType": "address",
              "name": "spender",
              "type": "address"
            },
            {
              "indexed": false,
              "internalType": "uint256",
              "name": "value",
              "type": "uint256"
            }
          ],
          "name": "Approval",
          "type": "event"
        },
        {
          "anonymous": false,
          "inputs": [
            {
              "indexed": false,
              "internalType": "uint256",
              "name": "tries",
              "type": "uint256"
            },
            {
              "indexed": false,
              "internalType": "uint256",
              "name": "dead",
              "type": "uint256"
            },
            {
              "indexed": false,
              "internalType": "uint256",
              "name": "wounded",
              "type": "uint256"
            }
          ],
          "name": "PlayerGuesses",
          "type": "event"
        },
        {
          "anonymous": false,
          "inputs": [
            {
              "indexed": true,
              "internalType": "address",
              "name": "from",
              "type": "address"
            },
            {
              "indexed": true,
              "internalType": "address",
              "name": "to",
              "type": "address"
            },
            {
              "indexed": false,
              "internalType": "uint256",
              "name": "value",
              "type": "uint256"
            }
          ],
          "name": "Transfer",
          "type": "event"
        },
        {
          "anonymous": false,
          "inputs": [
            {
              "indexed": false,
              "internalType": "string",
              "name": "message",
              "type": "string"
            }
          ],
          "name": "Warnings",
          "type": "event"
        },
        {
          "anonymous": false,
          "inputs": [
            {
              "indexed": false,
              "internalType": "string",
              "name": "message",
              "type": "string"
            }
          ],
          "name": "WonOrLost",
          "type": "event"
        },
        {
          "inputs": [
            {
              "internalType": "address",
              "name": "owner",
              "type": "address"
            },
            {
              "internalType": "address",
              "name": "spender",
              "type": "address"
            }
          ],
          "name": "allowance",
          "outputs": [
            {
              "internalType": "uint256",
              "name": "",
              "type": "uint256"
            }
          ],
          "stateMutability": "view",
          "type": "function"
        },
        {
          "inputs": [
            {
              "internalType": "address",
              "name": "spender",
              "type": "address"
            },
            {
              "internalType": "uint256",
              "name": "amount",
              "type": "uint256"
            }
          ],
          "name": "approve",
          "outputs": [
            {
              "internalType": "bool",
              "name": "",
              "type": "bool"
            }
          ],
          "stateMutability": "nonpayable",
          "type": "function"
        },
        {
          "inputs": [
            {
              "internalType": "address",
              "name": "account",
              "type": "address"
            }
          ],
          "name": "balanceOf",
          "outputs": [
            {
              "internalType": "uint256",
              "name": "",
              "type": "uint256"
            }
          ],
          "stateMutability": "view",
          "type": "function"
        },
        {
          "inputs": [],
          "name": "decimals",
          "outputs": [
            {
              "internalType": "uint8",
              "name": "",
              "type": "uint8"
            }
          ],
          "stateMutability": "view",
          "type": "function"
        },
        {
          "inputs": [
            {
              "internalType": "address",
              "name": "spender",
              "type": "address"
            },
            {
              "internalType": "uint256",
              "name": "subtractedValue",
              "type": "uint256"
            }
          ],
          "name": "decreaseAllowance",
          "outputs": [
            {
              "internalType": "bool",
              "name": "",
              "type": "bool"
            }
          ],
          "stateMutability": "nonpayable",
          "type": "function"
        },
        {
          "inputs": [
            {
              "internalType": "address",
              "name": "spender",
              "type": "address"
            },
            {
              "internalType": "uint256",
              "name": "addedValue",
              "type": "uint256"
            }
          ],
          "name": "increaseAllowance",
          "outputs": [
            {
              "internalType": "bool",
              "name": "",
              "type": "bool"
            }
          ],
          "stateMutability": "nonpayable",
          "type": "function"
        },
        {
          "inputs": [],
          "name": "name",
          "outputs": [
            {
              "internalType": "string",
              "name": "",
              "type": "string"
            }
          ],
          "stateMutability": "view",
          "type": "function"
        },
        {
          "inputs": [
            {
              "internalType": "uint256[]",
              "name": "numArr",
              "type": "uint256[]"
            }
          ],
          "name": "playGame",
          "outputs": [
            {
              "internalType": "uint256",
              "name": "wounded",
              "type": "uint256"
            },
            {
              "internalType": "uint256",
              "name": "dead",
              "type": "uint256"
            },
            {
              "internalType": "string",
              "name": "message",
              "type": "string"
            }
          ],
          "stateMutability": "nonpayable",
          "type": "function"
        },
        {
          "inputs": [],
          "name": "startGame",
          "outputs": [],
          "stateMutability": "nonpayable",
          "type": "function"
        },
        {
          "inputs": [],
          "name": "symbol",
          "outputs": [
            {
              "internalType": "string",
              "name": "",
              "type": "string"
            }
          ],
          "stateMutability": "view",
          "type": "function"
        },
        {
          "inputs": [],
          "name": "totalSupply",
          "outputs": [
            {
              "internalType": "uint256",
              "name": "",
              "type": "uint256"
            }
          ],
          "stateMutability": "view",
          "type": "function"
        },
        {
          "inputs": [
            {
              "internalType": "address",
              "name": "to",
              "type": "address"
            },
            {
              "internalType": "uint256",
              "name": "amount",
              "type": "uint256"
            }
          ],
          "name": "transfer",
          "outputs": [
            {
              "internalType": "bool",
              "name": "",
              "type": "bool"
            }
          ],
          "stateMutability": "nonpayable",
          "type": "function"
        },
        {
          "inputs": [
            {
              "internalType": "address",
              "name": "from",
              "type": "address"
            },
            {
              "internalType": "address",
              "name": "to",
              "type": "address"
            },
            {
              "internalType": "uint256",
              "name": "amount",
              "type": "uint256"
            }
          ],
          "name": "transferFrom",
          "outputs": [
            {
              "internalType": "bool",
              "name": "",
              "type": "bool"
            }
          ],
          "stateMutability": "nonpayable",
          "type": "function"
        },
        {
          "inputs": [
            {
              "internalType": "uint256",
              "name": "_amount",
              "type": "uint256"
            }
          ],
          "name": "transferToCreator",
          "outputs": [],
          "stateMutability": "nonpayable",
          "type": "function"
        }
      ],
      "evm": {
        "bytecode": {
          "linkReferences": {},
          "object": "60806040523480156200001157600080fd5b506040518060400160405280600f81526020017f44656164206f7220576f756e64656400000000000000000000000000000000008152506040518060400160405280600381526020017f444f57000000000000000000000000000000000000000000000000000000000081525081600390805190602001906200009692919062000298565b508060049080519060200190620000af92919062000298565b50505033600660006101000a81548173ffffffffffffffffffffffffffffffffffffffff021916908373ffffffffffffffffffffffffffffffffffffffff1602179055506200010f3069d3c21bcecceda10000006200011560201b60201c565b620004f4565b600073ffffffffffffffffffffffffffffffffffffffff168273ffffffffffffffffffffffffffffffffffffffff16141562000188576040517f08c379a00000000000000000000000000000000000000000000000000000000081526004016200017f9062000380565b60405180910390fd5b6200019c600083836200028e60201b60201c565b8060026000828254620001b09190620003d0565b92505081905550806000808473ffffffffffffffffffffffffffffffffffffffff1673ffffffffffffffffffffffffffffffffffffffff1681526020019081526020016000206000828254620002079190620003d0565b925050819055508173ffffffffffffffffffffffffffffffffffffffff16600073ffffffffffffffffffffffffffffffffffffffff167fddf252ad1be2c89b69c2b068fc378daa952ba7f163c4a11628f55a4df523b3ef836040516200026e9190620003a2565b60405180910390a36200028a600083836200029360201b60201c565b5050565b505050565b505050565b828054620002a69062000437565b90600052602060002090601f016020900481019282620002ca576000855562000316565b82601f10620002e557805160ff191683800117855562000316565b8280016001018555821562000316579182015b8281111562000315578251825591602001919060010190620002f8565b5b50905062000325919062000329565b5090565b5b80821115620003445760008160009055506001016200032a565b5090565b600062000357601f83620003bf565b91506200036482620004cb565b602082019050919050565b6200037a816200042d565b82525050565b600060208201905081810360008301526200039b8162000348565b9050919050565b6000602082019050620003b960008301846200036f565b92915050565b600082825260208201905092915050565b6000620003dd826200042d565b9150620003ea836200042d565b9250827fffffffffffffffffffffffffffffffffffffffffffffffffffffffffffffffff038211156200042257620004216200046d565b5b828201905092915050565b6000819050919050565b600060028204905060018216806200045057607f821691505b602082108114156200046757620004666200049c565b5b50919050565b7f4e487b7100000000000000000000000000000000000000000000000000000000600052601160045260246000fd5b7f4e487b7100000000000000000000000000000000000000000000000000000000600052602260045260246000fd5b7f45524332303a206d696e7420746f20746865207a65726f206164647265737300600082015250565b612a8180620005046000396000f3fe608060405234801561001057600080fd5b50600436106100ea5760003560e01c806370a082311161008c578063a9059cbb11610066578063a9059cbb14610273578063d65ab5f2146102a3578063dd62ed3e146102ad578063fcb1d746146102dd576100ea565b806370a08231146101f557806395d89b4114610225578063a457c2d714610243576100ea565b806318160ddd116100c857806318160ddd1461015957806323b872dd14610177578063313ce567146101a757806339509351146101c5576100ea565b806306fdde03146100ef578063095ea7b31461010d5780630b4dab981461013d575b600080fd5b6100f761030f565b60405161010491906120cb565b60405180910390f35b61012760048036038101906101229190611d63565b6103a1565b60405161013491906120b0565b60405180910390f35b61015760048036038101906101529190611de0565b6103c4565b005b61016161047b565b60405161016e919061228d565b60405180910390f35b610191600480360381019061018c9190611d14565b610485565b60405161019e91906120b0565b60405180910390f35b6101af6104b4565b6040516101bc91906122e6565b60405180910390f35b6101df60048036038101906101da9190611d63565b6104bd565b6040516101ec91906120b0565b60405180910390f35b61020f600480360381019061020a9190611caf565b610567565b60405161021c919061228d565b60405180910390f35b61022d6105af565b60405161023a91906120cb565b60405180910390f35b61025d60048036038101906102589190611d63565b610641565b60405161026a91906120b0565b60405180910390f35b61028d60048036038101906102889190611d63565b61072b565b60405161029a91906120b0565b60405180910390f35b6102ab61074e565b005b6102c760048036038101906102c29190611cd8565b6108af565b6040516102d4919061228d565b60405180910390f35b6102f760048036038101906102f29190611d9f565b610936565b604051610306939291906122a8565b60405180910390f35b60606003805461031e906124c9565b80601f016020809104026020016040519081016040528092919081815260200182805461034a906124c9565b80156103975780601f1061036c57610100808354040283529160200191610397565b820191906000526020600020905b81548152906001019060200180831161037a57829003601f168201915b5050505050905090565b6000806103ac610c7e565b90506103b9818585610c86565b600191505092915050565b600660009054906101000a900473ffffffffffffffffffffffffffffffffffffffff1673ffffffffffffffffffffffffffffffffffffffff163373ffffffffffffffffffffffffffffffffffffffff161461044b576040517f30cd747100000000000000000000000000000000000000000000000000000000815260040160405180910390fd5b61047830600660009054906101000a900473ffffffffffffffffffffffffffffffffffffffff1683610e51565b50565b6000600254905090565b600080610490610c7e565b905061049d8582856110d2565b6104a8858585610e51565b60019150509392505050565b60006012905090565b6000806104c8610c7e565b905061055c818585600160008673ffffffffffffffffffffffffffffffffffffffff1673ffffffffffffffffffffffffffffffffffffffff16815260200190815260200160002060008973ffffffffffffffffffffffffffffffffffffffff1673ffffffffffffffffffffffffffffffffffffffff1681526020019081526020016000205461055791906123a5565b610c86565b600191505092915050565b60008060008373ffffffffffffffffffffffffffffffffffffffff1673ffffffffffffffffffffffffffffffffffffffff168152602001908152602001600020549050919050565b6060600480546105be906124c9565b80601f01602080910402602001604051908101604052809291908181526020018280546105ea906124c9565b80156106375780601f1061060c57610100808354040283529160200191610637565b820191906000526020600020905b81548152906001019060200180831161061a57829003601f168201915b5050505050905090565b60008061064c610c7e565b90506000600160008373ffffffffffffffffffffffffffffffffffffffff1673ffffffffffffffffffffffffffffffffffffffff16815260200190815260200160002060008673ffffffffffffffffffffffffffffffffffffffff1673ffffffffffffffffffffffffffffffffffffffff16815260200190815260200160002054905083811015610712576040517f08c379a00000000000000000000000000000000000000000000000000000000081526004016107099061224d565b60405180910390fd5b61071f8286868403610c86565b60019250505092915050565b600080610736610c7e565b9050610743818585610e51565b600191505092915050565b6000600760003373ffffffffffffffffffffffffffffffffffffffff1673ffffffffffffffffffffffffffffffffffffffff168152602001908152602001600020905061079961115e565b6107ac3368056bc75e2d6310000061120a565b5b6004816001018054905010156108ac5760006107c761136a565b90506000805b83600101805490508110156108465782846001018281548110610819577f4e487b7100000000000000000000000000000000000000000000000000000000600052603260045260246000fd5b906000526020600020015414156108335760019150610846565b808061083e9061252c565b9150506107cd565b50806108a55782600101829080600181540180825580915050600190039060005260206000200160009091909190915055818360030160006001866001018054905061089291906123fb565b8152602001908152602001600020819055505b50506107ad565b50565b6000600160008473ffffffffffffffffffffffffffffffffffffffff1673ffffffffffffffffffffffffffffffffffffffff16815260200190815260200160002060008373ffffffffffffffffffffffffffffffffffffffff1673ffffffffffffffffffffffffffffffffffffffff16815260200190815260200160002054905092915050565b6000806060836004815114610980576040517f08c379a00000000000000000000000000000000000000000000000000000000081526004016109779061218d565b60405180910390fd5b6001151561098d826113cc565b1515146109cf576040517f08c379a00000000000000000000000000000000000000000000000000000000081526004016109c6906121ad565b60405180910390fd5b6109d8856114c1565b80945081955050506000600760003373ffffffffffffffffffffffffffffffffffffffff1673ffffffffffffffffffffffffffffffffffffffff1681526020019081526020016000209050683635c9adc5dea00000610a3633610567565b108015610a435750600484145b15610a5157610a5061074e565b5b683635c9adc5dea00000610a6433610567565b108015610a715750600484105b15610aec57610a7f8461166f565b925060008160000160006101000a81548160ff021916908360ff1602179055507f724a5668431aac6c0fa9dcb7110322ca2fee6b029956d275c779ffcd6f0b06b48160000160009054906101000a900460ff168587604051610ae393929190612301565b60405180910390a15b610aff33683635c9adc5dea000006119a4565b80600001600081819054906101000a900460ff1680929190610b2090612575565b91906101000a81548160ff021916908360ff16021790555050858160020160008360000160009054906101000a900460ff1660ff1681526020019081526020016000209080519060200190610b76929190611b85565b5060088160000160009054906101000a900460ff1660ff161180610b9a5750600484145b15610ba857610ba761074e565b5b60088160000160009054906101000a900460ff1660ff161115610c00576040517f08c379a0000000000000000000000000000000000000000000000000000000008152600401610bf79061222d565b60405180910390fd5b610c098461166f565b925060008160000160006101000a81548160ff021916908360ff1602179055507f724a5668431aac6c0fa9dcb7110322ca2fee6b029956d275c779ffcd6f0b06b48160000160009054906101000a900460ff168587604051610c6d93929190612301565b60405180910390a150509193909250565b600033905090565b600073ffffffffffffffffffffffffffffffffffffffff168373ffffffffffffffffffffffffffffffffffffffff161415610cf6576040517f08c379a0000000000000000000000000000000000000000000000000000000008152600401610ced9061220d565b60405180910390fd5b600073ffffffffffffffffffffffffffffffffffffffff168273ffffffffffffffffffffffffffffffffffffffff161415610d66576040517f08c379a0000000000000000000000000000000000000000000000000000000008152600401610d5d9061212d565b60405180910390fd5b80600160008573ffffffffffffffffffffffffffffffffffffffff1673ffffffffffffffffffffffffffffffffffffffff16815260200190815260200160002060008473ffffffffffffffffffffffffffffffffffffffff1673ffffffffffffffffffffffffffffffffffffffff168152602001908152602001600020819055508173ffffffffffffffffffffffffffffffffffffffff168373ffffffffffffffffffffffffffffffffffffffff167f8c5be1e5ebec7d5bd14f71427d1e84f3dd0314c0f7b2291e5b200ac8c7c3b92583604051610e44919061228d565b60405180910390a3505050565b600073ffffffffffffffffffffffffffffffffffffffff168373ffffffffffffffffffffffffffffffffffffffff161415610ec1576040517f08c379a0000000000000000000000000000000000000000000000000000000008152600401610eb8906121ed565b60405180910390fd5b600073ffffffffffffffffffffffffffffffffffffffff168273ffffffffffffffffffffffffffffffffffffffff161415610f31576040517f08c379a0000000000000000000000000000000000000000000000000000000008152600401610f28906120ed565b60405180910390fd5b610f3c838383611b7b565b60008060008573ffffffffffffffffffffffffffffffffffffffff1673ffffffffffffffffffffffffffffffffffffffff16815260200190815260200160002054905081811015610fc2576040517f08c379a0000000000000000000000000000000000000000000000000000000008152600401610fb99061216d565b60405180910390fd5b8181036000808673ffffffffffffffffffffffffffffffffffffffff1673ffffffffffffffffffffffffffffffffffffffff16815260200190815260200160002081905550816000808573ffffffffffffffffffffffffffffffffffffffff1673ffffffffffffffffffffffffffffffffffffffff168152602001908152602001600020600082825461105591906123a5565b925050819055508273ffffffffffffffffffffffffffffffffffffffff168473ffffffffffffffffffffffffffffffffffffffff167fddf252ad1be2c89b69c2b068fc378daa952ba7f163c4a11628f55a4df523b3ef846040516110b9919061228d565b60405180910390a36110cc848484611b80565b50505050565b60006110de84846108af565b90507fffffffffffffffffffffffffffffffffffffffffffffffffffffffffffffffff8114611158578181101561114a576040517f08c379a00000000000000000000000000000000000000000000000000000000081526004016111419061214d565b60405180910390fd5b6111578484848403610c86565b5b50505050565b6000600760003373ffffffffffffffffffffffffffffffffffffffff1673ffffffffffffffffffffffffffffffffffffffff16815260200190815260200160002090505b60008160010180549050111561120757806001018054806111ec577f4e487b7100000000000000000000000000000000000000000000000000000000600052603160045260246000fd5b600190038181906000526020600020016000905590556111a2565b50565b600073ffffffffffffffffffffffffffffffffffffffff168273ffffffffffffffffffffffffffffffffffffffff16141561127a576040517f08c379a00000000000000000000000000000000000000000000000000000000081526004016112719061226d565b60405180910390fd5b61128660008383611b7b565b806002600082825461129891906123a5565b92505081905550806000808473ffffffffffffffffffffffffffffffffffffffff1673ffffffffffffffffffffffffffffffffffffffff16815260200190815260200160002060008282546112ed91906123a5565b925050819055508173ffffffffffffffffffffffffffffffffffffffff16600073ffffffffffffffffffffffffffffffffffffffff167fddf252ad1be2c89b69c2b068fc378daa952ba7f163c4a11628f55a4df523b3ef83604051611352919061228d565b60405180910390a361136660008383611b80565b5050565b600080600a905060016005600082825461138491906123a5565b925050819055508042600554336040516020016113a393929190612073565b6040516020818303038152906040528051906020012060001c6113c691906125cd565b91505090565b600080600090505b82518110156114b6576000838281518110611418577f4e487b7100000000000000000000000000000000000000000000000000000000600052603260045260246000fd5b6020026020010151905060005b84518110156114a15780831415801561147d5750848181518110611472577f4e487b7100000000000000000000000000000000000000000000000000000000600052603260045260246000fd5b602002602001015182145b1561148e57600093505050506114bc565b80806114999061252c565b915050611425565b505080806114ae9061252c565b9150506113d4565b50600190505b919050565b6000806000600760003373ffffffffffffffffffffffffffffffffffffffff1673ffffffffffffffffffffffffffffffffffffffff168152602001908152602001600020905060005b845181101561166857600085828151811061154e577f4e487b7100000000000000000000000000000000000000000000000000000000600052603260045260246000fd5b6020026020010151905060005b83600101805490508110156116535780831480156115be57508360010181815481106115b0577f4e487b7100000000000000000000000000000000000000000000000000000000600052603260045260246000fd5b906000526020600020015482145b156115d65784806115ce9061252c565b955050611640565b80831415801561162b575083600101818154811061161d577f4e487b7100000000000000000000000000000000000000000000000000000000600052603260045260246000fd5b906000526020600020015482145b1561163f57858061163b9061252c565b9650505b5b808061164b9061252c565b91505061155b565b505080806116609061252c565b91505061150a565b5050915091565b60606000600760003373ffffffffffffffffffffffffffffffffffffffff1673ffffffffffffffffffffffffffffffffffffffff168152602001908152602001600020905060048160000160009054906101000a900460ff1660ff16111580156116d95750600483145b1561174e576040518060400160405280600981526020017f416c6c204465616421000000000000000000000000000000000000000000000081525091507f819b4d2d513904cf19fbe6a72ae78ae4887b651739debf1d083ab71a7a584d778260405161174591906120cb565b60405180910390a15b60048160000160009054906101000a900460ff1660ff16118015611786575060088160000160009054906101000a900460ff1660ff16105b80156117925750600483145b15611807576040518060400160405280600981526020017f416c6c204465616421000000000000000000000000000000000000000000000081525091507f819b4d2d513904cf19fbe6a72ae78ae4887b651739debf1d083ab71a7a584d77826040516117fe91906120cb565b60405180910390a15b60068160000160009054906101000a900460ff1660ff1614801561182c575060048314155b156118a1576040518060400160405280600d81526020017f3220747269616c73206c6566740000000000000000000000000000000000000081525091507fa52cac5f157d10d7a83ee566ef1576b43ae8e203f332b50b861ca430e030d2638260405161189891906120cb565b60405180910390a15b60078160000160009054906101000a900460ff1660ff161480156118c6575060048314155b1561193b576040518060400160405280600b81526020017f46696e616c20747269616c00000000000000000000000000000000000000000081525091507fa52cac5f157d10d7a83ee566ef1576b43ae8e203f332b50b861ca430e030d2638260405161193291906120cb565b60405180910390a15b60088160000160009054906101000a900460ff1660ff16148015611960575060048314155b1561199e576040518060400160405280600881526020017f596f75204c6f737400000000000000000000000000000000000000000000000081525091505b50919050565b600073ffffffffffffffffffffffffffffffffffffffff168273ffffffffffffffffffffffffffffffffffffffff161415611a14576040517f08c379a0000000000000000000000000000000000000000000000000000000008152600401611a0b906121cd565b60405180910390fd5b611a2082600083611b7b565b60008060008473ffffffffffffffffffffffffffffffffffffffff1673ffffffffffffffffffffffffffffffffffffffff16815260200190815260200160002054905081811015611aa6576040517f08c379a0000000000000000000000000000000000000000000000000000000008152600401611a9d9061210d565b60405180910390fd5b8181036000808573ffffffffffffffffffffffffffffffffffffffff1673ffffffffffffffffffffffffffffffffffffffff168152602001908152602001600020819055508160026000828254611afd91906123fb565b92505081905550600073ffffffffffffffffffffffffffffffffffffffff168373ffffffffffffffffffffffffffffffffffffffff167fddf252ad1be2c89b69c2b068fc378daa952ba7f163c4a11628f55a4df523b3ef84604051611b62919061228d565b60405180910390a3611b7683600084611b80565b505050565b505050565b505050565b828054828255906000526020600020908101928215611bc1579160200282015b82811115611bc0578251825591602001919060010190611ba5565b5b509050611bce9190611bd2565b5090565b5b80821115611beb576000816000905550600101611bd3565b5090565b6000611c02611bfd8461235d565b612338565b90508083825260208201905082856020860282011115611c2157600080fd5b60005b85811015611c515781611c378882611c9a565b845260208401935060208301925050600181019050611c24565b5050509392505050565b600081359050611c6a81612a1d565b92915050565b600082601f830112611c8157600080fd5b8135611c91848260208601611bef565b91505092915050565b600081359050611ca981612a34565b92915050565b600060208284031215611cc157600080fd5b6000611ccf84828501611c5b565b91505092915050565b60008060408385031215611ceb57600080fd5b6000611cf985828601611c5b565b9250506020611d0a85828601611c5b565b9150509250929050565b600080600060608486031215611d2957600080fd5b6000611d3786828701611c5b565b9350506020611d4886828701611c5b565b9250506040611d5986828701611c9a565b9150509250925092565b60008060408385031215611d7657600080fd5b6000611d8485828601611c5b565b9250506020611d9585828601611c9a565b9150509250929050565b600060208284031215611db157600080fd5b600082013567ffffffffffffffff811115611dcb57600080fd5b611dd784828501611c70565b91505092915050565b600060208284031215611df257600080fd5b6000611e0084828501611c9a565b91505092915050565b611e1a611e158261242f565b61259f565b82525050565b611e2981612441565b82525050565b6000611e3a82612389565b611e448185612394565b9350611e54818560208601612496565b611e5d816126ba565b840191505092915050565b6000611e75602383612394565b9150611e80826126d8565b604082019050919050565b6000611e98602283612394565b9150611ea382612727565b604082019050919050565b6000611ebb602283612394565b9150611ec682612776565b604082019050919050565b6000611ede601d83612394565b9150611ee9826127c5565b602082019050919050565b6000611f01602683612394565b9150611f0c826127ee565b604082019050919050565b6000611f24600f83612394565b9150611f2f8261283d565b602082019050919050565b6000611f47601683612394565b9150611f5282612866565b602082019050919050565b6000611f6a602183612394565b9150611f758261288f565b604082019050919050565b6000611f8d602583612394565b9150611f98826128de565b604082019050919050565b6000611fb0602483612394565b9150611fbb8261292d565b604082019050919050565b6000611fd3601083612394565b9150611fde8261297c565b602082019050919050565b6000611ff6602583612394565b9150612001826129a5565b604082019050919050565b6000612019601f83612394565b9150612024826129f4565b602082019050919050565b6120388161246d565b82525050565b61204f61204a8261246d565b6125c3565b82525050565b61205e81612484565b82525050565b61206d81612477565b82525050565b600061207f828661203e565b60208201915061208f828561203e565b60208201915061209f8284611e09565b601482019150819050949350505050565b60006020820190506120c56000830184611e20565b92915050565b600060208201905081810360008301526120e58184611e2f565b905092915050565b6000602082019050818103600083015261210681611e68565b9050919050565b6000602082019050818103600083015261212681611e8b565b9050919050565b6000602082019050818103600083015261214681611eae565b9050919050565b6000602082019050818103600083015261216681611ed1565b9050919050565b6000602082019050818103600083015261218681611ef4565b9050919050565b600060208201905081810360008301526121a681611f17565b9050919050565b600060208201905081810360008301526121c681611f3a565b9050919050565b600060208201905081810360008301526121e681611f5d565b9050919050565b6000602082019050818103600083015261220681611f80565b9050919050565b6000602082019050818103600083015261222681611fa3565b9050919050565b6000602082019050818103600083015261224681611fc6565b9050919050565b6000602082019050818103600083015261226681611fe9565b9050919050565b600060208201905081810360008301526122868161200c565b9050919050565b60006020820190506122a2600083018461202f565b92915050565b60006060820190506122bd600083018661202f565b6122ca602083018561202f565b81810360408301526122dc8184611e2f565b9050949350505050565b60006020820190506122fb6000830184612064565b92915050565b60006060820190506123166000830186612055565b612323602083018561202f565b612330604083018461202f565b949350505050565b6000612342612353565b905061234e82826124fb565b919050565b6000604051905090565b600067ffffffffffffffff8211156123785761237761268b565b5b602082029050602081019050919050565b600081519050919050565b600082825260208201905092915050565b60006123b08261246d565b91506123bb8361246d565b9250827fffffffffffffffffffffffffffffffffffffffffffffffffffffffffffffffff038211156123f0576123ef6125fe565b5b828201905092915050565b60006124068261246d565b91506124118361246d565b925082821015612424576124236125fe565b5b828203905092915050565b600061243a8261244d565b9050919050565b60008115159050919050565b600073ffffffffffffffffffffffffffffffffffffffff82169050919050565b6000819050919050565b600060ff82169050919050565b600061248f82612477565b9050919050565b60005b838110156124b4578082015181840152602081019050612499565b838111156124c3576000848401525b50505050565b600060028204905060018216806124e157607f821691505b602082108114156124f5576124f461265c565b5b50919050565b612504826126ba565b810181811067ffffffffffffffff821117156125235761252261268b565b5b80604052505050565b60006125378261246d565b91507fffffffffffffffffffffffffffffffffffffffffffffffffffffffffffffffff82141561256a576125696125fe565b5b600182019050919050565b600061258082612477565b915060ff821415612594576125936125fe565b5b600182019050919050565b60006125aa826125b1565b9050919050565b60006125bc826126cb565b9050919050565b6000819050919050565b60006125d88261246d565b91506125e38361246d565b9250826125f3576125f261262d565b5b828206905092915050565b7f4e487b7100000000000000000000000000000000000000000000000000000000600052601160045260246000fd5b7f4e487b7100000000000000000000000000000000000000000000000000000000600052601260045260246000fd5b7f4e487b7100000000000000000000000000000000000000000000000000000000600052602260045260246000fd5b7f4e487b7100000000000000000000000000000000000000000000000000000000600052604160045260246000fd5b6000601f19601f8301169050919050565b60008160601b9050919050565b7f45524332303a207472616e7366657220746f20746865207a65726f206164647260008201527f6573730000000000000000000000000000000000000000000000000000000000602082015250565b7f45524332303a206275726e20616d6f756e7420657863656564732062616c616e60008201527f6365000000000000000000000000000000000000000000000000000000000000602082015250565b7f45524332303a20617070726f766520746f20746865207a65726f20616464726560008201527f7373000000000000000000000000000000000000000000000000000000000000602082015250565b7f45524332303a20696e73756666696369656e7420616c6c6f77616e6365000000600082015250565b7f45524332303a207472616e7366657220616d6f756e742065786365656473206260008201527f616c616e63650000000000000000000000000000000000000000000000000000602082015250565b7f456e7465722034206e756d626572730000000000000000000000000000000000600082015250565b7f4e756d62657273206d75737420626520756e6971756500000000000000000000600082015250565b7f45524332303a206275726e2066726f6d20746865207a65726f2061646472657360008201527f7300000000000000000000000000000000000000000000000000000000000000602082015250565b7f45524332303a207472616e736665722066726f6d20746865207a65726f20616460008201527f6472657373000000000000000000000000000000000000000000000000000000602082015250565b7f45524332303a20617070726f76652066726f6d20746865207a65726f2061646460008201527f7265737300000000000000000000000000000000000000000000000000000000602082015250565b7f596f75204c6f737420616c726561647900000000000000000000000000000000600082015250565b7f45524332303a2064656372656173656420616c6c6f77616e63652062656c6f7760008201527f207a65726f000000000000000000000000000000000000000000000000000000602082015250565b7f45524332303a206d696e7420746f20746865207a65726f206164647265737300600082015250565b612a268161242f565b8114612a3157600080fd5b50565b612a3d8161246d565b8114612a4857600080fd5b5056fea26469706673582212209ce1abb998e9300e47e6492263e1f5cd8029dc13fead30821796b41e88801b6b64736f6c63430008040033",
          "opcodes": "PUSH1 0x80 PUSH1 0x40 MSTORE CALLVALUE DUP1 ISZERO PUSH3 0x11 JUMPI PUSH1 0x0 DUP1 REVERT JUMPDEST POP PUSH1 0x40 MLOAD DUP1 PUSH1 0x40 ADD PUSH1 0x40 MSTORE DUP1 PUSH1 0xF DUP2 MSTORE PUSH1 0x20 ADD PUSH32 0x44656164206F7220576F756E6465640000000000000000000000000000000000 DUP2 MSTORE POP PUSH1 0x40 MLOAD DUP1 PUSH1 0x40 ADD PUSH1 0x40 MSTORE DUP1 PUSH1 0x3 DUP2 MSTORE PUSH1 0x20 ADD PUSH32 0x444F570000000000000000000000000000000000000000000000000000000000 DUP2 MSTORE POP DUP2 PUSH1 0x3 SWAP1 DUP1 MLOAD SWAP1 PUSH1 0x20 ADD SWAP1 PUSH3 0x96 SWAP3 SWAP2 SWAP1 PUSH3 0x298 JUMP JUMPDEST POP DUP1 PUSH1 0x4 SWAP1 DUP1 MLOAD SWAP1 PUSH1 0x20 ADD SWAP1 PUSH3 0xAF SWAP3 SWAP2 SWAP1 PUSH3 0x298 JUMP JUMPDEST POP POP POP CALLER PUSH1 0x6 PUSH1 0x0 PUSH2 0x100 EXP DUP2 SLOAD DUP2 PUSH20 0xFFFFFFFFFFFFFFFFFFFFFFFFFFFFFFFFFFFFFFFF MUL NOT AND SWAP1 DUP4 PUSH20 0xFFFFFFFFFFFFFFFFFFFFFFFFFFFFFFFFFFFFFFFF AND MUL OR SWAP1 SSTORE POP PUSH3 0x10F ADDRESS PUSH10 0xD3C21BCECCEDA1000000 PUSH3 0x115 PUSH1 0x20 SHL PUSH1 0x20 SHR JUMP JUMPDEST PUSH3 0x4F4 JUMP JUMPDEST PUSH1 0x0 PUSH20 0xFFFFFFFFFFFFFFFFFFFFFFFFFFFFFFFFFFFFFFFF AND DUP3 PUSH20 0xFFFFFFFFFFFFFFFFFFFFFFFFFFFFFFFFFFFFFFFF AND EQ ISZERO PUSH3 0x188 JUMPI PUSH1 0x40 MLOAD PUSH32 0x8C379A000000000000000000000000000000000000000000000000000000000 DUP2 MSTORE PUSH1 0x4 ADD PUSH3 0x17F SWAP1 PUSH3 0x380 JUMP JUMPDEST PUSH1 0x40 MLOAD DUP1 SWAP2 SUB SWAP1 REVERT JUMPDEST PUSH3 0x19C PUSH1 0x0 DUP4 DUP4 PUSH3 0x28E PUSH1 0x20 SHL PUSH1 0x20 SHR JUMP JUMPDEST DUP1 PUSH1 0x2 PUSH1 0x0 DUP3 DUP3 SLOAD PUSH3 0x1B0 SWAP2 SWAP1 PUSH3 0x3D0 JUMP JUMPDEST SWAP3 POP POP DUP2 SWAP1 SSTORE POP DUP1 PUSH1 0x0 DUP1 DUP5 PUSH20 0xFFFFFFFFFFFFFFFFFFFFFFFFFFFFFFFFFFFFFFFF AND PUSH20 0xFFFFFFFFFFFFFFFFFFFFFFFFFFFFFFFFFFFFFFFF AND DUP2 MSTORE PUSH1 0x20 ADD SWAP1 DUP2 MSTORE PUSH1 0x20 ADD PUSH1 0x0 KECCAK256 PUSH1 0x0 DUP3 DUP3 SLOAD PUSH3 0x207 SWAP2 SWAP1 PUSH3 0x3D0 JUMP JUMPDEST SWAP3 POP POP DUP2 SWAP1 SSTORE POP DUP2 PUSH20 0xFFFFFFFFFFFFFFFFFFFFFFFFFFFFFFFFFFFFFFFF AND PUSH1 0x0 PUSH20 0xFFFFFFFFFFFFFFFFFFFFFFFFFFFFFFFFFFFFFFFF AND PUSH32 0xDDF252AD1BE2C89B69C2B068FC378DAA952BA7F163C4A11628F55A4DF523B3EF DUP4 PUSH1 0x40 MLOAD PUSH3 0x26E SWAP2 SWAP1 PUSH3 0x3A2 JUMP JUMPDEST PUSH1 0x40 MLOAD DUP1 SWAP2 SUB SWAP1 LOG3 PUSH3 0x28A PUSH1 0x0 DUP4 DUP4 PUSH3 0x293 PUSH1 0x20 SHL PUSH1 0x20 SHR JUMP JUMPDEST POP POP JUMP JUMPDEST POP POP POP JUMP JUMPDEST POP POP POP JUMP JUMPDEST DUP3 DUP1 SLOAD PUSH3 0x2A6 SWAP1 PUSH3 0x437 JUMP JUMPDEST SWAP1 PUSH1 0x0 MSTORE PUSH1 0x20 PUSH1 0x0 KECCAK256 SWAP1 PUSH1 0x1F ADD PUSH1 0x20 SWAP1 DIV DUP2 ADD SWAP3 DUP3 PUSH3 0x2CA JUMPI PUSH1 0x0 DUP6 SSTORE PUSH3 0x316 JUMP JUMPDEST DUP3 PUSH1 0x1F LT PUSH3 0x2E5 JUMPI DUP1 MLOAD PUSH1 0xFF NOT AND DUP4 DUP1 ADD OR DUP6 SSTORE PUSH3 0x316 JUMP JUMPDEST DUP3 DUP1 ADD PUSH1 0x1 ADD DUP6 SSTORE DUP3 ISZERO PUSH3 0x316 JUMPI SWAP2 DUP3 ADD JUMPDEST DUP3 DUP2 GT ISZERO PUSH3 0x315 JUMPI DUP3 MLOAD DUP3 SSTORE SWAP2 PUSH1 0x20 ADD SWAP2 SWAP1 PUSH1 0x1 ADD SWAP1 PUSH3 0x2F8 JUMP JUMPDEST JUMPDEST POP SWAP1 POP PUSH3 0x325 SWAP2 SWAP1 PUSH3 0x329 JUMP JUMPDEST POP SWAP1 JUMP JUMPDEST JUMPDEST DUP1 DUP3 GT ISZERO PUSH3 0x344 JUMPI PUSH1 0x0 DUP2 PUSH1 0x0 SWAP1 SSTORE POP PUSH1 0x1 ADD PUSH3 0x32A JUMP JUMPDEST POP SWAP1 JUMP JUMPDEST PUSH1 0x0 PUSH3 0x357 PUSH1 0x1F DUP4 PUSH3 0x3BF JUMP JUMPDEST SWAP2 POP PUSH3 0x364 DUP3 PUSH3 0x4CB JUMP JUMPDEST PUSH1 0x20 DUP3 ADD SWAP1 POP SWAP2 SWAP1 POP JUMP JUMPDEST PUSH3 0x37A DUP2 PUSH3 0x42D JUMP JUMPDEST DUP3 MSTORE POP POP JUMP JUMPDEST PUSH1 0x0 PUSH1 0x20 DUP3 ADD SWAP1 POP DUP2 DUP2 SUB PUSH1 0x0 DUP4 ADD MSTORE PUSH3 0x39B DUP2 PUSH3 0x348 JUMP JUMPDEST SWAP1 POP SWAP2 SWAP1 POP JUMP JUMPDEST PUSH1 0x0 PUSH1 0x20 DUP3 ADD SWAP1 POP PUSH3 0x3B9 PUSH1 0x0 DUP4 ADD DUP5 PUSH3 0x36F JUMP JUMPDEST SWAP3 SWAP2 POP POP JUMP JUMPDEST PUSH1 0x0 DUP3 DUP3 MSTORE PUSH1 0x20 DUP3 ADD SWAP1 POP SWAP3 SWAP2 POP POP JUMP JUMPDEST PUSH1 0x0 PUSH3 0x3DD DUP3 PUSH3 0x42D JUMP JUMPDEST SWAP2 POP PUSH3 0x3EA DUP4 PUSH3 0x42D JUMP JUMPDEST SWAP3 POP DUP3 PUSH32 0xFFFFFFFFFFFFFFFFFFFFFFFFFFFFFFFFFFFFFFFFFFFFFFFFFFFFFFFFFFFFFFFF SUB DUP3 GT ISZERO PUSH3 0x422 JUMPI PUSH3 0x421 PUSH3 0x46D JUMP JUMPDEST JUMPDEST DUP3 DUP3 ADD SWAP1 POP SWAP3 SWAP2 POP POP JUMP JUMPDEST PUSH1 0x0 DUP2 SWAP1 POP SWAP2 SWAP1 POP JUMP JUMPDEST PUSH1 0x0 PUSH1 0x2 DUP3 DIV SWAP1 POP PUSH1 0x1 DUP3 AND DUP1 PUSH3 0x450 JUMPI PUSH1 0x7F DUP3 AND SWAP2 POP JUMPDEST PUSH1 0x20 DUP3 LT DUP2 EQ ISZERO PUSH3 0x467 JUMPI PUSH3 0x466 PUSH3 0x49C JUMP JUMPDEST JUMPDEST POP SWAP2 SWAP1 POP JUMP JUMPDEST PUSH32 0x4E487B7100000000000000000000000000000000000000000000000000000000 PUSH1 0x0 MSTORE PUSH1 0x11 PUSH1 0x4 MSTORE PUSH1 0x24 PUSH1 0x0 REVERT JUMPDEST PUSH32 0x4E487B7100000000000000000000000000000000000000000000000000000000 PUSH1 0x0 MSTORE PUSH1 0x22 PUSH1 0x4 MSTORE PUSH1 0x24 PUSH1 0x0 REVERT JUMPDEST PUSH32 0x45524332303A206D696E7420746F20746865207A65726F206164647265737300 PUSH1 0x0 DUP3 ADD MSTORE POP JUMP JUMPDEST PUSH2 0x2A81 DUP1 PUSH3 0x504 PUSH1 0x0 CODECOPY PUSH1 0x0 RETURN INVALID PUSH1 0x80 PUSH1 0x40 MSTORE CALLVALUE DUP1 ISZERO PUSH2 0x10 JUMPI PUSH1 0x0 DUP1 REVERT JUMPDEST POP PUSH1 0x4 CALLDATASIZE LT PUSH2 0xEA JUMPI PUSH1 0x0 CALLDATALOAD PUSH1 0xE0 SHR DUP1 PUSH4 0x70A08231 GT PUSH2 0x8C JUMPI DUP1 PUSH4 0xA9059CBB GT PUSH2 0x66 JUMPI DUP1 PUSH4 0xA9059CBB EQ PUSH2 0x273 JUMPI DUP1 PUSH4 0xD65AB5F2 EQ PUSH2 0x2A3 JUMPI DUP1 PUSH4 0xDD62ED3E EQ PUSH2 0x2AD JUMPI DUP1 PUSH4 0xFCB1D746 EQ PUSH2 0x2DD JUMPI PUSH2 0xEA JUMP JUMPDEST DUP1 PUSH4 0x70A08231 EQ PUSH2 0x1F5 JUMPI DUP1 PUSH4 0x95D89B41 EQ PUSH2 0x225 JUMPI DUP1 PUSH4 0xA457C2D7 EQ PUSH2 0x243 JUMPI PUSH2 0xEA JUMP JUMPDEST DUP1 PUSH4 0x18160DDD GT PUSH2 0xC8 JUMPI DUP1 PUSH4 0x18160DDD EQ PUSH2 0x159 JUMPI DUP1 PUSH4 0x23B872DD EQ PUSH2 0x177 JUMPI DUP1 PUSH4 0x313CE567 EQ PUSH2 0x1A7 JUMPI DUP1 PUSH4 0x39509351 EQ PUSH2 0x1C5 JUMPI PUSH2 0xEA JUMP JUMPDEST DUP1 PUSH4 0x6FDDE03 EQ PUSH2 0xEF JUMPI DUP1 PUSH4 0x95EA7B3 EQ PUSH2 0x10D JUMPI DUP1 PUSH4 0xB4DAB98 EQ PUSH2 0x13D JUMPI JUMPDEST PUSH1 0x0 DUP1 REVERT JUMPDEST PUSH2 0xF7 PUSH2 0x30F JUMP JUMPDEST PUSH1 0x40 MLOAD PUSH2 0x104 SWAP2 SWAP1 PUSH2 0x20CB JUMP JUMPDEST PUSH1 0x40 MLOAD DUP1 SWAP2 SUB SWAP1 RETURN JUMPDEST PUSH2 0x127 PUSH1 0x4 DUP1 CALLDATASIZE SUB DUP2 ADD SWAP1 PUSH2 0x122 SWAP2 SWAP1 PUSH2 0x1D63 JUMP JUMPDEST PUSH2 0x3A1 JUMP JUMPDEST PUSH1 0x40 MLOAD PUSH2 0x134 SWAP2 SWAP1 PUSH2 0x20B0 JUMP JUMPDEST PUSH1 0x40 MLOAD DUP1 SWAP2 SUB SWAP1 RETURN JUMPDEST PUSH2 0x157 PUSH1 0x4 DUP1 CALLDATASIZE SUB DUP2 ADD SWAP1 PUSH2 0x152 SWAP2 SWAP1 PUSH2 0x1DE0 JUMP JUMPDEST PUSH2 0x3C4 JUMP JUMPDEST STOP JUMPDEST PUSH2 0x161 PUSH2 0x47B JUMP JUMPDEST PUSH1 0x40 MLOAD PUSH2 0x16E SWAP2 SWAP1 PUSH2 0x228D JUMP JUMPDEST PUSH1 0x40 MLOAD DUP1 SWAP2 SUB SWAP1 RETURN JUMPDEST PUSH2 0x191 PUSH1 0x4 DUP1 CALLDATASIZE SUB DUP2 ADD SWAP1 PUSH2 0x18C SWAP2 SWAP1 PUSH2 0x1D14 JUMP JUMPDEST PUSH2 0x485 JUMP JUMPDEST PUSH1 0x40 MLOAD PUSH2 0x19E SWAP2 SWAP1 PUSH2 0x20B0 JUMP JUMPDEST PUSH1 0x40 MLOAD DUP1 SWAP2 SUB SWAP1 RETURN JUMPDEST PUSH2 0x1AF PUSH2 0x4B4 JUMP JUMPDEST PUSH1 0x40 MLOAD PUSH2 0x1BC SWAP2 SWAP1 PUSH2 0x22E6 JUMP JUMPDEST PUSH1 0x40 MLOAD DUP1 SWAP2 SUB SWAP1 RETURN JUMPDEST PUSH2 0x1DF PUSH1 0x4 DUP1 CALLDATASIZE SUB DUP2 ADD SWAP1 PUSH2 0x1DA SWAP2 SWAP1 PUSH2 0x1D63 JUMP JUMPDEST PUSH2 0x4BD JUMP JUMPDEST PUSH1 0x40 MLOAD PUSH2 0x1EC SWAP2 SWAP1 PUSH2 0x20B0 JUMP JUMPDEST PUSH1 0x40 MLOAD DUP1 SWAP2 SUB SWAP1 RETURN JUMPDEST PUSH2 0x20F PUSH1 0x4 DUP1 CALLDATASIZE SUB DUP2 ADD SWAP1 PUSH2 0x20A SWAP2 SWAP1 PUSH2 0x1CAF JUMP JUMPDEST PUSH2 0x567 JUMP JUMPDEST PUSH1 0x40 MLOAD PUSH2 0x21C SWAP2 SWAP1 PUSH2 0x228D JUMP JUMPDEST PUSH1 0x40 MLOAD DUP1 SWAP2 SUB SWAP1 RETURN JUMPDEST PUSH2 0x22D PUSH2 0x5AF JUMP JUMPDEST PUSH1 0x40 MLOAD PUSH2 0x23A SWAP2 SWAP1 PUSH2 0x20CB JUMP JUMPDEST PUSH1 0x40 MLOAD DUP1 SWAP2 SUB SWAP1 RETURN JUMPDEST PUSH2 0x25D PUSH1 0x4 DUP1 CALLDATASIZE SUB DUP2 ADD SWAP1 PUSH2 0x258 SWAP2 SWAP1 PUSH2 0x1D63 JUMP JUMPDEST PUSH2 0x641 JUMP JUMPDEST PUSH1 0x40 MLOAD PUSH2 0x26A SWAP2 SWAP1 PUSH2 0x20B0 JUMP JUMPDEST PUSH1 0x40 MLOAD DUP1 SWAP2 SUB SWAP1 RETURN JUMPDEST PUSH2 0x28D PUSH1 0x4 DUP1 CALLDATASIZE SUB DUP2 ADD SWAP1 PUSH2 0x288 SWAP2 SWAP1 PUSH2 0x1D63 JUMP JUMPDEST PUSH2 0x72B JUMP JUMPDEST PUSH1 0x40 MLOAD PUSH2 0x29A SWAP2 SWAP1 PUSH2 0x20B0 JUMP JUMPDEST PUSH1 0x40 MLOAD DUP1 SWAP2 SUB SWAP1 RETURN JUMPDEST PUSH2 0x2AB PUSH2 0x74E JUMP JUMPDEST STOP JUMPDEST PUSH2 0x2C7 PUSH1 0x4 DUP1 CALLDATASIZE SUB DUP2 ADD SWAP1 PUSH2 0x2C2 SWAP2 SWAP1 PUSH2 0x1CD8 JUMP JUMPDEST PUSH2 0x8AF JUMP JUMPDEST PUSH1 0x40 MLOAD PUSH2 0x2D4 SWAP2 SWAP1 PUSH2 0x228D JUMP JUMPDEST PUSH1 0x40 MLOAD DUP1 SWAP2 SUB SWAP1 RETURN JUMPDEST PUSH2 0x2F7 PUSH1 0x4 DUP1 CALLDATASIZE SUB DUP2 ADD SWAP1 PUSH2 0x2F2 SWAP2 SWAP1 PUSH2 0x1D9F JUMP JUMPDEST PUSH2 0x936 JUMP JUMPDEST PUSH1 0x40 MLOAD PUSH2 0x306 SWAP4 SWAP3 SWAP2 SWAP1 PUSH2 0x22A8 JUMP JUMPDEST PUSH1 0x40 MLOAD DUP1 SWAP2 SUB SWAP1 RETURN JUMPDEST PUSH1 0x60 PUSH1 0x3 DUP1 SLOAD PUSH2 0x31E SWAP1 PUSH2 0x24C9 JUMP JUMPDEST DUP1 PUSH1 0x1F ADD PUSH1 0x20 DUP1 SWAP2 DIV MUL PUSH1 0x20 ADD PUSH1 0x40 MLOAD SWAP1 DUP2 ADD PUSH1 0x40 MSTORE DUP1 SWAP3 SWAP2 SWAP1 DUP2 DUP2 MSTORE PUSH1 0x20 ADD DUP3 DUP1 SLOAD PUSH2 0x34A SWAP1 PUSH2 0x24C9 JUMP JUMPDEST DUP1 ISZERO PUSH2 0x397 JUMPI DUP1 PUSH1 0x1F LT PUSH2 0x36C JUMPI PUSH2 0x100 DUP1 DUP4 SLOAD DIV MUL DUP4 MSTORE SWAP2 PUSH1 0x20 ADD SWAP2 PUSH2 0x397 JUMP JUMPDEST DUP3 ADD SWAP2 SWAP1 PUSH1 0x0 MSTORE PUSH1 0x20 PUSH1 0x0 KECCAK256 SWAP1 JUMPDEST DUP2 SLOAD DUP2 MSTORE SWAP1 PUSH1 0x1 ADD SWAP1 PUSH1 0x20 ADD DUP1 DUP4 GT PUSH2 0x37A JUMPI DUP3 SWAP1 SUB PUSH1 0x1F AND DUP3 ADD SWAP2 JUMPDEST POP POP POP POP POP SWAP1 POP SWAP1 JUMP JUMPDEST PUSH1 0x0 DUP1 PUSH2 0x3AC PUSH2 0xC7E JUMP JUMPDEST SWAP1 POP PUSH2 0x3B9 DUP2 DUP6 DUP6 PUSH2 0xC86 JUMP JUMPDEST PUSH1 0x1 SWAP2 POP POP SWAP3 SWAP2 POP POP JUMP JUMPDEST PUSH1 0x6 PUSH1 0x0 SWAP1 SLOAD SWAP1 PUSH2 0x100 EXP SWAP1 DIV PUSH20 0xFFFFFFFFFFFFFFFFFFFFFFFFFFFFFFFFFFFFFFFF AND PUSH20 0xFFFFFFFFFFFFFFFFFFFFFFFFFFFFFFFFFFFFFFFF AND CALLER PUSH20 0xFFFFFFFFFFFFFFFFFFFFFFFFFFFFFFFFFFFFFFFF AND EQ PUSH2 0x44B JUMPI PUSH1 0x40 MLOAD PUSH32 0x30CD747100000000000000000000000000000000000000000000000000000000 DUP2 MSTORE PUSH1 0x4 ADD PUSH1 0x40 MLOAD DUP1 SWAP2 SUB SWAP1 REVERT JUMPDEST PUSH2 0x478 ADDRESS PUSH1 0x6 PUSH1 0x0 SWAP1 SLOAD SWAP1 PUSH2 0x100 EXP SWAP1 DIV PUSH20 0xFFFFFFFFFFFFFFFFFFFFFFFFFFFFFFFFFFFFFFFF AND DUP4 PUSH2 0xE51 JUMP JUMPDEST POP JUMP JUMPDEST PUSH1 0x0 PUSH1 0x2 SLOAD SWAP1 POP SWAP1 JUMP JUMPDEST PUSH1 0x0 DUP1 PUSH2 0x490 PUSH2 0xC7E JUMP JUMPDEST SWAP1 POP PUSH2 0x49D DUP6 DUP3 DUP6 PUSH2 0x10D2 JUMP JUMPDEST PUSH2 0x4A8 DUP6 DUP6 DUP6 PUSH2 0xE51 JUMP JUMPDEST PUSH1 0x1 SWAP2 POP POP SWAP4 SWAP3 POP POP POP JUMP JUMPDEST PUSH1 0x0 PUSH1 0x12 SWAP1 POP SWAP1 JUMP JUMPDEST PUSH1 0x0 DUP1 PUSH2 0x4C8 PUSH2 0xC7E JUMP JUMPDEST SWAP1 POP PUSH2 0x55C DUP2 DUP6 DUP6 PUSH1 0x1 PUSH1 0x0 DUP7 PUSH20 0xFFFFFFFFFFFFFFFFFFFFFFFFFFFFFFFFFFFFFFFF AND PUSH20 0xFFFFFFFFFFFFFFFFFFFFFFFFFFFFFFFFFFFFFFFF AND DUP2 MSTORE PUSH1 0x20 ADD SWAP1 DUP2 MSTORE PUSH1 0x20 ADD PUSH1 0x0 KECCAK256 PUSH1 0x0 DUP10 PUSH20 0xFFFFFFFFFFFFFFFFFFFFFFFFFFFFFFFFFFFFFFFF AND PUSH20 0xFFFFFFFFFFFFFFFFFFFFFFFFFFFFFFFFFFFFFFFF AND DUP2 MSTORE PUSH1 0x20 ADD SWAP1 DUP2 MSTORE PUSH1 0x20 ADD PUSH1 0x0 KECCAK256 SLOAD PUSH2 0x557 SWAP2 SWAP1 PUSH2 0x23A5 JUMP JUMPDEST PUSH2 0xC86 JUMP JUMPDEST PUSH1 0x1 SWAP2 POP POP SWAP3 SWAP2 POP POP JUMP JUMPDEST PUSH1 0x0 DUP1 PUSH1 0x0 DUP4 PUSH20 0xFFFFFFFFFFFFFFFFFFFFFFFFFFFFFFFFFFFFFFFF AND PUSH20 0xFFFFFFFFFFFFFFFFFFFFFFFFFFFFFFFFFFFFFFFF AND DUP2 MSTORE PUSH1 0x20 ADD SWAP1 DUP2 MSTORE PUSH1 0x20 ADD PUSH1 0x0 KECCAK256 SLOAD SWAP1 POP SWAP2 SWAP1 POP JUMP JUMPDEST PUSH1 0x60 PUSH1 0x4 DUP1 SLOAD PUSH2 0x5BE SWAP1 PUSH2 0x24C9 JUMP JUMPDEST DUP1 PUSH1 0x1F ADD PUSH1 0x20 DUP1 SWAP2 DIV MUL PUSH1 0x20 ADD PUSH1 0x40 MLOAD SWAP1 DUP2 ADD PUSH1 0x40 MSTORE DUP1 SWAP3 SWAP2 SWAP1 DUP2 DUP2 MSTORE PUSH1 0x20 ADD DUP3 DUP1 SLOAD PUSH2 0x5EA SWAP1 PUSH2 0x24C9 JUMP JUMPDEST DUP1 ISZERO PUSH2 0x637 JUMPI DUP1 PUSH1 0x1F LT PUSH2 0x60C JUMPI PUSH2 0x100 DUP1 DUP4 SLOAD DIV MUL DUP4 MSTORE SWAP2 PUSH1 0x20 ADD SWAP2 PUSH2 0x637 JUMP JUMPDEST DUP3 ADD SWAP2 SWAP1 PUSH1 0x0 MSTORE PUSH1 0x20 PUSH1 0x0 KECCAK256 SWAP1 JUMPDEST DUP2 SLOAD DUP2 MSTORE SWAP1 PUSH1 0x1 ADD SWAP1 PUSH1 0x20 ADD DUP1 DUP4 GT PUSH2 0x61A JUMPI DUP3 SWAP1 SUB PUSH1 0x1F AND DUP3 ADD SWAP2 JUMPDEST POP POP POP POP POP SWAP1 POP SWAP1 JUMP JUMPDEST PUSH1 0x0 DUP1 PUSH2 0x64C PUSH2 0xC7E JUMP JUMPDEST SWAP1 POP PUSH1 0x0 PUSH1 0x1 PUSH1 0x0 DUP4 PUSH20 0xFFFFFFFFFFFFFFFFFFFFFFFFFFFFFFFFFFFFFFFF AND PUSH20 0xFFFFFFFFFFFFFFFFFFFFFFFFFFFFFFFFFFFFFFFF AND DUP2 MSTORE PUSH1 0x20 ADD SWAP1 DUP2 MSTORE PUSH1 0x20 ADD PUSH1 0x0 KECCAK256 PUSH1 0x0 DUP7 PUSH20 0xFFFFFFFFFFFFFFFFFFFFFFFFFFFFFFFFFFFFFFFF AND PUSH20 0xFFFFFFFFFFFFFFFFFFFFFFFFFFFFFFFFFFFFFFFF AND DUP2 MSTORE PUSH1 0x20 ADD SWAP1 DUP2 MSTORE PUSH1 0x20 ADD PUSH1 0x0 KECCAK256 SLOAD SWAP1 POP DUP4 DUP2 LT ISZERO PUSH2 0x712 JUMPI PUSH1 0x40 MLOAD PUSH32 0x8C379A000000000000000000000000000000000000000000000000000000000 DUP2 MSTORE PUSH1 0x4 ADD PUSH2 0x709 SWAP1 PUSH2 0x224D JUMP JUMPDEST PUSH1 0x40 MLOAD DUP1 SWAP2 SUB SWAP1 REVERT JUMPDEST PUSH2 0x71F DUP3 DUP7 DUP7 DUP5 SUB PUSH2 0xC86 JUMP JUMPDEST PUSH1 0x1 SWAP3 POP POP POP SWAP3 SWAP2 POP POP JUMP JUMPDEST PUSH1 0x0 DUP1 PUSH2 0x736 PUSH2 0xC7E JUMP JUMPDEST SWAP1 POP PUSH2 0x743 DUP2 DUP6 DUP6 PUSH2 0xE51 JUMP JUMPDEST PUSH1 0x1 SWAP2 POP POP SWAP3 SWAP2 POP POP JUMP JUMPDEST PUSH1 0x0 PUSH1 0x7 PUSH1 0x0 CALLER PUSH20 0xFFFFFFFFFFFFFFFFFFFFFFFFFFFFFFFFFFFFFFFF AND PUSH20 0xFFFFFFFFFFFFFFFFFFFFFFFFFFFFFFFFFFFFFFFF AND DUP2 MSTORE PUSH1 0x20 ADD SWAP1 DUP2 MSTORE PUSH1 0x20 ADD PUSH1 0x0 KECCAK256 SWAP1 POP PUSH2 0x799 PUSH2 0x115E JUMP JUMPDEST PUSH2 0x7AC CALLER PUSH9 0x56BC75E2D63100000 PUSH2 0x120A JUMP JUMPDEST JUMPDEST PUSH1 0x4 DUP2 PUSH1 0x1 ADD DUP1 SLOAD SWAP1 POP LT ISZERO PUSH2 0x8AC JUMPI PUSH1 0x0 PUSH2 0x7C7 PUSH2 0x136A JUMP JUMPDEST SWAP1 POP PUSH1 0x0 DUP1 JUMPDEST DUP4 PUSH1 0x1 ADD DUP1 SLOAD SWAP1 POP DUP2 LT ISZERO PUSH2 0x846 JUMPI DUP3 DUP5 PUSH1 0x1 ADD DUP3 DUP2 SLOAD DUP2 LT PUSH2 0x819 JUMPI PUSH32 0x4E487B7100000000000000000000000000000000000000000000000000000000 PUSH1 0x0 MSTORE PUSH1 0x32 PUSH1 0x4 MSTORE PUSH1 0x24 PUSH1 0x0 REVERT JUMPDEST SWAP1 PUSH1 0x0 MSTORE PUSH1 0x20 PUSH1 0x0 KECCAK256 ADD SLOAD EQ ISZERO PUSH2 0x833 JUMPI PUSH1 0x1 SWAP2 POP PUSH2 0x846 JUMP JUMPDEST DUP1 DUP1 PUSH2 0x83E SWAP1 PUSH2 0x252C JUMP JUMPDEST SWAP2 POP POP PUSH2 0x7CD JUMP JUMPDEST POP DUP1 PUSH2 0x8A5 JUMPI DUP3 PUSH1 0x1 ADD DUP3 SWAP1 DUP1 PUSH1 0x1 DUP2 SLOAD ADD DUP1 DUP3 SSTORE DUP1 SWAP2 POP POP PUSH1 0x1 SWAP1 SUB SWAP1 PUSH1 0x0 MSTORE PUSH1 0x20 PUSH1 0x0 KECCAK256 ADD PUSH1 0x0 SWAP1 SWAP2 SWAP1 SWAP2 SWAP1 SWAP2 POP SSTORE DUP2 DUP4 PUSH1 0x3 ADD PUSH1 0x0 PUSH1 0x1 DUP7 PUSH1 0x1 ADD DUP1 SLOAD SWAP1 POP PUSH2 0x892 SWAP2 SWAP1 PUSH2 0x23FB JUMP JUMPDEST DUP2 MSTORE PUSH1 0x20 ADD SWAP1 DUP2 MSTORE PUSH1 0x20 ADD PUSH1 0x0 KECCAK256 DUP2 SWAP1 SSTORE POP JUMPDEST POP POP PUSH2 0x7AD JUMP JUMPDEST POP JUMP JUMPDEST PUSH1 0x0 PUSH1 0x1 PUSH1 0x0 DUP5 PUSH20 0xFFFFFFFFFFFFFFFFFFFFFFFFFFFFFFFFFFFFFFFF AND PUSH20 0xFFFFFFFFFFFFFFFFFFFFFFFFFFFFFFFFFFFFFFFF AND DUP2 MSTORE PUSH1 0x20 ADD SWAP1 DUP2 MSTORE PUSH1 0x20 ADD PUSH1 0x0 KECCAK256 PUSH1 0x0 DUP4 PUSH20 0xFFFFFFFFFFFFFFFFFFFFFFFFFFFFFFFFFFFFFFFF AND PUSH20 0xFFFFFFFFFFFFFFFFFFFFFFFFFFFFFFFFFFFFFFFF AND DUP2 MSTORE PUSH1 0x20 ADD SWAP1 DUP2 MSTORE PUSH1 0x20 ADD PUSH1 0x0 KECCAK256 SLOAD SWAP1 POP SWAP3 SWAP2 POP POP JUMP JUMPDEST PUSH1 0x0 DUP1 PUSH1 0x60 DUP4 PUSH1 0x4 DUP2 MLOAD EQ PUSH2 0x980 JUMPI PUSH1 0x40 MLOAD PUSH32 0x8C379A000000000000000000000000000000000000000000000000000000000 DUP2 MSTORE PUSH1 0x4 ADD PUSH2 0x977 SWAP1 PUSH2 0x218D JUMP JUMPDEST PUSH1 0x40 MLOAD DUP1 SWAP2 SUB SWAP1 REVERT JUMPDEST PUSH1 0x1 ISZERO ISZERO PUSH2 0x98D DUP3 PUSH2 0x13CC JUMP JUMPDEST ISZERO ISZERO EQ PUSH2 0x9CF JUMPI PUSH1 0x40 MLOAD PUSH32 0x8C379A000000000000000000000000000000000000000000000000000000000 DUP2 MSTORE PUSH1 0x4 ADD PUSH2 0x9C6 SWAP1 PUSH2 0x21AD JUMP JUMPDEST PUSH1 0x40 MLOAD DUP1 SWAP2 SUB SWAP1 REVERT JUMPDEST PUSH2 0x9D8 DUP6 PUSH2 0x14C1 JUMP JUMPDEST DUP1 SWAP5 POP DUP2 SWAP6 POP POP POP PUSH1 0x0 PUSH1 0x7 PUSH1 0x0 CALLER PUSH20 0xFFFFFFFFFFFFFFFFFFFFFFFFFFFFFFFFFFFFFFFF AND PUSH20 0xFFFFFFFFFFFFFFFFFFFFFFFFFFFFFFFFFFFFFFFF AND DUP2 MSTORE PUSH1 0x20 ADD SWAP1 DUP2 MSTORE PUSH1 0x20 ADD PUSH1 0x0 KECCAK256 SWAP1 POP PUSH9 0x3635C9ADC5DEA00000 PUSH2 0xA36 CALLER PUSH2 0x567 JUMP JUMPDEST LT DUP1 ISZERO PUSH2 0xA43 JUMPI POP PUSH1 0x4 DUP5 EQ JUMPDEST ISZERO PUSH2 0xA51 JUMPI PUSH2 0xA50 PUSH2 0x74E JUMP JUMPDEST JUMPDEST PUSH9 0x3635C9ADC5DEA00000 PUSH2 0xA64 CALLER PUSH2 0x567 JUMP JUMPDEST LT DUP1 ISZERO PUSH2 0xA71 JUMPI POP PUSH1 0x4 DUP5 LT JUMPDEST ISZERO PUSH2 0xAEC JUMPI PUSH2 0xA7F DUP5 PUSH2 0x166F JUMP JUMPDEST SWAP3 POP PUSH1 0x0 DUP2 PUSH1 0x0 ADD PUSH1 0x0 PUSH2 0x100 EXP DUP2 SLOAD DUP2 PUSH1 0xFF MUL NOT AND SWAP1 DUP4 PUSH1 0xFF AND MUL OR SWAP1 SSTORE POP PUSH32 0x724A5668431AAC6C0FA9DCB7110322CA2FEE6B029956D275C779FFCD6F0B06B4 DUP2 PUSH1 0x0 ADD PUSH1 0x0 SWAP1 SLOAD SWAP1 PUSH2 0x100 EXP SWAP1 DIV PUSH1 0xFF AND DUP6 DUP8 PUSH1 0x40 MLOAD PUSH2 0xAE3 SWAP4 SWAP3 SWAP2 SWAP1 PUSH2 0x2301 JUMP JUMPDEST PUSH1 0x40 MLOAD DUP1 SWAP2 SUB SWAP1 LOG1 JUMPDEST PUSH2 0xAFF CALLER PUSH9 0x3635C9ADC5DEA00000 PUSH2 0x19A4 JUMP JUMPDEST DUP1 PUSH1 0x0 ADD PUSH1 0x0 DUP2 DUP2 SWAP1 SLOAD SWAP1 PUSH2 0x100 EXP SWAP1 DIV PUSH1 0xFF AND DUP1 SWAP3 SWAP2 SWAP1 PUSH2 0xB20 SWAP1 PUSH2 0x2575 JUMP JUMPDEST SWAP2 SWAP1 PUSH2 0x100 EXP DUP2 SLOAD DUP2 PUSH1 0xFF MUL NOT AND SWAP1 DUP4 PUSH1 0xFF AND MUL OR SWAP1 SSTORE POP POP DUP6 DUP2 PUSH1 0x2 ADD PUSH1 0x0 DUP4 PUSH1 0x0 ADD PUSH1 0x0 SWAP1 SLOAD SWAP1 PUSH2 0x100 EXP SWAP1 DIV PUSH1 0xFF AND PUSH1 0xFF AND DUP2 MSTORE PUSH1 0x20 ADD SWAP1 DUP2 MSTORE PUSH1 0x20 ADD PUSH1 0x0 KECCAK256 SWAP1 DUP1 MLOAD SWAP1 PUSH1 0x20 ADD SWAP1 PUSH2 0xB76 SWAP3 SWAP2 SWAP1 PUSH2 0x1B85 JUMP JUMPDEST POP PUSH1 0x8 DUP2 PUSH1 0x0 ADD PUSH1 0x0 SWAP1 SLOAD SWAP1 PUSH2 0x100 EXP SWAP1 DIV PUSH1 0xFF AND PUSH1 0xFF AND GT DUP1 PUSH2 0xB9A JUMPI POP PUSH1 0x4 DUP5 EQ JUMPDEST ISZERO PUSH2 0xBA8 JUMPI PUSH2 0xBA7 PUSH2 0x74E JUMP JUMPDEST JUMPDEST PUSH1 0x8 DUP2 PUSH1 0x0 ADD PUSH1 0x0 SWAP1 SLOAD SWAP1 PUSH2 0x100 EXP SWAP1 DIV PUSH1 0xFF AND PUSH1 0xFF AND GT ISZERO PUSH2 0xC00 JUMPI PUSH1 0x40 MLOAD PUSH32 0x8C379A000000000000000000000000000000000000000000000000000000000 DUP2 MSTORE PUSH1 0x4 ADD PUSH2 0xBF7 SWAP1 PUSH2 0x222D JUMP JUMPDEST PUSH1 0x40 MLOAD DUP1 SWAP2 SUB SWAP1 REVERT JUMPDEST PUSH2 0xC09 DUP5 PUSH2 0x166F JUMP JUMPDEST SWAP3 POP PUSH1 0x0 DUP2 PUSH1 0x0 ADD PUSH1 0x0 PUSH2 0x100 EXP DUP2 SLOAD DUP2 PUSH1 0xFF MUL NOT AND SWAP1 DUP4 PUSH1 0xFF AND MUL OR SWAP1 SSTORE POP PUSH32 0x724A5668431AAC6C0FA9DCB7110322CA2FEE6B029956D275C779FFCD6F0B06B4 DUP2 PUSH1 0x0 ADD PUSH1 0x0 SWAP1 SLOAD SWAP1 PUSH2 0x100 EXP SWAP1 DIV PUSH1 0xFF AND DUP6 DUP8 PUSH1 0x40 MLOAD PUSH2 0xC6D SWAP4 SWAP3 SWAP2 SWAP1 PUSH2 0x2301 JUMP JUMPDEST PUSH1 0x40 MLOAD DUP1 SWAP2 SUB SWAP1 LOG1 POP POP SWAP2 SWAP4 SWAP1 SWAP3 POP JUMP JUMPDEST PUSH1 0x0 CALLER SWAP1 POP SWAP1 JUMP JUMPDEST PUSH1 0x0 PUSH20 0xFFFFFFFFFFFFFFFFFFFFFFFFFFFFFFFFFFFFFFFF AND DUP4 PUSH20 0xFFFFFFFFFFFFFFFFFFFFFFFFFFFFFFFFFFFFFFFF AND EQ ISZERO PUSH2 0xCF6 JUMPI PUSH1 0x40 MLOAD PUSH32 0x8C379A000000000000000000000000000000000000000000000000000000000 DUP2 MSTORE PUSH1 0x4 ADD PUSH2 0xCED SWAP1 PUSH2 0x220D JUMP JUMPDEST PUSH1 0x40 MLOAD DUP1 SWAP2 SUB SWAP1 REVERT JUMPDEST PUSH1 0x0 PUSH20 0xFFFFFFFFFFFFFFFFFFFFFFFFFFFFFFFFFFFFFFFF AND DUP3 PUSH20 0xFFFFFFFFFFFFFFFFFFFFFFFFFFFFFFFFFFFFFFFF AND EQ ISZERO PUSH2 0xD66 JUMPI PUSH1 0x40 MLOAD PUSH32 0x8C379A000000000000000000000000000000000000000000000000000000000 DUP2 MSTORE PUSH1 0x4 ADD PUSH2 0xD5D SWAP1 PUSH2 0x212D JUMP JUMPDEST PUSH1 0x40 MLOAD DUP1 SWAP2 SUB SWAP1 REVERT JUMPDEST DUP1 PUSH1 0x1 PUSH1 0x0 DUP6 PUSH20 0xFFFFFFFFFFFFFFFFFFFFFFFFFFFFFFFFFFFFFFFF AND PUSH20 0xFFFFFFFFFFFFFFFFFFFFFFFFFFFFFFFFFFFFFFFF AND DUP2 MSTORE PUSH1 0x20 ADD SWAP1 DUP2 MSTORE PUSH1 0x20 ADD PUSH1 0x0 KECCAK256 PUSH1 0x0 DUP5 PUSH20 0xFFFFFFFFFFFFFFFFFFFFFFFFFFFFFFFFFFFFFFFF AND PUSH20 0xFFFFFFFFFFFFFFFFFFFFFFFFFFFFFFFFFFFFFFFF AND DUP2 MSTORE PUSH1 0x20 ADD SWAP1 DUP2 MSTORE PUSH1 0x20 ADD PUSH1 0x0 KECCAK256 DUP2 SWAP1 SSTORE POP DUP2 PUSH20 0xFFFFFFFFFFFFFFFFFFFFFFFFFFFFFFFFFFFFFFFF AND DUP4 PUSH20 0xFFFFFFFFFFFFFFFFFFFFFFFFFFFFFFFFFFFFFFFF AND PUSH32 0x8C5BE1E5EBEC7D5BD14F71427D1E84F3DD0314C0F7B2291E5B200AC8C7C3B925 DUP4 PUSH1 0x40 MLOAD PUSH2 0xE44 SWAP2 SWAP1 PUSH2 0x228D JUMP JUMPDEST PUSH1 0x40 MLOAD DUP1 SWAP2 SUB SWAP1 LOG3 POP POP POP JUMP JUMPDEST PUSH1 0x0 PUSH20 0xFFFFFFFFFFFFFFFFFFFFFFFFFFFFFFFFFFFFFFFF AND DUP4 PUSH20 0xFFFFFFFFFFFFFFFFFFFFFFFFFFFFFFFFFFFFFFFF AND EQ ISZERO PUSH2 0xEC1 JUMPI PUSH1 0x40 MLOAD PUSH32 0x8C379A000000000000000000000000000000000000000000000000000000000 DUP2 MSTORE PUSH1 0x4 ADD PUSH2 0xEB8 SWAP1 PUSH2 0x21ED JUMP JUMPDEST PUSH1 0x40 MLOAD DUP1 SWAP2 SUB SWAP1 REVERT JUMPDEST PUSH1 0x0 PUSH20 0xFFFFFFFFFFFFFFFFFFFFFFFFFFFFFFFFFFFFFFFF AND DUP3 PUSH20 0xFFFFFFFFFFFFFFFFFFFFFFFFFFFFFFFFFFFFFFFF AND EQ ISZERO PUSH2 0xF31 JUMPI PUSH1 0x40 MLOAD PUSH32 0x8C379A000000000000000000000000000000000000000000000000000000000 DUP2 MSTORE PUSH1 0x4 ADD PUSH2 0xF28 SWAP1 PUSH2 0x20ED JUMP JUMPDEST PUSH1 0x40 MLOAD DUP1 SWAP2 SUB SWAP1 REVERT JUMPDEST PUSH2 0xF3C DUP4 DUP4 DUP4 PUSH2 0x1B7B JUMP JUMPDEST PUSH1 0x0 DUP1 PUSH1 0x0 DUP6 PUSH20 0xFFFFFFFFFFFFFFFFFFFFFFFFFFFFFFFFFFFFFFFF AND PUSH20 0xFFFFFFFFFFFFFFFFFFFFFFFFFFFFFFFFFFFFFFFF AND DUP2 MSTORE PUSH1 0x20 ADD SWAP1 DUP2 MSTORE PUSH1 0x20 ADD PUSH1 0x0 KECCAK256 SLOAD SWAP1 POP DUP2 DUP2 LT ISZERO PUSH2 0xFC2 JUMPI PUSH1 0x40 MLOAD PUSH32 0x8C379A000000000000000000000000000000000000000000000000000000000 DUP2 MSTORE PUSH1 0x4 ADD PUSH2 0xFB9 SWAP1 PUSH2 0x216D JUMP JUMPDEST PUSH1 0x40 MLOAD DUP1 SWAP2 SUB SWAP1 REVERT JUMPDEST DUP2 DUP2 SUB PUSH1 0x0 DUP1 DUP7 PUSH20 0xFFFFFFFFFFFFFFFFFFFFFFFFFFFFFFFFFFFFFFFF AND PUSH20 0xFFFFFFFFFFFFFFFFFFFFFFFFFFFFFFFFFFFFFFFF AND DUP2 MSTORE PUSH1 0x20 ADD SWAP1 DUP2 MSTORE PUSH1 0x20 ADD PUSH1 0x0 KECCAK256 DUP2 SWAP1 SSTORE POP DUP2 PUSH1 0x0 DUP1 DUP6 PUSH20 0xFFFFFFFFFFFFFFFFFFFFFFFFFFFFFFFFFFFFFFFF AND PUSH20 0xFFFFFFFFFFFFFFFFFFFFFFFFFFFFFFFFFFFFFFFF AND DUP2 MSTORE PUSH1 0x20 ADD SWAP1 DUP2 MSTORE PUSH1 0x20 ADD PUSH1 0x0 KECCAK256 PUSH1 0x0 DUP3 DUP3 SLOAD PUSH2 0x1055 SWAP2 SWAP1 PUSH2 0x23A5 JUMP JUMPDEST SWAP3 POP POP DUP2 SWAP1 SSTORE POP DUP3 PUSH20 0xFFFFFFFFFFFFFFFFFFFFFFFFFFFFFFFFFFFFFFFF AND DUP5 PUSH20 0xFFFFFFFFFFFFFFFFFFFFFFFFFFFFFFFFFFFFFFFF AND PUSH32 0xDDF252AD1BE2C89B69C2B068FC378DAA952BA7F163C4A11628F55A4DF523B3EF DUP5 PUSH1 0x40 MLOAD PUSH2 0x10B9 SWAP2 SWAP1 PUSH2 0x228D JUMP JUMPDEST PUSH1 0x40 MLOAD DUP1 SWAP2 SUB SWAP1 LOG3 PUSH2 0x10CC DUP5 DUP5 DUP5 PUSH2 0x1B80 JUMP JUMPDEST POP POP POP POP JUMP JUMPDEST PUSH1 0x0 PUSH2 0x10DE DUP5 DUP5 PUSH2 0x8AF JUMP JUMPDEST SWAP1 POP PUSH32 0xFFFFFFFFFFFFFFFFFFFFFFFFFFFFFFFFFFFFFFFFFFFFFFFFFFFFFFFFFFFFFFFF DUP2 EQ PUSH2 0x1158 JUMPI DUP2 DUP2 LT ISZERO PUSH2 0x114A JUMPI PUSH1 0x40 MLOAD PUSH32 0x8C379A000000000000000000000000000000000000000000000000000000000 DUP2 MSTORE PUSH1 0x4 ADD PUSH2 0x1141 SWAP1 PUSH2 0x214D JUMP JUMPDEST PUSH1 0x40 MLOAD DUP1 SWAP2 SUB SWAP1 REVERT JUMPDEST PUSH2 0x1157 DUP5 DUP5 DUP5 DUP5 SUB PUSH2 0xC86 JUMP JUMPDEST JUMPDEST POP POP POP POP JUMP JUMPDEST PUSH1 0x0 PUSH1 0x7 PUSH1 0x0 CALLER PUSH20 0xFFFFFFFFFFFFFFFFFFFFFFFFFFFFFFFFFFFFFFFF AND PUSH20 0xFFFFFFFFFFFFFFFFFFFFFFFFFFFFFFFFFFFFFFFF AND DUP2 MSTORE PUSH1 0x20 ADD SWAP1 DUP2 MSTORE PUSH1 0x20 ADD PUSH1 0x0 KECCAK256 SWAP1 POP JUMPDEST PUSH1 0x0 DUP2 PUSH1 0x1 ADD DUP1 SLOAD SWAP1 POP GT ISZERO PUSH2 0x1207 JUMPI DUP1 PUSH1 0x1 ADD DUP1 SLOAD DUP1 PUSH2 0x11EC JUMPI PUSH32 0x4E487B7100000000000000000000000000000000000000000000000000000000 PUSH1 0x0 MSTORE PUSH1 0x31 PUSH1 0x4 MSTORE PUSH1 0x24 PUSH1 0x0 REVERT JUMPDEST PUSH1 0x1 SWAP1 SUB DUP2 DUP2 SWAP1 PUSH1 0x0 MSTORE PUSH1 0x20 PUSH1 0x0 KECCAK256 ADD PUSH1 0x0 SWAP1 SSTORE SWAP1 SSTORE PUSH2 0x11A2 JUMP JUMPDEST POP JUMP JUMPDEST PUSH1 0x0 PUSH20 0xFFFFFFFFFFFFFFFFFFFFFFFFFFFFFFFFFFFFFFFF AND DUP3 PUSH20 0xFFFFFFFFFFFFFFFFFFFFFFFFFFFFFFFFFFFFFFFF AND EQ ISZERO PUSH2 0x127A JUMPI PUSH1 0x40 MLOAD PUSH32 0x8C379A000000000000000000000000000000000000000000000000000000000 DUP2 MSTORE PUSH1 0x4 ADD PUSH2 0x1271 SWAP1 PUSH2 0x226D JUMP JUMPDEST PUSH1 0x40 MLOAD DUP1 SWAP2 SUB SWAP1 REVERT JUMPDEST PUSH2 0x1286 PUSH1 0x0 DUP4 DUP4 PUSH2 0x1B7B JUMP JUMPDEST DUP1 PUSH1 0x2 PUSH1 0x0 DUP3 DUP3 SLOAD PUSH2 0x1298 SWAP2 SWAP1 PUSH2 0x23A5 JUMP JUMPDEST SWAP3 POP POP DUP2 SWAP1 SSTORE POP DUP1 PUSH1 0x0 DUP1 DUP5 PUSH20 0xFFFFFFFFFFFFFFFFFFFFFFFFFFFFFFFFFFFFFFFF AND PUSH20 0xFFFFFFFFFFFFFFFFFFFFFFFFFFFFFFFFFFFFFFFF AND DUP2 MSTORE PUSH1 0x20 ADD SWAP1 DUP2 MSTORE PUSH1 0x20 ADD PUSH1 0x0 KECCAK256 PUSH1 0x0 DUP3 DUP3 SLOAD PUSH2 0x12ED SWAP2 SWAP1 PUSH2 0x23A5 JUMP JUMPDEST SWAP3 POP POP DUP2 SWAP1 SSTORE POP DUP2 PUSH20 0xFFFFFFFFFFFFFFFFFFFFFFFFFFFFFFFFFFFFFFFF AND PUSH1 0x0 PUSH20 0xFFFFFFFFFFFFFFFFFFFFFFFFFFFFFFFFFFFFFFFF AND PUSH32 0xDDF252AD1BE2C89B69C2B068FC378DAA952BA7F163C4A11628F55A4DF523B3EF DUP4 PUSH1 0x40 MLOAD PUSH2 0x1352 SWAP2 SWAP1 PUSH2 0x228D JUMP JUMPDEST PUSH1 0x40 MLOAD DUP1 SWAP2 SUB SWAP1 LOG3 PUSH2 0x1366 PUSH1 0x0 DUP4 DUP4 PUSH2 0x1B80 JUMP JUMPDEST POP POP JUMP JUMPDEST PUSH1 0x0 DUP1 PUSH1 0xA SWAP1 POP PUSH1 0x1 PUSH1 0x5 PUSH1 0x0 DUP3 DUP3 SLOAD PUSH2 0x1384 SWAP2 SWAP1 PUSH2 0x23A5 JUMP JUMPDEST SWAP3 POP POP DUP2 SWAP1 SSTORE POP DUP1 TIMESTAMP PUSH1 0x5 SLOAD CALLER PUSH1 0x40 MLOAD PUSH1 0x20 ADD PUSH2 0x13A3 SWAP4 SWAP3 SWAP2 SWAP1 PUSH2 0x2073 JUMP JUMPDEST PUSH1 0x40 MLOAD PUSH1 0x20 DUP2 DUP4 SUB SUB DUP2 MSTORE SWAP1 PUSH1 0x40 MSTORE DUP1 MLOAD SWAP1 PUSH1 0x20 ADD KECCAK256 PUSH1 0x0 SHR PUSH2 0x13C6 SWAP2 SWAP1 PUSH2 0x25CD JUMP JUMPDEST SWAP2 POP POP SWAP1 JUMP JUMPDEST PUSH1 0x0 DUP1 PUSH1 0x0 SWAP1 POP JUMPDEST DUP3 MLOAD DUP2 LT ISZERO PUSH2 0x14B6 JUMPI PUSH1 0x0 DUP4 DUP3 DUP2 MLOAD DUP2 LT PUSH2 0x1418 JUMPI PUSH32 0x4E487B7100000000000000000000000000000000000000000000000000000000 PUSH1 0x0 MSTORE PUSH1 0x32 PUSH1 0x4 MSTORE PUSH1 0x24 PUSH1 0x0 REVERT JUMPDEST PUSH1 0x20 MUL PUSH1 0x20 ADD ADD MLOAD SWAP1 POP PUSH1 0x0 JUMPDEST DUP5 MLOAD DUP2 LT ISZERO PUSH2 0x14A1 JUMPI DUP1 DUP4 EQ ISZERO DUP1 ISZERO PUSH2 0x147D JUMPI POP DUP5 DUP2 DUP2 MLOAD DUP2 LT PUSH2 0x1472 JUMPI PUSH32 0x4E487B7100000000000000000000000000000000000000000000000000000000 PUSH1 0x0 MSTORE PUSH1 0x32 PUSH1 0x4 MSTORE PUSH1 0x24 PUSH1 0x0 REVERT JUMPDEST PUSH1 0x20 MUL PUSH1 0x20 ADD ADD MLOAD DUP3 EQ JUMPDEST ISZERO PUSH2 0x148E JUMPI PUSH1 0x0 SWAP4 POP POP POP POP PUSH2 0x14BC JUMP JUMPDEST DUP1 DUP1 PUSH2 0x1499 SWAP1 PUSH2 0x252C JUMP JUMPDEST SWAP2 POP POP PUSH2 0x1425 JUMP JUMPDEST POP POP DUP1 DUP1 PUSH2 0x14AE SWAP1 PUSH2 0x252C JUMP JUMPDEST SWAP2 POP POP PUSH2 0x13D4 JUMP JUMPDEST POP PUSH1 0x1 SWAP1 POP JUMPDEST SWAP2 SWAP1 POP JUMP JUMPDEST PUSH1 0x0 DUP1 PUSH1 0x0 PUSH1 0x7 PUSH1 0x0 CALLER PUSH20 0xFFFFFFFFFFFFFFFFFFFFFFFFFFFFFFFFFFFFFFFF AND PUSH20 0xFFFFFFFFFFFFFFFFFFFFFFFFFFFFFFFFFFFFFFFF AND DUP2 MSTORE PUSH1 0x20 ADD SWAP1 DUP2 MSTORE PUSH1 0x20 ADD PUSH1 0x0 KECCAK256 SWAP1 POP PUSH1 0x0 JUMPDEST DUP5 MLOAD DUP2 LT ISZERO PUSH2 0x1668 JUMPI PUSH1 0x0 DUP6 DUP3 DUP2 MLOAD DUP2 LT PUSH2 0x154E JUMPI PUSH32 0x4E487B7100000000000000000000000000000000000000000000000000000000 PUSH1 0x0 MSTORE PUSH1 0x32 PUSH1 0x4 MSTORE PUSH1 0x24 PUSH1 0x0 REVERT JUMPDEST PUSH1 0x20 MUL PUSH1 0x20 ADD ADD MLOAD SWAP1 POP PUSH1 0x0 JUMPDEST DUP4 PUSH1 0x1 ADD DUP1 SLOAD SWAP1 POP DUP2 LT ISZERO PUSH2 0x1653 JUMPI DUP1 DUP4 EQ DUP1 ISZERO PUSH2 0x15BE JUMPI POP DUP4 PUSH1 0x1 ADD DUP2 DUP2 SLOAD DUP2 LT PUSH2 0x15B0 JUMPI PUSH32 0x4E487B7100000000000000000000000000000000000000000000000000000000 PUSH1 0x0 MSTORE PUSH1 0x32 PUSH1 0x4 MSTORE PUSH1 0x24 PUSH1 0x0 REVERT JUMPDEST SWAP1 PUSH1 0x0 MSTORE PUSH1 0x20 PUSH1 0x0 KECCAK256 ADD SLOAD DUP3 EQ JUMPDEST ISZERO PUSH2 0x15D6 JUMPI DUP5 DUP1 PUSH2 0x15CE SWAP1 PUSH2 0x252C JUMP JUMPDEST SWAP6 POP POP PUSH2 0x1640 JUMP JUMPDEST DUP1 DUP4 EQ ISZERO DUP1 ISZERO PUSH2 0x162B JUMPI POP DUP4 PUSH1 0x1 ADD DUP2 DUP2 SLOAD DUP2 LT PUSH2 0x161D JUMPI PUSH32 0x4E487B7100000000000000000000000000000000000000000000000000000000 PUSH1 0x0 MSTORE PUSH1 0x32 PUSH1 0x4 MSTORE PUSH1 0x24 PUSH1 0x0 REVERT JUMPDEST SWAP1 PUSH1 0x0 MSTORE PUSH1 0x20 PUSH1 0x0 KECCAK256 ADD SLOAD DUP3 EQ JUMPDEST ISZERO PUSH2 0x163F JUMPI DUP6 DUP1 PUSH2 0x163B SWAP1 PUSH2 0x252C JUMP JUMPDEST SWAP7 POP POP JUMPDEST JUMPDEST DUP1 DUP1 PUSH2 0x164B SWAP1 PUSH2 0x252C JUMP JUMPDEST SWAP2 POP POP PUSH2 0x155B JUMP JUMPDEST POP POP DUP1 DUP1 PUSH2 0x1660 SWAP1 PUSH2 0x252C JUMP JUMPDEST SWAP2 POP POP PUSH2 0x150A JUMP JUMPDEST POP POP SWAP2 POP SWAP2 JUMP JUMPDEST PUSH1 0x60 PUSH1 0x0 PUSH1 0x7 PUSH1 0x0 CALLER PUSH20 0xFFFFFFFFFFFFFFFFFFFFFFFFFFFFFFFFFFFFFFFF AND PUSH20 0xFFFFFFFFFFFFFFFFFFFFFFFFFFFFFFFFFFFFFFFF AND DUP2 MSTORE PUSH1 0x20 ADD SWAP1 DUP2 MSTORE PUSH1 0x20 ADD PUSH1 0x0 KECCAK256 SWAP1 POP PUSH1 0x4 DUP2 PUSH1 0x0 ADD PUSH1 0x0 SWAP1 SLOAD SWAP1 PUSH2 0x100 EXP SWAP1 DIV PUSH1 0xFF AND PUSH1 0xFF AND GT ISZERO DUP1 ISZERO PUSH2 0x16D9 JUMPI POP PUSH1 0x4 DUP4 EQ JUMPDEST ISZERO PUSH2 0x174E JUMPI PUSH1 0x40 MLOAD DUP1 PUSH1 0x40 ADD PUSH1 0x40 MSTORE DUP1 PUSH1 0x9 DUP2 MSTORE PUSH1 0x20 ADD PUSH32 0x416C6C2044656164210000000000000000000000000000000000000000000000 DUP2 MSTORE POP SWAP2 POP PUSH32 0x819B4D2D513904CF19FBE6A72AE78AE4887B651739DEBF1D083AB71A7A584D77 DUP3 PUSH1 0x40 MLOAD PUSH2 0x1745 SWAP2 SWAP1 PUSH2 0x20CB JUMP JUMPDEST PUSH1 0x40 MLOAD DUP1 SWAP2 SUB SWAP1 LOG1 JUMPDEST PUSH1 0x4 DUP2 PUSH1 0x0 ADD PUSH1 0x0 SWAP1 SLOAD SWAP1 PUSH2 0x100 EXP SWAP1 DIV PUSH1 0xFF AND PUSH1 0xFF AND GT DUP1 ISZERO PUSH2 0x1786 JUMPI POP PUSH1 0x8 DUP2 PUSH1 0x0 ADD PUSH1 0x0 SWAP1 SLOAD SWAP1 PUSH2 0x100 EXP SWAP1 DIV PUSH1 0xFF AND PUSH1 0xFF AND LT JUMPDEST DUP1 ISZERO PUSH2 0x1792 JUMPI POP PUSH1 0x4 DUP4 EQ JUMPDEST ISZERO PUSH2 0x1807 JUMPI PUSH1 0x40 MLOAD DUP1 PUSH1 0x40 ADD PUSH1 0x40 MSTORE DUP1 PUSH1 0x9 DUP2 MSTORE PUSH1 0x20 ADD PUSH32 0x416C6C2044656164210000000000000000000000000000000000000000000000 DUP2 MSTORE POP SWAP2 POP PUSH32 0x819B4D2D513904CF19FBE6A72AE78AE4887B651739DEBF1D083AB71A7A584D77 DUP3 PUSH1 0x40 MLOAD PUSH2 0x17FE SWAP2 SWAP1 PUSH2 0x20CB JUMP JUMPDEST PUSH1 0x40 MLOAD DUP1 SWAP2 SUB SWAP1 LOG1 JUMPDEST PUSH1 0x6 DUP2 PUSH1 0x0 ADD PUSH1 0x0 SWAP1 SLOAD SWAP1 PUSH2 0x100 EXP SWAP1 DIV PUSH1 0xFF AND PUSH1 0xFF AND EQ DUP1 ISZERO PUSH2 0x182C JUMPI POP PUSH1 0x4 DUP4 EQ ISZERO JUMPDEST ISZERO PUSH2 0x18A1 JUMPI PUSH1 0x40 MLOAD DUP1 PUSH1 0x40 ADD PUSH1 0x40 MSTORE DUP1 PUSH1 0xD DUP2 MSTORE PUSH1 0x20 ADD PUSH32 0x3220747269616C73206C65667400000000000000000000000000000000000000 DUP2 MSTORE POP SWAP2 POP PUSH32 0xA52CAC5F157D10D7A83EE566EF1576B43AE8E203F332B50B861CA430E030D263 DUP3 PUSH1 0x40 MLOAD PUSH2 0x1898 SWAP2 SWAP1 PUSH2 0x20CB JUMP JUMPDEST PUSH1 0x40 MLOAD DUP1 SWAP2 SUB SWAP1 LOG1 JUMPDEST PUSH1 0x7 DUP2 PUSH1 0x0 ADD PUSH1 0x0 SWAP1 SLOAD SWAP1 PUSH2 0x100 EXP SWAP1 DIV PUSH1 0xFF AND PUSH1 0xFF AND EQ DUP1 ISZERO PUSH2 0x18C6 JUMPI POP PUSH1 0x4 DUP4 EQ ISZERO JUMPDEST ISZERO PUSH2 0x193B JUMPI PUSH1 0x40 MLOAD DUP1 PUSH1 0x40 ADD PUSH1 0x40 MSTORE DUP1 PUSH1 0xB DUP2 MSTORE PUSH1 0x20 ADD PUSH32 0x46696E616C20747269616C000000000000000000000000000000000000000000 DUP2 MSTORE POP SWAP2 POP PUSH32 0xA52CAC5F157D10D7A83EE566EF1576B43AE8E203F332B50B861CA430E030D263 DUP3 PUSH1 0x40 MLOAD PUSH2 0x1932 SWAP2 SWAP1 PUSH2 0x20CB JUMP JUMPDEST PUSH1 0x40 MLOAD DUP1 SWAP2 SUB SWAP1 LOG1 JUMPDEST PUSH1 0x8 DUP2 PUSH1 0x0 ADD PUSH1 0x0 SWAP1 SLOAD SWAP1 PUSH2 0x100 EXP SWAP1 DIV PUSH1 0xFF AND PUSH1 0xFF AND EQ DUP1 ISZERO PUSH2 0x1960 JUMPI POP PUSH1 0x4 DUP4 EQ ISZERO JUMPDEST ISZERO PUSH2 0x199E JUMPI PUSH1 0x40 MLOAD DUP1 PUSH1 0x40 ADD PUSH1 0x40 MSTORE DUP1 PUSH1 0x8 DUP2 MSTORE PUSH1 0x20 ADD PUSH32 0x596F75204C6F7374000000000000000000000000000000000000000000000000 DUP2 MSTORE POP SWAP2 POP JUMPDEST POP SWAP2 SWAP1 POP JUMP JUMPDEST PUSH1 0x0 PUSH20 0xFFFFFFFFFFFFFFFFFFFFFFFFFFFFFFFFFFFFFFFF AND DUP3 PUSH20 0xFFFFFFFFFFFFFFFFFFFFFFFFFFFFFFFFFFFFFFFF AND EQ ISZERO PUSH2 0x1A14 JUMPI PUSH1 0x40 MLOAD PUSH32 0x8C379A000000000000000000000000000000000000000000000000000000000 DUP2 MSTORE PUSH1 0x4 ADD PUSH2 0x1A0B SWAP1 PUSH2 0x21CD JUMP JUMPDEST PUSH1 0x40 MLOAD DUP1 SWAP2 SUB SWAP1 REVERT JUMPDEST PUSH2 0x1A20 DUP3 PUSH1 0x0 DUP4 PUSH2 0x1B7B JUMP JUMPDEST PUSH1 0x0 DUP1 PUSH1 0x0 DUP5 PUSH20 0xFFFFFFFFFFFFFFFFFFFFFFFFFFFFFFFFFFFFFFFF AND PUSH20 0xFFFFFFFFFFFFFFFFFFFFFFFFFFFFFFFFFFFFFFFF AND DUP2 MSTORE PUSH1 0x20 ADD SWAP1 DUP2 MSTORE PUSH1 0x20 ADD PUSH1 0x0 KECCAK256 SLOAD SWAP1 POP DUP2 DUP2 LT ISZERO PUSH2 0x1AA6 JUMPI PUSH1 0x40 MLOAD PUSH32 0x8C379A000000000000000000000000000000000000000000000000000000000 DUP2 MSTORE PUSH1 0x4 ADD PUSH2 0x1A9D SWAP1 PUSH2 0x210D JUMP JUMPDEST PUSH1 0x40 MLOAD DUP1 SWAP2 SUB SWAP1 REVERT JUMPDEST DUP2 DUP2 SUB PUSH1 0x0 DUP1 DUP6 PUSH20 0xFFFFFFFFFFFFFFFFFFFFFFFFFFFFFFFFFFFFFFFF AND PUSH20 0xFFFFFFFFFFFFFFFFFFFFFFFFFFFFFFFFFFFFFFFF AND DUP2 MSTORE PUSH1 0x20 ADD SWAP1 DUP2 MSTORE PUSH1 0x20 ADD PUSH1 0x0 KECCAK256 DUP2 SWAP1 SSTORE POP DUP2 PUSH1 0x2 PUSH1 0x0 DUP3 DUP3 SLOAD PUSH2 0x1AFD SWAP2 SWAP1 PUSH2 0x23FB JUMP JUMPDEST SWAP3 POP POP DUP2 SWAP1 SSTORE POP PUSH1 0x0 PUSH20 0xFFFFFFFFFFFFFFFFFFFFFFFFFFFFFFFFFFFFFFFF AND DUP4 PUSH20 0xFFFFFFFFFFFFFFFFFFFFFFFFFFFFFFFFFFFFFFFF AND PUSH32 0xDDF252AD1BE2C89B69C2B068FC378DAA952BA7F163C4A11628F55A4DF523B3EF DUP5 PUSH1 0x40 MLOAD PUSH2 0x1B62 SWAP2 SWAP1 PUSH2 0x228D JUMP JUMPDEST PUSH1 0x40 MLOAD DUP1 SWAP2 SUB SWAP1 LOG3 PUSH2 0x1B76 DUP4 PUSH1 0x0 DUP5 PUSH2 0x1B80 JUMP JUMPDEST POP POP POP JUMP JUMPDEST POP POP POP JUMP JUMPDEST POP POP POP JUMP JUMPDEST DUP3 DUP1 SLOAD DUP3 DUP3 SSTORE SWAP1 PUSH1 0x0 MSTORE PUSH1 0x20 PUSH1 0x0 KECCAK256 SWAP1 DUP2 ADD SWAP3 DUP3 ISZERO PUSH2 0x1BC1 JUMPI SWAP2 PUSH1 0x20 MUL DUP3 ADD JUMPDEST DUP3 DUP2 GT ISZERO PUSH2 0x1BC0 JUMPI DUP3 MLOAD DUP3 SSTORE SWAP2 PUSH1 0x20 ADD SWAP2 SWAP1 PUSH1 0x1 ADD SWAP1 PUSH2 0x1BA5 JUMP JUMPDEST JUMPDEST POP SWAP1 POP PUSH2 0x1BCE SWAP2 SWAP1 PUSH2 0x1BD2 JUMP JUMPDEST POP SWAP1 JUMP JUMPDEST JUMPDEST DUP1 DUP3 GT ISZERO PUSH2 0x1BEB JUMPI PUSH1 0x0 DUP2 PUSH1 0x0 SWAP1 SSTORE POP PUSH1 0x1 ADD PUSH2 0x1BD3 JUMP JUMPDEST POP SWAP1 JUMP JUMPDEST PUSH1 0x0 PUSH2 0x1C02 PUSH2 0x1BFD DUP5 PUSH2 0x235D JUMP JUMPDEST PUSH2 0x2338 JUMP JUMPDEST SWAP1 POP DUP1 DUP4 DUP3 MSTORE PUSH1 0x20 DUP3 ADD SWAP1 POP DUP3 DUP6 PUSH1 0x20 DUP7 MUL DUP3 ADD GT ISZERO PUSH2 0x1C21 JUMPI PUSH1 0x0 DUP1 REVERT JUMPDEST PUSH1 0x0 JUMPDEST DUP6 DUP2 LT ISZERO PUSH2 0x1C51 JUMPI DUP2 PUSH2 0x1C37 DUP9 DUP3 PUSH2 0x1C9A JUMP JUMPDEST DUP5 MSTORE PUSH1 0x20 DUP5 ADD SWAP4 POP PUSH1 0x20 DUP4 ADD SWAP3 POP POP PUSH1 0x1 DUP2 ADD SWAP1 POP PUSH2 0x1C24 JUMP JUMPDEST POP POP POP SWAP4 SWAP3 POP POP POP JUMP JUMPDEST PUSH1 0x0 DUP2 CALLDATALOAD SWAP1 POP PUSH2 0x1C6A DUP2 PUSH2 0x2A1D JUMP JUMPDEST SWAP3 SWAP2 POP POP JUMP JUMPDEST PUSH1 0x0 DUP3 PUSH1 0x1F DUP4 ADD SLT PUSH2 0x1C81 JUMPI PUSH1 0x0 DUP1 REVERT JUMPDEST DUP2 CALLDATALOAD PUSH2 0x1C91 DUP5 DUP3 PUSH1 0x20 DUP7 ADD PUSH2 0x1BEF JUMP JUMPDEST SWAP2 POP POP SWAP3 SWAP2 POP POP JUMP JUMPDEST PUSH1 0x0 DUP2 CALLDATALOAD SWAP1 POP PUSH2 0x1CA9 DUP2 PUSH2 0x2A34 JUMP JUMPDEST SWAP3 SWAP2 POP POP JUMP JUMPDEST PUSH1 0x0 PUSH1 0x20 DUP3 DUP5 SUB SLT ISZERO PUSH2 0x1CC1 JUMPI PUSH1 0x0 DUP1 REVERT JUMPDEST PUSH1 0x0 PUSH2 0x1CCF DUP5 DUP3 DUP6 ADD PUSH2 0x1C5B JUMP JUMPDEST SWAP2 POP POP SWAP3 SWAP2 POP POP JUMP JUMPDEST PUSH1 0x0 DUP1 PUSH1 0x40 DUP4 DUP6 SUB SLT ISZERO PUSH2 0x1CEB JUMPI PUSH1 0x0 DUP1 REVERT JUMPDEST PUSH1 0x0 PUSH2 0x1CF9 DUP6 DUP3 DUP7 ADD PUSH2 0x1C5B JUMP JUMPDEST SWAP3 POP POP PUSH1 0x20 PUSH2 0x1D0A DUP6 DUP3 DUP7 ADD PUSH2 0x1C5B JUMP JUMPDEST SWAP2 POP POP SWAP3 POP SWAP3 SWAP1 POP JUMP JUMPDEST PUSH1 0x0 DUP1 PUSH1 0x0 PUSH1 0x60 DUP5 DUP7 SUB SLT ISZERO PUSH2 0x1D29 JUMPI PUSH1 0x0 DUP1 REVERT JUMPDEST PUSH1 0x0 PUSH2 0x1D37 DUP7 DUP3 DUP8 ADD PUSH2 0x1C5B JUMP JUMPDEST SWAP4 POP POP PUSH1 0x20 PUSH2 0x1D48 DUP7 DUP3 DUP8 ADD PUSH2 0x1C5B JUMP JUMPDEST SWAP3 POP POP PUSH1 0x40 PUSH2 0x1D59 DUP7 DUP3 DUP8 ADD PUSH2 0x1C9A JUMP JUMPDEST SWAP2 POP POP SWAP3 POP SWAP3 POP SWAP3 JUMP JUMPDEST PUSH1 0x0 DUP1 PUSH1 0x40 DUP4 DUP6 SUB SLT ISZERO PUSH2 0x1D76 JUMPI PUSH1 0x0 DUP1 REVERT JUMPDEST PUSH1 0x0 PUSH2 0x1D84 DUP6 DUP3 DUP7 ADD PUSH2 0x1C5B JUMP JUMPDEST SWAP3 POP POP PUSH1 0x20 PUSH2 0x1D95 DUP6 DUP3 DUP7 ADD PUSH2 0x1C9A JUMP JUMPDEST SWAP2 POP POP SWAP3 POP SWAP3 SWAP1 POP JUMP JUMPDEST PUSH1 0x0 PUSH1 0x20 DUP3 DUP5 SUB SLT ISZERO PUSH2 0x1DB1 JUMPI PUSH1 0x0 DUP1 REVERT JUMPDEST PUSH1 0x0 DUP3 ADD CALLDATALOAD PUSH8 0xFFFFFFFFFFFFFFFF DUP2 GT ISZERO PUSH2 0x1DCB JUMPI PUSH1 0x0 DUP1 REVERT JUMPDEST PUSH2 0x1DD7 DUP5 DUP3 DUP6 ADD PUSH2 0x1C70 JUMP JUMPDEST SWAP2 POP POP SWAP3 SWAP2 POP POP JUMP JUMPDEST PUSH1 0x0 PUSH1 0x20 DUP3 DUP5 SUB SLT ISZERO PUSH2 0x1DF2 JUMPI PUSH1 0x0 DUP1 REVERT JUMPDEST PUSH1 0x0 PUSH2 0x1E00 DUP5 DUP3 DUP6 ADD PUSH2 0x1C9A JUMP JUMPDEST SWAP2 POP POP SWAP3 SWAP2 POP POP JUMP JUMPDEST PUSH2 0x1E1A PUSH2 0x1E15 DUP3 PUSH2 0x242F JUMP JUMPDEST PUSH2 0x259F JUMP JUMPDEST DUP3 MSTORE POP POP JUMP JUMPDEST PUSH2 0x1E29 DUP2 PUSH2 0x2441 JUMP JUMPDEST DUP3 MSTORE POP POP JUMP JUMPDEST PUSH1 0x0 PUSH2 0x1E3A DUP3 PUSH2 0x2389 JUMP JUMPDEST PUSH2 0x1E44 DUP2 DUP6 PUSH2 0x2394 JUMP JUMPDEST SWAP4 POP PUSH2 0x1E54 DUP2 DUP6 PUSH1 0x20 DUP7 ADD PUSH2 0x2496 JUMP JUMPDEST PUSH2 0x1E5D DUP2 PUSH2 0x26BA JUMP JUMPDEST DUP5 ADD SWAP2 POP POP SWAP3 SWAP2 POP POP JUMP JUMPDEST PUSH1 0x0 PUSH2 0x1E75 PUSH1 0x23 DUP4 PUSH2 0x2394 JUMP JUMPDEST SWAP2 POP PUSH2 0x1E80 DUP3 PUSH2 0x26D8 JUMP JUMPDEST PUSH1 0x40 DUP3 ADD SWAP1 POP SWAP2 SWAP1 POP JUMP JUMPDEST PUSH1 0x0 PUSH2 0x1E98 PUSH1 0x22 DUP4 PUSH2 0x2394 JUMP JUMPDEST SWAP2 POP PUSH2 0x1EA3 DUP3 PUSH2 0x2727 JUMP JUMPDEST PUSH1 0x40 DUP3 ADD SWAP1 POP SWAP2 SWAP1 POP JUMP JUMPDEST PUSH1 0x0 PUSH2 0x1EBB PUSH1 0x22 DUP4 PUSH2 0x2394 JUMP JUMPDEST SWAP2 POP PUSH2 0x1EC6 DUP3 PUSH2 0x2776 JUMP JUMPDEST PUSH1 0x40 DUP3 ADD SWAP1 POP SWAP2 SWAP1 POP JUMP JUMPDEST PUSH1 0x0 PUSH2 0x1EDE PUSH1 0x1D DUP4 PUSH2 0x2394 JUMP JUMPDEST SWAP2 POP PUSH2 0x1EE9 DUP3 PUSH2 0x27C5 JUMP JUMPDEST PUSH1 0x20 DUP3 ADD SWAP1 POP SWAP2 SWAP1 POP JUMP JUMPDEST PUSH1 0x0 PUSH2 0x1F01 PUSH1 0x26 DUP4 PUSH2 0x2394 JUMP JUMPDEST SWAP2 POP PUSH2 0x1F0C DUP3 PUSH2 0x27EE JUMP JUMPDEST PUSH1 0x40 DUP3 ADD SWAP1 POP SWAP2 SWAP1 POP JUMP JUMPDEST PUSH1 0x0 PUSH2 0x1F24 PUSH1 0xF DUP4 PUSH2 0x2394 JUMP JUMPDEST SWAP2 POP PUSH2 0x1F2F DUP3 PUSH2 0x283D JUMP JUMPDEST PUSH1 0x20 DUP3 ADD SWAP1 POP SWAP2 SWAP1 POP JUMP JUMPDEST PUSH1 0x0 PUSH2 0x1F47 PUSH1 0x16 DUP4 PUSH2 0x2394 JUMP JUMPDEST SWAP2 POP PUSH2 0x1F52 DUP3 PUSH2 0x2866 JUMP JUMPDEST PUSH1 0x20 DUP3 ADD SWAP1 POP SWAP2 SWAP1 POP JUMP JUMPDEST PUSH1 0x0 PUSH2 0x1F6A PUSH1 0x21 DUP4 PUSH2 0x2394 JUMP JUMPDEST SWAP2 POP PUSH2 0x1F75 DUP3 PUSH2 0x288F JUMP JUMPDEST PUSH1 0x40 DUP3 ADD SWAP1 POP SWAP2 SWAP1 POP JUMP JUMPDEST PUSH1 0x0 PUSH2 0x1F8D PUSH1 0x25 DUP4 PUSH2 0x2394 JUMP JUMPDEST SWAP2 POP PUSH2 0x1F98 DUP3 PUSH2 0x28DE JUMP JUMPDEST PUSH1 0x40 DUP3 ADD SWAP1 POP SWAP2 SWAP1 POP JUMP JUMPDEST PUSH1 0x0 PUSH2 0x1FB0 PUSH1 0x24 DUP4 PUSH2 0x2394 JUMP JUMPDEST SWAP2 POP PUSH2 0x1FBB DUP3 PUSH2 0x292D JUMP JUMPDEST PUSH1 0x40 DUP3 ADD SWAP1 POP SWAP2 SWAP1 POP JUMP JUMPDEST PUSH1 0x0 PUSH2 0x1FD3 PUSH1 0x10 DUP4 PUSH2 0x2394 JUMP JUMPDEST SWAP2 POP PUSH2 0x1FDE DUP3 PUSH2 0x297C JUMP JUMPDEST PUSH1 0x20 DUP3 ADD SWAP1 POP SWAP2 SWAP1 POP JUMP JUMPDEST PUSH1 0x0 PUSH2 0x1FF6 PUSH1 0x25 DUP4 PUSH2 0x2394 JUMP JUMPDEST SWAP2 POP PUSH2 0x2001 DUP3 PUSH2 0x29A5 JUMP JUMPDEST PUSH1 0x40 DUP3 ADD SWAP1 POP SWAP2 SWAP1 POP JUMP JUMPDEST PUSH1 0x0 PUSH2 0x2019 PUSH1 0x1F DUP4 PUSH2 0x2394 JUMP JUMPDEST SWAP2 POP PUSH2 0x2024 DUP3 PUSH2 0x29F4 JUMP JUMPDEST PUSH1 0x20 DUP3 ADD SWAP1 POP SWAP2 SWAP1 POP JUMP JUMPDEST PUSH2 0x2038 DUP2 PUSH2 0x246D JUMP JUMPDEST DUP3 MSTORE POP POP JUMP JUMPDEST PUSH2 0x204F PUSH2 0x204A DUP3 PUSH2 0x246D JUMP JUMPDEST PUSH2 0x25C3 JUMP JUMPDEST DUP3 MSTORE POP POP JUMP JUMPDEST PUSH2 0x205E DUP2 PUSH2 0x2484 JUMP JUMPDEST DUP3 MSTORE POP POP JUMP JUMPDEST PUSH2 0x206D DUP2 PUSH2 0x2477 JUMP JUMPDEST DUP3 MSTORE POP POP JUMP JUMPDEST PUSH1 0x0 PUSH2 0x207F DUP3 DUP7 PUSH2 0x203E JUMP JUMPDEST PUSH1 0x20 DUP3 ADD SWAP2 POP PUSH2 0x208F DUP3 DUP6 PUSH2 0x203E JUMP JUMPDEST PUSH1 0x20 DUP3 ADD SWAP2 POP PUSH2 0x209F DUP3 DUP5 PUSH2 0x1E09 JUMP JUMPDEST PUSH1 0x14 DUP3 ADD SWAP2 POP DUP2 SWAP1 POP SWAP5 SWAP4 POP POP POP POP JUMP JUMPDEST PUSH1 0x0 PUSH1 0x20 DUP3 ADD SWAP1 POP PUSH2 0x20C5 PUSH1 0x0 DUP4 ADD DUP5 PUSH2 0x1E20 JUMP JUMPDEST SWAP3 SWAP2 POP POP JUMP JUMPDEST PUSH1 0x0 PUSH1 0x20 DUP3 ADD SWAP1 POP DUP2 DUP2 SUB PUSH1 0x0 DUP4 ADD MSTORE PUSH2 0x20E5 DUP2 DUP5 PUSH2 0x1E2F JUMP JUMPDEST SWAP1 POP SWAP3 SWAP2 POP POP JUMP JUMPDEST PUSH1 0x0 PUSH1 0x20 DUP3 ADD SWAP1 POP DUP2 DUP2 SUB PUSH1 0x0 DUP4 ADD MSTORE PUSH2 0x2106 DUP2 PUSH2 0x1E68 JUMP JUMPDEST SWAP1 POP SWAP2 SWAP1 POP JUMP JUMPDEST PUSH1 0x0 PUSH1 0x20 DUP3 ADD SWAP1 POP DUP2 DUP2 SUB PUSH1 0x0 DUP4 ADD MSTORE PUSH2 0x2126 DUP2 PUSH2 0x1E8B JUMP JUMPDEST SWAP1 POP SWAP2 SWAP1 POP JUMP JUMPDEST PUSH1 0x0 PUSH1 0x20 DUP3 ADD SWAP1 POP DUP2 DUP2 SUB PUSH1 0x0 DUP4 ADD MSTORE PUSH2 0x2146 DUP2 PUSH2 0x1EAE JUMP JUMPDEST SWAP1 POP SWAP2 SWAP1 POP JUMP JUMPDEST PUSH1 0x0 PUSH1 0x20 DUP3 ADD SWAP1 POP DUP2 DUP2 SUB PUSH1 0x0 DUP4 ADD MSTORE PUSH2 0x2166 DUP2 PUSH2 0x1ED1 JUMP JUMPDEST SWAP1 POP SWAP2 SWAP1 POP JUMP JUMPDEST PUSH1 0x0 PUSH1 0x20 DUP3 ADD SWAP1 POP DUP2 DUP2 SUB PUSH1 0x0 DUP4 ADD MSTORE PUSH2 0x2186 DUP2 PUSH2 0x1EF4 JUMP JUMPDEST SWAP1 POP SWAP2 SWAP1 POP JUMP JUMPDEST PUSH1 0x0 PUSH1 0x20 DUP3 ADD SWAP1 POP DUP2 DUP2 SUB PUSH1 0x0 DUP4 ADD MSTORE PUSH2 0x21A6 DUP2 PUSH2 0x1F17 JUMP JUMPDEST SWAP1 POP SWAP2 SWAP1 POP JUMP JUMPDEST PUSH1 0x0 PUSH1 0x20 DUP3 ADD SWAP1 POP DUP2 DUP2 SUB PUSH1 0x0 DUP4 ADD MSTORE PUSH2 0x21C6 DUP2 PUSH2 0x1F3A JUMP JUMPDEST SWAP1 POP SWAP2 SWAP1 POP JUMP JUMPDEST PUSH1 0x0 PUSH1 0x20 DUP3 ADD SWAP1 POP DUP2 DUP2 SUB PUSH1 0x0 DUP4 ADD MSTORE PUSH2 0x21E6 DUP2 PUSH2 0x1F5D JUMP JUMPDEST SWAP1 POP SWAP2 SWAP1 POP JUMP JUMPDEST PUSH1 0x0 PUSH1 0x20 DUP3 ADD SWAP1 POP DUP2 DUP2 SUB PUSH1 0x0 DUP4 ADD MSTORE PUSH2 0x2206 DUP2 PUSH2 0x1F80 JUMP JUMPDEST SWAP1 POP SWAP2 SWAP1 POP JUMP JUMPDEST PUSH1 0x0 PUSH1 0x20 DUP3 ADD SWAP1 POP DUP2 DUP2 SUB PUSH1 0x0 DUP4 ADD MSTORE PUSH2 0x2226 DUP2 PUSH2 0x1FA3 JUMP JUMPDEST SWAP1 POP SWAP2 SWAP1 POP JUMP JUMPDEST PUSH1 0x0 PUSH1 0x20 DUP3 ADD SWAP1 POP DUP2 DUP2 SUB PUSH1 0x0 DUP4 ADD MSTORE PUSH2 0x2246 DUP2 PUSH2 0x1FC6 JUMP JUMPDEST SWAP1 POP SWAP2 SWAP1 POP JUMP JUMPDEST PUSH1 0x0 PUSH1 0x20 DUP3 ADD SWAP1 POP DUP2 DUP2 SUB PUSH1 0x0 DUP4 ADD MSTORE PUSH2 0x2266 DUP2 PUSH2 0x1FE9 JUMP JUMPDEST SWAP1 POP SWAP2 SWAP1 POP JUMP JUMPDEST PUSH1 0x0 PUSH1 0x20 DUP3 ADD SWAP1 POP DUP2 DUP2 SUB PUSH1 0x0 DUP4 ADD MSTORE PUSH2 0x2286 DUP2 PUSH2 0x200C JUMP JUMPDEST SWAP1 POP SWAP2 SWAP1 POP JUMP JUMPDEST PUSH1 0x0 PUSH1 0x20 DUP3 ADD SWAP1 POP PUSH2 0x22A2 PUSH1 0x0 DUP4 ADD DUP5 PUSH2 0x202F JUMP JUMPDEST SWAP3 SWAP2 POP POP JUMP JUMPDEST PUSH1 0x0 PUSH1 0x60 DUP3 ADD SWAP1 POP PUSH2 0x22BD PUSH1 0x0 DUP4 ADD DUP7 PUSH2 0x202F JUMP JUMPDEST PUSH2 0x22CA PUSH1 0x20 DUP4 ADD DUP6 PUSH2 0x202F JUMP JUMPDEST DUP2 DUP2 SUB PUSH1 0x40 DUP4 ADD MSTORE PUSH2 0x22DC DUP2 DUP5 PUSH2 0x1E2F JUMP JUMPDEST SWAP1 POP SWAP5 SWAP4 POP POP POP POP JUMP JUMPDEST PUSH1 0x0 PUSH1 0x20 DUP3 ADD SWAP1 POP PUSH2 0x22FB PUSH1 0x0 DUP4 ADD DUP5 PUSH2 0x2064 JUMP JUMPDEST SWAP3 SWAP2 POP POP JUMP JUMPDEST PUSH1 0x0 PUSH1 0x60 DUP3 ADD SWAP1 POP PUSH2 0x2316 PUSH1 0x0 DUP4 ADD DUP7 PUSH2 0x2055 JUMP JUMPDEST PUSH2 0x2323 PUSH1 0x20 DUP4 ADD DUP6 PUSH2 0x202F JUMP JUMPDEST PUSH2 0x2330 PUSH1 0x40 DUP4 ADD DUP5 PUSH2 0x202F JUMP JUMPDEST SWAP5 SWAP4 POP POP POP POP JUMP JUMPDEST PUSH1 0x0 PUSH2 0x2342 PUSH2 0x2353 JUMP JUMPDEST SWAP1 POP PUSH2 0x234E DUP3 DUP3 PUSH2 0x24FB JUMP JUMPDEST SWAP2 SWAP1 POP JUMP JUMPDEST PUSH1 0x0 PUSH1 0x40 MLOAD SWAP1 POP SWAP1 JUMP JUMPDEST PUSH1 0x0 PUSH8 0xFFFFFFFFFFFFFFFF DUP3 GT ISZERO PUSH2 0x2378 JUMPI PUSH2 0x2377 PUSH2 0x268B JUMP JUMPDEST JUMPDEST PUSH1 0x20 DUP3 MUL SWAP1 POP PUSH1 0x20 DUP2 ADD SWAP1 POP SWAP2 SWAP1 POP JUMP JUMPDEST PUSH1 0x0 DUP2 MLOAD SWAP1 POP SWAP2 SWAP1 POP JUMP JUMPDEST PUSH1 0x0 DUP3 DUP3 MSTORE PUSH1 0x20 DUP3 ADD SWAP1 POP SWAP3 SWAP2 POP POP JUMP JUMPDEST PUSH1 0x0 PUSH2 0x23B0 DUP3 PUSH2 0x246D JUMP JUMPDEST SWAP2 POP PUSH2 0x23BB DUP4 PUSH2 0x246D JUMP JUMPDEST SWAP3 POP DUP3 PUSH32 0xFFFFFFFFFFFFFFFFFFFFFFFFFFFFFFFFFFFFFFFFFFFFFFFFFFFFFFFFFFFFFFFF SUB DUP3 GT ISZERO PUSH2 0x23F0 JUMPI PUSH2 0x23EF PUSH2 0x25FE JUMP JUMPDEST JUMPDEST DUP3 DUP3 ADD SWAP1 POP SWAP3 SWAP2 POP POP JUMP JUMPDEST PUSH1 0x0 PUSH2 0x2406 DUP3 PUSH2 0x246D JUMP JUMPDEST SWAP2 POP PUSH2 0x2411 DUP4 PUSH2 0x246D JUMP JUMPDEST SWAP3 POP DUP3 DUP3 LT ISZERO PUSH2 0x2424 JUMPI PUSH2 0x2423 PUSH2 0x25FE JUMP JUMPDEST JUMPDEST DUP3 DUP3 SUB SWAP1 POP SWAP3 SWAP2 POP POP JUMP JUMPDEST PUSH1 0x0 PUSH2 0x243A DUP3 PUSH2 0x244D JUMP JUMPDEST SWAP1 POP SWAP2 SWAP1 POP JUMP JUMPDEST PUSH1 0x0 DUP2 ISZERO ISZERO SWAP1 POP SWAP2 SWAP1 POP JUMP JUMPDEST PUSH1 0x0 PUSH20 0xFFFFFFFFFFFFFFFFFFFFFFFFFFFFFFFFFFFFFFFF DUP3 AND SWAP1 POP SWAP2 SWAP1 POP JUMP JUMPDEST PUSH1 0x0 DUP2 SWAP1 POP SWAP2 SWAP1 POP JUMP JUMPDEST PUSH1 0x0 PUSH1 0xFF DUP3 AND SWAP1 POP SWAP2 SWAP1 POP JUMP JUMPDEST PUSH1 0x0 PUSH2 0x248F DUP3 PUSH2 0x2477 JUMP JUMPDEST SWAP1 POP SWAP2 SWAP1 POP JUMP JUMPDEST PUSH1 0x0 JUMPDEST DUP4 DUP2 LT ISZERO PUSH2 0x24B4 JUMPI DUP1 DUP3 ADD MLOAD DUP2 DUP5 ADD MSTORE PUSH1 0x20 DUP2 ADD SWAP1 POP PUSH2 0x2499 JUMP JUMPDEST DUP4 DUP2 GT ISZERO PUSH2 0x24C3 JUMPI PUSH1 0x0 DUP5 DUP5 ADD MSTORE JUMPDEST POP POP POP POP JUMP JUMPDEST PUSH1 0x0 PUSH1 0x2 DUP3 DIV SWAP1 POP PUSH1 0x1 DUP3 AND DUP1 PUSH2 0x24E1 JUMPI PUSH1 0x7F DUP3 AND SWAP2 POP JUMPDEST PUSH1 0x20 DUP3 LT DUP2 EQ ISZERO PUSH2 0x24F5 JUMPI PUSH2 0x24F4 PUSH2 0x265C JUMP JUMPDEST JUMPDEST POP SWAP2 SWAP1 POP JUMP JUMPDEST PUSH2 0x2504 DUP3 PUSH2 0x26BA JUMP JUMPDEST DUP2 ADD DUP2 DUP2 LT PUSH8 0xFFFFFFFFFFFFFFFF DUP3 GT OR ISZERO PUSH2 0x2523 JUMPI PUSH2 0x2522 PUSH2 0x268B JUMP JUMPDEST JUMPDEST DUP1 PUSH1 0x40 MSTORE POP POP POP JUMP JUMPDEST PUSH1 0x0 PUSH2 0x2537 DUP3 PUSH2 0x246D JUMP JUMPDEST SWAP2 POP PUSH32 0xFFFFFFFFFFFFFFFFFFFFFFFFFFFFFFFFFFFFFFFFFFFFFFFFFFFFFFFFFFFFFFFF DUP3 EQ ISZERO PUSH2 0x256A JUMPI PUSH2 0x2569 PUSH2 0x25FE JUMP JUMPDEST JUMPDEST PUSH1 0x1 DUP3 ADD SWAP1 POP SWAP2 SWAP1 POP JUMP JUMPDEST PUSH1 0x0 PUSH2 0x2580 DUP3 PUSH2 0x2477 JUMP JUMPDEST SWAP2 POP PUSH1 0xFF DUP3 EQ ISZERO PUSH2 0x2594 JUMPI PUSH2 0x2593 PUSH2 0x25FE JUMP JUMPDEST JUMPDEST PUSH1 0x1 DUP3 ADD SWAP1 POP SWAP2 SWAP1 POP JUMP JUMPDEST PUSH1 0x0 PUSH2 0x25AA DUP3 PUSH2 0x25B1 JUMP JUMPDEST SWAP1 POP SWAP2 SWAP1 POP JUMP JUMPDEST PUSH1 0x0 PUSH2 0x25BC DUP3 PUSH2 0x26CB JUMP JUMPDEST SWAP1 POP SWAP2 SWAP1 POP JUMP JUMPDEST PUSH1 0x0 DUP2 SWAP1 POP SWAP2 SWAP1 POP JUMP JUMPDEST PUSH1 0x0 PUSH2 0x25D8 DUP3 PUSH2 0x246D JUMP JUMPDEST SWAP2 POP PUSH2 0x25E3 DUP4 PUSH2 0x246D JUMP JUMPDEST SWAP3 POP DUP3 PUSH2 0x25F3 JUMPI PUSH2 0x25F2 PUSH2 0x262D JUMP JUMPDEST JUMPDEST DUP3 DUP3 MOD SWAP1 POP SWAP3 SWAP2 POP POP JUMP JUMPDEST PUSH32 0x4E487B7100000000000000000000000000000000000000000000000000000000 PUSH1 0x0 MSTORE PUSH1 0x11 PUSH1 0x4 MSTORE PUSH1 0x24 PUSH1 0x0 REVERT JUMPDEST PUSH32 0x4E487B7100000000000000000000000000000000000000000000000000000000 PUSH1 0x0 MSTORE PUSH1 0x12 PUSH1 0x4 MSTORE PUSH1 0x24 PUSH1 0x0 REVERT JUMPDEST PUSH32 0x4E487B7100000000000000000000000000000000000000000000000000000000 PUSH1 0x0 MSTORE PUSH1 0x22 PUSH1 0x4 MSTORE PUSH1 0x24 PUSH1 0x0 REVERT JUMPDEST PUSH32 0x4E487B7100000000000000000000000000000000000000000000000000000000 PUSH1 0x0 MSTORE PUSH1 0x41 PUSH1 0x4 MSTORE PUSH1 0x24 PUSH1 0x0 REVERT JUMPDEST PUSH1 0x0 PUSH1 0x1F NOT PUSH1 0x1F DUP4 ADD AND SWAP1 POP SWAP2 SWAP1 POP JUMP JUMPDEST PUSH1 0x0 DUP2 PUSH1 0x60 SHL SWAP1 POP SWAP2 SWAP1 POP JUMP JUMPDEST PUSH32 0x45524332303A207472616E7366657220746F20746865207A65726F2061646472 PUSH1 0x0 DUP3 ADD MSTORE PUSH32 0x6573730000000000000000000000000000000000000000000000000000000000 PUSH1 0x20 DUP3 ADD MSTORE POP JUMP JUMPDEST PUSH32 0x45524332303A206275726E20616D6F756E7420657863656564732062616C616E PUSH1 0x0 DUP3 ADD MSTORE PUSH32 0x6365000000000000000000000000000000000000000000000000000000000000 PUSH1 0x20 DUP3 ADD MSTORE POP JUMP JUMPDEST PUSH32 0x45524332303A20617070726F766520746F20746865207A65726F206164647265 PUSH1 0x0 DUP3 ADD MSTORE PUSH32 0x7373000000000000000000000000000000000000000000000000000000000000 PUSH1 0x20 DUP3 ADD MSTORE POP JUMP JUMPDEST PUSH32 0x45524332303A20696E73756666696369656E7420616C6C6F77616E6365000000 PUSH1 0x0 DUP3 ADD MSTORE POP JUMP JUMPDEST PUSH32 0x45524332303A207472616E7366657220616D6F756E7420657863656564732062 PUSH1 0x0 DUP3 ADD MSTORE PUSH32 0x616C616E63650000000000000000000000000000000000000000000000000000 PUSH1 0x20 DUP3 ADD MSTORE POP JUMP JUMPDEST PUSH32 0x456E7465722034206E756D626572730000000000000000000000000000000000 PUSH1 0x0 DUP3 ADD MSTORE POP JUMP JUMPDEST PUSH32 0x4E756D62657273206D75737420626520756E6971756500000000000000000000 PUSH1 0x0 DUP3 ADD MSTORE POP JUMP JUMPDEST PUSH32 0x45524332303A206275726E2066726F6D20746865207A65726F20616464726573 PUSH1 0x0 DUP3 ADD MSTORE PUSH32 0x7300000000000000000000000000000000000000000000000000000000000000 PUSH1 0x20 DUP3 ADD MSTORE POP JUMP JUMPDEST PUSH32 0x45524332303A207472616E736665722066726F6D20746865207A65726F206164 PUSH1 0x0 DUP3 ADD MSTORE PUSH32 0x6472657373000000000000000000000000000000000000000000000000000000 PUSH1 0x20 DUP3 ADD MSTORE POP JUMP JUMPDEST PUSH32 0x45524332303A20617070726F76652066726F6D20746865207A65726F20616464 PUSH1 0x0 DUP3 ADD MSTORE PUSH32 0x7265737300000000000000000000000000000000000000000000000000000000 PUSH1 0x20 DUP3 ADD MSTORE POP JUMP JUMPDEST PUSH32 0x596F75204C6F737420616C726561647900000000000000000000000000000000 PUSH1 0x0 DUP3 ADD MSTORE POP JUMP JUMPDEST PUSH32 0x45524332303A2064656372656173656420616C6C6F77616E63652062656C6F77 PUSH1 0x0 DUP3 ADD MSTORE PUSH32 0x207A65726F000000000000000000000000000000000000000000000000000000 PUSH1 0x20 DUP3 ADD MSTORE POP JUMP JUMPDEST PUSH32 0x45524332303A206D696E7420746F20746865207A65726F206164647265737300 PUSH1 0x0 DUP3 ADD MSTORE POP JUMP JUMPDEST PUSH2 0x2A26 DUP2 PUSH2 0x242F JUMP JUMPDEST DUP2 EQ PUSH2 0x2A31 JUMPI PUSH1 0x0 DUP1 REVERT JUMPDEST POP JUMP JUMPDEST PUSH2 0x2A3D DUP2 PUSH2 0x246D JUMP JUMPDEST DUP2 EQ PUSH2 0x2A48 JUMPI PUSH1 0x0 DUP1 REVERT JUMPDEST POP JUMP INVALID LOG2 PUSH5 0x6970667358 0x22 SLT KECCAK256 SWAP13 0xE1 0xAB 0xB9 SWAP9 0xE9 ADDRESS 0xE SELFBALANCE 0xE6 0x49 0x22 PUSH4 0xE1F5CD80 0x29 0xDC SGT INVALID 0xAD ADDRESS DUP3 OR SWAP7 0xB4 0x1E DUP9 DUP1 SHL PUSH12 0x64736F6C6343000804003300 "
        },
        "methodIdentifiers": {
          "allowance(address,address)": "dd62ed3e",
          "approve(address,uint256)": "095ea7b3",
          "balanceOf(address)": "70a08231",
          "decimals()": "313ce567",
          "decreaseAllowance(address,uint256)": "a457c2d7",
          "increaseAllowance(address,uint256)": "39509351",
          "name()": "06fdde03",
          "playGame(uint256[])": "fcb1d746",
          "startGame()": "d65ab5f2",
          "symbol()": "95d89b41",
          "totalSupply()": "18160ddd",
          "transfer(address,uint256)": "a9059cbb",
          "transferFrom(address,address,uint256)": "23b872dd",
          "transferToCreator(uint256)": "0b4dab98"
        }
      }
    }
  }
}