{
  "contracts/Non_Vrf_Dow.sol": {
    "NON_VRF_DOW": {
      "abi": [
        {
          "inputs": [],
          "stateMutability": "nonpayable",
          "type": "constructor"
        },
        {
          "inputs": [],
          "name": "AlreadyClaimedFreeTokens",
          "type": "error"
        },
        {
          "inputs": [],
          "name": "Enter4Numbers",
          "type": "error"
        },
        {
          "inputs": [],
          "name": "InsufficientTokens",
          "type": "error"
        },
        {
          "inputs": [],
          "name": "NotOwner",
          "type": "error"
        },
        {
          "inputs": [],
          "name": "NumbersMustBeUnique",
          "type": "error"
        },
        {
          "inputs": [],
          "name": "PlayerHasNotPlayed",
          "type": "error"
        },
        {
          "inputs": [],
          "name": "YouLost",
          "type": "error"
        },
        {
          "anonymous": false,
          "inputs": [
            {
              "indexed": true,
              "internalType": "address",
              "name": "owner",
              "type": "address"
            },
            {
              "indexed": true,
              "internalType": "address",
              "name": "spender",
              "type": "address"
            },
            {
              "indexed": false,
              "internalType": "uint256",
              "name": "value",
              "type": "uint256"
            }
          ],
          "name": "Approval",
          "type": "event"
        },
        {
          "anonymous": false,
          "inputs": [
            {
              "indexed": false,
              "internalType": "uint256[]",
              "name": "compNum",
              "type": "uint256[]"
            }
          ],
          "name": "PlayerNumbers",
          "type": "event"
        },
        {
          "anonymous": false,
          "inputs": [
            {
              "indexed": true,
              "internalType": "address",
              "name": "from",
              "type": "address"
            },
            {
              "indexed": true,
              "internalType": "address",
              "name": "to",
              "type": "address"
            },
            {
              "indexed": false,
              "internalType": "uint256",
              "name": "value",
              "type": "uint256"
            }
          ],
          "name": "Transfer",
          "type": "event"
        },
        {
          "anonymous": false,
          "inputs": [
            {
              "indexed": false,
              "internalType": "uint256[]",
              "name": "compNumber",
              "type": "uint256[]"
            }
          ],
          "name": "compNumber",
          "type": "event"
        },
        {
          "inputs": [],
          "name": "LeaderBoard",
          "outputs": [
            {
              "components": [
                {
                  "internalType": "address",
                  "name": "playerAddress",
                  "type": "address"
                },
                {
                  "internalType": "uint96",
                  "name": "wins",
                  "type": "uint96"
                }
              ],
              "internalType": "struct NON_VRF_DOW.PlayerScore[]",
              "name": "leaderBoard",
              "type": "tuple[]"
            }
          ],
          "stateMutability": "view",
          "type": "function"
        },
        {
          "inputs": [
            {
              "internalType": "address",
              "name": "",
              "type": "address"
            }
          ],
          "name": "PlayerStruct",
          "outputs": [
            {
              "internalType": "uint256",
              "name": "gamesPlayed",
              "type": "uint256"
            },
            {
              "internalType": "uint64",
              "name": "gamesLost",
              "type": "uint64"
            },
            {
              "internalType": "uint64",
              "name": "currentWinStreak",
              "type": "uint64"
            },
            {
              "internalType": "uint64",
              "name": "maxWinStreak",
              "type": "uint64"
            },
            {
              "internalType": "uint64",
              "name": "gamesWon",
              "type": "uint64"
            }
          ],
          "stateMutability": "view",
          "type": "function"
        },
        {
          "inputs": [
            {
              "internalType": "address",
              "name": "owner",
              "type": "address"
            },
            {
              "internalType": "address",
              "name": "spender",
              "type": "address"
            }
          ],
          "name": "allowance",
          "outputs": [
            {
              "internalType": "uint256",
              "name": "",
              "type": "uint256"
            }
          ],
          "stateMutability": "view",
          "type": "function"
        },
        {
          "inputs": [
            {
              "internalType": "address",
              "name": "spender",
              "type": "address"
            },
            {
              "internalType": "uint256",
              "name": "amount",
              "type": "uint256"
            }
          ],
          "name": "approve",
          "outputs": [
            {
              "internalType": "bool",
              "name": "",
              "type": "bool"
            }
          ],
          "stateMutability": "nonpayable",
          "type": "function"
        },
        {
          "inputs": [
            {
              "internalType": "address",
              "name": "account",
              "type": "address"
            }
          ],
          "name": "balanceOf",
          "outputs": [
            {
              "internalType": "uint256",
              "name": "",
              "type": "uint256"
            }
          ],
          "stateMutability": "view",
          "type": "function"
        },
        {
          "inputs": [],
          "name": "checkStreak",
          "outputs": [
            {
              "components": [
                {
                  "internalType": "uint256",
                  "name": "gamesPlayed",
                  "type": "uint256"
                },
                {
                  "internalType": "uint64",
                  "name": "gamesLost",
                  "type": "uint64"
                },
                {
                  "internalType": "uint64",
                  "name": "currentWinStreak",
                  "type": "uint64"
                },
                {
                  "internalType": "uint64",
                  "name": "maxWinStreak",
                  "type": "uint64"
                },
                {
                  "internalType": "uint64",
                  "name": "gamesWon",
                  "type": "uint64"
                }
              ],
              "internalType": "struct NON_VRF_DOW.Player",
              "name": "",
              "type": "tuple"
            }
          ],
          "stateMutability": "view",
          "type": "function"
        },
        {
          "inputs": [
            {
              "internalType": "uint8",
              "name": "trial",
              "type": "uint8"
            }
          ],
          "name": "checkTrials",
          "outputs": [],
          "stateMutability": "nonpayable",
          "type": "function"
        },
        {
          "inputs": [],
          "name": "claimFreeTokens",
          "outputs": [],
          "stateMutability": "nonpayable",
          "type": "function"
        },
        {
          "inputs": [
            {
              "internalType": "uint256",
              "name": "",
              "type": "uint256"
            }
          ],
          "name": "compNum",
          "outputs": [
            {
              "internalType": "uint256",
              "name": "",
              "type": "uint256"
            }
          ],
          "stateMutability": "view",
          "type": "function"
        },
        {
          "inputs": [],
          "name": "decimals",
          "outputs": [
            {
              "internalType": "uint8",
              "name": "",
              "type": "uint8"
            }
          ],
          "stateMutability": "view",
          "type": "function"
        },
        {
          "inputs": [
            {
              "internalType": "address",
              "name": "spender",
              "type": "address"
            },
            {
              "internalType": "uint256",
              "name": "subtractedValue",
              "type": "uint256"
            }
          ],
          "name": "decreaseAllowance",
          "outputs": [
            {
              "internalType": "bool",
              "name": "",
              "type": "bool"
            }
          ],
          "stateMutability": "nonpayable",
          "type": "function"
        },
        {
          "inputs": [
            {
              "internalType": "address",
              "name": "spender",
              "type": "address"
            },
            {
              "internalType": "uint256",
              "name": "addedValue",
              "type": "uint256"
            }
          ],
          "name": "increaseAllowance",
          "outputs": [
            {
              "internalType": "bool",
              "name": "",
              "type": "bool"
            }
          ],
          "stateMutability": "nonpayable",
          "type": "function"
        },
        {
          "inputs": [],
          "name": "name",
          "outputs": [
            {
              "internalType": "string",
              "name": "",
              "type": "string"
            }
          ],
          "stateMutability": "view",
          "type": "function"
        },
        {
          "inputs": [],
          "name": "randNum",
          "outputs": [
            {
              "internalType": "uint256",
              "name": "",
              "type": "uint256"
            }
          ],
          "stateMutability": "view",
          "type": "function"
        },
        {
          "inputs": [],
          "name": "setTNotoUseVRF",
          "outputs": [],
          "stateMutability": "nonpayable",
          "type": "function"
        },
        {
          "inputs": [],
          "name": "setToUseVRF",
          "outputs": [],
          "stateMutability": "nonpayable",
          "type": "function"
        },
        {
          "inputs": [],
          "name": "startGame",
          "outputs": [
            {
              "internalType": "uint256[]",
              "name": "playerNumbers",
              "type": "uint256[]"
            }
          ],
          "stateMutability": "nonpayable",
          "type": "function"
        },
        {
          "inputs": [],
          "name": "symbol",
          "outputs": [
            {
              "internalType": "string",
              "name": "",
              "type": "string"
            }
          ],
          "stateMutability": "view",
          "type": "function"
        },
        {
          "inputs": [],
          "name": "totalSupply",
          "outputs": [
            {
              "internalType": "uint256",
              "name": "",
              "type": "uint256"
            }
          ],
          "stateMutability": "view",
          "type": "function"
        },
        {
          "inputs": [
            {
              "internalType": "address",
              "name": "to",
              "type": "address"
            },
            {
              "internalType": "uint256",
              "name": "amount",
              "type": "uint256"
            }
          ],
          "name": "transfer",
          "outputs": [
            {
              "internalType": "bool",
              "name": "",
              "type": "bool"
            }
          ],
          "stateMutability": "nonpayable",
          "type": "function"
        },
        {
          "inputs": [
            {
              "internalType": "address",
              "name": "from",
              "type": "address"
            },
            {
              "internalType": "address",
              "name": "to",
              "type": "address"
            },
            {
              "internalType": "uint256",
              "name": "amount",
              "type": "uint256"
            }
          ],
          "name": "transferFrom",
          "outputs": [
            {
              "internalType": "bool",
              "name": "",
              "type": "bool"
            }
          ],
          "stateMutability": "nonpayable",
          "type": "function"
        },
        {
          "inputs": [
            {
              "internalType": "uint256",
              "name": "_amount",
              "type": "uint256"
            }
          ],
          "name": "transferToCreator",
          "outputs": [],
          "stateMutability": "nonpayable",
          "type": "function"
        }
      ],
      "evm": {
        "bytecode": {
          "linkReferences": {},
          "object": "60806040523480156200001157600080fd5b506040518060400160405280600f81526020017f44656164206f7220576f756e64656400000000000000000000000000000000008152506040518060400160405280600381526020017f444f570000000000000000000000000000000000000000000000000000000000815250816003908051906020019062000096929190620000f9565b508060049080519060200190620000af929190620000f9565b50505033600760006101000a81548173ffffffffffffffffffffffffffffffffffffffff021916908373ffffffffffffffffffffffffffffffffffffffff1602179055506200020e565b8280546200010790620001a9565b90600052602060002090601f0160209004810192826200012b576000855562000177565b82601f106200014657805160ff191683800117855562000177565b8280016001018555821562000177579182015b828111156200017657825182559160200191906001019062000159565b5b5090506200018691906200018a565b5090565b5b80821115620001a55760008160009055506001016200018b565b5090565b60006002820490506001821680620001c257607f821691505b60208210811415620001d957620001d8620001df565b5b50919050565b7f4e487b7100000000000000000000000000000000000000000000000000000000600052602260045260246000fd5b613288806200021e6000396000f3fe608060405234801561001057600080fd5b50600436106101425760003560e01c806373fde543116100b8578063bcf50e8b1161007c578063bcf50e8b146103b9578063d65ab5f2146103c3578063dd62ed3e146103e1578063e297038814610411578063f14d21811461042d578063f52a6a411461043757610142565b806373fde543146102ff57806395d89b411461031d5780639ac8c0ef1461033b578063a457c2d714610359578063a9059cbb1461038957610142565b806323b872dd1161010a57806323b872dd146101ff578063313ce5671461022f578063395093511461024d57806355cd16e21461027d5780635c53d3341461029b57806370a08231146102cf57610142565b806306fdde0314610147578063095ea7b3146101655780630b4dab98146101955780630de079b1146101b157806318160ddd146101e1575b600080fd5b61014f610441565b60405161015c9190612929565b60405180910390f35b61017f600480360381019061017a9190612433565b6104d3565b60405161018c919061290e565b60405180910390f35b6101af60048036038101906101aa9190612473565b6104f6565b005b6101cb60048036038101906101c69190612473565b6105ac565b6040516101d89190612aa6565b60405180910390f35b6101e96105d0565b6040516101f69190612aa6565b60405180910390f35b610219600480360381019061021491906123e0565b6105da565b604051610226919061290e565b60405180910390f35b610237610609565b6040516102449190612b14565b60405180910390f35b61026760048036038101906102629190612433565b610612565b604051610274919061290e565b60405180910390f35b6102856106bc565b6040516102929190612a8b565b60405180910390f35b6102b560048036038101906102b09190612373565b6107eb565b6040516102c6959493929190612ac1565b60405180910390f35b6102e960048036038101906102e49190612373565b610871565b6040516102f69190612aa6565b60405180910390f35b6103076108b9565b60405161031491906128ca565b60405180910390f35b610325610ab3565b6040516103329190612929565b60405180910390f35b610343610b45565b6040516103509190612aa6565b60405180910390f35b610373600480360381019061036e9190612433565b610b4b565b604051610380919061290e565b60405180910390f35b6103a3600480360381019061039e9190612433565b610c35565b6040516103b0919061290e565b60405180910390f35b6103c1610c58565b005b6103cb610c75565b6040516103d891906128ec565b60405180910390f35b6103fb60048036038101906103f691906123a0565b61103b565b6040516104089190612aa6565b60405180910390f35b61042b600480360381019061042691906124a0565b6110c2565b005b61043561183d565b005b61043f61192e565b005b60606003805461045090612cfb565b80601f016020809104026020016040519081016040528092919081815260200182805461047c90612cfb565b80156104c95780601f1061049e576101008083540402835291602001916104c9565b820191906000526020600020905b8154815290600101906020018083116104ac57829003601f168201915b5050505050905090565b6000806104de61194b565b90506104eb818585611953565b600191505092915050565b600760009054906101000a900473ffffffffffffffffffffffffffffffffffffffff1673ffffffffffffffffffffffffffffffffffffffff163373ffffffffffffffffffffffffffffffffffffffff161461057d576040517f30cd747100000000000000000000000000000000000000000000000000000000815260040160405180910390fd5b6105a9600760009054906101000a900473ffffffffffffffffffffffffffffffffffffffff1682611b1e565b50565b600881815481106105bc57600080fd5b906000526020600020016000915090505481565b6000600254905090565b6000806105e561194b565b90506105f2858285611c7e565b6105fd858585611d0a565b60019150509392505050565b60006012905090565b60008061061d61194b565b90506106b1818585600160008673ffffffffffffffffffffffffffffffffffffffff1673ffffffffffffffffffffffffffffffffffffffff16815260200190815260200160002060008973ffffffffffffffffffffffffffffffffffffffff1673ffffffffffffffffffffffffffffffffffffffff168152602001908152602001600020546106ac9190612bbd565b611953565b600191505092915050565b6106c461229f565b6000600a60003373ffffffffffffffffffffffffffffffffffffffff1673ffffffffffffffffffffffffffffffffffffffff1681526020019081526020016000209050806040518060a0016040529081600082015481526020016001820160009054906101000a900467ffffffffffffffff1667ffffffffffffffff1667ffffffffffffffff1681526020016001820160089054906101000a900467ffffffffffffffff1667ffffffffffffffff1667ffffffffffffffff1681526020016001820160109054906101000a900467ffffffffffffffff1667ffffffffffffffff1667ffffffffffffffff1681526020016001820160189054906101000a900467ffffffffffffffff1667ffffffffffffffff1667ffffffffffffffff168152505091505090565b600a6020528060005260406000206000915090508060000154908060010160009054906101000a900467ffffffffffffffff16908060010160089054906101000a900467ffffffffffffffff16908060010160109054906101000a900467ffffffffffffffff16908060010160189054906101000a900467ffffffffffffffff16905085565b60008060008373ffffffffffffffffffffffffffffffffffffffff1673ffffffffffffffffffffffffffffffffffffffff168152602001908152602001600020549050919050565b606060098054905067ffffffffffffffff8111156108da576108d9612ef1565b5b60405190808252806020026020018201604052801561091357816020015b6109006122f6565b8152602001906001900390816108f85790505b50905060005b600980549050811015610aaf576000600a6000600984815481106109405761093f612ec2565b5b9060005260206000200160009054906101000a900473ffffffffffffffffffffffffffffffffffffffff1673ffffffffffffffffffffffffffffffffffffffff1673ffffffffffffffffffffffffffffffffffffffff1681526020019081526020016000209050600982815481106109bb576109ba612ec2565b5b9060005260206000200160009054906101000a900473ffffffffffffffffffffffffffffffffffffffff168383815181106109f9576109f8612ec2565b5b60200260200101516000019073ffffffffffffffffffffffffffffffffffffffff16908173ffffffffffffffffffffffffffffffffffffffff16815250508060010160189054906101000a900467ffffffffffffffff1667ffffffffffffffff16838381518110610a6d57610a6c612ec2565b5b6020026020010151602001906bffffffffffffffffffffffff1690816bffffffffffffffffffffffff1681525050508080610aa790612d2d565b915050610919565b5090565b606060048054610ac290612cfb565b80601f0160208091040260200160405190810160405280929190818152602001828054610aee90612cfb565b8015610b3b5780601f10610b1057610100808354040283529160200191610b3b565b820191906000526020600020905b815481529060010190602001808311610b1e57829003601f168201915b5050505050905090565b60065481565b600080610b5661194b565b90506000600160008373ffffffffffffffffffffffffffffffffffffffff1673ffffffffffffffffffffffffffffffffffffffff16815260200190815260200160002060008673ffffffffffffffffffffffffffffffffffffffff1673ffffffffffffffffffffffffffffffffffffffff16815260200190815260200160002054905083811015610c1c576040517f08c379a0000000000000000000000000000000000000000000000000000000008152600401610c1390612a4b565b60405180910390fd5b610c298286868403611953565b60019250505092915050565b600080610c4061194b565b9050610c4d818585611d0a565b600191505092915050565b6000600760146101000a81548160ff021916908315150217905550565b6060600b60003373ffffffffffffffffffffffffffffffffffffffff1673ffffffffffffffffffffffffffffffffffffffff16815260200190815260200160002060009054906101000a900460ff16610d84576001600b60003373ffffffffffffffffffffffffffffffffffffffff1673ffffffffffffffffffffffffffffffffffffffff16815260200190815260200160002060006101000a81548160ff0219169083151502179055506009339080600181540180825580915050600190039060005260206000200160009091909190916101000a81548173ffffffffffffffffffffffffffffffffffffffff021916908373ffffffffffffffffffffffffffffffffffffffff1602179055505b6000600a60003373ffffffffffffffffffffffffffffffffffffffff1673ffffffffffffffffffffffffffffffffffffffff1681526020019081526020016000209050674563918244f40000610dd933610871565b1015610e11576040517ff1b7e15e00000000000000000000000000000000000000000000000000000000815260040160405180910390fd5b610e2333674563918244f40000611f8b565b600467ffffffffffffffff811115610e3e57610e3d612ef1565b5b604051908082528060200260200182016040528015610e6c5781602001602082028036833780820191505090505b5091505b60046008805490501015610e8b57610e86612162565b610e70565b6008600081548110610ea057610e9f612ec2565b5b906000526020600020015482600081518110610ebf57610ebe612ec2565b5b6020026020010181815250506008600181548110610ee057610edf612ec2565b5b906000526020600020015482600181518110610eff57610efe612ec2565b5b6020026020010181815250506008600281548110610f2057610f1f612ec2565b5b906000526020600020015482600281518110610f3f57610f3e612ec2565b5b6020026020010181815250506008600381548110610f6057610f5f612ec2565b5b906000526020600020015482600381518110610f7f57610f7e612ec2565b5b602002602001018181525050610f936121f5565b6001600d60003373ffffffffffffffffffffffffffffffffffffffff1673ffffffffffffffffffffffffffffffffffffffff16815260200190815260200160002060008360000154815260200190815260200160002060006101000a81548160ff0219169083151502179055507f1d114e181ecbebd80b1bc0892e9c2a0bef6cfd6d231e0398641b56bfb5b666d08260405161102f91906128ec565b60405180910390a15090565b6000600160008473ffffffffffffffffffffffffffffffffffffffff1673ffffffffffffffffffffffffffffffffffffffff16815260200190815260200160002060008373ffffffffffffffffffffffffffffffffffffffff1673ffffffffffffffffffffffffffffffffffffffff16815260200190815260200160002054905092915050565b6000600a60003373ffffffffffffffffffffffffffffffffffffffff1673ffffffffffffffffffffffffffffffffffffffff168152602001908152602001600020905060001515600d60003373ffffffffffffffffffffffffffffffffffffffff1673ffffffffffffffffffffffffffffffffffffffff16815260200190815260200160002060008360000154815260200190815260200160002060009054906101000a900460ff16151514156111a5576040517f1fcd583900000000000000000000000000000000000000000000000000000000815260040160405180910390fd5b8060000160008154809291906111ba90612d2d565b919050555060018260ff1614156112815780600101600881819054906101000a900467ffffffffffffffff16809291906111f390612d76565b91906101000a81548167ffffffffffffffff021916908367ffffffffffffffff1602179055505080600101601881819054906101000a900467ffffffffffffffff168092919061124290612d76565b91906101000a81548167ffffffffffffffff021916908367ffffffffffffffff1602179055505061127c336801158e460913d00000611b1e565b6117aa565b60028260ff1614156113435780600101600881819054906101000a900467ffffffffffffffff16809291906112b590612d76565b91906101000a81548167ffffffffffffffff021916908367ffffffffffffffff1602179055505080600101601881819054906101000a900467ffffffffffffffff168092919061130490612d76565b91906101000a81548167ffffffffffffffff021916908367ffffffffffffffff1602179055505061133e336801158e460913d00000611b1e565b6117a9565b60038260ff1614156114055780600101600881819054906101000a900467ffffffffffffffff168092919061137790612d76565b91906101000a81548167ffffffffffffffff021916908367ffffffffffffffff1602179055505080600101601881819054906101000a900467ffffffffffffffff16809291906113c690612d76565b91906101000a81548167ffffffffffffffff021916908367ffffffffffffffff16021790555050611400336801158e460913d00000611b1e565b6117a8565b60048260ff1614156114c65780600101600881819054906101000a900467ffffffffffffffff168092919061143990612d76565b91906101000a81548167ffffffffffffffff021916908367ffffffffffffffff1602179055505080600101601881819054906101000a900467ffffffffffffffff168092919061148890612d76565b91906101000a81548167ffffffffffffffff021916908367ffffffffffffffff160217905550506114c13367a688906bd8b00000611b1e565b6117a7565b60058260ff1614156115875780600101600881819054906101000a900467ffffffffffffffff16809291906114fa90612d76565b91906101000a81548167ffffffffffffffff021916908367ffffffffffffffff1602179055505080600101601881819054906101000a900467ffffffffffffffff168092919061154990612d76565b91906101000a81548167ffffffffffffffff021916908367ffffffffffffffff160217905550506115823367a688906bd8b00000611b1e565b6117a6565b60068260ff1614156116485780600101600881819054906101000a900467ffffffffffffffff16809291906115bb90612d76565b91906101000a81548167ffffffffffffffff021916908367ffffffffffffffff1602179055505080600101601881819054906101000a900467ffffffffffffffff168092919061160a90612d76565b91906101000a81548167ffffffffffffffff021916908367ffffffffffffffff1602179055505061164333676124fee993bc0000611b1e565b6117a5565b60078260ff1614156117095780600101600881819054906101000a900467ffffffffffffffff168092919061167c90612d76565b91906101000a81548167ffffffffffffffff021916908367ffffffffffffffff1602179055505080600101601881819054906101000a900467ffffffffffffffff16809291906116cb90612d76565b91906101000a81548167ffffffffffffffff021916908367ffffffffffffffff1602179055505061170433676124fee993bc0000611b1e565b6117a4565b60088260ff1614156117a35760008160010160086101000a81548167ffffffffffffffff021916908367ffffffffffffffff16021790555080600101600081819054906101000a900467ffffffffffffffff168092919061176990612d76565b91906101000a81548167ffffffffffffffff021916908367ffffffffffffffff160217905550506117a233676124fee993bc0000611b1e565b5b5b5b5b5b5b5b5b8060010160109054906101000a900467ffffffffffffffff1667ffffffffffffffff168160010160089054906101000a900467ffffffffffffffff1667ffffffffffffffff1610611839578060010160089054906101000a900467ffffffffffffffff168160010160106101000a81548167ffffffffffffffff021916908367ffffffffffffffff1602179055505b5050565b600c60003373ffffffffffffffffffffffffffffffffffffffff1673ffffffffffffffffffffffffffffffffffffffff16815260200190815260200160002060009054906101000a900460ff16156118c1576040517f53733ff700000000000000000000000000000000000000000000000000000000815260040160405180910390fd5b6001600c60003373ffffffffffffffffffffffffffffffffffffffff1673ffffffffffffffffffffffffffffffffffffffff16815260200190815260200160002060006101000a81548160ff02191690831515021790555061192c3368056bc75e2d63100000611b1e565b565b6001600760146101000a81548160ff021916908315150217905550565b600033905090565b600073ffffffffffffffffffffffffffffffffffffffff168373ffffffffffffffffffffffffffffffffffffffff1614156119c3576040517f08c379a00000000000000000000000000000000000000000000000000000000081526004016119ba90612a2b565b60405180910390fd5b600073ffffffffffffffffffffffffffffffffffffffff168273ffffffffffffffffffffffffffffffffffffffff161415611a33576040517f08c379a0000000000000000000000000000000000000000000000000000000008152600401611a2a9061298b565b60405180910390fd5b80600160008573ffffffffffffffffffffffffffffffffffffffff1673ffffffffffffffffffffffffffffffffffffffff16815260200190815260200160002060008473ffffffffffffffffffffffffffffffffffffffff1673ffffffffffffffffffffffffffffffffffffffff168152602001908152602001600020819055508173ffffffffffffffffffffffffffffffffffffffff168373ffffffffffffffffffffffffffffffffffffffff167f8c5be1e5ebec7d5bd14f71427d1e84f3dd0314c0f7b2291e5b200ac8c7c3b92583604051611b119190612aa6565b60405180910390a3505050565b600073ffffffffffffffffffffffffffffffffffffffff168273ffffffffffffffffffffffffffffffffffffffff161415611b8e576040517f08c379a0000000000000000000000000000000000000000000000000000000008152600401611b8590612a6b565b60405180910390fd5b611b9a60008383612233565b8060026000828254611bac9190612bbd565b92505081905550806000808473ffffffffffffffffffffffffffffffffffffffff1673ffffffffffffffffffffffffffffffffffffffff1681526020019081526020016000206000828254611c019190612bbd565b925050819055508173ffffffffffffffffffffffffffffffffffffffff16600073ffffffffffffffffffffffffffffffffffffffff167fddf252ad1be2c89b69c2b068fc378daa952ba7f163c4a11628f55a4df523b3ef83604051611c669190612aa6565b60405180910390a3611c7a60008383612238565b5050565b6000611c8a848461103b565b90507fffffffffffffffffffffffffffffffffffffffffffffffffffffffffffffffff8114611d045781811015611cf6576040517f08c379a0000000000000000000000000000000000000000000000000000000008152600401611ced906129ab565b60405180910390fd5b611d038484848403611953565b5b50505050565b600073ffffffffffffffffffffffffffffffffffffffff168373ffffffffffffffffffffffffffffffffffffffff161415611d7a576040517f08c379a0000000000000000000000000000000000000000000000000000000008152600401611d7190612a0b565b60405180910390fd5b600073ffffffffffffffffffffffffffffffffffffffff168273ffffffffffffffffffffffffffffffffffffffff161415611dea576040517f08c379a0000000000000000000000000000000000000000000000000000000008152600401611de19061294b565b60405180910390fd5b611df5838383612233565b60008060008573ffffffffffffffffffffffffffffffffffffffff1673ffffffffffffffffffffffffffffffffffffffff16815260200190815260200160002054905081811015611e7b576040517f08c379a0000000000000000000000000000000000000000000000000000000008152600401611e72906129cb565b60405180910390fd5b8181036000808673ffffffffffffffffffffffffffffffffffffffff1673ffffffffffffffffffffffffffffffffffffffff16815260200190815260200160002081905550816000808573ffffffffffffffffffffffffffffffffffffffff1673ffffffffffffffffffffffffffffffffffffffff1681526020019081526020016000206000828254611f0e9190612bbd565b925050819055508273ffffffffffffffffffffffffffffffffffffffff168473ffffffffffffffffffffffffffffffffffffffff167fddf252ad1be2c89b69c2b068fc378daa952ba7f163c4a11628f55a4df523b3ef84604051611f729190612aa6565b60405180910390a3611f85848484612238565b50505050565b600073ffffffffffffffffffffffffffffffffffffffff168273ffffffffffffffffffffffffffffffffffffffff161415611ffb576040517f08c379a0000000000000000000000000000000000000000000000000000000008152600401611ff2906129eb565b60405180910390fd5b61200782600083612233565b60008060008473ffffffffffffffffffffffffffffffffffffffff1673ffffffffffffffffffffffffffffffffffffffff1681526020019081526020016000205490508181101561208d576040517f08c379a00000000000000000000000000000000000000000000000000000000081526004016120849061296b565b60405180910390fd5b8181036000808573ffffffffffffffffffffffffffffffffffffffff1673ffffffffffffffffffffffffffffffffffffffff1681526020019081526020016000208190555081600260008282546120e49190612c13565b92505081905550600073ffffffffffffffffffffffffffffffffffffffff168373ffffffffffffffffffffffffffffffffffffffff167fddf252ad1be2c89b69c2b068fc378daa952ba7f163c4a11628f55a4df523b3ef846040516121499190612aa6565b60405180910390a361215d83600084612238565b505050565b600061216c61223d565b90506000805b6008805490508110156121c157826008828154811061219457612193612ec2565b5b906000526020600020015414156121ae57600191506121c1565b80806121b990612d2d565b915050612172565b50806121f15760088290806001815401808255809150506001900390600052602060002001600090919091909150555b5050565b5b6000600880549050111561223157600880548061221657612215612e93565b5b600190038181906000526020600020016000905590556121f6565b565b505050565b505050565b600080600a90506001600560008282546122579190612bbd565b925050819055508042600554336040516020016122769392919061288d565b6040516020818303038152906040528051906020012060001c6122999190612dd5565b91505090565b6040518060a0016040528060008152602001600067ffffffffffffffff168152602001600067ffffffffffffffff168152602001600067ffffffffffffffff168152602001600067ffffffffffffffff1681525090565b6040518060400160405280600073ffffffffffffffffffffffffffffffffffffffff16815260200160006bffffffffffffffffffffffff1681525090565b6000813590506123438161320d565b92915050565b60008135905061235881613224565b92915050565b60008135905061236d8161323b565b92915050565b60006020828403121561238957612388612f20565b5b600061239784828501612334565b91505092915050565b600080604083850312156123b7576123b6612f20565b5b60006123c585828601612334565b92505060206123d685828601612334565b9150509250929050565b6000806000606084860312156123f9576123f8612f20565b5b600061240786828701612334565b935050602061241886828701612334565b925050604061242986828701612349565b9150509250925092565b6000806040838503121561244a57612449612f20565b5b600061245885828601612334565b925050602061246985828601612349565b9150509250929050565b60006020828403121561248957612488612f20565b5b600061249784828501612349565b91505092915050565b6000602082840312156124b6576124b5612f20565b5b60006124c48482850161235e565b91505092915050565b60006124d98383612785565b60408301905092915050565b60006124f1838361281c565b60208301905092915050565b61250681612c47565b82525050565b61251d61251882612c47565b612da7565b82525050565b600061252e82612b4f565b6125388185612b8a565b935061254383612b2f565b8060005b8381101561257457815161255b88826124cd565b975061256683612b70565b925050600181019050612547565b5085935050505092915050565b600061258c82612b5a565b6125968185612b9b565b93506125a183612b3f565b8060005b838110156125d25781516125b988826124e5565b97506125c483612b7d565b9250506001810190506125a5565b5085935050505092915050565b6125e881612c59565b82525050565b60006125f982612b65565b6126038185612bac565b9350612613818560208601612cc8565b61261c81612f25565b840191505092915050565b6000612634602383612bac565b915061263f82612f43565b604082019050919050565b6000612657602283612bac565b915061266282612f92565b604082019050919050565b600061267a602283612bac565b915061268582612fe1565b604082019050919050565b600061269d601d83612bac565b91506126a882613030565b602082019050919050565b60006126c0602683612bac565b91506126cb82613059565b604082019050919050565b60006126e3602183612bac565b91506126ee826130a8565b604082019050919050565b6000612706602583612bac565b9150612711826130f7565b604082019050919050565b6000612729602483612bac565b915061273482613146565b604082019050919050565b600061274c602583612bac565b915061275782613195565b604082019050919050565b600061276f601f83612bac565b915061277a826131e4565b602082019050919050565b60408201600082015161279b60008501826124fd565b5060208201516127ae602085018261287e565b50505050565b60a0820160008201516127ca600085018261281c565b5060208201516127dd6020850182612851565b5060408201516127f06040850182612851565b5060608201516128036060850182612851565b5060808201516128166080850182612851565b50505050565b61282581612c85565b82525050565b61283481612c85565b82525050565b61284b61284682612c85565b612dcb565b82525050565b61285a81612c8f565b82525050565b61286981612c8f565b82525050565b61287881612ca3565b82525050565b61288781612cb0565b82525050565b6000612899828661283a565b6020820191506128a9828561283a565b6020820191506128b9828461250c565b601482019150819050949350505050565b600060208201905081810360008301526128e48184612523565b905092915050565b600060208201905081810360008301526129068184612581565b905092915050565b600060208201905061292360008301846125df565b92915050565b6000602082019050818103600083015261294381846125ee565b905092915050565b6000602082019050818103600083015261296481612627565b9050919050565b600060208201905081810360008301526129848161264a565b9050919050565b600060208201905081810360008301526129a48161266d565b9050919050565b600060208201905081810360008301526129c481612690565b9050919050565b600060208201905081810360008301526129e4816126b3565b9050919050565b60006020820190508181036000830152612a04816126d6565b9050919050565b60006020820190508181036000830152612a24816126f9565b9050919050565b60006020820190508181036000830152612a448161271c565b9050919050565b60006020820190508181036000830152612a648161273f565b9050919050565b60006020820190508181036000830152612a8481612762565b9050919050565b600060a082019050612aa060008301846127b4565b92915050565b6000602082019050612abb600083018461282b565b92915050565b600060a082019050612ad6600083018861282b565b612ae36020830187612860565b612af06040830186612860565b612afd6060830185612860565b612b0a6080830184612860565b9695505050505050565b6000602082019050612b29600083018461286f565b92915050565b6000819050602082019050919050565b6000819050602082019050919050565b600081519050919050565b600081519050919050565b600081519050919050565b6000602082019050919050565b6000602082019050919050565b600082825260208201905092915050565b600082825260208201905092915050565b600082825260208201905092915050565b6000612bc882612c85565b9150612bd383612c85565b9250827fffffffffffffffffffffffffffffffffffffffffffffffffffffffffffffffff03821115612c0857612c07612e06565b5b828201905092915050565b6000612c1e82612c85565b9150612c2983612c85565b925082821015612c3c57612c3b612e06565b5b828203905092915050565b6000612c5282612c65565b9050919050565b60008115159050919050565b600073ffffffffffffffffffffffffffffffffffffffff82169050919050565b6000819050919050565b600067ffffffffffffffff82169050919050565b600060ff82169050919050565b60006bffffffffffffffffffffffff82169050919050565b60005b83811015612ce6578082015181840152602081019050612ccb565b83811115612cf5576000848401525b50505050565b60006002820490506001821680612d1357607f821691505b60208210811415612d2757612d26612e64565b5b50919050565b6000612d3882612c85565b91507fffffffffffffffffffffffffffffffffffffffffffffffffffffffffffffffff821415612d6b57612d6a612e06565b5b600182019050919050565b6000612d8182612c8f565b915067ffffffffffffffff821415612d9c57612d9b612e06565b5b600182019050919050565b6000612db282612db9565b9050919050565b6000612dc482612f36565b9050919050565b6000819050919050565b6000612de082612c85565b9150612deb83612c85565b925082612dfb57612dfa612e35565b5b828206905092915050565b7f4e487b7100000000000000000000000000000000000000000000000000000000600052601160045260246000fd5b7f4e487b7100000000000000000000000000000000000000000000000000000000600052601260045260246000fd5b7f4e487b7100000000000000000000000000000000000000000000000000000000600052602260045260246000fd5b7f4e487b7100000000000000000000000000000000000000000000000000000000600052603160045260246000fd5b7f4e487b7100000000000000000000000000000000000000000000000000000000600052603260045260246000fd5b7f4e487b7100000000000000000000000000000000000000000000000000000000600052604160045260246000fd5b600080fd5b6000601f19601f8301169050919050565b60008160601b9050919050565b7f45524332303a207472616e7366657220746f20746865207a65726f206164647260008201527f6573730000000000000000000000000000000000000000000000000000000000602082015250565b7f45524332303a206275726e20616d6f756e7420657863656564732062616c616e60008201527f6365000000000000000000000000000000000000000000000000000000000000602082015250565b7f45524332303a20617070726f766520746f20746865207a65726f20616464726560008201527f7373000000000000000000000000000000000000000000000000000000000000602082015250565b7f45524332303a20696e73756666696369656e7420616c6c6f77616e6365000000600082015250565b7f45524332303a207472616e7366657220616d6f756e742065786365656473206260008201527f616c616e63650000000000000000000000000000000000000000000000000000602082015250565b7f45524332303a206275726e2066726f6d20746865207a65726f2061646472657360008201527f7300000000000000000000000000000000000000000000000000000000000000602082015250565b7f45524332303a207472616e736665722066726f6d20746865207a65726f20616460008201527f6472657373000000000000000000000000000000000000000000000000000000602082015250565b7f45524332303a20617070726f76652066726f6d20746865207a65726f2061646460008201527f7265737300000000000000000000000000000000000000000000000000000000602082015250565b7f45524332303a2064656372656173656420616c6c6f77616e63652062656c6f7760008201527f207a65726f000000000000000000000000000000000000000000000000000000602082015250565b7f45524332303a206d696e7420746f20746865207a65726f206164647265737300600082015250565b61321681612c47565b811461322157600080fd5b50565b61322d81612c85565b811461323857600080fd5b50565b61324481612ca3565b811461324f57600080fd5b5056fea2646970667358221220334ff6181768ed6c284e971385b23f0d9a4da1b1e4f194eee547655d395e1d7164736f6c63430008070033",
          "opcodes": "PUSH1 0x80 PUSH1 0x40 MSTORE CALLVALUE DUP1 ISZERO PUSH3 0x11 JUMPI PUSH1 0x0 DUP1 REVERT JUMPDEST POP PUSH1 0x40 MLOAD DUP1 PUSH1 0x40 ADD PUSH1 0x40 MSTORE DUP1 PUSH1 0xF DUP2 MSTORE PUSH1 0x20 ADD PUSH32 0x44656164206F7220576F756E6465640000000000000000000000000000000000 DUP2 MSTORE POP PUSH1 0x40 MLOAD DUP1 PUSH1 0x40 ADD PUSH1 0x40 MSTORE DUP1 PUSH1 0x3 DUP2 MSTORE PUSH1 0x20 ADD PUSH32 0x444F570000000000000000000000000000000000000000000000000000000000 DUP2 MSTORE POP DUP2 PUSH1 0x3 SWAP1 DUP1 MLOAD SWAP1 PUSH1 0x20 ADD SWAP1 PUSH3 0x96 SWAP3 SWAP2 SWAP1 PUSH3 0xF9 JUMP JUMPDEST POP DUP1 PUSH1 0x4 SWAP1 DUP1 MLOAD SWAP1 PUSH1 0x20 ADD SWAP1 PUSH3 0xAF SWAP3 SWAP2 SWAP1 PUSH3 0xF9 JUMP JUMPDEST POP POP POP CALLER PUSH1 0x7 PUSH1 0x0 PUSH2 0x100 EXP DUP2 SLOAD DUP2 PUSH20 0xFFFFFFFFFFFFFFFFFFFFFFFFFFFFFFFFFFFFFFFF MUL NOT AND SWAP1 DUP4 PUSH20 0xFFFFFFFFFFFFFFFFFFFFFFFFFFFFFFFFFFFFFFFF AND MUL OR SWAP1 SSTORE POP PUSH3 0x20E JUMP JUMPDEST DUP3 DUP1 SLOAD PUSH3 0x107 SWAP1 PUSH3 0x1A9 JUMP JUMPDEST SWAP1 PUSH1 0x0 MSTORE PUSH1 0x20 PUSH1 0x0 KECCAK256 SWAP1 PUSH1 0x1F ADD PUSH1 0x20 SWAP1 DIV DUP2 ADD SWAP3 DUP3 PUSH3 0x12B JUMPI PUSH1 0x0 DUP6 SSTORE PUSH3 0x177 JUMP JUMPDEST DUP3 PUSH1 0x1F LT PUSH3 0x146 JUMPI DUP1 MLOAD PUSH1 0xFF NOT AND DUP4 DUP1 ADD OR DUP6 SSTORE PUSH3 0x177 JUMP JUMPDEST DUP3 DUP1 ADD PUSH1 0x1 ADD DUP6 SSTORE DUP3 ISZERO PUSH3 0x177 JUMPI SWAP2 DUP3 ADD JUMPDEST DUP3 DUP2 GT ISZERO PUSH3 0x176 JUMPI DUP3 MLOAD DUP3 SSTORE SWAP2 PUSH1 0x20 ADD SWAP2 SWAP1 PUSH1 0x1 ADD SWAP1 PUSH3 0x159 JUMP JUMPDEST JUMPDEST POP SWAP1 POP PUSH3 0x186 SWAP2 SWAP1 PUSH3 0x18A JUMP JUMPDEST POP SWAP1 JUMP JUMPDEST JUMPDEST DUP1 DUP3 GT ISZERO PUSH3 0x1A5 JUMPI PUSH1 0x0 DUP2 PUSH1 0x0 SWAP1 SSTORE POP PUSH1 0x1 ADD PUSH3 0x18B JUMP JUMPDEST POP SWAP1 JUMP JUMPDEST PUSH1 0x0 PUSH1 0x2 DUP3 DIV SWAP1 POP PUSH1 0x1 DUP3 AND DUP1 PUSH3 0x1C2 JUMPI PUSH1 0x7F DUP3 AND SWAP2 POP JUMPDEST PUSH1 0x20 DUP3 LT DUP2 EQ ISZERO PUSH3 0x1D9 JUMPI PUSH3 0x1D8 PUSH3 0x1DF JUMP JUMPDEST JUMPDEST POP SWAP2 SWAP1 POP JUMP JUMPDEST PUSH32 0x4E487B7100000000000000000000000000000000000000000000000000000000 PUSH1 0x0 MSTORE PUSH1 0x22 PUSH1 0x4 MSTORE PUSH1 0x24 PUSH1 0x0 REVERT JUMPDEST PUSH2 0x3288 DUP1 PUSH3 0x21E PUSH1 0x0 CODECOPY PUSH1 0x0 RETURN INVALID PUSH1 0x80 PUSH1 0x40 MSTORE CALLVALUE DUP1 ISZERO PUSH2 0x10 JUMPI PUSH1 0x0 DUP1 REVERT JUMPDEST POP PUSH1 0x4 CALLDATASIZE LT PUSH2 0x142 JUMPI PUSH1 0x0 CALLDATALOAD PUSH1 0xE0 SHR DUP1 PUSH4 0x73FDE543 GT PUSH2 0xB8 JUMPI DUP1 PUSH4 0xBCF50E8B GT PUSH2 0x7C JUMPI DUP1 PUSH4 0xBCF50E8B EQ PUSH2 0x3B9 JUMPI DUP1 PUSH4 0xD65AB5F2 EQ PUSH2 0x3C3 JUMPI DUP1 PUSH4 0xDD62ED3E EQ PUSH2 0x3E1 JUMPI DUP1 PUSH4 0xE2970388 EQ PUSH2 0x411 JUMPI DUP1 PUSH4 0xF14D2181 EQ PUSH2 0x42D JUMPI DUP1 PUSH4 0xF52A6A41 EQ PUSH2 0x437 JUMPI PUSH2 0x142 JUMP JUMPDEST DUP1 PUSH4 0x73FDE543 EQ PUSH2 0x2FF JUMPI DUP1 PUSH4 0x95D89B41 EQ PUSH2 0x31D JUMPI DUP1 PUSH4 0x9AC8C0EF EQ PUSH2 0x33B JUMPI DUP1 PUSH4 0xA457C2D7 EQ PUSH2 0x359 JUMPI DUP1 PUSH4 0xA9059CBB EQ PUSH2 0x389 JUMPI PUSH2 0x142 JUMP JUMPDEST DUP1 PUSH4 0x23B872DD GT PUSH2 0x10A JUMPI DUP1 PUSH4 0x23B872DD EQ PUSH2 0x1FF JUMPI DUP1 PUSH4 0x313CE567 EQ PUSH2 0x22F JUMPI DUP1 PUSH4 0x39509351 EQ PUSH2 0x24D JUMPI DUP1 PUSH4 0x55CD16E2 EQ PUSH2 0x27D JUMPI DUP1 PUSH4 0x5C53D334 EQ PUSH2 0x29B JUMPI DUP1 PUSH4 0x70A08231 EQ PUSH2 0x2CF JUMPI PUSH2 0x142 JUMP JUMPDEST DUP1 PUSH4 0x6FDDE03 EQ PUSH2 0x147 JUMPI DUP1 PUSH4 0x95EA7B3 EQ PUSH2 0x165 JUMPI DUP1 PUSH4 0xB4DAB98 EQ PUSH2 0x195 JUMPI DUP1 PUSH4 0xDE079B1 EQ PUSH2 0x1B1 JUMPI DUP1 PUSH4 0x18160DDD EQ PUSH2 0x1E1 JUMPI JUMPDEST PUSH1 0x0 DUP1 REVERT JUMPDEST PUSH2 0x14F PUSH2 0x441 JUMP JUMPDEST PUSH1 0x40 MLOAD PUSH2 0x15C SWAP2 SWAP1 PUSH2 0x2929 JUMP JUMPDEST PUSH1 0x40 MLOAD DUP1 SWAP2 SUB SWAP1 RETURN JUMPDEST PUSH2 0x17F PUSH1 0x4 DUP1 CALLDATASIZE SUB DUP2 ADD SWAP1 PUSH2 0x17A SWAP2 SWAP1 PUSH2 0x2433 JUMP JUMPDEST PUSH2 0x4D3 JUMP JUMPDEST PUSH1 0x40 MLOAD PUSH2 0x18C SWAP2 SWAP1 PUSH2 0x290E JUMP JUMPDEST PUSH1 0x40 MLOAD DUP1 SWAP2 SUB SWAP1 RETURN JUMPDEST PUSH2 0x1AF PUSH1 0x4 DUP1 CALLDATASIZE SUB DUP2 ADD SWAP1 PUSH2 0x1AA SWAP2 SWAP1 PUSH2 0x2473 JUMP JUMPDEST PUSH2 0x4F6 JUMP JUMPDEST STOP JUMPDEST PUSH2 0x1CB PUSH1 0x4 DUP1 CALLDATASIZE SUB DUP2 ADD SWAP1 PUSH2 0x1C6 SWAP2 SWAP1 PUSH2 0x2473 JUMP JUMPDEST PUSH2 0x5AC JUMP JUMPDEST PUSH1 0x40 MLOAD PUSH2 0x1D8 SWAP2 SWAP1 PUSH2 0x2AA6 JUMP JUMPDEST PUSH1 0x40 MLOAD DUP1 SWAP2 SUB SWAP1 RETURN JUMPDEST PUSH2 0x1E9 PUSH2 0x5D0 JUMP JUMPDEST PUSH1 0x40 MLOAD PUSH2 0x1F6 SWAP2 SWAP1 PUSH2 0x2AA6 JUMP JUMPDEST PUSH1 0x40 MLOAD DUP1 SWAP2 SUB SWAP1 RETURN JUMPDEST PUSH2 0x219 PUSH1 0x4 DUP1 CALLDATASIZE SUB DUP2 ADD SWAP1 PUSH2 0x214 SWAP2 SWAP1 PUSH2 0x23E0 JUMP JUMPDEST PUSH2 0x5DA JUMP JUMPDEST PUSH1 0x40 MLOAD PUSH2 0x226 SWAP2 SWAP1 PUSH2 0x290E JUMP JUMPDEST PUSH1 0x40 MLOAD DUP1 SWAP2 SUB SWAP1 RETURN JUMPDEST PUSH2 0x237 PUSH2 0x609 JUMP JUMPDEST PUSH1 0x40 MLOAD PUSH2 0x244 SWAP2 SWAP1 PUSH2 0x2B14 JUMP JUMPDEST PUSH1 0x40 MLOAD DUP1 SWAP2 SUB SWAP1 RETURN JUMPDEST PUSH2 0x267 PUSH1 0x4 DUP1 CALLDATASIZE SUB DUP2 ADD SWAP1 PUSH2 0x262 SWAP2 SWAP1 PUSH2 0x2433 JUMP JUMPDEST PUSH2 0x612 JUMP JUMPDEST PUSH1 0x40 MLOAD PUSH2 0x274 SWAP2 SWAP1 PUSH2 0x290E JUMP JUMPDEST PUSH1 0x40 MLOAD DUP1 SWAP2 SUB SWAP1 RETURN JUMPDEST PUSH2 0x285 PUSH2 0x6BC JUMP JUMPDEST PUSH1 0x40 MLOAD PUSH2 0x292 SWAP2 SWAP1 PUSH2 0x2A8B JUMP JUMPDEST PUSH1 0x40 MLOAD DUP1 SWAP2 SUB SWAP1 RETURN JUMPDEST PUSH2 0x2B5 PUSH1 0x4 DUP1 CALLDATASIZE SUB DUP2 ADD SWAP1 PUSH2 0x2B0 SWAP2 SWAP1 PUSH2 0x2373 JUMP JUMPDEST PUSH2 0x7EB JUMP JUMPDEST PUSH1 0x40 MLOAD PUSH2 0x2C6 SWAP6 SWAP5 SWAP4 SWAP3 SWAP2 SWAP1 PUSH2 0x2AC1 JUMP JUMPDEST PUSH1 0x40 MLOAD DUP1 SWAP2 SUB SWAP1 RETURN JUMPDEST PUSH2 0x2E9 PUSH1 0x4 DUP1 CALLDATASIZE SUB DUP2 ADD SWAP1 PUSH2 0x2E4 SWAP2 SWAP1 PUSH2 0x2373 JUMP JUMPDEST PUSH2 0x871 JUMP JUMPDEST PUSH1 0x40 MLOAD PUSH2 0x2F6 SWAP2 SWAP1 PUSH2 0x2AA6 JUMP JUMPDEST PUSH1 0x40 MLOAD DUP1 SWAP2 SUB SWAP1 RETURN JUMPDEST PUSH2 0x307 PUSH2 0x8B9 JUMP JUMPDEST PUSH1 0x40 MLOAD PUSH2 0x314 SWAP2 SWAP1 PUSH2 0x28CA JUMP JUMPDEST PUSH1 0x40 MLOAD DUP1 SWAP2 SUB SWAP1 RETURN JUMPDEST PUSH2 0x325 PUSH2 0xAB3 JUMP JUMPDEST PUSH1 0x40 MLOAD PUSH2 0x332 SWAP2 SWAP1 PUSH2 0x2929 JUMP JUMPDEST PUSH1 0x40 MLOAD DUP1 SWAP2 SUB SWAP1 RETURN JUMPDEST PUSH2 0x343 PUSH2 0xB45 JUMP JUMPDEST PUSH1 0x40 MLOAD PUSH2 0x350 SWAP2 SWAP1 PUSH2 0x2AA6 JUMP JUMPDEST PUSH1 0x40 MLOAD DUP1 SWAP2 SUB SWAP1 RETURN JUMPDEST PUSH2 0x373 PUSH1 0x4 DUP1 CALLDATASIZE SUB DUP2 ADD SWAP1 PUSH2 0x36E SWAP2 SWAP1 PUSH2 0x2433 JUMP JUMPDEST PUSH2 0xB4B JUMP JUMPDEST PUSH1 0x40 MLOAD PUSH2 0x380 SWAP2 SWAP1 PUSH2 0x290E JUMP JUMPDEST PUSH1 0x40 MLOAD DUP1 SWAP2 SUB SWAP1 RETURN JUMPDEST PUSH2 0x3A3 PUSH1 0x4 DUP1 CALLDATASIZE SUB DUP2 ADD SWAP1 PUSH2 0x39E SWAP2 SWAP1 PUSH2 0x2433 JUMP JUMPDEST PUSH2 0xC35 JUMP JUMPDEST PUSH1 0x40 MLOAD PUSH2 0x3B0 SWAP2 SWAP1 PUSH2 0x290E JUMP JUMPDEST PUSH1 0x40 MLOAD DUP1 SWAP2 SUB SWAP1 RETURN JUMPDEST PUSH2 0x3C1 PUSH2 0xC58 JUMP JUMPDEST STOP JUMPDEST PUSH2 0x3CB PUSH2 0xC75 JUMP JUMPDEST PUSH1 0x40 MLOAD PUSH2 0x3D8 SWAP2 SWAP1 PUSH2 0x28EC JUMP JUMPDEST PUSH1 0x40 MLOAD DUP1 SWAP2 SUB SWAP1 RETURN JUMPDEST PUSH2 0x3FB PUSH1 0x4 DUP1 CALLDATASIZE SUB DUP2 ADD SWAP1 PUSH2 0x3F6 SWAP2 SWAP1 PUSH2 0x23A0 JUMP JUMPDEST PUSH2 0x103B JUMP JUMPDEST PUSH1 0x40 MLOAD PUSH2 0x408 SWAP2 SWAP1 PUSH2 0x2AA6 JUMP JUMPDEST PUSH1 0x40 MLOAD DUP1 SWAP2 SUB SWAP1 RETURN JUMPDEST PUSH2 0x42B PUSH1 0x4 DUP1 CALLDATASIZE SUB DUP2 ADD SWAP1 PUSH2 0x426 SWAP2 SWAP1 PUSH2 0x24A0 JUMP JUMPDEST PUSH2 0x10C2 JUMP JUMPDEST STOP JUMPDEST PUSH2 0x435 PUSH2 0x183D JUMP JUMPDEST STOP JUMPDEST PUSH2 0x43F PUSH2 0x192E JUMP JUMPDEST STOP JUMPDEST PUSH1 0x60 PUSH1 0x3 DUP1 SLOAD PUSH2 0x450 SWAP1 PUSH2 0x2CFB JUMP JUMPDEST DUP1 PUSH1 0x1F ADD PUSH1 0x20 DUP1 SWAP2 DIV MUL PUSH1 0x20 ADD PUSH1 0x40 MLOAD SWAP1 DUP2 ADD PUSH1 0x40 MSTORE DUP1 SWAP3 SWAP2 SWAP1 DUP2 DUP2 MSTORE PUSH1 0x20 ADD DUP3 DUP1 SLOAD PUSH2 0x47C SWAP1 PUSH2 0x2CFB JUMP JUMPDEST DUP1 ISZERO PUSH2 0x4C9 JUMPI DUP1 PUSH1 0x1F LT PUSH2 0x49E JUMPI PUSH2 0x100 DUP1 DUP4 SLOAD DIV MUL DUP4 MSTORE SWAP2 PUSH1 0x20 ADD SWAP2 PUSH2 0x4C9 JUMP JUMPDEST DUP3 ADD SWAP2 SWAP1 PUSH1 0x0 MSTORE PUSH1 0x20 PUSH1 0x0 KECCAK256 SWAP1 JUMPDEST DUP2 SLOAD DUP2 MSTORE SWAP1 PUSH1 0x1 ADD SWAP1 PUSH1 0x20 ADD DUP1 DUP4 GT PUSH2 0x4AC JUMPI DUP3 SWAP1 SUB PUSH1 0x1F AND DUP3 ADD SWAP2 JUMPDEST POP POP POP POP POP SWAP1 POP SWAP1 JUMP JUMPDEST PUSH1 0x0 DUP1 PUSH2 0x4DE PUSH2 0x194B JUMP JUMPDEST SWAP1 POP PUSH2 0x4EB DUP2 DUP6 DUP6 PUSH2 0x1953 JUMP JUMPDEST PUSH1 0x1 SWAP2 POP POP SWAP3 SWAP2 POP POP JUMP JUMPDEST PUSH1 0x7 PUSH1 0x0 SWAP1 SLOAD SWAP1 PUSH2 0x100 EXP SWAP1 DIV PUSH20 0xFFFFFFFFFFFFFFFFFFFFFFFFFFFFFFFFFFFFFFFF AND PUSH20 0xFFFFFFFFFFFFFFFFFFFFFFFFFFFFFFFFFFFFFFFF AND CALLER PUSH20 0xFFFFFFFFFFFFFFFFFFFFFFFFFFFFFFFFFFFFFFFF AND EQ PUSH2 0x57D JUMPI PUSH1 0x40 MLOAD PUSH32 0x30CD747100000000000000000000000000000000000000000000000000000000 DUP2 MSTORE PUSH1 0x4 ADD PUSH1 0x40 MLOAD DUP1 SWAP2 SUB SWAP1 REVERT JUMPDEST PUSH2 0x5A9 PUSH1 0x7 PUSH1 0x0 SWAP1 SLOAD SWAP1 PUSH2 0x100 EXP SWAP1 DIV PUSH20 0xFFFFFFFFFFFFFFFFFFFFFFFFFFFFFFFFFFFFFFFF AND DUP3 PUSH2 0x1B1E JUMP JUMPDEST POP JUMP JUMPDEST PUSH1 0x8 DUP2 DUP2 SLOAD DUP2 LT PUSH2 0x5BC JUMPI PUSH1 0x0 DUP1 REVERT JUMPDEST SWAP1 PUSH1 0x0 MSTORE PUSH1 0x20 PUSH1 0x0 KECCAK256 ADD PUSH1 0x0 SWAP2 POP SWAP1 POP SLOAD DUP2 JUMP JUMPDEST PUSH1 0x0 PUSH1 0x2 SLOAD SWAP1 POP SWAP1 JUMP JUMPDEST PUSH1 0x0 DUP1 PUSH2 0x5E5 PUSH2 0x194B JUMP JUMPDEST SWAP1 POP PUSH2 0x5F2 DUP6 DUP3 DUP6 PUSH2 0x1C7E JUMP JUMPDEST PUSH2 0x5FD DUP6 DUP6 DUP6 PUSH2 0x1D0A JUMP JUMPDEST PUSH1 0x1 SWAP2 POP POP SWAP4 SWAP3 POP POP POP JUMP JUMPDEST PUSH1 0x0 PUSH1 0x12 SWAP1 POP SWAP1 JUMP JUMPDEST PUSH1 0x0 DUP1 PUSH2 0x61D PUSH2 0x194B JUMP JUMPDEST SWAP1 POP PUSH2 0x6B1 DUP2 DUP6 DUP6 PUSH1 0x1 PUSH1 0x0 DUP7 PUSH20 0xFFFFFFFFFFFFFFFFFFFFFFFFFFFFFFFFFFFFFFFF AND PUSH20 0xFFFFFFFFFFFFFFFFFFFFFFFFFFFFFFFFFFFFFFFF AND DUP2 MSTORE PUSH1 0x20 ADD SWAP1 DUP2 MSTORE PUSH1 0x20 ADD PUSH1 0x0 KECCAK256 PUSH1 0x0 DUP10 PUSH20 0xFFFFFFFFFFFFFFFFFFFFFFFFFFFFFFFFFFFFFFFF AND PUSH20 0xFFFFFFFFFFFFFFFFFFFFFFFFFFFFFFFFFFFFFFFF AND DUP2 MSTORE PUSH1 0x20 ADD SWAP1 DUP2 MSTORE PUSH1 0x20 ADD PUSH1 0x0 KECCAK256 SLOAD PUSH2 0x6AC SWAP2 SWAP1 PUSH2 0x2BBD JUMP JUMPDEST PUSH2 0x1953 JUMP JUMPDEST PUSH1 0x1 SWAP2 POP POP SWAP3 SWAP2 POP POP JUMP JUMPDEST PUSH2 0x6C4 PUSH2 0x229F JUMP JUMPDEST PUSH1 0x0 PUSH1 0xA PUSH1 0x0 CALLER PUSH20 0xFFFFFFFFFFFFFFFFFFFFFFFFFFFFFFFFFFFFFFFF AND PUSH20 0xFFFFFFFFFFFFFFFFFFFFFFFFFFFFFFFFFFFFFFFF AND DUP2 MSTORE PUSH1 0x20 ADD SWAP1 DUP2 MSTORE PUSH1 0x20 ADD PUSH1 0x0 KECCAK256 SWAP1 POP DUP1 PUSH1 0x40 MLOAD DUP1 PUSH1 0xA0 ADD PUSH1 0x40 MSTORE SWAP1 DUP2 PUSH1 0x0 DUP3 ADD SLOAD DUP2 MSTORE PUSH1 0x20 ADD PUSH1 0x1 DUP3 ADD PUSH1 0x0 SWAP1 SLOAD SWAP1 PUSH2 0x100 EXP SWAP1 DIV PUSH8 0xFFFFFFFFFFFFFFFF AND PUSH8 0xFFFFFFFFFFFFFFFF AND PUSH8 0xFFFFFFFFFFFFFFFF AND DUP2 MSTORE PUSH1 0x20 ADD PUSH1 0x1 DUP3 ADD PUSH1 0x8 SWAP1 SLOAD SWAP1 PUSH2 0x100 EXP SWAP1 DIV PUSH8 0xFFFFFFFFFFFFFFFF AND PUSH8 0xFFFFFFFFFFFFFFFF AND PUSH8 0xFFFFFFFFFFFFFFFF AND DUP2 MSTORE PUSH1 0x20 ADD PUSH1 0x1 DUP3 ADD PUSH1 0x10 SWAP1 SLOAD SWAP1 PUSH2 0x100 EXP SWAP1 DIV PUSH8 0xFFFFFFFFFFFFFFFF AND PUSH8 0xFFFFFFFFFFFFFFFF AND PUSH8 0xFFFFFFFFFFFFFFFF AND DUP2 MSTORE PUSH1 0x20 ADD PUSH1 0x1 DUP3 ADD PUSH1 0x18 SWAP1 SLOAD SWAP1 PUSH2 0x100 EXP SWAP1 DIV PUSH8 0xFFFFFFFFFFFFFFFF AND PUSH8 0xFFFFFFFFFFFFFFFF AND PUSH8 0xFFFFFFFFFFFFFFFF AND DUP2 MSTORE POP POP SWAP2 POP POP SWAP1 JUMP JUMPDEST PUSH1 0xA PUSH1 0x20 MSTORE DUP1 PUSH1 0x0 MSTORE PUSH1 0x40 PUSH1 0x0 KECCAK256 PUSH1 0x0 SWAP2 POP SWAP1 POP DUP1 PUSH1 0x0 ADD SLOAD SWAP1 DUP1 PUSH1 0x1 ADD PUSH1 0x0 SWAP1 SLOAD SWAP1 PUSH2 0x100 EXP SWAP1 DIV PUSH8 0xFFFFFFFFFFFFFFFF AND SWAP1 DUP1 PUSH1 0x1 ADD PUSH1 0x8 SWAP1 SLOAD SWAP1 PUSH2 0x100 EXP SWAP1 DIV PUSH8 0xFFFFFFFFFFFFFFFF AND SWAP1 DUP1 PUSH1 0x1 ADD PUSH1 0x10 SWAP1 SLOAD SWAP1 PUSH2 0x100 EXP SWAP1 DIV PUSH8 0xFFFFFFFFFFFFFFFF AND SWAP1 DUP1 PUSH1 0x1 ADD PUSH1 0x18 SWAP1 SLOAD SWAP1 PUSH2 0x100 EXP SWAP1 DIV PUSH8 0xFFFFFFFFFFFFFFFF AND SWAP1 POP DUP6 JUMP JUMPDEST PUSH1 0x0 DUP1 PUSH1 0x0 DUP4 PUSH20 0xFFFFFFFFFFFFFFFFFFFFFFFFFFFFFFFFFFFFFFFF AND PUSH20 0xFFFFFFFFFFFFFFFFFFFFFFFFFFFFFFFFFFFFFFFF AND DUP2 MSTORE PUSH1 0x20 ADD SWAP1 DUP2 MSTORE PUSH1 0x20 ADD PUSH1 0x0 KECCAK256 SLOAD SWAP1 POP SWAP2 SWAP1 POP JUMP JUMPDEST PUSH1 0x60 PUSH1 0x9 DUP1 SLOAD SWAP1 POP PUSH8 0xFFFFFFFFFFFFFFFF DUP2 GT ISZERO PUSH2 0x8DA JUMPI PUSH2 0x8D9 PUSH2 0x2EF1 JUMP JUMPDEST JUMPDEST PUSH1 0x40 MLOAD SWAP1 DUP1 DUP3 MSTORE DUP1 PUSH1 0x20 MUL PUSH1 0x20 ADD DUP3 ADD PUSH1 0x40 MSTORE DUP1 ISZERO PUSH2 0x913 JUMPI DUP2 PUSH1 0x20 ADD JUMPDEST PUSH2 0x900 PUSH2 0x22F6 JUMP JUMPDEST DUP2 MSTORE PUSH1 0x20 ADD SWAP1 PUSH1 0x1 SWAP1 SUB SWAP1 DUP2 PUSH2 0x8F8 JUMPI SWAP1 POP JUMPDEST POP SWAP1 POP PUSH1 0x0 JUMPDEST PUSH1 0x9 DUP1 SLOAD SWAP1 POP DUP2 LT ISZERO PUSH2 0xAAF JUMPI PUSH1 0x0 PUSH1 0xA PUSH1 0x0 PUSH1 0x9 DUP5 DUP2 SLOAD DUP2 LT PUSH2 0x940 JUMPI PUSH2 0x93F PUSH2 0x2EC2 JUMP JUMPDEST JUMPDEST SWAP1 PUSH1 0x0 MSTORE PUSH1 0x20 PUSH1 0x0 KECCAK256 ADD PUSH1 0x0 SWAP1 SLOAD SWAP1 PUSH2 0x100 EXP SWAP1 DIV PUSH20 0xFFFFFFFFFFFFFFFFFFFFFFFFFFFFFFFFFFFFFFFF AND PUSH20 0xFFFFFFFFFFFFFFFFFFFFFFFFFFFFFFFFFFFFFFFF AND PUSH20 0xFFFFFFFFFFFFFFFFFFFFFFFFFFFFFFFFFFFFFFFF AND DUP2 MSTORE PUSH1 0x20 ADD SWAP1 DUP2 MSTORE PUSH1 0x20 ADD PUSH1 0x0 KECCAK256 SWAP1 POP PUSH1 0x9 DUP3 DUP2 SLOAD DUP2 LT PUSH2 0x9BB JUMPI PUSH2 0x9BA PUSH2 0x2EC2 JUMP JUMPDEST JUMPDEST SWAP1 PUSH1 0x0 MSTORE PUSH1 0x20 PUSH1 0x0 KECCAK256 ADD PUSH1 0x0 SWAP1 SLOAD SWAP1 PUSH2 0x100 EXP SWAP1 DIV PUSH20 0xFFFFFFFFFFFFFFFFFFFFFFFFFFFFFFFFFFFFFFFF AND DUP4 DUP4 DUP2 MLOAD DUP2 LT PUSH2 0x9F9 JUMPI PUSH2 0x9F8 PUSH2 0x2EC2 JUMP JUMPDEST JUMPDEST PUSH1 0x20 MUL PUSH1 0x20 ADD ADD MLOAD PUSH1 0x0 ADD SWAP1 PUSH20 0xFFFFFFFFFFFFFFFFFFFFFFFFFFFFFFFFFFFFFFFF AND SWAP1 DUP2 PUSH20 0xFFFFFFFFFFFFFFFFFFFFFFFFFFFFFFFFFFFFFFFF AND DUP2 MSTORE POP POP DUP1 PUSH1 0x1 ADD PUSH1 0x18 SWAP1 SLOAD SWAP1 PUSH2 0x100 EXP SWAP1 DIV PUSH8 0xFFFFFFFFFFFFFFFF AND PUSH8 0xFFFFFFFFFFFFFFFF AND DUP4 DUP4 DUP2 MLOAD DUP2 LT PUSH2 0xA6D JUMPI PUSH2 0xA6C PUSH2 0x2EC2 JUMP JUMPDEST JUMPDEST PUSH1 0x20 MUL PUSH1 0x20 ADD ADD MLOAD PUSH1 0x20 ADD SWAP1 PUSH12 0xFFFFFFFFFFFFFFFFFFFFFFFF AND SWAP1 DUP2 PUSH12 0xFFFFFFFFFFFFFFFFFFFFFFFF AND DUP2 MSTORE POP POP POP DUP1 DUP1 PUSH2 0xAA7 SWAP1 PUSH2 0x2D2D JUMP JUMPDEST SWAP2 POP POP PUSH2 0x919 JUMP JUMPDEST POP SWAP1 JUMP JUMPDEST PUSH1 0x60 PUSH1 0x4 DUP1 SLOAD PUSH2 0xAC2 SWAP1 PUSH2 0x2CFB JUMP JUMPDEST DUP1 PUSH1 0x1F ADD PUSH1 0x20 DUP1 SWAP2 DIV MUL PUSH1 0x20 ADD PUSH1 0x40 MLOAD SWAP1 DUP2 ADD PUSH1 0x40 MSTORE DUP1 SWAP3 SWAP2 SWAP1 DUP2 DUP2 MSTORE PUSH1 0x20 ADD DUP3 DUP1 SLOAD PUSH2 0xAEE SWAP1 PUSH2 0x2CFB JUMP JUMPDEST DUP1 ISZERO PUSH2 0xB3B JUMPI DUP1 PUSH1 0x1F LT PUSH2 0xB10 JUMPI PUSH2 0x100 DUP1 DUP4 SLOAD DIV MUL DUP4 MSTORE SWAP2 PUSH1 0x20 ADD SWAP2 PUSH2 0xB3B JUMP JUMPDEST DUP3 ADD SWAP2 SWAP1 PUSH1 0x0 MSTORE PUSH1 0x20 PUSH1 0x0 KECCAK256 SWAP1 JUMPDEST DUP2 SLOAD DUP2 MSTORE SWAP1 PUSH1 0x1 ADD SWAP1 PUSH1 0x20 ADD DUP1 DUP4 GT PUSH2 0xB1E JUMPI DUP3 SWAP1 SUB PUSH1 0x1F AND DUP3 ADD SWAP2 JUMPDEST POP POP POP POP POP SWAP1 POP SWAP1 JUMP JUMPDEST PUSH1 0x6 SLOAD DUP2 JUMP JUMPDEST PUSH1 0x0 DUP1 PUSH2 0xB56 PUSH2 0x194B JUMP JUMPDEST SWAP1 POP PUSH1 0x0 PUSH1 0x1 PUSH1 0x0 DUP4 PUSH20 0xFFFFFFFFFFFFFFFFFFFFFFFFFFFFFFFFFFFFFFFF AND PUSH20 0xFFFFFFFFFFFFFFFFFFFFFFFFFFFFFFFFFFFFFFFF AND DUP2 MSTORE PUSH1 0x20 ADD SWAP1 DUP2 MSTORE PUSH1 0x20 ADD PUSH1 0x0 KECCAK256 PUSH1 0x0 DUP7 PUSH20 0xFFFFFFFFFFFFFFFFFFFFFFFFFFFFFFFFFFFFFFFF AND PUSH20 0xFFFFFFFFFFFFFFFFFFFFFFFFFFFFFFFFFFFFFFFF AND DUP2 MSTORE PUSH1 0x20 ADD SWAP1 DUP2 MSTORE PUSH1 0x20 ADD PUSH1 0x0 KECCAK256 SLOAD SWAP1 POP DUP4 DUP2 LT ISZERO PUSH2 0xC1C JUMPI PUSH1 0x40 MLOAD PUSH32 0x8C379A000000000000000000000000000000000000000000000000000000000 DUP2 MSTORE PUSH1 0x4 ADD PUSH2 0xC13 SWAP1 PUSH2 0x2A4B JUMP JUMPDEST PUSH1 0x40 MLOAD DUP1 SWAP2 SUB SWAP1 REVERT JUMPDEST PUSH2 0xC29 DUP3 DUP7 DUP7 DUP5 SUB PUSH2 0x1953 JUMP JUMPDEST PUSH1 0x1 SWAP3 POP POP POP SWAP3 SWAP2 POP POP JUMP JUMPDEST PUSH1 0x0 DUP1 PUSH2 0xC40 PUSH2 0x194B JUMP JUMPDEST SWAP1 POP PUSH2 0xC4D DUP2 DUP6 DUP6 PUSH2 0x1D0A JUMP JUMPDEST PUSH1 0x1 SWAP2 POP POP SWAP3 SWAP2 POP POP JUMP JUMPDEST PUSH1 0x0 PUSH1 0x7 PUSH1 0x14 PUSH2 0x100 EXP DUP2 SLOAD DUP2 PUSH1 0xFF MUL NOT AND SWAP1 DUP4 ISZERO ISZERO MUL OR SWAP1 SSTORE POP JUMP JUMPDEST PUSH1 0x60 PUSH1 0xB PUSH1 0x0 CALLER PUSH20 0xFFFFFFFFFFFFFFFFFFFFFFFFFFFFFFFFFFFFFFFF AND PUSH20 0xFFFFFFFFFFFFFFFFFFFFFFFFFFFFFFFFFFFFFFFF AND DUP2 MSTORE PUSH1 0x20 ADD SWAP1 DUP2 MSTORE PUSH1 0x20 ADD PUSH1 0x0 KECCAK256 PUSH1 0x0 SWAP1 SLOAD SWAP1 PUSH2 0x100 EXP SWAP1 DIV PUSH1 0xFF AND PUSH2 0xD84 JUMPI PUSH1 0x1 PUSH1 0xB PUSH1 0x0 CALLER PUSH20 0xFFFFFFFFFFFFFFFFFFFFFFFFFFFFFFFFFFFFFFFF AND PUSH20 0xFFFFFFFFFFFFFFFFFFFFFFFFFFFFFFFFFFFFFFFF AND DUP2 MSTORE PUSH1 0x20 ADD SWAP1 DUP2 MSTORE PUSH1 0x20 ADD PUSH1 0x0 KECCAK256 PUSH1 0x0 PUSH2 0x100 EXP DUP2 SLOAD DUP2 PUSH1 0xFF MUL NOT AND SWAP1 DUP4 ISZERO ISZERO MUL OR SWAP1 SSTORE POP PUSH1 0x9 CALLER SWAP1 DUP1 PUSH1 0x1 DUP2 SLOAD ADD DUP1 DUP3 SSTORE DUP1 SWAP2 POP POP PUSH1 0x1 SWAP1 SUB SWAP1 PUSH1 0x0 MSTORE PUSH1 0x20 PUSH1 0x0 KECCAK256 ADD PUSH1 0x0 SWAP1 SWAP2 SWAP1 SWAP2 SWAP1 SWAP2 PUSH2 0x100 EXP DUP2 SLOAD DUP2 PUSH20 0xFFFFFFFFFFFFFFFFFFFFFFFFFFFFFFFFFFFFFFFF MUL NOT AND SWAP1 DUP4 PUSH20 0xFFFFFFFFFFFFFFFFFFFFFFFFFFFFFFFFFFFFFFFF AND MUL OR SWAP1 SSTORE POP JUMPDEST PUSH1 0x0 PUSH1 0xA PUSH1 0x0 CALLER PUSH20 0xFFFFFFFFFFFFFFFFFFFFFFFFFFFFFFFFFFFFFFFF AND PUSH20 0xFFFFFFFFFFFFFFFFFFFFFFFFFFFFFFFFFFFFFFFF AND DUP2 MSTORE PUSH1 0x20 ADD SWAP1 DUP2 MSTORE PUSH1 0x20 ADD PUSH1 0x0 KECCAK256 SWAP1 POP PUSH8 0x4563918244F40000 PUSH2 0xDD9 CALLER PUSH2 0x871 JUMP JUMPDEST LT ISZERO PUSH2 0xE11 JUMPI PUSH1 0x40 MLOAD PUSH32 0xF1B7E15E00000000000000000000000000000000000000000000000000000000 DUP2 MSTORE PUSH1 0x4 ADD PUSH1 0x40 MLOAD DUP1 SWAP2 SUB SWAP1 REVERT JUMPDEST PUSH2 0xE23 CALLER PUSH8 0x4563918244F40000 PUSH2 0x1F8B JUMP JUMPDEST PUSH1 0x4 PUSH8 0xFFFFFFFFFFFFFFFF DUP2 GT ISZERO PUSH2 0xE3E JUMPI PUSH2 0xE3D PUSH2 0x2EF1 JUMP JUMPDEST JUMPDEST PUSH1 0x40 MLOAD SWAP1 DUP1 DUP3 MSTORE DUP1 PUSH1 0x20 MUL PUSH1 0x20 ADD DUP3 ADD PUSH1 0x40 MSTORE DUP1 ISZERO PUSH2 0xE6C JUMPI DUP2 PUSH1 0x20 ADD PUSH1 0x20 DUP3 MUL DUP1 CALLDATASIZE DUP4 CALLDATACOPY DUP1 DUP3 ADD SWAP2 POP POP SWAP1 POP JUMPDEST POP SWAP2 POP JUMPDEST PUSH1 0x4 PUSH1 0x8 DUP1 SLOAD SWAP1 POP LT ISZERO PUSH2 0xE8B JUMPI PUSH2 0xE86 PUSH2 0x2162 JUMP JUMPDEST PUSH2 0xE70 JUMP JUMPDEST PUSH1 0x8 PUSH1 0x0 DUP2 SLOAD DUP2 LT PUSH2 0xEA0 JUMPI PUSH2 0xE9F PUSH2 0x2EC2 JUMP JUMPDEST JUMPDEST SWAP1 PUSH1 0x0 MSTORE PUSH1 0x20 PUSH1 0x0 KECCAK256 ADD SLOAD DUP3 PUSH1 0x0 DUP2 MLOAD DUP2 LT PUSH2 0xEBF JUMPI PUSH2 0xEBE PUSH2 0x2EC2 JUMP JUMPDEST JUMPDEST PUSH1 0x20 MUL PUSH1 0x20 ADD ADD DUP2 DUP2 MSTORE POP POP PUSH1 0x8 PUSH1 0x1 DUP2 SLOAD DUP2 LT PUSH2 0xEE0 JUMPI PUSH2 0xEDF PUSH2 0x2EC2 JUMP JUMPDEST JUMPDEST SWAP1 PUSH1 0x0 MSTORE PUSH1 0x20 PUSH1 0x0 KECCAK256 ADD SLOAD DUP3 PUSH1 0x1 DUP2 MLOAD DUP2 LT PUSH2 0xEFF JUMPI PUSH2 0xEFE PUSH2 0x2EC2 JUMP JUMPDEST JUMPDEST PUSH1 0x20 MUL PUSH1 0x20 ADD ADD DUP2 DUP2 MSTORE POP POP PUSH1 0x8 PUSH1 0x2 DUP2 SLOAD DUP2 LT PUSH2 0xF20 JUMPI PUSH2 0xF1F PUSH2 0x2EC2 JUMP JUMPDEST JUMPDEST SWAP1 PUSH1 0x0 MSTORE PUSH1 0x20 PUSH1 0x0 KECCAK256 ADD SLOAD DUP3 PUSH1 0x2 DUP2 MLOAD DUP2 LT PUSH2 0xF3F JUMPI PUSH2 0xF3E PUSH2 0x2EC2 JUMP JUMPDEST JUMPDEST PUSH1 0x20 MUL PUSH1 0x20 ADD ADD DUP2 DUP2 MSTORE POP POP PUSH1 0x8 PUSH1 0x3 DUP2 SLOAD DUP2 LT PUSH2 0xF60 JUMPI PUSH2 0xF5F PUSH2 0x2EC2 JUMP JUMPDEST JUMPDEST SWAP1 PUSH1 0x0 MSTORE PUSH1 0x20 PUSH1 0x0 KECCAK256 ADD SLOAD DUP3 PUSH1 0x3 DUP2 MLOAD DUP2 LT PUSH2 0xF7F JUMPI PUSH2 0xF7E PUSH2 0x2EC2 JUMP JUMPDEST JUMPDEST PUSH1 0x20 MUL PUSH1 0x20 ADD ADD DUP2 DUP2 MSTORE POP POP PUSH2 0xF93 PUSH2 0x21F5 JUMP JUMPDEST PUSH1 0x1 PUSH1 0xD PUSH1 0x0 CALLER PUSH20 0xFFFFFFFFFFFFFFFFFFFFFFFFFFFFFFFFFFFFFFFF AND PUSH20 0xFFFFFFFFFFFFFFFFFFFFFFFFFFFFFFFFFFFFFFFF AND DUP2 MSTORE PUSH1 0x20 ADD SWAP1 DUP2 MSTORE PUSH1 0x20 ADD PUSH1 0x0 KECCAK256 PUSH1 0x0 DUP4 PUSH1 0x0 ADD SLOAD DUP2 MSTORE PUSH1 0x20 ADD SWAP1 DUP2 MSTORE PUSH1 0x20 ADD PUSH1 0x0 KECCAK256 PUSH1 0x0 PUSH2 0x100 EXP DUP2 SLOAD DUP2 PUSH1 0xFF MUL NOT AND SWAP1 DUP4 ISZERO ISZERO MUL OR SWAP1 SSTORE POP PUSH32 0x1D114E181ECBEBD80B1BC0892E9C2A0BEF6CFD6D231E0398641B56BFB5B666D0 DUP3 PUSH1 0x40 MLOAD PUSH2 0x102F SWAP2 SWAP1 PUSH2 0x28EC JUMP JUMPDEST PUSH1 0x40 MLOAD DUP1 SWAP2 SUB SWAP1 LOG1 POP SWAP1 JUMP JUMPDEST PUSH1 0x0 PUSH1 0x1 PUSH1 0x0 DUP5 PUSH20 0xFFFFFFFFFFFFFFFFFFFFFFFFFFFFFFFFFFFFFFFF AND PUSH20 0xFFFFFFFFFFFFFFFFFFFFFFFFFFFFFFFFFFFFFFFF AND DUP2 MSTORE PUSH1 0x20 ADD SWAP1 DUP2 MSTORE PUSH1 0x20 ADD PUSH1 0x0 KECCAK256 PUSH1 0x0 DUP4 PUSH20 0xFFFFFFFFFFFFFFFFFFFFFFFFFFFFFFFFFFFFFFFF AND PUSH20 0xFFFFFFFFFFFFFFFFFFFFFFFFFFFFFFFFFFFFFFFF AND DUP2 MSTORE PUSH1 0x20 ADD SWAP1 DUP2 MSTORE PUSH1 0x20 ADD PUSH1 0x0 KECCAK256 SLOAD SWAP1 POP SWAP3 SWAP2 POP POP JUMP JUMPDEST PUSH1 0x0 PUSH1 0xA PUSH1 0x0 CALLER PUSH20 0xFFFFFFFFFFFFFFFFFFFFFFFFFFFFFFFFFFFFFFFF AND PUSH20 0xFFFFFFFFFFFFFFFFFFFFFFFFFFFFFFFFFFFFFFFF AND DUP2 MSTORE PUSH1 0x20 ADD SWAP1 DUP2 MSTORE PUSH1 0x20 ADD PUSH1 0x0 KECCAK256 SWAP1 POP PUSH1 0x0 ISZERO ISZERO PUSH1 0xD PUSH1 0x0 CALLER PUSH20 0xFFFFFFFFFFFFFFFFFFFFFFFFFFFFFFFFFFFFFFFF AND PUSH20 0xFFFFFFFFFFFFFFFFFFFFFFFFFFFFFFFFFFFFFFFF AND DUP2 MSTORE PUSH1 0x20 ADD SWAP1 DUP2 MSTORE PUSH1 0x20 ADD PUSH1 0x0 KECCAK256 PUSH1 0x0 DUP4 PUSH1 0x0 ADD SLOAD DUP2 MSTORE PUSH1 0x20 ADD SWAP1 DUP2 MSTORE PUSH1 0x20 ADD PUSH1 0x0 KECCAK256 PUSH1 0x0 SWAP1 SLOAD SWAP1 PUSH2 0x100 EXP SWAP1 DIV PUSH1 0xFF AND ISZERO ISZERO EQ ISZERO PUSH2 0x11A5 JUMPI PUSH1 0x40 MLOAD PUSH32 0x1FCD583900000000000000000000000000000000000000000000000000000000 DUP2 MSTORE PUSH1 0x4 ADD PUSH1 0x40 MLOAD DUP1 SWAP2 SUB SWAP1 REVERT JUMPDEST DUP1 PUSH1 0x0 ADD PUSH1 0x0 DUP2 SLOAD DUP1 SWAP3 SWAP2 SWAP1 PUSH2 0x11BA SWAP1 PUSH2 0x2D2D JUMP JUMPDEST SWAP2 SWAP1 POP SSTORE POP PUSH1 0x1 DUP3 PUSH1 0xFF AND EQ ISZERO PUSH2 0x1281 JUMPI DUP1 PUSH1 0x1 ADD PUSH1 0x8 DUP2 DUP2 SWAP1 SLOAD SWAP1 PUSH2 0x100 EXP SWAP1 DIV PUSH8 0xFFFFFFFFFFFFFFFF AND DUP1 SWAP3 SWAP2 SWAP1 PUSH2 0x11F3 SWAP1 PUSH2 0x2D76 JUMP JUMPDEST SWAP2 SWAP1 PUSH2 0x100 EXP DUP2 SLOAD DUP2 PUSH8 0xFFFFFFFFFFFFFFFF MUL NOT AND SWAP1 DUP4 PUSH8 0xFFFFFFFFFFFFFFFF AND MUL OR SWAP1 SSTORE POP POP DUP1 PUSH1 0x1 ADD PUSH1 0x18 DUP2 DUP2 SWAP1 SLOAD SWAP1 PUSH2 0x100 EXP SWAP1 DIV PUSH8 0xFFFFFFFFFFFFFFFF AND DUP1 SWAP3 SWAP2 SWAP1 PUSH2 0x1242 SWAP1 PUSH2 0x2D76 JUMP JUMPDEST SWAP2 SWAP1 PUSH2 0x100 EXP DUP2 SLOAD DUP2 PUSH8 0xFFFFFFFFFFFFFFFF MUL NOT AND SWAP1 DUP4 PUSH8 0xFFFFFFFFFFFFFFFF AND MUL OR SWAP1 SSTORE POP POP PUSH2 0x127C CALLER PUSH9 0x1158E460913D00000 PUSH2 0x1B1E JUMP JUMPDEST PUSH2 0x17AA JUMP JUMPDEST PUSH1 0x2 DUP3 PUSH1 0xFF AND EQ ISZERO PUSH2 0x1343 JUMPI DUP1 PUSH1 0x1 ADD PUSH1 0x8 DUP2 DUP2 SWAP1 SLOAD SWAP1 PUSH2 0x100 EXP SWAP1 DIV PUSH8 0xFFFFFFFFFFFFFFFF AND DUP1 SWAP3 SWAP2 SWAP1 PUSH2 0x12B5 SWAP1 PUSH2 0x2D76 JUMP JUMPDEST SWAP2 SWAP1 PUSH2 0x100 EXP DUP2 SLOAD DUP2 PUSH8 0xFFFFFFFFFFFFFFFF MUL NOT AND SWAP1 DUP4 PUSH8 0xFFFFFFFFFFFFFFFF AND MUL OR SWAP1 SSTORE POP POP DUP1 PUSH1 0x1 ADD PUSH1 0x18 DUP2 DUP2 SWAP1 SLOAD SWAP1 PUSH2 0x100 EXP SWAP1 DIV PUSH8 0xFFFFFFFFFFFFFFFF AND DUP1 SWAP3 SWAP2 SWAP1 PUSH2 0x1304 SWAP1 PUSH2 0x2D76 JUMP JUMPDEST SWAP2 SWAP1 PUSH2 0x100 EXP DUP2 SLOAD DUP2 PUSH8 0xFFFFFFFFFFFFFFFF MUL NOT AND SWAP1 DUP4 PUSH8 0xFFFFFFFFFFFFFFFF AND MUL OR SWAP1 SSTORE POP POP PUSH2 0x133E CALLER PUSH9 0x1158E460913D00000 PUSH2 0x1B1E JUMP JUMPDEST PUSH2 0x17A9 JUMP JUMPDEST PUSH1 0x3 DUP3 PUSH1 0xFF AND EQ ISZERO PUSH2 0x1405 JUMPI DUP1 PUSH1 0x1 ADD PUSH1 0x8 DUP2 DUP2 SWAP1 SLOAD SWAP1 PUSH2 0x100 EXP SWAP1 DIV PUSH8 0xFFFFFFFFFFFFFFFF AND DUP1 SWAP3 SWAP2 SWAP1 PUSH2 0x1377 SWAP1 PUSH2 0x2D76 JUMP JUMPDEST SWAP2 SWAP1 PUSH2 0x100 EXP DUP2 SLOAD DUP2 PUSH8 0xFFFFFFFFFFFFFFFF MUL NOT AND SWAP1 DUP4 PUSH8 0xFFFFFFFFFFFFFFFF AND MUL OR SWAP1 SSTORE POP POP DUP1 PUSH1 0x1 ADD PUSH1 0x18 DUP2 DUP2 SWAP1 SLOAD SWAP1 PUSH2 0x100 EXP SWAP1 DIV PUSH8 0xFFFFFFFFFFFFFFFF AND DUP1 SWAP3 SWAP2 SWAP1 PUSH2 0x13C6 SWAP1 PUSH2 0x2D76 JUMP JUMPDEST SWAP2 SWAP1 PUSH2 0x100 EXP DUP2 SLOAD DUP2 PUSH8 0xFFFFFFFFFFFFFFFF MUL NOT AND SWAP1 DUP4 PUSH8 0xFFFFFFFFFFFFFFFF AND MUL OR SWAP1 SSTORE POP POP PUSH2 0x1400 CALLER PUSH9 0x1158E460913D00000 PUSH2 0x1B1E JUMP JUMPDEST PUSH2 0x17A8 JUMP JUMPDEST PUSH1 0x4 DUP3 PUSH1 0xFF AND EQ ISZERO PUSH2 0x14C6 JUMPI DUP1 PUSH1 0x1 ADD PUSH1 0x8 DUP2 DUP2 SWAP1 SLOAD SWAP1 PUSH2 0x100 EXP SWAP1 DIV PUSH8 0xFFFFFFFFFFFFFFFF AND DUP1 SWAP3 SWAP2 SWAP1 PUSH2 0x1439 SWAP1 PUSH2 0x2D76 JUMP JUMPDEST SWAP2 SWAP1 PUSH2 0x100 EXP DUP2 SLOAD DUP2 PUSH8 0xFFFFFFFFFFFFFFFF MUL NOT AND SWAP1 DUP4 PUSH8 0xFFFFFFFFFFFFFFFF AND MUL OR SWAP1 SSTORE POP POP DUP1 PUSH1 0x1 ADD PUSH1 0x18 DUP2 DUP2 SWAP1 SLOAD SWAP1 PUSH2 0x100 EXP SWAP1 DIV PUSH8 0xFFFFFFFFFFFFFFFF AND DUP1 SWAP3 SWAP2 SWAP1 PUSH2 0x1488 SWAP1 PUSH2 0x2D76 JUMP JUMPDEST SWAP2 SWAP1 PUSH2 0x100 EXP DUP2 SLOAD DUP2 PUSH8 0xFFFFFFFFFFFFFFFF MUL NOT AND SWAP1 DUP4 PUSH8 0xFFFFFFFFFFFFFFFF AND MUL OR SWAP1 SSTORE POP POP PUSH2 0x14C1 CALLER PUSH8 0xA688906BD8B00000 PUSH2 0x1B1E JUMP JUMPDEST PUSH2 0x17A7 JUMP JUMPDEST PUSH1 0x5 DUP3 PUSH1 0xFF AND EQ ISZERO PUSH2 0x1587 JUMPI DUP1 PUSH1 0x1 ADD PUSH1 0x8 DUP2 DUP2 SWAP1 SLOAD SWAP1 PUSH2 0x100 EXP SWAP1 DIV PUSH8 0xFFFFFFFFFFFFFFFF AND DUP1 SWAP3 SWAP2 SWAP1 PUSH2 0x14FA SWAP1 PUSH2 0x2D76 JUMP JUMPDEST SWAP2 SWAP1 PUSH2 0x100 EXP DUP2 SLOAD DUP2 PUSH8 0xFFFFFFFFFFFFFFFF MUL NOT AND SWAP1 DUP4 PUSH8 0xFFFFFFFFFFFFFFFF AND MUL OR SWAP1 SSTORE POP POP DUP1 PUSH1 0x1 ADD PUSH1 0x18 DUP2 DUP2 SWAP1 SLOAD SWAP1 PUSH2 0x100 EXP SWAP1 DIV PUSH8 0xFFFFFFFFFFFFFFFF AND DUP1 SWAP3 SWAP2 SWAP1 PUSH2 0x1549 SWAP1 PUSH2 0x2D76 JUMP JUMPDEST SWAP2 SWAP1 PUSH2 0x100 EXP DUP2 SLOAD DUP2 PUSH8 0xFFFFFFFFFFFFFFFF MUL NOT AND SWAP1 DUP4 PUSH8 0xFFFFFFFFFFFFFFFF AND MUL OR SWAP1 SSTORE POP POP PUSH2 0x1582 CALLER PUSH8 0xA688906BD8B00000 PUSH2 0x1B1E JUMP JUMPDEST PUSH2 0x17A6 JUMP JUMPDEST PUSH1 0x6 DUP3 PUSH1 0xFF AND EQ ISZERO PUSH2 0x1648 JUMPI DUP1 PUSH1 0x1 ADD PUSH1 0x8 DUP2 DUP2 SWAP1 SLOAD SWAP1 PUSH2 0x100 EXP SWAP1 DIV PUSH8 0xFFFFFFFFFFFFFFFF AND DUP1 SWAP3 SWAP2 SWAP1 PUSH2 0x15BB SWAP1 PUSH2 0x2D76 JUMP JUMPDEST SWAP2 SWAP1 PUSH2 0x100 EXP DUP2 SLOAD DUP2 PUSH8 0xFFFFFFFFFFFFFFFF MUL NOT AND SWAP1 DUP4 PUSH8 0xFFFFFFFFFFFFFFFF AND MUL OR SWAP1 SSTORE POP POP DUP1 PUSH1 0x1 ADD PUSH1 0x18 DUP2 DUP2 SWAP1 SLOAD SWAP1 PUSH2 0x100 EXP SWAP1 DIV PUSH8 0xFFFFFFFFFFFFFFFF AND DUP1 SWAP3 SWAP2 SWAP1 PUSH2 0x160A SWAP1 PUSH2 0x2D76 JUMP JUMPDEST SWAP2 SWAP1 PUSH2 0x100 EXP DUP2 SLOAD DUP2 PUSH8 0xFFFFFFFFFFFFFFFF MUL NOT AND SWAP1 DUP4 PUSH8 0xFFFFFFFFFFFFFFFF AND MUL OR SWAP1 SSTORE POP POP PUSH2 0x1643 CALLER PUSH8 0x6124FEE993BC0000 PUSH2 0x1B1E JUMP JUMPDEST PUSH2 0x17A5 JUMP JUMPDEST PUSH1 0x7 DUP3 PUSH1 0xFF AND EQ ISZERO PUSH2 0x1709 JUMPI DUP1 PUSH1 0x1 ADD PUSH1 0x8 DUP2 DUP2 SWAP1 SLOAD SWAP1 PUSH2 0x100 EXP SWAP1 DIV PUSH8 0xFFFFFFFFFFFFFFFF AND DUP1 SWAP3 SWAP2 SWAP1 PUSH2 0x167C SWAP1 PUSH2 0x2D76 JUMP JUMPDEST SWAP2 SWAP1 PUSH2 0x100 EXP DUP2 SLOAD DUP2 PUSH8 0xFFFFFFFFFFFFFFFF MUL NOT AND SWAP1 DUP4 PUSH8 0xFFFFFFFFFFFFFFFF AND MUL OR SWAP1 SSTORE POP POP DUP1 PUSH1 0x1 ADD PUSH1 0x18 DUP2 DUP2 SWAP1 SLOAD SWAP1 PUSH2 0x100 EXP SWAP1 DIV PUSH8 0xFFFFFFFFFFFFFFFF AND DUP1 SWAP3 SWAP2 SWAP1 PUSH2 0x16CB SWAP1 PUSH2 0x2D76 JUMP JUMPDEST SWAP2 SWAP1 PUSH2 0x100 EXP DUP2 SLOAD DUP2 PUSH8 0xFFFFFFFFFFFFFFFF MUL NOT AND SWAP1 DUP4 PUSH8 0xFFFFFFFFFFFFFFFF AND MUL OR SWAP1 SSTORE POP POP PUSH2 0x1704 CALLER PUSH8 0x6124FEE993BC0000 PUSH2 0x1B1E JUMP JUMPDEST PUSH2 0x17A4 JUMP JUMPDEST PUSH1 0x8 DUP3 PUSH1 0xFF AND EQ ISZERO PUSH2 0x17A3 JUMPI PUSH1 0x0 DUP2 PUSH1 0x1 ADD PUSH1 0x8 PUSH2 0x100 EXP DUP2 SLOAD DUP2 PUSH8 0xFFFFFFFFFFFFFFFF MUL NOT AND SWAP1 DUP4 PUSH8 0xFFFFFFFFFFFFFFFF AND MUL OR SWAP1 SSTORE POP DUP1 PUSH1 0x1 ADD PUSH1 0x0 DUP2 DUP2 SWAP1 SLOAD SWAP1 PUSH2 0x100 EXP SWAP1 DIV PUSH8 0xFFFFFFFFFFFFFFFF AND DUP1 SWAP3 SWAP2 SWAP1 PUSH2 0x1769 SWAP1 PUSH2 0x2D76 JUMP JUMPDEST SWAP2 SWAP1 PUSH2 0x100 EXP DUP2 SLOAD DUP2 PUSH8 0xFFFFFFFFFFFFFFFF MUL NOT AND SWAP1 DUP4 PUSH8 0xFFFFFFFFFFFFFFFF AND MUL OR SWAP1 SSTORE POP POP PUSH2 0x17A2 CALLER PUSH8 0x6124FEE993BC0000 PUSH2 0x1B1E JUMP JUMPDEST JUMPDEST JUMPDEST JUMPDEST JUMPDEST JUMPDEST JUMPDEST JUMPDEST JUMPDEST DUP1 PUSH1 0x1 ADD PUSH1 0x10 SWAP1 SLOAD SWAP1 PUSH2 0x100 EXP SWAP1 DIV PUSH8 0xFFFFFFFFFFFFFFFF AND PUSH8 0xFFFFFFFFFFFFFFFF AND DUP2 PUSH1 0x1 ADD PUSH1 0x8 SWAP1 SLOAD SWAP1 PUSH2 0x100 EXP SWAP1 DIV PUSH8 0xFFFFFFFFFFFFFFFF AND PUSH8 0xFFFFFFFFFFFFFFFF AND LT PUSH2 0x1839 JUMPI DUP1 PUSH1 0x1 ADD PUSH1 0x8 SWAP1 SLOAD SWAP1 PUSH2 0x100 EXP SWAP1 DIV PUSH8 0xFFFFFFFFFFFFFFFF AND DUP2 PUSH1 0x1 ADD PUSH1 0x10 PUSH2 0x100 EXP DUP2 SLOAD DUP2 PUSH8 0xFFFFFFFFFFFFFFFF MUL NOT AND SWAP1 DUP4 PUSH8 0xFFFFFFFFFFFFFFFF AND MUL OR SWAP1 SSTORE POP JUMPDEST POP POP JUMP JUMPDEST PUSH1 0xC PUSH1 0x0 CALLER PUSH20 0xFFFFFFFFFFFFFFFFFFFFFFFFFFFFFFFFFFFFFFFF AND PUSH20 0xFFFFFFFFFFFFFFFFFFFFFFFFFFFFFFFFFFFFFFFF AND DUP2 MSTORE PUSH1 0x20 ADD SWAP1 DUP2 MSTORE PUSH1 0x20 ADD PUSH1 0x0 KECCAK256 PUSH1 0x0 SWAP1 SLOAD SWAP1 PUSH2 0x100 EXP SWAP1 DIV PUSH1 0xFF AND ISZERO PUSH2 0x18C1 JUMPI PUSH1 0x40 MLOAD PUSH32 0x53733FF700000000000000000000000000000000000000000000000000000000 DUP2 MSTORE PUSH1 0x4 ADD PUSH1 0x40 MLOAD DUP1 SWAP2 SUB SWAP1 REVERT JUMPDEST PUSH1 0x1 PUSH1 0xC PUSH1 0x0 CALLER PUSH20 0xFFFFFFFFFFFFFFFFFFFFFFFFFFFFFFFFFFFFFFFF AND PUSH20 0xFFFFFFFFFFFFFFFFFFFFFFFFFFFFFFFFFFFFFFFF AND DUP2 MSTORE PUSH1 0x20 ADD SWAP1 DUP2 MSTORE PUSH1 0x20 ADD PUSH1 0x0 KECCAK256 PUSH1 0x0 PUSH2 0x100 EXP DUP2 SLOAD DUP2 PUSH1 0xFF MUL NOT AND SWAP1 DUP4 ISZERO ISZERO MUL OR SWAP1 SSTORE POP PUSH2 0x192C CALLER PUSH9 0x56BC75E2D63100000 PUSH2 0x1B1E JUMP JUMPDEST JUMP JUMPDEST PUSH1 0x1 PUSH1 0x7 PUSH1 0x14 PUSH2 0x100 EXP DUP2 SLOAD DUP2 PUSH1 0xFF MUL NOT AND SWAP1 DUP4 ISZERO ISZERO MUL OR SWAP1 SSTORE POP JUMP JUMPDEST PUSH1 0x0 CALLER SWAP1 POP SWAP1 JUMP JUMPDEST PUSH1 0x0 PUSH20 0xFFFFFFFFFFFFFFFFFFFFFFFFFFFFFFFFFFFFFFFF AND DUP4 PUSH20 0xFFFFFFFFFFFFFFFFFFFFFFFFFFFFFFFFFFFFFFFF AND EQ ISZERO PUSH2 0x19C3 JUMPI PUSH1 0x40 MLOAD PUSH32 0x8C379A000000000000000000000000000000000000000000000000000000000 DUP2 MSTORE PUSH1 0x4 ADD PUSH2 0x19BA SWAP1 PUSH2 0x2A2B JUMP JUMPDEST PUSH1 0x40 MLOAD DUP1 SWAP2 SUB SWAP1 REVERT JUMPDEST PUSH1 0x0 PUSH20 0xFFFFFFFFFFFFFFFFFFFFFFFFFFFFFFFFFFFFFFFF AND DUP3 PUSH20 0xFFFFFFFFFFFFFFFFFFFFFFFFFFFFFFFFFFFFFFFF AND EQ ISZERO PUSH2 0x1A33 JUMPI PUSH1 0x40 MLOAD PUSH32 0x8C379A000000000000000000000000000000000000000000000000000000000 DUP2 MSTORE PUSH1 0x4 ADD PUSH2 0x1A2A SWAP1 PUSH2 0x298B JUMP JUMPDEST PUSH1 0x40 MLOAD DUP1 SWAP2 SUB SWAP1 REVERT JUMPDEST DUP1 PUSH1 0x1 PUSH1 0x0 DUP6 PUSH20 0xFFFFFFFFFFFFFFFFFFFFFFFFFFFFFFFFFFFFFFFF AND PUSH20 0xFFFFFFFFFFFFFFFFFFFFFFFFFFFFFFFFFFFFFFFF AND DUP2 MSTORE PUSH1 0x20 ADD SWAP1 DUP2 MSTORE PUSH1 0x20 ADD PUSH1 0x0 KECCAK256 PUSH1 0x0 DUP5 PUSH20 0xFFFFFFFFFFFFFFFFFFFFFFFFFFFFFFFFFFFFFFFF AND PUSH20 0xFFFFFFFFFFFFFFFFFFFFFFFFFFFFFFFFFFFFFFFF AND DUP2 MSTORE PUSH1 0x20 ADD SWAP1 DUP2 MSTORE PUSH1 0x20 ADD PUSH1 0x0 KECCAK256 DUP2 SWAP1 SSTORE POP DUP2 PUSH20 0xFFFFFFFFFFFFFFFFFFFFFFFFFFFFFFFFFFFFFFFF AND DUP4 PUSH20 0xFFFFFFFFFFFFFFFFFFFFFFFFFFFFFFFFFFFFFFFF AND PUSH32 0x8C5BE1E5EBEC7D5BD14F71427D1E84F3DD0314C0F7B2291E5B200AC8C7C3B925 DUP4 PUSH1 0x40 MLOAD PUSH2 0x1B11 SWAP2 SWAP1 PUSH2 0x2AA6 JUMP JUMPDEST PUSH1 0x40 MLOAD DUP1 SWAP2 SUB SWAP1 LOG3 POP POP POP JUMP JUMPDEST PUSH1 0x0 PUSH20 0xFFFFFFFFFFFFFFFFFFFFFFFFFFFFFFFFFFFFFFFF AND DUP3 PUSH20 0xFFFFFFFFFFFFFFFFFFFFFFFFFFFFFFFFFFFFFFFF AND EQ ISZERO PUSH2 0x1B8E JUMPI PUSH1 0x40 MLOAD PUSH32 0x8C379A000000000000000000000000000000000000000000000000000000000 DUP2 MSTORE PUSH1 0x4 ADD PUSH2 0x1B85 SWAP1 PUSH2 0x2A6B JUMP JUMPDEST PUSH1 0x40 MLOAD DUP1 SWAP2 SUB SWAP1 REVERT JUMPDEST PUSH2 0x1B9A PUSH1 0x0 DUP4 DUP4 PUSH2 0x2233 JUMP JUMPDEST DUP1 PUSH1 0x2 PUSH1 0x0 DUP3 DUP3 SLOAD PUSH2 0x1BAC SWAP2 SWAP1 PUSH2 0x2BBD JUMP JUMPDEST SWAP3 POP POP DUP2 SWAP1 SSTORE POP DUP1 PUSH1 0x0 DUP1 DUP5 PUSH20 0xFFFFFFFFFFFFFFFFFFFFFFFFFFFFFFFFFFFFFFFF AND PUSH20 0xFFFFFFFFFFFFFFFFFFFFFFFFFFFFFFFFFFFFFFFF AND DUP2 MSTORE PUSH1 0x20 ADD SWAP1 DUP2 MSTORE PUSH1 0x20 ADD PUSH1 0x0 KECCAK256 PUSH1 0x0 DUP3 DUP3 SLOAD PUSH2 0x1C01 SWAP2 SWAP1 PUSH2 0x2BBD JUMP JUMPDEST SWAP3 POP POP DUP2 SWAP1 SSTORE POP DUP2 PUSH20 0xFFFFFFFFFFFFFFFFFFFFFFFFFFFFFFFFFFFFFFFF AND PUSH1 0x0 PUSH20 0xFFFFFFFFFFFFFFFFFFFFFFFFFFFFFFFFFFFFFFFF AND PUSH32 0xDDF252AD1BE2C89B69C2B068FC378DAA952BA7F163C4A11628F55A4DF523B3EF DUP4 PUSH1 0x40 MLOAD PUSH2 0x1C66 SWAP2 SWAP1 PUSH2 0x2AA6 JUMP JUMPDEST PUSH1 0x40 MLOAD DUP1 SWAP2 SUB SWAP1 LOG3 PUSH2 0x1C7A PUSH1 0x0 DUP4 DUP4 PUSH2 0x2238 JUMP JUMPDEST POP POP JUMP JUMPDEST PUSH1 0x0 PUSH2 0x1C8A DUP5 DUP5 PUSH2 0x103B JUMP JUMPDEST SWAP1 POP PUSH32 0xFFFFFFFFFFFFFFFFFFFFFFFFFFFFFFFFFFFFFFFFFFFFFFFFFFFFFFFFFFFFFFFF DUP2 EQ PUSH2 0x1D04 JUMPI DUP2 DUP2 LT ISZERO PUSH2 0x1CF6 JUMPI PUSH1 0x40 MLOAD PUSH32 0x8C379A000000000000000000000000000000000000000000000000000000000 DUP2 MSTORE PUSH1 0x4 ADD PUSH2 0x1CED SWAP1 PUSH2 0x29AB JUMP JUMPDEST PUSH1 0x40 MLOAD DUP1 SWAP2 SUB SWAP1 REVERT JUMPDEST PUSH2 0x1D03 DUP5 DUP5 DUP5 DUP5 SUB PUSH2 0x1953 JUMP JUMPDEST JUMPDEST POP POP POP POP JUMP JUMPDEST PUSH1 0x0 PUSH20 0xFFFFFFFFFFFFFFFFFFFFFFFFFFFFFFFFFFFFFFFF AND DUP4 PUSH20 0xFFFFFFFFFFFFFFFFFFFFFFFFFFFFFFFFFFFFFFFF AND EQ ISZERO PUSH2 0x1D7A JUMPI PUSH1 0x40 MLOAD PUSH32 0x8C379A000000000000000000000000000000000000000000000000000000000 DUP2 MSTORE PUSH1 0x4 ADD PUSH2 0x1D71 SWAP1 PUSH2 0x2A0B JUMP JUMPDEST PUSH1 0x40 MLOAD DUP1 SWAP2 SUB SWAP1 REVERT JUMPDEST PUSH1 0x0 PUSH20 0xFFFFFFFFFFFFFFFFFFFFFFFFFFFFFFFFFFFFFFFF AND DUP3 PUSH20 0xFFFFFFFFFFFFFFFFFFFFFFFFFFFFFFFFFFFFFFFF AND EQ ISZERO PUSH2 0x1DEA JUMPI PUSH1 0x40 MLOAD PUSH32 0x8C379A000000000000000000000000000000000000000000000000000000000 DUP2 MSTORE PUSH1 0x4 ADD PUSH2 0x1DE1 SWAP1 PUSH2 0x294B JUMP JUMPDEST PUSH1 0x40 MLOAD DUP1 SWAP2 SUB SWAP1 REVERT JUMPDEST PUSH2 0x1DF5 DUP4 DUP4 DUP4 PUSH2 0x2233 JUMP JUMPDEST PUSH1 0x0 DUP1 PUSH1 0x0 DUP6 PUSH20 0xFFFFFFFFFFFFFFFFFFFFFFFFFFFFFFFFFFFFFFFF AND PUSH20 0xFFFFFFFFFFFFFFFFFFFFFFFFFFFFFFFFFFFFFFFF AND DUP2 MSTORE PUSH1 0x20 ADD SWAP1 DUP2 MSTORE PUSH1 0x20 ADD PUSH1 0x0 KECCAK256 SLOAD SWAP1 POP DUP2 DUP2 LT ISZERO PUSH2 0x1E7B JUMPI PUSH1 0x40 MLOAD PUSH32 0x8C379A000000000000000000000000000000000000000000000000000000000 DUP2 MSTORE PUSH1 0x4 ADD PUSH2 0x1E72 SWAP1 PUSH2 0x29CB JUMP JUMPDEST PUSH1 0x40 MLOAD DUP1 SWAP2 SUB SWAP1 REVERT JUMPDEST DUP2 DUP2 SUB PUSH1 0x0 DUP1 DUP7 PUSH20 0xFFFFFFFFFFFFFFFFFFFFFFFFFFFFFFFFFFFFFFFF AND PUSH20 0xFFFFFFFFFFFFFFFFFFFFFFFFFFFFFFFFFFFFFFFF AND DUP2 MSTORE PUSH1 0x20 ADD SWAP1 DUP2 MSTORE PUSH1 0x20 ADD PUSH1 0x0 KECCAK256 DUP2 SWAP1 SSTORE POP DUP2 PUSH1 0x0 DUP1 DUP6 PUSH20 0xFFFFFFFFFFFFFFFFFFFFFFFFFFFFFFFFFFFFFFFF AND PUSH20 0xFFFFFFFFFFFFFFFFFFFFFFFFFFFFFFFFFFFFFFFF AND DUP2 MSTORE PUSH1 0x20 ADD SWAP1 DUP2 MSTORE PUSH1 0x20 ADD PUSH1 0x0 KECCAK256 PUSH1 0x0 DUP3 DUP3 SLOAD PUSH2 0x1F0E SWAP2 SWAP1 PUSH2 0x2BBD JUMP JUMPDEST SWAP3 POP POP DUP2 SWAP1 SSTORE POP DUP3 PUSH20 0xFFFFFFFFFFFFFFFFFFFFFFFFFFFFFFFFFFFFFFFF AND DUP5 PUSH20 0xFFFFFFFFFFFFFFFFFFFFFFFFFFFFFFFFFFFFFFFF AND PUSH32 0xDDF252AD1BE2C89B69C2B068FC378DAA952BA7F163C4A11628F55A4DF523B3EF DUP5 PUSH1 0x40 MLOAD PUSH2 0x1F72 SWAP2 SWAP1 PUSH2 0x2AA6 JUMP JUMPDEST PUSH1 0x40 MLOAD DUP1 SWAP2 SUB SWAP1 LOG3 PUSH2 0x1F85 DUP5 DUP5 DUP5 PUSH2 0x2238 JUMP JUMPDEST POP POP POP POP JUMP JUMPDEST PUSH1 0x0 PUSH20 0xFFFFFFFFFFFFFFFFFFFFFFFFFFFFFFFFFFFFFFFF AND DUP3 PUSH20 0xFFFFFFFFFFFFFFFFFFFFFFFFFFFFFFFFFFFFFFFF AND EQ ISZERO PUSH2 0x1FFB JUMPI PUSH1 0x40 MLOAD PUSH32 0x8C379A000000000000000000000000000000000000000000000000000000000 DUP2 MSTORE PUSH1 0x4 ADD PUSH2 0x1FF2 SWAP1 PUSH2 0x29EB JUMP JUMPDEST PUSH1 0x40 MLOAD DUP1 SWAP2 SUB SWAP1 REVERT JUMPDEST PUSH2 0x2007 DUP3 PUSH1 0x0 DUP4 PUSH2 0x2233 JUMP JUMPDEST PUSH1 0x0 DUP1 PUSH1 0x0 DUP5 PUSH20 0xFFFFFFFFFFFFFFFFFFFFFFFFFFFFFFFFFFFFFFFF AND PUSH20 0xFFFFFFFFFFFFFFFFFFFFFFFFFFFFFFFFFFFFFFFF AND DUP2 MSTORE PUSH1 0x20 ADD SWAP1 DUP2 MSTORE PUSH1 0x20 ADD PUSH1 0x0 KECCAK256 SLOAD SWAP1 POP DUP2 DUP2 LT ISZERO PUSH2 0x208D JUMPI PUSH1 0x40 MLOAD PUSH32 0x8C379A000000000000000000000000000000000000000000000000000000000 DUP2 MSTORE PUSH1 0x4 ADD PUSH2 0x2084 SWAP1 PUSH2 0x296B JUMP JUMPDEST PUSH1 0x40 MLOAD DUP1 SWAP2 SUB SWAP1 REVERT JUMPDEST DUP2 DUP2 SUB PUSH1 0x0 DUP1 DUP6 PUSH20 0xFFFFFFFFFFFFFFFFFFFFFFFFFFFFFFFFFFFFFFFF AND PUSH20 0xFFFFFFFFFFFFFFFFFFFFFFFFFFFFFFFFFFFFFFFF AND DUP2 MSTORE PUSH1 0x20 ADD SWAP1 DUP2 MSTORE PUSH1 0x20 ADD PUSH1 0x0 KECCAK256 DUP2 SWAP1 SSTORE POP DUP2 PUSH1 0x2 PUSH1 0x0 DUP3 DUP3 SLOAD PUSH2 0x20E4 SWAP2 SWAP1 PUSH2 0x2C13 JUMP JUMPDEST SWAP3 POP POP DUP2 SWAP1 SSTORE POP PUSH1 0x0 PUSH20 0xFFFFFFFFFFFFFFFFFFFFFFFFFFFFFFFFFFFFFFFF AND DUP4 PUSH20 0xFFFFFFFFFFFFFFFFFFFFFFFFFFFFFFFFFFFFFFFF AND PUSH32 0xDDF252AD1BE2C89B69C2B068FC378DAA952BA7F163C4A11628F55A4DF523B3EF DUP5 PUSH1 0x40 MLOAD PUSH2 0x2149 SWAP2 SWAP1 PUSH2 0x2AA6 JUMP JUMPDEST PUSH1 0x40 MLOAD DUP1 SWAP2 SUB SWAP1 LOG3 PUSH2 0x215D DUP4 PUSH1 0x0 DUP5 PUSH2 0x2238 JUMP JUMPDEST POP POP POP JUMP JUMPDEST PUSH1 0x0 PUSH2 0x216C PUSH2 0x223D JUMP JUMPDEST SWAP1 POP PUSH1 0x0 DUP1 JUMPDEST PUSH1 0x8 DUP1 SLOAD SWAP1 POP DUP2 LT ISZERO PUSH2 0x21C1 JUMPI DUP3 PUSH1 0x8 DUP3 DUP2 SLOAD DUP2 LT PUSH2 0x2194 JUMPI PUSH2 0x2193 PUSH2 0x2EC2 JUMP JUMPDEST JUMPDEST SWAP1 PUSH1 0x0 MSTORE PUSH1 0x20 PUSH1 0x0 KECCAK256 ADD SLOAD EQ ISZERO PUSH2 0x21AE JUMPI PUSH1 0x1 SWAP2 POP PUSH2 0x21C1 JUMP JUMPDEST DUP1 DUP1 PUSH2 0x21B9 SWAP1 PUSH2 0x2D2D JUMP JUMPDEST SWAP2 POP POP PUSH2 0x2172 JUMP JUMPDEST POP DUP1 PUSH2 0x21F1 JUMPI PUSH1 0x8 DUP3 SWAP1 DUP1 PUSH1 0x1 DUP2 SLOAD ADD DUP1 DUP3 SSTORE DUP1 SWAP2 POP POP PUSH1 0x1 SWAP1 SUB SWAP1 PUSH1 0x0 MSTORE PUSH1 0x20 PUSH1 0x0 KECCAK256 ADD PUSH1 0x0 SWAP1 SWAP2 SWAP1 SWAP2 SWAP1 SWAP2 POP SSTORE JUMPDEST POP POP JUMP JUMPDEST JUMPDEST PUSH1 0x0 PUSH1 0x8 DUP1 SLOAD SWAP1 POP GT ISZERO PUSH2 0x2231 JUMPI PUSH1 0x8 DUP1 SLOAD DUP1 PUSH2 0x2216 JUMPI PUSH2 0x2215 PUSH2 0x2E93 JUMP JUMPDEST JUMPDEST PUSH1 0x1 SWAP1 SUB DUP2 DUP2 SWAP1 PUSH1 0x0 MSTORE PUSH1 0x20 PUSH1 0x0 KECCAK256 ADD PUSH1 0x0 SWAP1 SSTORE SWAP1 SSTORE PUSH2 0x21F6 JUMP JUMPDEST JUMP JUMPDEST POP POP POP JUMP JUMPDEST POP POP POP JUMP JUMPDEST PUSH1 0x0 DUP1 PUSH1 0xA SWAP1 POP PUSH1 0x1 PUSH1 0x5 PUSH1 0x0 DUP3 DUP3 SLOAD PUSH2 0x2257 SWAP2 SWAP1 PUSH2 0x2BBD JUMP JUMPDEST SWAP3 POP POP DUP2 SWAP1 SSTORE POP DUP1 TIMESTAMP PUSH1 0x5 SLOAD CALLER PUSH1 0x40 MLOAD PUSH1 0x20 ADD PUSH2 0x2276 SWAP4 SWAP3 SWAP2 SWAP1 PUSH2 0x288D JUMP JUMPDEST PUSH1 0x40 MLOAD PUSH1 0x20 DUP2 DUP4 SUB SUB DUP2 MSTORE SWAP1 PUSH1 0x40 MSTORE DUP1 MLOAD SWAP1 PUSH1 0x20 ADD KECCAK256 PUSH1 0x0 SHR PUSH2 0x2299 SWAP2 SWAP1 PUSH2 0x2DD5 JUMP JUMPDEST SWAP2 POP POP SWAP1 JUMP JUMPDEST PUSH1 0x40 MLOAD DUP1 PUSH1 0xA0 ADD PUSH1 0x40 MSTORE DUP1 PUSH1 0x0 DUP2 MSTORE PUSH1 0x20 ADD PUSH1 0x0 PUSH8 0xFFFFFFFFFFFFFFFF AND DUP2 MSTORE PUSH1 0x20 ADD PUSH1 0x0 PUSH8 0xFFFFFFFFFFFFFFFF AND DUP2 MSTORE PUSH1 0x20 ADD PUSH1 0x0 PUSH8 0xFFFFFFFFFFFFFFFF AND DUP2 MSTORE PUSH1 0x20 ADD PUSH1 0x0 PUSH8 0xFFFFFFFFFFFFFFFF AND DUP2 MSTORE POP SWAP1 JUMP JUMPDEST PUSH1 0x40 MLOAD DUP1 PUSH1 0x40 ADD PUSH1 0x40 MSTORE DUP1 PUSH1 0x0 PUSH20 0xFFFFFFFFFFFFFFFFFFFFFFFFFFFFFFFFFFFFFFFF AND DUP2 MSTORE PUSH1 0x20 ADD PUSH1 0x0 PUSH12 0xFFFFFFFFFFFFFFFFFFFFFFFF AND DUP2 MSTORE POP SWAP1 JUMP JUMPDEST PUSH1 0x0 DUP2 CALLDATALOAD SWAP1 POP PUSH2 0x2343 DUP2 PUSH2 0x320D JUMP JUMPDEST SWAP3 SWAP2 POP POP JUMP JUMPDEST PUSH1 0x0 DUP2 CALLDATALOAD SWAP1 POP PUSH2 0x2358 DUP2 PUSH2 0x3224 JUMP JUMPDEST SWAP3 SWAP2 POP POP JUMP JUMPDEST PUSH1 0x0 DUP2 CALLDATALOAD SWAP1 POP PUSH2 0x236D DUP2 PUSH2 0x323B JUMP JUMPDEST SWAP3 SWAP2 POP POP JUMP JUMPDEST PUSH1 0x0 PUSH1 0x20 DUP3 DUP5 SUB SLT ISZERO PUSH2 0x2389 JUMPI PUSH2 0x2388 PUSH2 0x2F20 JUMP JUMPDEST JUMPDEST PUSH1 0x0 PUSH2 0x2397 DUP5 DUP3 DUP6 ADD PUSH2 0x2334 JUMP JUMPDEST SWAP2 POP POP SWAP3 SWAP2 POP POP JUMP JUMPDEST PUSH1 0x0 DUP1 PUSH1 0x40 DUP4 DUP6 SUB SLT ISZERO PUSH2 0x23B7 JUMPI PUSH2 0x23B6 PUSH2 0x2F20 JUMP JUMPDEST JUMPDEST PUSH1 0x0 PUSH2 0x23C5 DUP6 DUP3 DUP7 ADD PUSH2 0x2334 JUMP JUMPDEST SWAP3 POP POP PUSH1 0x20 PUSH2 0x23D6 DUP6 DUP3 DUP7 ADD PUSH2 0x2334 JUMP JUMPDEST SWAP2 POP POP SWAP3 POP SWAP3 SWAP1 POP JUMP JUMPDEST PUSH1 0x0 DUP1 PUSH1 0x0 PUSH1 0x60 DUP5 DUP7 SUB SLT ISZERO PUSH2 0x23F9 JUMPI PUSH2 0x23F8 PUSH2 0x2F20 JUMP JUMPDEST JUMPDEST PUSH1 0x0 PUSH2 0x2407 DUP7 DUP3 DUP8 ADD PUSH2 0x2334 JUMP JUMPDEST SWAP4 POP POP PUSH1 0x20 PUSH2 0x2418 DUP7 DUP3 DUP8 ADD PUSH2 0x2334 JUMP JUMPDEST SWAP3 POP POP PUSH1 0x40 PUSH2 0x2429 DUP7 DUP3 DUP8 ADD PUSH2 0x2349 JUMP JUMPDEST SWAP2 POP POP SWAP3 POP SWAP3 POP SWAP3 JUMP JUMPDEST PUSH1 0x0 DUP1 PUSH1 0x40 DUP4 DUP6 SUB SLT ISZERO PUSH2 0x244A JUMPI PUSH2 0x2449 PUSH2 0x2F20 JUMP JUMPDEST JUMPDEST PUSH1 0x0 PUSH2 0x2458 DUP6 DUP3 DUP7 ADD PUSH2 0x2334 JUMP JUMPDEST SWAP3 POP POP PUSH1 0x20 PUSH2 0x2469 DUP6 DUP3 DUP7 ADD PUSH2 0x2349 JUMP JUMPDEST SWAP2 POP POP SWAP3 POP SWAP3 SWAP1 POP JUMP JUMPDEST PUSH1 0x0 PUSH1 0x20 DUP3 DUP5 SUB SLT ISZERO PUSH2 0x2489 JUMPI PUSH2 0x2488 PUSH2 0x2F20 JUMP JUMPDEST JUMPDEST PUSH1 0x0 PUSH2 0x2497 DUP5 DUP3 DUP6 ADD PUSH2 0x2349 JUMP JUMPDEST SWAP2 POP POP SWAP3 SWAP2 POP POP JUMP JUMPDEST PUSH1 0x0 PUSH1 0x20 DUP3 DUP5 SUB SLT ISZERO PUSH2 0x24B6 JUMPI PUSH2 0x24B5 PUSH2 0x2F20 JUMP JUMPDEST JUMPDEST PUSH1 0x0 PUSH2 0x24C4 DUP5 DUP3 DUP6 ADD PUSH2 0x235E JUMP JUMPDEST SWAP2 POP POP SWAP3 SWAP2 POP POP JUMP JUMPDEST PUSH1 0x0 PUSH2 0x24D9 DUP4 DUP4 PUSH2 0x2785 JUMP JUMPDEST PUSH1 0x40 DUP4 ADD SWAP1 POP SWAP3 SWAP2 POP POP JUMP JUMPDEST PUSH1 0x0 PUSH2 0x24F1 DUP4 DUP4 PUSH2 0x281C JUMP JUMPDEST PUSH1 0x20 DUP4 ADD SWAP1 POP SWAP3 SWAP2 POP POP JUMP JUMPDEST PUSH2 0x2506 DUP2 PUSH2 0x2C47 JUMP JUMPDEST DUP3 MSTORE POP POP JUMP JUMPDEST PUSH2 0x251D PUSH2 0x2518 DUP3 PUSH2 0x2C47 JUMP JUMPDEST PUSH2 0x2DA7 JUMP JUMPDEST DUP3 MSTORE POP POP JUMP JUMPDEST PUSH1 0x0 PUSH2 0x252E DUP3 PUSH2 0x2B4F JUMP JUMPDEST PUSH2 0x2538 DUP2 DUP6 PUSH2 0x2B8A JUMP JUMPDEST SWAP4 POP PUSH2 0x2543 DUP4 PUSH2 0x2B2F JUMP JUMPDEST DUP1 PUSH1 0x0 JUMPDEST DUP4 DUP2 LT ISZERO PUSH2 0x2574 JUMPI DUP2 MLOAD PUSH2 0x255B DUP9 DUP3 PUSH2 0x24CD JUMP JUMPDEST SWAP8 POP PUSH2 0x2566 DUP4 PUSH2 0x2B70 JUMP JUMPDEST SWAP3 POP POP PUSH1 0x1 DUP2 ADD SWAP1 POP PUSH2 0x2547 JUMP JUMPDEST POP DUP6 SWAP4 POP POP POP POP SWAP3 SWAP2 POP POP JUMP JUMPDEST PUSH1 0x0 PUSH2 0x258C DUP3 PUSH2 0x2B5A JUMP JUMPDEST PUSH2 0x2596 DUP2 DUP6 PUSH2 0x2B9B JUMP JUMPDEST SWAP4 POP PUSH2 0x25A1 DUP4 PUSH2 0x2B3F JUMP JUMPDEST DUP1 PUSH1 0x0 JUMPDEST DUP4 DUP2 LT ISZERO PUSH2 0x25D2 JUMPI DUP2 MLOAD PUSH2 0x25B9 DUP9 DUP3 PUSH2 0x24E5 JUMP JUMPDEST SWAP8 POP PUSH2 0x25C4 DUP4 PUSH2 0x2B7D JUMP JUMPDEST SWAP3 POP POP PUSH1 0x1 DUP2 ADD SWAP1 POP PUSH2 0x25A5 JUMP JUMPDEST POP DUP6 SWAP4 POP POP POP POP SWAP3 SWAP2 POP POP JUMP JUMPDEST PUSH2 0x25E8 DUP2 PUSH2 0x2C59 JUMP JUMPDEST DUP3 MSTORE POP POP JUMP JUMPDEST PUSH1 0x0 PUSH2 0x25F9 DUP3 PUSH2 0x2B65 JUMP JUMPDEST PUSH2 0x2603 DUP2 DUP6 PUSH2 0x2BAC JUMP JUMPDEST SWAP4 POP PUSH2 0x2613 DUP2 DUP6 PUSH1 0x20 DUP7 ADD PUSH2 0x2CC8 JUMP JUMPDEST PUSH2 0x261C DUP2 PUSH2 0x2F25 JUMP JUMPDEST DUP5 ADD SWAP2 POP POP SWAP3 SWAP2 POP POP JUMP JUMPDEST PUSH1 0x0 PUSH2 0x2634 PUSH1 0x23 DUP4 PUSH2 0x2BAC JUMP JUMPDEST SWAP2 POP PUSH2 0x263F DUP3 PUSH2 0x2F43 JUMP JUMPDEST PUSH1 0x40 DUP3 ADD SWAP1 POP SWAP2 SWAP1 POP JUMP JUMPDEST PUSH1 0x0 PUSH2 0x2657 PUSH1 0x22 DUP4 PUSH2 0x2BAC JUMP JUMPDEST SWAP2 POP PUSH2 0x2662 DUP3 PUSH2 0x2F92 JUMP JUMPDEST PUSH1 0x40 DUP3 ADD SWAP1 POP SWAP2 SWAP1 POP JUMP JUMPDEST PUSH1 0x0 PUSH2 0x267A PUSH1 0x22 DUP4 PUSH2 0x2BAC JUMP JUMPDEST SWAP2 POP PUSH2 0x2685 DUP3 PUSH2 0x2FE1 JUMP JUMPDEST PUSH1 0x40 DUP3 ADD SWAP1 POP SWAP2 SWAP1 POP JUMP JUMPDEST PUSH1 0x0 PUSH2 0x269D PUSH1 0x1D DUP4 PUSH2 0x2BAC JUMP JUMPDEST SWAP2 POP PUSH2 0x26A8 DUP3 PUSH2 0x3030 JUMP JUMPDEST PUSH1 0x20 DUP3 ADD SWAP1 POP SWAP2 SWAP1 POP JUMP JUMPDEST PUSH1 0x0 PUSH2 0x26C0 PUSH1 0x26 DUP4 PUSH2 0x2BAC JUMP JUMPDEST SWAP2 POP PUSH2 0x26CB DUP3 PUSH2 0x3059 JUMP JUMPDEST PUSH1 0x40 DUP3 ADD SWAP1 POP SWAP2 SWAP1 POP JUMP JUMPDEST PUSH1 0x0 PUSH2 0x26E3 PUSH1 0x21 DUP4 PUSH2 0x2BAC JUMP JUMPDEST SWAP2 POP PUSH2 0x26EE DUP3 PUSH2 0x30A8 JUMP JUMPDEST PUSH1 0x40 DUP3 ADD SWAP1 POP SWAP2 SWAP1 POP JUMP JUMPDEST PUSH1 0x0 PUSH2 0x2706 PUSH1 0x25 DUP4 PUSH2 0x2BAC JUMP JUMPDEST SWAP2 POP PUSH2 0x2711 DUP3 PUSH2 0x30F7 JUMP JUMPDEST PUSH1 0x40 DUP3 ADD SWAP1 POP SWAP2 SWAP1 POP JUMP JUMPDEST PUSH1 0x0 PUSH2 0x2729 PUSH1 0x24 DUP4 PUSH2 0x2BAC JUMP JUMPDEST SWAP2 POP PUSH2 0x2734 DUP3 PUSH2 0x3146 JUMP JUMPDEST PUSH1 0x40 DUP3 ADD SWAP1 POP SWAP2 SWAP1 POP JUMP JUMPDEST PUSH1 0x0 PUSH2 0x274C PUSH1 0x25 DUP4 PUSH2 0x2BAC JUMP JUMPDEST SWAP2 POP PUSH2 0x2757 DUP3 PUSH2 0x3195 JUMP JUMPDEST PUSH1 0x40 DUP3 ADD SWAP1 POP SWAP2 SWAP1 POP JUMP JUMPDEST PUSH1 0x0 PUSH2 0x276F PUSH1 0x1F DUP4 PUSH2 0x2BAC JUMP JUMPDEST SWAP2 POP PUSH2 0x277A DUP3 PUSH2 0x31E4 JUMP JUMPDEST PUSH1 0x20 DUP3 ADD SWAP1 POP SWAP2 SWAP1 POP JUMP JUMPDEST PUSH1 0x40 DUP3 ADD PUSH1 0x0 DUP3 ADD MLOAD PUSH2 0x279B PUSH1 0x0 DUP6 ADD DUP3 PUSH2 0x24FD JUMP JUMPDEST POP PUSH1 0x20 DUP3 ADD MLOAD PUSH2 0x27AE PUSH1 0x20 DUP6 ADD DUP3 PUSH2 0x287E JUMP JUMPDEST POP POP POP POP JUMP JUMPDEST PUSH1 0xA0 DUP3 ADD PUSH1 0x0 DUP3 ADD MLOAD PUSH2 0x27CA PUSH1 0x0 DUP6 ADD DUP3 PUSH2 0x281C JUMP JUMPDEST POP PUSH1 0x20 DUP3 ADD MLOAD PUSH2 0x27DD PUSH1 0x20 DUP6 ADD DUP3 PUSH2 0x2851 JUMP JUMPDEST POP PUSH1 0x40 DUP3 ADD MLOAD PUSH2 0x27F0 PUSH1 0x40 DUP6 ADD DUP3 PUSH2 0x2851 JUMP JUMPDEST POP PUSH1 0x60 DUP3 ADD MLOAD PUSH2 0x2803 PUSH1 0x60 DUP6 ADD DUP3 PUSH2 0x2851 JUMP JUMPDEST POP PUSH1 0x80 DUP3 ADD MLOAD PUSH2 0x2816 PUSH1 0x80 DUP6 ADD DUP3 PUSH2 0x2851 JUMP JUMPDEST POP POP POP POP JUMP JUMPDEST PUSH2 0x2825 DUP2 PUSH2 0x2C85 JUMP JUMPDEST DUP3 MSTORE POP POP JUMP JUMPDEST PUSH2 0x2834 DUP2 PUSH2 0x2C85 JUMP JUMPDEST DUP3 MSTORE POP POP JUMP JUMPDEST PUSH2 0x284B PUSH2 0x2846 DUP3 PUSH2 0x2C85 JUMP JUMPDEST PUSH2 0x2DCB JUMP JUMPDEST DUP3 MSTORE POP POP JUMP JUMPDEST PUSH2 0x285A DUP2 PUSH2 0x2C8F JUMP JUMPDEST DUP3 MSTORE POP POP JUMP JUMPDEST PUSH2 0x2869 DUP2 PUSH2 0x2C8F JUMP JUMPDEST DUP3 MSTORE POP POP JUMP JUMPDEST PUSH2 0x2878 DUP2 PUSH2 0x2CA3 JUMP JUMPDEST DUP3 MSTORE POP POP JUMP JUMPDEST PUSH2 0x2887 DUP2 PUSH2 0x2CB0 JUMP JUMPDEST DUP3 MSTORE POP POP JUMP JUMPDEST PUSH1 0x0 PUSH2 0x2899 DUP3 DUP7 PUSH2 0x283A JUMP JUMPDEST PUSH1 0x20 DUP3 ADD SWAP2 POP PUSH2 0x28A9 DUP3 DUP6 PUSH2 0x283A JUMP JUMPDEST PUSH1 0x20 DUP3 ADD SWAP2 POP PUSH2 0x28B9 DUP3 DUP5 PUSH2 0x250C JUMP JUMPDEST PUSH1 0x14 DUP3 ADD SWAP2 POP DUP2 SWAP1 POP SWAP5 SWAP4 POP POP POP POP JUMP JUMPDEST PUSH1 0x0 PUSH1 0x20 DUP3 ADD SWAP1 POP DUP2 DUP2 SUB PUSH1 0x0 DUP4 ADD MSTORE PUSH2 0x28E4 DUP2 DUP5 PUSH2 0x2523 JUMP JUMPDEST SWAP1 POP SWAP3 SWAP2 POP POP JUMP JUMPDEST PUSH1 0x0 PUSH1 0x20 DUP3 ADD SWAP1 POP DUP2 DUP2 SUB PUSH1 0x0 DUP4 ADD MSTORE PUSH2 0x2906 DUP2 DUP5 PUSH2 0x2581 JUMP JUMPDEST SWAP1 POP SWAP3 SWAP2 POP POP JUMP JUMPDEST PUSH1 0x0 PUSH1 0x20 DUP3 ADD SWAP1 POP PUSH2 0x2923 PUSH1 0x0 DUP4 ADD DUP5 PUSH2 0x25DF JUMP JUMPDEST SWAP3 SWAP2 POP POP JUMP JUMPDEST PUSH1 0x0 PUSH1 0x20 DUP3 ADD SWAP1 POP DUP2 DUP2 SUB PUSH1 0x0 DUP4 ADD MSTORE PUSH2 0x2943 DUP2 DUP5 PUSH2 0x25EE JUMP JUMPDEST SWAP1 POP SWAP3 SWAP2 POP POP JUMP JUMPDEST PUSH1 0x0 PUSH1 0x20 DUP3 ADD SWAP1 POP DUP2 DUP2 SUB PUSH1 0x0 DUP4 ADD MSTORE PUSH2 0x2964 DUP2 PUSH2 0x2627 JUMP JUMPDEST SWAP1 POP SWAP2 SWAP1 POP JUMP JUMPDEST PUSH1 0x0 PUSH1 0x20 DUP3 ADD SWAP1 POP DUP2 DUP2 SUB PUSH1 0x0 DUP4 ADD MSTORE PUSH2 0x2984 DUP2 PUSH2 0x264A JUMP JUMPDEST SWAP1 POP SWAP2 SWAP1 POP JUMP JUMPDEST PUSH1 0x0 PUSH1 0x20 DUP3 ADD SWAP1 POP DUP2 DUP2 SUB PUSH1 0x0 DUP4 ADD MSTORE PUSH2 0x29A4 DUP2 PUSH2 0x266D JUMP JUMPDEST SWAP1 POP SWAP2 SWAP1 POP JUMP JUMPDEST PUSH1 0x0 PUSH1 0x20 DUP3 ADD SWAP1 POP DUP2 DUP2 SUB PUSH1 0x0 DUP4 ADD MSTORE PUSH2 0x29C4 DUP2 PUSH2 0x2690 JUMP JUMPDEST SWAP1 POP SWAP2 SWAP1 POP JUMP JUMPDEST PUSH1 0x0 PUSH1 0x20 DUP3 ADD SWAP1 POP DUP2 DUP2 SUB PUSH1 0x0 DUP4 ADD MSTORE PUSH2 0x29E4 DUP2 PUSH2 0x26B3 JUMP JUMPDEST SWAP1 POP SWAP2 SWAP1 POP JUMP JUMPDEST PUSH1 0x0 PUSH1 0x20 DUP3 ADD SWAP1 POP DUP2 DUP2 SUB PUSH1 0x0 DUP4 ADD MSTORE PUSH2 0x2A04 DUP2 PUSH2 0x26D6 JUMP JUMPDEST SWAP1 POP SWAP2 SWAP1 POP JUMP JUMPDEST PUSH1 0x0 PUSH1 0x20 DUP3 ADD SWAP1 POP DUP2 DUP2 SUB PUSH1 0x0 DUP4 ADD MSTORE PUSH2 0x2A24 DUP2 PUSH2 0x26F9 JUMP JUMPDEST SWAP1 POP SWAP2 SWAP1 POP JUMP JUMPDEST PUSH1 0x0 PUSH1 0x20 DUP3 ADD SWAP1 POP DUP2 DUP2 SUB PUSH1 0x0 DUP4 ADD MSTORE PUSH2 0x2A44 DUP2 PUSH2 0x271C JUMP JUMPDEST SWAP1 POP SWAP2 SWAP1 POP JUMP JUMPDEST PUSH1 0x0 PUSH1 0x20 DUP3 ADD SWAP1 POP DUP2 DUP2 SUB PUSH1 0x0 DUP4 ADD MSTORE PUSH2 0x2A64 DUP2 PUSH2 0x273F JUMP JUMPDEST SWAP1 POP SWAP2 SWAP1 POP JUMP JUMPDEST PUSH1 0x0 PUSH1 0x20 DUP3 ADD SWAP1 POP DUP2 DUP2 SUB PUSH1 0x0 DUP4 ADD MSTORE PUSH2 0x2A84 DUP2 PUSH2 0x2762 JUMP JUMPDEST SWAP1 POP SWAP2 SWAP1 POP JUMP JUMPDEST PUSH1 0x0 PUSH1 0xA0 DUP3 ADD SWAP1 POP PUSH2 0x2AA0 PUSH1 0x0 DUP4 ADD DUP5 PUSH2 0x27B4 JUMP JUMPDEST SWAP3 SWAP2 POP POP JUMP JUMPDEST PUSH1 0x0 PUSH1 0x20 DUP3 ADD SWAP1 POP PUSH2 0x2ABB PUSH1 0x0 DUP4 ADD DUP5 PUSH2 0x282B JUMP JUMPDEST SWAP3 SWAP2 POP POP JUMP JUMPDEST PUSH1 0x0 PUSH1 0xA0 DUP3 ADD SWAP1 POP PUSH2 0x2AD6 PUSH1 0x0 DUP4 ADD DUP9 PUSH2 0x282B JUMP JUMPDEST PUSH2 0x2AE3 PUSH1 0x20 DUP4 ADD DUP8 PUSH2 0x2860 JUMP JUMPDEST PUSH2 0x2AF0 PUSH1 0x40 DUP4 ADD DUP7 PUSH2 0x2860 JUMP JUMPDEST PUSH2 0x2AFD PUSH1 0x60 DUP4 ADD DUP6 PUSH2 0x2860 JUMP JUMPDEST PUSH2 0x2B0A PUSH1 0x80 DUP4 ADD DUP5 PUSH2 0x2860 JUMP JUMPDEST SWAP7 SWAP6 POP POP POP POP POP POP JUMP JUMPDEST PUSH1 0x0 PUSH1 0x20 DUP3 ADD SWAP1 POP PUSH2 0x2B29 PUSH1 0x0 DUP4 ADD DUP5 PUSH2 0x286F JUMP JUMPDEST SWAP3 SWAP2 POP POP JUMP JUMPDEST PUSH1 0x0 DUP2 SWAP1 POP PUSH1 0x20 DUP3 ADD SWAP1 POP SWAP2 SWAP1 POP JUMP JUMPDEST PUSH1 0x0 DUP2 SWAP1 POP PUSH1 0x20 DUP3 ADD SWAP1 POP SWAP2 SWAP1 POP JUMP JUMPDEST PUSH1 0x0 DUP2 MLOAD SWAP1 POP SWAP2 SWAP1 POP JUMP JUMPDEST PUSH1 0x0 DUP2 MLOAD SWAP1 POP SWAP2 SWAP1 POP JUMP JUMPDEST PUSH1 0x0 DUP2 MLOAD SWAP1 POP SWAP2 SWAP1 POP JUMP JUMPDEST PUSH1 0x0 PUSH1 0x20 DUP3 ADD SWAP1 POP SWAP2 SWAP1 POP JUMP JUMPDEST PUSH1 0x0 PUSH1 0x20 DUP3 ADD SWAP1 POP SWAP2 SWAP1 POP JUMP JUMPDEST PUSH1 0x0 DUP3 DUP3 MSTORE PUSH1 0x20 DUP3 ADD SWAP1 POP SWAP3 SWAP2 POP POP JUMP JUMPDEST PUSH1 0x0 DUP3 DUP3 MSTORE PUSH1 0x20 DUP3 ADD SWAP1 POP SWAP3 SWAP2 POP POP JUMP JUMPDEST PUSH1 0x0 DUP3 DUP3 MSTORE PUSH1 0x20 DUP3 ADD SWAP1 POP SWAP3 SWAP2 POP POP JUMP JUMPDEST PUSH1 0x0 PUSH2 0x2BC8 DUP3 PUSH2 0x2C85 JUMP JUMPDEST SWAP2 POP PUSH2 0x2BD3 DUP4 PUSH2 0x2C85 JUMP JUMPDEST SWAP3 POP DUP3 PUSH32 0xFFFFFFFFFFFFFFFFFFFFFFFFFFFFFFFFFFFFFFFFFFFFFFFFFFFFFFFFFFFFFFFF SUB DUP3 GT ISZERO PUSH2 0x2C08 JUMPI PUSH2 0x2C07 PUSH2 0x2E06 JUMP JUMPDEST JUMPDEST DUP3 DUP3 ADD SWAP1 POP SWAP3 SWAP2 POP POP JUMP JUMPDEST PUSH1 0x0 PUSH2 0x2C1E DUP3 PUSH2 0x2C85 JUMP JUMPDEST SWAP2 POP PUSH2 0x2C29 DUP4 PUSH2 0x2C85 JUMP JUMPDEST SWAP3 POP DUP3 DUP3 LT ISZERO PUSH2 0x2C3C JUMPI PUSH2 0x2C3B PUSH2 0x2E06 JUMP JUMPDEST JUMPDEST DUP3 DUP3 SUB SWAP1 POP SWAP3 SWAP2 POP POP JUMP JUMPDEST PUSH1 0x0 PUSH2 0x2C52 DUP3 PUSH2 0x2C65 JUMP JUMPDEST SWAP1 POP SWAP2 SWAP1 POP JUMP JUMPDEST PUSH1 0x0 DUP2 ISZERO ISZERO SWAP1 POP SWAP2 SWAP1 POP JUMP JUMPDEST PUSH1 0x0 PUSH20 0xFFFFFFFFFFFFFFFFFFFFFFFFFFFFFFFFFFFFFFFF DUP3 AND SWAP1 POP SWAP2 SWAP1 POP JUMP JUMPDEST PUSH1 0x0 DUP2 SWAP1 POP SWAP2 SWAP1 POP JUMP JUMPDEST PUSH1 0x0 PUSH8 0xFFFFFFFFFFFFFFFF DUP3 AND SWAP1 POP SWAP2 SWAP1 POP JUMP JUMPDEST PUSH1 0x0 PUSH1 0xFF DUP3 AND SWAP1 POP SWAP2 SWAP1 POP JUMP JUMPDEST PUSH1 0x0 PUSH12 0xFFFFFFFFFFFFFFFFFFFFFFFF DUP3 AND SWAP1 POP SWAP2 SWAP1 POP JUMP JUMPDEST PUSH1 0x0 JUMPDEST DUP4 DUP2 LT ISZERO PUSH2 0x2CE6 JUMPI DUP1 DUP3 ADD MLOAD DUP2 DUP5 ADD MSTORE PUSH1 0x20 DUP2 ADD SWAP1 POP PUSH2 0x2CCB JUMP JUMPDEST DUP4 DUP2 GT ISZERO PUSH2 0x2CF5 JUMPI PUSH1 0x0 DUP5 DUP5 ADD MSTORE JUMPDEST POP POP POP POP JUMP JUMPDEST PUSH1 0x0 PUSH1 0x2 DUP3 DIV SWAP1 POP PUSH1 0x1 DUP3 AND DUP1 PUSH2 0x2D13 JUMPI PUSH1 0x7F DUP3 AND SWAP2 POP JUMPDEST PUSH1 0x20 DUP3 LT DUP2 EQ ISZERO PUSH2 0x2D27 JUMPI PUSH2 0x2D26 PUSH2 0x2E64 JUMP JUMPDEST JUMPDEST POP SWAP2 SWAP1 POP JUMP JUMPDEST PUSH1 0x0 PUSH2 0x2D38 DUP3 PUSH2 0x2C85 JUMP JUMPDEST SWAP2 POP PUSH32 0xFFFFFFFFFFFFFFFFFFFFFFFFFFFFFFFFFFFFFFFFFFFFFFFFFFFFFFFFFFFFFFFF DUP3 EQ ISZERO PUSH2 0x2D6B JUMPI PUSH2 0x2D6A PUSH2 0x2E06 JUMP JUMPDEST JUMPDEST PUSH1 0x1 DUP3 ADD SWAP1 POP SWAP2 SWAP1 POP JUMP JUMPDEST PUSH1 0x0 PUSH2 0x2D81 DUP3 PUSH2 0x2C8F JUMP JUMPDEST SWAP2 POP PUSH8 0xFFFFFFFFFFFFFFFF DUP3 EQ ISZERO PUSH2 0x2D9C JUMPI PUSH2 0x2D9B PUSH2 0x2E06 JUMP JUMPDEST JUMPDEST PUSH1 0x1 DUP3 ADD SWAP1 POP SWAP2 SWAP1 POP JUMP JUMPDEST PUSH1 0x0 PUSH2 0x2DB2 DUP3 PUSH2 0x2DB9 JUMP JUMPDEST SWAP1 POP SWAP2 SWAP1 POP JUMP JUMPDEST PUSH1 0x0 PUSH2 0x2DC4 DUP3 PUSH2 0x2F36 JUMP JUMPDEST SWAP1 POP SWAP2 SWAP1 POP JUMP JUMPDEST PUSH1 0x0 DUP2 SWAP1 POP SWAP2 SWAP1 POP JUMP JUMPDEST PUSH1 0x0 PUSH2 0x2DE0 DUP3 PUSH2 0x2C85 JUMP JUMPDEST SWAP2 POP PUSH2 0x2DEB DUP4 PUSH2 0x2C85 JUMP JUMPDEST SWAP3 POP DUP3 PUSH2 0x2DFB JUMPI PUSH2 0x2DFA PUSH2 0x2E35 JUMP JUMPDEST JUMPDEST DUP3 DUP3 MOD SWAP1 POP SWAP3 SWAP2 POP POP JUMP JUMPDEST PUSH32 0x4E487B7100000000000000000000000000000000000000000000000000000000 PUSH1 0x0 MSTORE PUSH1 0x11 PUSH1 0x4 MSTORE PUSH1 0x24 PUSH1 0x0 REVERT JUMPDEST PUSH32 0x4E487B7100000000000000000000000000000000000000000000000000000000 PUSH1 0x0 MSTORE PUSH1 0x12 PUSH1 0x4 MSTORE PUSH1 0x24 PUSH1 0x0 REVERT JUMPDEST PUSH32 0x4E487B7100000000000000000000000000000000000000000000000000000000 PUSH1 0x0 MSTORE PUSH1 0x22 PUSH1 0x4 MSTORE PUSH1 0x24 PUSH1 0x0 REVERT JUMPDEST PUSH32 0x4E487B7100000000000000000000000000000000000000000000000000000000 PUSH1 0x0 MSTORE PUSH1 0x31 PUSH1 0x4 MSTORE PUSH1 0x24 PUSH1 0x0 REVERT JUMPDEST PUSH32 0x4E487B7100000000000000000000000000000000000000000000000000000000 PUSH1 0x0 MSTORE PUSH1 0x32 PUSH1 0x4 MSTORE PUSH1 0x24 PUSH1 0x0 REVERT JUMPDEST PUSH32 0x4E487B7100000000000000000000000000000000000000000000000000000000 PUSH1 0x0 MSTORE PUSH1 0x41 PUSH1 0x4 MSTORE PUSH1 0x24 PUSH1 0x0 REVERT JUMPDEST PUSH1 0x0 DUP1 REVERT JUMPDEST PUSH1 0x0 PUSH1 0x1F NOT PUSH1 0x1F DUP4 ADD AND SWAP1 POP SWAP2 SWAP1 POP JUMP JUMPDEST PUSH1 0x0 DUP2 PUSH1 0x60 SHL SWAP1 POP SWAP2 SWAP1 POP JUMP JUMPDEST PUSH32 0x45524332303A207472616E7366657220746F20746865207A65726F2061646472 PUSH1 0x0 DUP3 ADD MSTORE PUSH32 0x6573730000000000000000000000000000000000000000000000000000000000 PUSH1 0x20 DUP3 ADD MSTORE POP JUMP JUMPDEST PUSH32 0x45524332303A206275726E20616D6F756E7420657863656564732062616C616E PUSH1 0x0 DUP3 ADD MSTORE PUSH32 0x6365000000000000000000000000000000000000000000000000000000000000 PUSH1 0x20 DUP3 ADD MSTORE POP JUMP JUMPDEST PUSH32 0x45524332303A20617070726F766520746F20746865207A65726F206164647265 PUSH1 0x0 DUP3 ADD MSTORE PUSH32 0x7373000000000000000000000000000000000000000000000000000000000000 PUSH1 0x20 DUP3 ADD MSTORE POP JUMP JUMPDEST PUSH32 0x45524332303A20696E73756666696369656E7420616C6C6F77616E6365000000 PUSH1 0x0 DUP3 ADD MSTORE POP JUMP JUMPDEST PUSH32 0x45524332303A207472616E7366657220616D6F756E7420657863656564732062 PUSH1 0x0 DUP3 ADD MSTORE PUSH32 0x616C616E63650000000000000000000000000000000000000000000000000000 PUSH1 0x20 DUP3 ADD MSTORE POP JUMP JUMPDEST PUSH32 0x45524332303A206275726E2066726F6D20746865207A65726F20616464726573 PUSH1 0x0 DUP3 ADD MSTORE PUSH32 0x7300000000000000000000000000000000000000000000000000000000000000 PUSH1 0x20 DUP3 ADD MSTORE POP JUMP JUMPDEST PUSH32 0x45524332303A207472616E736665722066726F6D20746865207A65726F206164 PUSH1 0x0 DUP3 ADD MSTORE PUSH32 0x6472657373000000000000000000000000000000000000000000000000000000 PUSH1 0x20 DUP3 ADD MSTORE POP JUMP JUMPDEST PUSH32 0x45524332303A20617070726F76652066726F6D20746865207A65726F20616464 PUSH1 0x0 DUP3 ADD MSTORE PUSH32 0x7265737300000000000000000000000000000000000000000000000000000000 PUSH1 0x20 DUP3 ADD MSTORE POP JUMP JUMPDEST PUSH32 0x45524332303A2064656372656173656420616C6C6F77616E63652062656C6F77 PUSH1 0x0 DUP3 ADD MSTORE PUSH32 0x207A65726F000000000000000000000000000000000000000000000000000000 PUSH1 0x20 DUP3 ADD MSTORE POP JUMP JUMPDEST PUSH32 0x45524332303A206D696E7420746F20746865207A65726F206164647265737300 PUSH1 0x0 DUP3 ADD MSTORE POP JUMP JUMPDEST PUSH2 0x3216 DUP2 PUSH2 0x2C47 JUMP JUMPDEST DUP2 EQ PUSH2 0x3221 JUMPI PUSH1 0x0 DUP1 REVERT JUMPDEST POP JUMP JUMPDEST PUSH2 0x322D DUP2 PUSH2 0x2C85 JUMP JUMPDEST DUP2 EQ PUSH2 0x3238 JUMPI PUSH1 0x0 DUP1 REVERT JUMPDEST POP JUMP JUMPDEST PUSH2 0x3244 DUP2 PUSH2 0x2CA3 JUMP JUMPDEST DUP2 EQ PUSH2 0x324F JUMPI PUSH1 0x0 DUP1 REVERT JUMPDEST POP JUMP INVALID LOG2 PUSH5 0x6970667358 0x22 SLT KECCAK256 CALLER 0x4F 0xF6 XOR OR PUSH9 0xED6C284E971385B23F 0xD SWAP11 0x4D LOG1 0xB1 0xE4 CALL SWAP5 0xEE 0xE5 SELFBALANCE PUSH6 0x5D395E1D7164 PUSH20 0x6F6C634300080700330000000000000000000000 "
        },
        "methodIdentifiers": {
          "LeaderBoard()": "73fde543",
          "PlayerStruct(address)": "5c53d334",
          "allowance(address,address)": "dd62ed3e",
          "approve(address,uint256)": "095ea7b3",
          "balanceOf(address)": "70a08231",
          "checkStreak()": "55cd16e2",
          "checkTrials(uint8)": "e2970388",
          "claimFreeTokens()": "f14d2181",
          "compNum(uint256)": "0de079b1",
          "decimals()": "313ce567",
          "decreaseAllowance(address,uint256)": "a457c2d7",
          "increaseAllowance(address,uint256)": "39509351",
          "name()": "06fdde03",
          "randNum()": "9ac8c0ef",
          "setTNotoUseVRF()": "bcf50e8b",
          "setToUseVRF()": "f52a6a41",
          "startGame()": "d65ab5f2",
          "symbol()": "95d89b41",
          "totalSupply()": "18160ddd",
          "transfer(address,uint256)": "a9059cbb",
          "transferFrom(address,address,uint256)": "23b872dd",
          "transferToCreator(uint256)": "0b4dab98"
        }
      }
    }
  }
}