{
  "_format": "hh-sol-artifact-1",
  "contractName": "DOW",
  "sourceName": "contracts/DOWcon.sol",
  "abi": [
    {
      "inputs": [
        {
          "internalType": "address",
          "name": "VRFaddress",
          "type": "address"
        },
        {
          "internalType": "address",
          "name": "_trustedForwarder",
          "type": "address"
        }
      ],
      "stateMutability": "nonpayable",
      "type": "constructor"
    },
    {
      "inputs": [],
      "name": "AlreadyClaimedFreeTokens",
      "type": "error"
    },
    {
      "inputs": [],
      "name": "Enter4Numbers",
      "type": "error"
    },
    {
      "inputs": [],
      "name": "InsufficientTokens",
      "type": "error"
    },
    {
      "inputs": [],
      "name": "NotOwner",
      "type": "error"
    },
    {
      "inputs": [],
      "name": "NumbersMustBeUnique",
      "type": "error"
    },
    {
      "inputs": [],
      "name": "PlayerHasNotPlayed",
      "type": "error"
    },
    {
      "inputs": [],
      "name": "YouLost",
      "type": "error"
    },
    {
      "anonymous": false,
      "inputs": [
        {
          "indexed": true,
          "internalType": "address",
          "name": "owner",
          "type": "address"
        },
        {
          "indexed": true,
          "internalType": "address",
          "name": "spender",
          "type": "address"
        },
        {
          "indexed": false,
          "internalType": "uint256",
          "name": "value",
          "type": "uint256"
        }
      ],
      "name": "Approval",
      "type": "event"
    },
    {
      "anonymous": false,
      "inputs": [
        {
          "indexed": false,
          "internalType": "bytes32[]",
          "name": "compNum",
          "type": "bytes32[]"
        }
      ],
      "name": "PlayerNumbers",
      "type": "event"
    },
    {
      "anonymous": false,
      "inputs": [
        {
          "indexed": true,
          "internalType": "address",
          "name": "from",
          "type": "address"
        },
        {
          "indexed": true,
          "internalType": "address",
          "name": "to",
          "type": "address"
        },
        {
          "indexed": false,
          "internalType": "uint256",
          "name": "value",
          "type": "uint256"
        }
      ],
      "name": "Transfer",
      "type": "event"
    },
    {
      "anonymous": false,
      "inputs": [
        {
          "indexed": false,
          "internalType": "uint256[]",
          "name": "compNumber",
          "type": "uint256[]"
        }
      ],
      "name": "compNumber",
      "type": "event"
    },
    {
      "inputs": [],
      "name": "LeaderBoard",
      "outputs": [
        {
          "components": [
            {
              "internalType": "address",
              "name": "playerAddress",
              "type": "address"
            },
            {
              "internalType": "uint96",
              "name": "wins",
              "type": "uint96"
            }
          ],
          "internalType": "struct DOW.PlayerScore[]",
          "name": "leaderBoard",
          "type": "tuple[]"
        }
      ],
      "stateMutability": "view",
      "type": "function"
    },
    {
      "inputs": [
        {
          "internalType": "address",
          "name": "",
          "type": "address"
        }
      ],
      "name": "PlayerStruct",
      "outputs": [
        {
          "internalType": "uint256",
          "name": "gamesPlayed",
          "type": "uint256"
        },
        {
          "internalType": "uint64",
          "name": "gamesLost",
          "type": "uint64"
        },
        {
          "internalType": "uint64",
          "name": "currentWinStreak",
          "type": "uint64"
        },
        {
          "internalType": "uint64",
          "name": "maxWinStreak",
          "type": "uint64"
        },
        {
          "internalType": "uint64",
          "name": "gamesWon",
          "type": "uint64"
        }
      ],
      "stateMutability": "view",
      "type": "function"
    },
    {
      "inputs": [
        {
          "internalType": "address",
          "name": "owner",
          "type": "address"
        },
        {
          "internalType": "address",
          "name": "spender",
          "type": "address"
        }
      ],
      "name": "allowance",
      "outputs": [
        {
          "internalType": "uint256",
          "name": "",
          "type": "uint256"
        }
      ],
      "stateMutability": "view",
      "type": "function"
    },
    {
      "inputs": [
        {
          "internalType": "address",
          "name": "spender",
          "type": "address"
        },
        {
          "internalType": "uint256",
          "name": "amount",
          "type": "uint256"
        }
      ],
      "name": "approve",
      "outputs": [
        {
          "internalType": "bool",
          "name": "",
          "type": "bool"
        }
      ],
      "stateMutability": "nonpayable",
      "type": "function"
    },
    {
      "inputs": [
        {
          "internalType": "address",
          "name": "account",
          "type": "address"
        }
      ],
      "name": "balanceOf",
      "outputs": [
        {
          "internalType": "uint256",
          "name": "",
          "type": "uint256"
        }
      ],
      "stateMutability": "view",
      "type": "function"
    },
    {
      "inputs": [],
      "name": "checkStreak",
      "outputs": [
        {
          "components": [
            {
              "internalType": "uint256",
              "name": "gamesPlayed",
              "type": "uint256"
            },
            {
              "internalType": "uint64",
              "name": "gamesLost",
              "type": "uint64"
            },
            {
              "internalType": "uint64",
              "name": "currentWinStreak",
              "type": "uint64"
            },
            {
              "internalType": "uint64",
              "name": "maxWinStreak",
              "type": "uint64"
            },
            {
              "internalType": "uint64",
              "name": "gamesWon",
              "type": "uint64"
            }
          ],
          "internalType": "struct DOW.Player",
          "name": "",
          "type": "tuple"
        }
      ],
      "stateMutability": "view",
      "type": "function"
    },
    {
      "inputs": [
        {
          "internalType": "uint8",
          "name": "trial",
          "type": "uint8"
        }
      ],
      "name": "checkTrials",
      "outputs": [],
      "stateMutability": "nonpayable",
      "type": "function"
    },
    {
      "inputs": [],
      "name": "claimFreeTokens",
      "outputs": [],
      "stateMutability": "nonpayable",
      "type": "function"
    },
    {
      "inputs": [
        {
          "internalType": "uint256",
          "name": "",
          "type": "uint256"
        }
      ],
      "name": "compNum",
      "outputs": [
        {
          "internalType": "uint256",
          "name": "",
          "type": "uint256"
        }
      ],
      "stateMutability": "view",
      "type": "function"
    },
    {
      "inputs": [],
      "name": "decimals",
      "outputs": [
        {
          "internalType": "uint8",
          "name": "",
          "type": "uint8"
        }
      ],
      "stateMutability": "view",
      "type": "function"
    },
    {
      "inputs": [
        {
          "internalType": "address",
          "name": "spender",
          "type": "address"
        },
        {
          "internalType": "uint256",
          "name": "subtractedValue",
          "type": "uint256"
        }
      ],
      "name": "decreaseAllowance",
      "outputs": [
        {
          "internalType": "bool",
          "name": "",
          "type": "bool"
        }
      ],
      "stateMutability": "nonpayable",
      "type": "function"
    },
    {
      "inputs": [],
      "name": "generateRandomNumber",
      "outputs": [],
      "stateMutability": "nonpayable",
      "type": "function"
    },
    {
      "inputs": [
        {
          "internalType": "address",
          "name": "spender",
          "type": "address"
        },
        {
          "internalType": "uint256",
          "name": "addedValue",
          "type": "uint256"
        }
      ],
      "name": "increaseAllowance",
      "outputs": [
        {
          "internalType": "bool",
          "name": "",
          "type": "bool"
        }
      ],
      "stateMutability": "nonpayable",
      "type": "function"
    },
    {
      "inputs": [
        {
          "internalType": "address",
          "name": "forwarder",
          "type": "address"
        }
      ],
      "name": "isTrustedForwarder",
      "outputs": [
        {
          "internalType": "bool",
          "name": "",
          "type": "bool"
        }
      ],
      "stateMutability": "view",
      "type": "function"
    },
    {
      "inputs": [],
      "name": "name",
      "outputs": [
        {
          "internalType": "string",
          "name": "",
          "type": "string"
        }
      ],
      "stateMutability": "view",
      "type": "function"
    },
    {
      "inputs": [],
      "name": "randNum",
      "outputs": [
        {
          "internalType": "uint256",
          "name": "",
          "type": "uint256"
        }
      ],
      "stateMutability": "view",
      "type": "function"
    },
    {
      "inputs": [],
      "name": "setToNotUseVRF",
      "outputs": [],
      "stateMutability": "nonpayable",
      "type": "function"
    },
    {
      "inputs": [],
      "name": "setToUseVRF",
      "outputs": [],
      "stateMutability": "nonpayable",
      "type": "function"
    },
    {
      "inputs": [
        {
          "internalType": "address",
          "name": "_trustedForwarder",
          "type": "address"
        }
      ],
      "name": "setTrustForwarder",
      "outputs": [],
      "stateMutability": "nonpayable",
      "type": "function"
    },
    {
      "inputs": [],
      "name": "startGame",
      "outputs": [
        {
          "internalType": "bytes32[]",
          "name": "playerNumbers",
          "type": "bytes32[]"
        }
      ],
      "stateMutability": "nonpayable",
      "type": "function"
    },
    {
      "inputs": [],
      "name": "symbol",
      "outputs": [
        {
          "internalType": "string",
          "name": "",
          "type": "string"
        }
      ],
      "stateMutability": "view",
      "type": "function"
    },
    {
      "inputs": [],
      "name": "totalSupply",
      "outputs": [
        {
          "internalType": "uint256",
          "name": "",
          "type": "uint256"
        }
      ],
      "stateMutability": "view",
      "type": "function"
    },
    {
      "inputs": [
        {
          "internalType": "address",
          "name": "to",
          "type": "address"
        },
        {
          "internalType": "uint256",
          "name": "amount",
          "type": "uint256"
        }
      ],
      "name": "transfer",
      "outputs": [
        {
          "internalType": "bool",
          "name": "",
          "type": "bool"
        }
      ],
      "stateMutability": "nonpayable",
      "type": "function"
    },
    {
      "inputs": [
        {
          "internalType": "address",
          "name": "from",
          "type": "address"
        },
        {
          "internalType": "address",
          "name": "to",
          "type": "address"
        },
        {
          "internalType": "uint256",
          "name": "amount",
          "type": "uint256"
        }
      ],
      "name": "transferFrom",
      "outputs": [
        {
          "internalType": "bool",
          "name": "",
          "type": "bool"
        }
      ],
      "stateMutability": "nonpayable",
      "type": "function"
    },
    {
      "inputs": [
        {
          "internalType": "uint256",
          "name": "_amount",
          "type": "uint256"
        }
      ],
      "name": "transferToCreator",
      "outputs": [],
      "stateMutability": "nonpayable",
      "type": "function"
    },
    {
      "inputs": [],
      "name": "trustedForwarder",
      "outputs": [
        {
          "internalType": "address",
          "name": "",
          "type": "address"
        }
      ],
      "stateMutability": "view",
      "type": "function"
    },
    {
      "inputs": [],
      "name": "versionRecipient",
      "outputs": [
        {
          "internalType": "string",
          "name": "",
          "type": "string"
        }
      ],
      "stateMutability": "pure",
      "type": "function"
    }
  ],
  "bytecode": "0x60806040523480156200001157600080fd5b506040516200397738038062003977833981810160405281019062000037919062000328565b6040518060400160405280600f81526020017f44656164206f7220576f756e64656400000000000000000000000000000000008152506040518060400160405280600381526020017f444f5700000000000000000000000000000000000000000000000000000000008152508160039080519060200190620000bb92919062000261565b508060049080519060200190620000d492919062000261565b505050620000e76200018160201b60201c565b600860006101000a81548173ffffffffffffffffffffffffffffffffffffffff021916908373ffffffffffffffffffffffffffffffffffffffff16021790555081600960006101000a81548173ffffffffffffffffffffffffffffffffffffffff021916908373ffffffffffffffffffffffffffffffffffffffff1602179055506200017981620001c360201b60201c565b505062000427565b60006014600036905010158015620001a65750620001a5336200020760201b60201c565b5b15620001bc57601436033560601c9050620001c0565b3390505b90565b80600560006101000a81548173ffffffffffffffffffffffffffffffffffffffff021916908373ffffffffffffffffffffffffffffffffffffffff16021790555050565b6000600560009054906101000a900473ffffffffffffffffffffffffffffffffffffffff1673ffffffffffffffffffffffffffffffffffffffff168273ffffffffffffffffffffffffffffffffffffffff16149050919050565b8280546200026f90620003a3565b90600052602060002090601f016020900481019282620002935760008555620002df565b82601f10620002ae57805160ff1916838001178555620002df565b82800160010185558215620002df579182015b82811115620002de578251825591602001919060010190620002c1565b5b509050620002ee9190620002f2565b5090565b5b808211156200030d576000816000905550600101620002f3565b5090565b60008151905062000322816200040d565b92915050565b6000806040838503121562000342576200034162000408565b5b6000620003528582860162000311565b9250506020620003658582860162000311565b9150509250929050565b60006200037c8262000383565b9050919050565b600073ffffffffffffffffffffffffffffffffffffffff82169050919050565b60006002820490506001821680620003bc57607f821691505b60208210811415620003d357620003d2620003d9565b5b50919050565b7f4e487b7100000000000000000000000000000000000000000000000000000000600052602260045260246000fd5b600080fd5b62000418816200036f565b81146200042457600080fd5b50565b61354080620004376000396000f3fe608060405234801561001057600080fd5b50600436106101a95760003560e01c806373fde543116100f9578063b1513e9e11610097578063ddf0b3da11610071578063ddf0b3da146104ee578063e29703881461050a578063f14d218114610526578063f52a6a4114610530576101a9565b8063b1513e9e14610496578063d65ab5f2146104a0578063dd62ed3e146104be576101a9565b806395d89b41116100d357806395d89b41146103fa5780639ac8c0ef14610418578063a457c2d714610436578063a9059cbb14610466576101a9565b806373fde543146103b4578063773a1154146103d25780637da0a877146103dc576101a9565b8063313ce5671161016657806355cd16e21161014057806355cd16e214610302578063572b6c05146103205780635c53d3341461035057806370a0823114610384576101a9565b8063313ce5671461029657806339509351146102b4578063486ff0cd146102e4576101a9565b806306fdde03146101ae578063095ea7b3146101cc5780630b4dab98146101fc5780630de079b11461021857806318160ddd1461024857806323b872dd14610266575b600080fd5b6101b661053a565b6040516101c39190612ce9565b60405180910390f35b6101e660048036038101906101e191906127b8565b6105cc565b6040516101f39190612cce565b60405180910390f35b610216600480360381019061021191906127f8565b6105ef565b005b610232600480360381019061022d91906127f8565b6106ac565b60405161023f9190612e26565b60405180910390f35b6102506106d0565b60405161025d9190612e26565b60405180910390f35b610280600480360381019061027b9190612765565b6106da565b60405161028d9190612cce565b60405180910390f35b61029e610709565b6040516102ab9190612e94565b60405180910390f35b6102ce60048036038101906102c991906127b8565b610712565b6040516102db9190612cce565b60405180910390f35b6102ec6107bc565b6040516102f99190612ce9565b60405180910390f35b61030a6107f9565b6040516103179190612e0b565b60405180910390f35b61033a600480360381019061033591906126f8565b61092f565b6040516103479190612cce565b60405180910390f35b61036a600480360381019061036591906126f8565b610989565b60405161037b959493929190612e41565b60405180910390f35b61039e600480360381019061039991906126f8565b610a0f565b6040516103ab9190612e26565b60405180910390f35b6103bc610a57565b6040516103c99190612cac565b60405180910390f35b6103da610c51565b005b6103e4610d7b565b6040516103f19190612c6f565b60405180910390f35b610402610da5565b60405161040f9190612ce9565b60405180910390f35b610420610e37565b60405161042d9190612e26565b60405180910390f35b610450600480360381019061044b91906127b8565b610e3d565b60405161045d9190612cce565b60405180910390f35b610480600480360381019061047b91906127b8565b610f27565b60405161048d9190612cce565b60405180910390f35b61049e610f4a565b005b6104a8610f67565b6040516104b59190612c8a565b60405180910390f35b6104d860048036038101906104d39190612725565b6113f7565b6040516104e59190612e26565b60405180910390f35b610508600480360381019061050391906126f8565b61147e565b005b610524600480360381019061051f9190612852565b611518565b005b61052e611cd9565b005b610538611ddf565b005b60606003805461054990613051565b80601f016020809104026020016040519081016040528092919081815260200182805461057590613051565b80156105c25780601f10610597576101008083540402835291602001916105c2565b820191906000526020600020905b8154815290600101906020018083116105a557829003601f168201915b5050505050905090565b6000806105d7611dfc565b90506105e4818585611e33565b600191505092915050565b600860009054906101000a900473ffffffffffffffffffffffffffffffffffffffff1673ffffffffffffffffffffffffffffffffffffffff16610630611dfc565b73ffffffffffffffffffffffffffffffffffffffff161461067d576040517f30cd747100000000000000000000000000000000000000000000000000000000815260040160405180910390fd5b6106a9600860009054906101000a900473ffffffffffffffffffffffffffffffffffffffff1682611ffe565b50565b600a81815481106106bc57600080fd5b906000526020600020016000915090505481565b6000600254905090565b6000806106e5611dfc565b90506106f285828561215e565b6106fd8585856121ea565b60019150509392505050565b60006012905090565b60008061071d611dfc565b90506107b1818585600160008673ffffffffffffffffffffffffffffffffffffffff1673ffffffffffffffffffffffffffffffffffffffff16815260200190815260200160002060008973ffffffffffffffffffffffffffffffffffffffff1673ffffffffffffffffffffffffffffffffffffffff168152602001908152602001600020546107ac9190612f3d565b611e33565b600191505092915050565b60606040518060400160405280600181526020017f3100000000000000000000000000000000000000000000000000000000000000815250905090565b61080161260f565b6000600c600061080f611dfc565b73ffffffffffffffffffffffffffffffffffffffff1673ffffffffffffffffffffffffffffffffffffffff1681526020019081526020016000209050806040518060a0016040529081600082015481526020016001820160009054906101000a900467ffffffffffffffff1667ffffffffffffffff1667ffffffffffffffff1681526020016001820160089054906101000a900467ffffffffffffffff1667ffffffffffffffff1667ffffffffffffffff1681526020016001820160109054906101000a900467ffffffffffffffff1667ffffffffffffffff1667ffffffffffffffff1681526020016001820160189054906101000a900467ffffffffffffffff1667ffffffffffffffff1667ffffffffffffffff168152505091505090565b6000600560009054906101000a900473ffffffffffffffffffffffffffffffffffffffff1673ffffffffffffffffffffffffffffffffffffffff168273ffffffffffffffffffffffffffffffffffffffff16149050919050565b600c6020528060005260406000206000915090508060000154908060010160009054906101000a900467ffffffffffffffff16908060010160089054906101000a900467ffffffffffffffff16908060010160109054906101000a900467ffffffffffffffff16908060010160189054906101000a900467ffffffffffffffff16905085565b60008060008373ffffffffffffffffffffffffffffffffffffffff1673ffffffffffffffffffffffffffffffffffffffff168152602001908152602001600020549050919050565b6060600b8054905067ffffffffffffffff811115610a7857610a77613247565b5b604051908082528060200260200182016040528015610ab157816020015b610a9e612666565b815260200190600190039081610a965790505b50905060005b600b80549050811015610c4d576000600c6000600b8481548110610ade57610add613218565b5b9060005260206000200160009054906101000a900473ffffffffffffffffffffffffffffffffffffffff1673ffffffffffffffffffffffffffffffffffffffff1673ffffffffffffffffffffffffffffffffffffffff1681526020019081526020016000209050600b8281548110610b5957610b58613218565b5b9060005260206000200160009054906101000a900473ffffffffffffffffffffffffffffffffffffffff16838381518110610b9757610b96613218565b5b60200260200101516000019073ffffffffffffffffffffffffffffffffffffffff16908173ffffffffffffffffffffffffffffffffffffffff16815250508060010160189054906101000a900467ffffffffffffffff1667ffffffffffffffff16838381518110610c0b57610c0a613218565b5b6020026020010151602001906bffffffffffffffffffffffff1690816bffffffffffffffffffffffff1681525050508080610c4590613083565b915050610ab7565b5090565b600960009054906101000a900473ffffffffffffffffffffffffffffffffffffffff1673ffffffffffffffffffffffffffffffffffffffff1663e0c862896040518163ffffffff1660e01b8152600401600060405180830381600087803b158015610cbb57600080fd5b505af1158015610ccf573d6000803e3d6000fd5b50505050600960009054906101000a900473ffffffffffffffffffffffffffffffffffffffff1673ffffffffffffffffffffffffffffffffffffffff1663e89e106a6040518163ffffffff1660e01b815260040160206040518083038186803b158015610d3b57600080fd5b505afa158015610d4f573d6000803e3d6000fd5b505050506040513d601f19601f82011682018060405250810190610d739190612825565b600781905550565b6000600560009054906101000a900473ffffffffffffffffffffffffffffffffffffffff16905090565b606060048054610db490613051565b80601f0160208091040260200160405190810160405280929190818152602001828054610de090613051565b8015610e2d5780601f10610e0257610100808354040283529160200191610e2d565b820191906000526020600020905b815481529060010190602001808311610e1057829003601f168201915b5050505050905090565b60075481565b600080610e48611dfc565b90506000600160008373ffffffffffffffffffffffffffffffffffffffff1673ffffffffffffffffffffffffffffffffffffffff16815260200190815260200160002060008673ffffffffffffffffffffffffffffffffffffffff1673ffffffffffffffffffffffffffffffffffffffff16815260200190815260200160002054905083811015610f0e576040517f08c379a0000000000000000000000000000000000000000000000000000000008152600401610f0590612dcb565b60405180910390fd5b610f1b8286868403611e33565b60019250505092915050565b600080610f32611dfc565b9050610f3f8185856121ea565b600191505092915050565b6000600860146101000a81548160ff021916908315150217905550565b6060600d6000610f75611dfc565b73ffffffffffffffffffffffffffffffffffffffff1673ffffffffffffffffffffffffffffffffffffffff16815260200190815260200160002060009054906101000a900460ff1661108b576001600d6000610fcf611dfc565b73ffffffffffffffffffffffffffffffffffffffff1673ffffffffffffffffffffffffffffffffffffffff16815260200190815260200160002060006101000a81548160ff021916908315150217905550600b61102a611dfc565b9080600181540180825580915050600190039060005260206000200160009091909190916101000a81548173ffffffffffffffffffffffffffffffffffffffff021916908373ffffffffffffffffffffffffffffffffffffffff1602179055505b6000600c6000611099611dfc565b73ffffffffffffffffffffffffffffffffffffffff1673ffffffffffffffffffffffffffffffffffffffff1681526020019081526020016000209050674563918244f400006110ee6110e9611dfc565b610a0f565b1015611126576040517ff1b7e15e00000000000000000000000000000000000000000000000000000000815260040160405180910390fd5b611140611131611dfc565b30674563918244f400006121ea565b600467ffffffffffffffff81111561115b5761115a613247565b5b6040519080825280602002602001820160405280156111895781602001602082028036833780820191505090505b5091505b6004600a8054905010156111a8576111a361246b565b61118d565b600a6000815481106111bd576111bc613218565b5b90600052602060002001546040516020016111d89190612c17565b604051602081830303815290604052805190602001208260008151811061120257611201613218565b5b602002602001018181525050600a60018154811061122357611222613218565b5b906000526020600020015460405160200161123e9190612c17565b604051602081830303815290604052805190602001208260018151811061126857611267613218565b5b602002602001018181525050600a60028154811061128957611288613218565b5b90600052602060002001546040516020016112a49190612c17565b60405160208183030381529060405280519060200120826002815181106112ce576112cd613218565b5b602002602001018181525050600a6003815481106112ef576112ee613218565b5b906000526020600020015460405160200161130a9190612c17565b604051602081830303815290604052805190602001208260038151811061133457611333613218565b5b60200260200101818152505061134861251a565b6001600f6000611356611dfc565b73ffffffffffffffffffffffffffffffffffffffff1673ffffffffffffffffffffffffffffffffffffffff16815260200190815260200160002060008360000154815260200190815260200160002060006101000a81548160ff0219169083151502179055507f2d420b6adc054c35e933874423a84e095ec2c4f2f7ac7b1f9781d6858a1b7be2826040516113eb9190612c8a565b60405180910390a15090565b6000600160008473ffffffffffffffffffffffffffffffffffffffff1673ffffffffffffffffffffffffffffffffffffffff16815260200190815260200160002060008373ffffffffffffffffffffffffffffffffffffffff1673ffffffffffffffffffffffffffffffffffffffff16815260200190815260200160002054905092915050565b600860009054906101000a900473ffffffffffffffffffffffffffffffffffffffff1673ffffffffffffffffffffffffffffffffffffffff166114bf611dfc565b73ffffffffffffffffffffffffffffffffffffffff161461150c576040517f30cd747100000000000000000000000000000000000000000000000000000000815260040160405180910390fd5b61151581612558565b50565b6000600c6000611526611dfc565b73ffffffffffffffffffffffffffffffffffffffff1673ffffffffffffffffffffffffffffffffffffffff168152602001908152602001600020905060001515600f6000611572611dfc565b73ffffffffffffffffffffffffffffffffffffffff1673ffffffffffffffffffffffffffffffffffffffff16815260200190815260200160002060008360000154815260200190815260200160002060009054906101000a900460ff1615151415611609576040517f1fcd583900000000000000000000000000000000000000000000000000000000815260040160405180910390fd5b80600001600081548092919061161e90613083565b919050555060018260ff1614156116ec5780600101600881819054906101000a900467ffffffffffffffff1680929190611657906130cc565b91906101000a81548167ffffffffffffffff021916908367ffffffffffffffff1602179055505080600101601881819054906101000a900467ffffffffffffffff16809291906116a6906130cc565b91906101000a81548167ffffffffffffffff021916908367ffffffffffffffff160217905550506116e76116d8611dfc565b6801158e460913d00000611ffe565b611c46565b60028260ff1614156117b55780600101600881819054906101000a900467ffffffffffffffff1680929190611720906130cc565b91906101000a81548167ffffffffffffffff021916908367ffffffffffffffff1602179055505080600101601881819054906101000a900467ffffffffffffffff168092919061176f906130cc565b91906101000a81548167ffffffffffffffff021916908367ffffffffffffffff160217905550506117b06117a1611dfc565b6801158e460913d00000611ffe565b611c45565b60038260ff16141561187e5780600101600881819054906101000a900467ffffffffffffffff16809291906117e9906130cc565b91906101000a81548167ffffffffffffffff021916908367ffffffffffffffff1602179055505080600101601881819054906101000a900467ffffffffffffffff1680929190611838906130cc565b91906101000a81548167ffffffffffffffff021916908367ffffffffffffffff1602179055505061187961186a611dfc565b6801158e460913d00000611ffe565b611c44565b60048260ff1614156119465780600101600881819054906101000a900467ffffffffffffffff16809291906118b2906130cc565b91906101000a81548167ffffffffffffffff021916908367ffffffffffffffff1602179055505080600101601881819054906101000a900467ffffffffffffffff1680929190611901906130cc565b91906101000a81548167ffffffffffffffff021916908367ffffffffffffffff16021790555050611941611933611dfc565b67a688906bd8b00000611ffe565b611c43565b60058260ff161415611a0e5780600101600881819054906101000a900467ffffffffffffffff168092919061197a906130cc565b91906101000a81548167ffffffffffffffff021916908367ffffffffffffffff1602179055505080600101601881819054906101000a900467ffffffffffffffff16809291906119c9906130cc565b91906101000a81548167ffffffffffffffff021916908367ffffffffffffffff16021790555050611a096119fb611dfc565b67a688906bd8b00000611ffe565b611c42565b60068260ff161415611ad65780600101600881819054906101000a900467ffffffffffffffff1680929190611a42906130cc565b91906101000a81548167ffffffffffffffff021916908367ffffffffffffffff1602179055505080600101601881819054906101000a900467ffffffffffffffff1680929190611a91906130cc565b91906101000a81548167ffffffffffffffff021916908367ffffffffffffffff16021790555050611ad1611ac3611dfc565b676124fee993bc0000611ffe565b611c41565b60078260ff161415611b9e5780600101600881819054906101000a900467ffffffffffffffff1680929190611b0a906130cc565b91906101000a81548167ffffffffffffffff021916908367ffffffffffffffff1602179055505080600101601881819054906101000a900467ffffffffffffffff1680929190611b59906130cc565b91906101000a81548167ffffffffffffffff021916908367ffffffffffffffff16021790555050611b99611b8b611dfc565b676124fee993bc0000611ffe565b611c40565b60088260ff161415611c3f5760008160010160086101000a81548167ffffffffffffffff021916908367ffffffffffffffff16021790555080600101600081819054906101000a900467ffffffffffffffff1680929190611bfe906130cc565b91906101000a81548167ffffffffffffffff021916908367ffffffffffffffff16021790555050611c3e611c30611dfc565b676124fee993bc0000611ffe565b5b5b5b5b5b5b5b5b8060010160109054906101000a900467ffffffffffffffff1667ffffffffffffffff168160010160089054906101000a900467ffffffffffffffff1667ffffffffffffffff1610611cd5578060010160089054906101000a900467ffffffffffffffff168160010160106101000a81548167ffffffffffffffff021916908367ffffffffffffffff1602179055505b5050565b600e6000611ce5611dfc565b73ffffffffffffffffffffffffffffffffffffffff1673ffffffffffffffffffffffffffffffffffffffff16815260200190815260200160002060009054906101000a900460ff1615611d64576040517f53733ff700000000000000000000000000000000000000000000000000000000815260040160405180910390fd5b6001600e6000611d72611dfc565b73ffffffffffffffffffffffffffffffffffffffff1673ffffffffffffffffffffffffffffffffffffffff16815260200190815260200160002060006101000a81548160ff021916908315150217905550611ddd611dce611dfc565b68056bc75e2d63100000611ffe565b565b6001600860146101000a81548160ff021916908315150217905550565b60006014600036905010158015611e185750611e173361092f565b5b15611e2c57601436033560601c9050611e30565b3390505b90565b600073ffffffffffffffffffffffffffffffffffffffff168373ffffffffffffffffffffffffffffffffffffffff161415611ea3576040517f08c379a0000000000000000000000000000000000000000000000000000000008152600401611e9a90612dab565b60405180910390fd5b600073ffffffffffffffffffffffffffffffffffffffff168273ffffffffffffffffffffffffffffffffffffffff161415611f13576040517f08c379a0000000000000000000000000000000000000000000000000000000008152600401611f0a90612d2b565b60405180910390fd5b80600160008573ffffffffffffffffffffffffffffffffffffffff1673ffffffffffffffffffffffffffffffffffffffff16815260200190815260200160002060008473ffffffffffffffffffffffffffffffffffffffff1673ffffffffffffffffffffffffffffffffffffffff168152602001908152602001600020819055508173ffffffffffffffffffffffffffffffffffffffff168373ffffffffffffffffffffffffffffffffffffffff167f8c5be1e5ebec7d5bd14f71427d1e84f3dd0314c0f7b2291e5b200ac8c7c3b92583604051611ff19190612e26565b60405180910390a3505050565b600073ffffffffffffffffffffffffffffffffffffffff168273ffffffffffffffffffffffffffffffffffffffff16141561206e576040517f08c379a000000000000000000000000000000000000000000000000000000000815260040161206590612deb565b60405180910390fd5b61207a6000838361259c565b806002600082825461208c9190612f3d565b92505081905550806000808473ffffffffffffffffffffffffffffffffffffffff1673ffffffffffffffffffffffffffffffffffffffff16815260200190815260200160002060008282546120e19190612f3d565b925050819055508173ffffffffffffffffffffffffffffffffffffffff16600073ffffffffffffffffffffffffffffffffffffffff167fddf252ad1be2c89b69c2b068fc378daa952ba7f163c4a11628f55a4df523b3ef836040516121469190612e26565b60405180910390a361215a600083836125a1565b5050565b600061216a84846113f7565b90507fffffffffffffffffffffffffffffffffffffffffffffffffffffffffffffffff81146121e457818110156121d6576040517f08c379a00000000000000000000000000000000000000000000000000000000081526004016121cd90612d4b565b60405180910390fd5b6121e38484848403611e33565b5b50505050565b600073ffffffffffffffffffffffffffffffffffffffff168373ffffffffffffffffffffffffffffffffffffffff16141561225a576040517f08c379a000000000000000000000000000000000000000000000000000000000815260040161225190612d8b565b60405180910390fd5b600073ffffffffffffffffffffffffffffffffffffffff168273ffffffffffffffffffffffffffffffffffffffff1614156122ca576040517f08c379a00000000000000000000000000000000000000000000000000000000081526004016122c190612d0b565b60405180910390fd5b6122d583838361259c565b60008060008573ffffffffffffffffffffffffffffffffffffffff1673ffffffffffffffffffffffffffffffffffffffff1681526020019081526020016000205490508181101561235b576040517f08c379a000000000000000000000000000000000000000000000000000000000815260040161235290612d6b565b60405180910390fd5b8181036000808673ffffffffffffffffffffffffffffffffffffffff1673ffffffffffffffffffffffffffffffffffffffff16815260200190815260200160002081905550816000808573ffffffffffffffffffffffffffffffffffffffff1673ffffffffffffffffffffffffffffffffffffffff16815260200190815260200160002060008282546123ee9190612f3d565b925050819055508273ffffffffffffffffffffffffffffffffffffffff168473ffffffffffffffffffffffffffffffffffffffff167fddf252ad1be2c89b69c2b068fc378daa952ba7f163c4a11628f55a4df523b3ef846040516124529190612e26565b60405180910390a36124658484846125a1565b50505050565b60006124756125a6565b600754901c90506000805b600a805490508110156124db57600a8361249a919061312b565b600a82815481106124ae576124ad613218565b5b906000526020600020015414156124c857600191506124db565b80806124d390613083565b915050612480565b508061251657600a80836124ef919061312b565b90806001815401808255809150506001900390600052602060002001600090919091909150555b5050565b5b6000600a80549050111561255657600a80548061253b5761253a6131e9565b5b6001900381819060005260206000200160009055905561251b565b565b80600560006101000a81548173ffffffffffffffffffffffffffffffffffffffff021916908373ffffffffffffffffffffffffffffffffffffffff16021790555050565b505050565b505050565b600080600a90506001600660008282546125c09190612f3d565b9250508190555080426006546125d4611dfc565b6040516020016125e693929190612c32565b6040516020818303038152906040528051906020012060001c612609919061312b565b91505090565b6040518060a0016040528060008152602001600067ffffffffffffffff168152602001600067ffffffffffffffff168152602001600067ffffffffffffffff168152602001600067ffffffffffffffff1681525090565b6040518060400160405280600073ffffffffffffffffffffffffffffffffffffffff16815260200160006bffffffffffffffffffffffff1681525090565b6000813590506126b3816134c5565b92915050565b6000813590506126c8816134dc565b92915050565b6000815190506126dd816134dc565b92915050565b6000813590506126f2816134f3565b92915050565b60006020828403121561270e5761270d613276565b5b600061271c848285016126a4565b91505092915050565b6000806040838503121561273c5761273b613276565b5b600061274a858286016126a4565b925050602061275b858286016126a4565b9150509250929050565b60008060006060848603121561277e5761277d613276565b5b600061278c868287016126a4565b935050602061279d868287016126a4565b92505060406127ae868287016126b9565b9150509250925092565b600080604083850312156127cf576127ce613276565b5b60006127dd858286016126a4565b92505060206127ee858286016126b9565b9150509250929050565b60006020828403121561280e5761280d613276565b5b600061281c848285016126b9565b91505092915050565b60006020828403121561283b5761283a613276565b5b6000612849848285016126ce565b91505092915050565b60006020828403121561286857612867613276565b5b6000612876848285016126e3565b91505092915050565b600061288b83836129af565b60208301905092915050565b60006128a38383612b0f565b60408301905092915050565b6128b881612f93565b82525050565b6128c781612f93565b82525050565b6128de6128d982612f93565b6130fd565b82525050565b60006128ef82612ecf565b6128f98185612f0a565b935061290483612eaf565b8060005b8381101561293557815161291c888261287f565b975061292783612ef0565b925050600181019050612908565b5085935050505092915050565b600061294d82612eda565b6129578185612f1b565b935061296283612ebf565b8060005b8381101561299357815161297a8882612897565b975061298583612efd565b925050600181019050612966565b5085935050505092915050565b6129a981612fa5565b82525050565b6129b881612fb1565b82525050565b60006129c982612ee5565b6129d38185612f2c565b93506129e381856020860161301e565b6129ec8161327b565b840191505092915050565b6000612a04602383612f2c565b9150612a0f82613299565b604082019050919050565b6000612a27602283612f2c565b9150612a32826132e8565b604082019050919050565b6000612a4a601d83612f2c565b9150612a5582613337565b602082019050919050565b6000612a6d602683612f2c565b9150612a7882613360565b604082019050919050565b6000612a90602583612f2c565b9150612a9b826133af565b604082019050919050565b6000612ab3602483612f2c565b9150612abe826133fe565b604082019050919050565b6000612ad6602583612f2c565b9150612ae18261344d565b604082019050919050565b6000612af9601f83612f2c565b9150612b048261349c565b602082019050919050565b604082016000820151612b2560008501826128af565b506020820151612b386020850182612c08565b50505050565b60a082016000820151612b546000850182612ba6565b506020820151612b676020850182612bdb565b506040820151612b7a6040850182612bdb565b506060820151612b8d6060850182612bdb565b506080820151612ba06080850182612bdb565b50505050565b612baf81612fdb565b82525050565b612bbe81612fdb565b82525050565b612bd5612bd082612fdb565b613121565b82525050565b612be481612fe5565b82525050565b612bf381612fe5565b82525050565b612c0281612ff9565b82525050565b612c1181613006565b82525050565b6000612c238284612bc4565b60208201915081905092915050565b6000612c3e8286612bc4565b602082019150612c4e8285612bc4565b602082019150612c5e82846128cd565b601482019150819050949350505050565b6000602082019050612c8460008301846128be565b92915050565b60006020820190508181036000830152612ca481846128e4565b905092915050565b60006020820190508181036000830152612cc68184612942565b905092915050565b6000602082019050612ce360008301846129a0565b92915050565b60006020820190508181036000830152612d0381846129be565b905092915050565b60006020820190508181036000830152612d24816129f7565b9050919050565b60006020820190508181036000830152612d4481612a1a565b9050919050565b60006020820190508181036000830152612d6481612a3d565b9050919050565b60006020820190508181036000830152612d8481612a60565b9050919050565b60006020820190508181036000830152612da481612a83565b9050919050565b60006020820190508181036000830152612dc481612aa6565b9050919050565b60006020820190508181036000830152612de481612ac9565b9050919050565b60006020820190508181036000830152612e0481612aec565b9050919050565b600060a082019050612e206000830184612b3e565b92915050565b6000602082019050612e3b6000830184612bb5565b92915050565b600060a082019050612e566000830188612bb5565b612e636020830187612bea565b612e706040830186612bea565b612e7d6060830185612bea565b612e8a6080830184612bea565b9695505050505050565b6000602082019050612ea96000830184612bf9565b92915050565b6000819050602082019050919050565b6000819050602082019050919050565b600081519050919050565b600081519050919050565b600081519050919050565b6000602082019050919050565b6000602082019050919050565b600082825260208201905092915050565b600082825260208201905092915050565b600082825260208201905092915050565b6000612f4882612fdb565b9150612f5383612fdb565b9250827fffffffffffffffffffffffffffffffffffffffffffffffffffffffffffffffff03821115612f8857612f8761315c565b5b828201905092915050565b6000612f9e82612fbb565b9050919050565b60008115159050919050565b6000819050919050565b600073ffffffffffffffffffffffffffffffffffffffff82169050919050565b6000819050919050565b600067ffffffffffffffff82169050919050565b600060ff82169050919050565b60006bffffffffffffffffffffffff82169050919050565b60005b8381101561303c578082015181840152602081019050613021565b8381111561304b576000848401525b50505050565b6000600282049050600182168061306957607f821691505b6020821081141561307d5761307c6131ba565b5b50919050565b600061308e82612fdb565b91507fffffffffffffffffffffffffffffffffffffffffffffffffffffffffffffffff8214156130c1576130c061315c565b5b600182019050919050565b60006130d782612fe5565b915067ffffffffffffffff8214156130f2576130f161315c565b5b600182019050919050565b60006131088261310f565b9050919050565b600061311a8261328c565b9050919050565b6000819050919050565b600061313682612fdb565b915061314183612fdb565b9250826131515761315061318b565b5b828206905092915050565b7f4e487b7100000000000000000000000000000000000000000000000000000000600052601160045260246000fd5b7f4e487b7100000000000000000000000000000000000000000000000000000000600052601260045260246000fd5b7f4e487b7100000000000000000000000000000000000000000000000000000000600052602260045260246000fd5b7f4e487b7100000000000000000000000000000000000000000000000000000000600052603160045260246000fd5b7f4e487b7100000000000000000000000000000000000000000000000000000000600052603260045260246000fd5b7f4e487b7100000000000000000000000000000000000000000000000000000000600052604160045260246000fd5b600080fd5b6000601f19601f8301169050919050565b60008160601b9050919050565b7f45524332303a207472616e7366657220746f20746865207a65726f206164647260008201527f6573730000000000000000000000000000000000000000000000000000000000602082015250565b7f45524332303a20617070726f766520746f20746865207a65726f20616464726560008201527f7373000000000000000000000000000000000000000000000000000000000000602082015250565b7f45524332303a20696e73756666696369656e7420616c6c6f77616e6365000000600082015250565b7f45524332303a207472616e7366657220616d6f756e742065786365656473206260008201527f616c616e63650000000000000000000000000000000000000000000000000000602082015250565b7f45524332303a207472616e736665722066726f6d20746865207a65726f20616460008201527f6472657373000000000000000000000000000000000000000000000000000000602082015250565b7f45524332303a20617070726f76652066726f6d20746865207a65726f2061646460008201527f7265737300000000000000000000000000000000000000000000000000000000602082015250565b7f45524332303a2064656372656173656420616c6c6f77616e63652062656c6f7760008201527f207a65726f000000000000000000000000000000000000000000000000000000602082015250565b7f45524332303a206d696e7420746f20746865207a65726f206164647265737300600082015250565b6134ce81612f93565b81146134d957600080fd5b50565b6134e581612fdb565b81146134f057600080fd5b50565b6134fc81612ff9565b811461350757600080fd5b5056fea26469706673582212205f303cef8a95692e52c35eb4f10012c48f2e7f981de766db82001d0180f3c3c564736f6c63430008070033",
  "linkReferences": {},
  "deployedLinkReferences": {}
}