{
  "_format": "hh-sol-artifact-1",
  "contractName": "DOW",
  "sourceName": "contracts/DOWcon.sol",
  "abi": [
    {
      "inputs": [
        {
          "internalType": "address",
          "name": "VRFaddress",
          "type": "address"
        }
      ],
      "stateMutability": "nonpayable",
      "type": "constructor"
    },
    {
      "inputs": [],
      "name": "AlreadyClaimedFreeTokens",
      "type": "error"
    },
    {
      "inputs": [],
      "name": "Enter4Numbers",
      "type": "error"
    },
    {
      "inputs": [],
      "name": "InsufficientTokens",
      "type": "error"
    },
    {
      "inputs": [],
      "name": "NotOwner",
      "type": "error"
    },
    {
      "inputs": [],
      "name": "NumbersMustBeUnique",
      "type": "error"
    },
    {
      "inputs": [],
      "name": "PlayerHasNotPlayed",
      "type": "error"
    },
    {
      "inputs": [],
      "name": "YouLost",
      "type": "error"
    },
    {
      "anonymous": false,
      "inputs": [
        {
          "indexed": true,
          "internalType": "address",
          "name": "owner",
          "type": "address"
        },
        {
          "indexed": true,
          "internalType": "address",
          "name": "spender",
          "type": "address"
        },
        {
          "indexed": false,
          "internalType": "uint256",
          "name": "value",
          "type": "uint256"
        }
      ],
      "name": "Approval",
      "type": "event"
    },
    {
      "anonymous": false,
      "inputs": [
        {
          "indexed": false,
          "internalType": "bytes32[]",
          "name": "compNum",
          "type": "bytes32[]"
        }
      ],
      "name": "PlayerNumbers",
      "type": "event"
    },
    {
      "anonymous": false,
      "inputs": [
        {
          "indexed": true,
          "internalType": "address",
          "name": "from",
          "type": "address"
        },
        {
          "indexed": true,
          "internalType": "address",
          "name": "to",
          "type": "address"
        },
        {
          "indexed": false,
          "internalType": "uint256",
          "name": "value",
          "type": "uint256"
        }
      ],
      "name": "Transfer",
      "type": "event"
    },
    {
      "anonymous": false,
      "inputs": [
        {
          "indexed": false,
          "internalType": "uint256[]",
          "name": "compNumber",
          "type": "uint256[]"
        }
      ],
      "name": "compNumber",
      "type": "event"
    },
    {
      "inputs": [],
      "name": "LeaderBoard",
      "outputs": [
        {
          "components": [
            {
              "internalType": "address",
              "name": "playerAddress",
              "type": "address"
            },
            {
              "internalType": "uint96",
              "name": "wins",
              "type": "uint96"
            }
          ],
          "internalType": "struct DOW.PlayerScore[]",
          "name": "leaderBoard",
          "type": "tuple[]"
        }
      ],
      "stateMutability": "view",
      "type": "function"
    },
    {
      "inputs": [
        {
          "internalType": "address",
          "name": "",
          "type": "address"
        }
      ],
      "name": "PlayerStruct",
      "outputs": [
        {
          "internalType": "uint256",
          "name": "gamesPlayed",
          "type": "uint256"
        },
        {
          "internalType": "uint64",
          "name": "gamesLost",
          "type": "uint64"
        },
        {
          "internalType": "uint64",
          "name": "currentWinStreak",
          "type": "uint64"
        },
        {
          "internalType": "uint64",
          "name": "maxWinStreak",
          "type": "uint64"
        },
        {
          "internalType": "uint64",
          "name": "gamesWon",
          "type": "uint64"
        }
      ],
      "stateMutability": "view",
      "type": "function"
    },
    {
      "inputs": [
        {
          "internalType": "address",
          "name": "owner",
          "type": "address"
        },
        {
          "internalType": "address",
          "name": "spender",
          "type": "address"
        }
      ],
      "name": "allowance",
      "outputs": [
        {
          "internalType": "uint256",
          "name": "",
          "type": "uint256"
        }
      ],
      "stateMutability": "view",
      "type": "function"
    },
    {
      "inputs": [
        {
          "internalType": "address",
          "name": "spender",
          "type": "address"
        },
        {
          "internalType": "uint256",
          "name": "amount",
          "type": "uint256"
        }
      ],
      "name": "approve",
      "outputs": [
        {
          "internalType": "bool",
          "name": "",
          "type": "bool"
        }
      ],
      "stateMutability": "nonpayable",
      "type": "function"
    },
    {
      "inputs": [
        {
          "internalType": "address",
          "name": "account",
          "type": "address"
        }
      ],
      "name": "balanceOf",
      "outputs": [
        {
          "internalType": "uint256",
          "name": "",
          "type": "uint256"
        }
      ],
      "stateMutability": "view",
      "type": "function"
    },
    {
      "inputs": [],
      "name": "checkStreak",
      "outputs": [
        {
          "components": [
            {
              "internalType": "uint256",
              "name": "gamesPlayed",
              "type": "uint256"
            },
            {
              "internalType": "uint64",
              "name": "gamesLost",
              "type": "uint64"
            },
            {
              "internalType": "uint64",
              "name": "currentWinStreak",
              "type": "uint64"
            },
            {
              "internalType": "uint64",
              "name": "maxWinStreak",
              "type": "uint64"
            },
            {
              "internalType": "uint64",
              "name": "gamesWon",
              "type": "uint64"
            }
          ],
          "internalType": "struct DOW.Player",
          "name": "",
          "type": "tuple"
        }
      ],
      "stateMutability": "view",
      "type": "function"
    },
    {
      "inputs": [
        {
          "internalType": "uint8",
          "name": "trial",
          "type": "uint8"
        }
      ],
      "name": "checkTrials",
      "outputs": [],
      "stateMutability": "nonpayable",
      "type": "function"
    },
    {
      "inputs": [],
      "name": "claimFreeTokens",
      "outputs": [],
      "stateMutability": "nonpayable",
      "type": "function"
    },
    {
      "inputs": [
        {
          "internalType": "uint256",
          "name": "",
          "type": "uint256"
        }
      ],
      "name": "compNum",
      "outputs": [
        {
          "internalType": "uint256",
          "name": "",
          "type": "uint256"
        }
      ],
      "stateMutability": "view",
      "type": "function"
    },
    {
      "inputs": [],
      "name": "decimals",
      "outputs": [
        {
          "internalType": "uint8",
          "name": "",
          "type": "uint8"
        }
      ],
      "stateMutability": "view",
      "type": "function"
    },
    {
      "inputs": [
        {
          "internalType": "address",
          "name": "spender",
          "type": "address"
        },
        {
          "internalType": "uint256",
          "name": "subtractedValue",
          "type": "uint256"
        }
      ],
      "name": "decreaseAllowance",
      "outputs": [
        {
          "internalType": "bool",
          "name": "",
          "type": "bool"
        }
      ],
      "stateMutability": "nonpayable",
      "type": "function"
    },
    {
      "inputs": [],
      "name": "generateRandomNumber",
      "outputs": [],
      "stateMutability": "nonpayable",
      "type": "function"
    },
    {
      "inputs": [
        {
          "internalType": "address",
          "name": "spender",
          "type": "address"
        },
        {
          "internalType": "uint256",
          "name": "addedValue",
          "type": "uint256"
        }
      ],
      "name": "increaseAllowance",
      "outputs": [
        {
          "internalType": "bool",
          "name": "",
          "type": "bool"
        }
      ],
      "stateMutability": "nonpayable",
      "type": "function"
    },
    {
      "inputs": [],
      "name": "name",
      "outputs": [
        {
          "internalType": "string",
          "name": "",
          "type": "string"
        }
      ],
      "stateMutability": "view",
      "type": "function"
    },
    {
      "inputs": [],
      "name": "randNum",
      "outputs": [
        {
          "internalType": "uint256",
          "name": "",
          "type": "uint256"
        }
      ],
      "stateMutability": "view",
      "type": "function"
    },
    {
      "inputs": [],
      "name": "setToNotUseVRF",
      "outputs": [],
      "stateMutability": "nonpayable",
      "type": "function"
    },
    {
      "inputs": [],
      "name": "setToUseVRF",
      "outputs": [],
      "stateMutability": "nonpayable",
      "type": "function"
    },
    {
      "inputs": [],
      "name": "startGame",
      "outputs": [
        {
          "internalType": "bytes32[]",
          "name": "playerNumbers",
          "type": "bytes32[]"
        }
      ],
      "stateMutability": "nonpayable",
      "type": "function"
    },
    {
      "inputs": [],
      "name": "symbol",
      "outputs": [
        {
          "internalType": "string",
          "name": "",
          "type": "string"
        }
      ],
      "stateMutability": "view",
      "type": "function"
    },
    {
      "inputs": [],
      "name": "totalSupply",
      "outputs": [
        {
          "internalType": "uint256",
          "name": "",
          "type": "uint256"
        }
      ],
      "stateMutability": "view",
      "type": "function"
    },
    {
      "inputs": [
        {
          "internalType": "address",
          "name": "to",
          "type": "address"
        },
        {
          "internalType": "uint256",
          "name": "amount",
          "type": "uint256"
        }
      ],
      "name": "transfer",
      "outputs": [
        {
          "internalType": "bool",
          "name": "",
          "type": "bool"
        }
      ],
      "stateMutability": "nonpayable",
      "type": "function"
    },
    {
      "inputs": [
        {
          "internalType": "address",
          "name": "from",
          "type": "address"
        },
        {
          "internalType": "address",
          "name": "to",
          "type": "address"
        },
        {
          "internalType": "uint256",
          "name": "amount",
          "type": "uint256"
        }
      ],
      "name": "transferFrom",
      "outputs": [
        {
          "internalType": "bool",
          "name": "",
          "type": "bool"
        }
      ],
      "stateMutability": "nonpayable",
      "type": "function"
    },
    {
      "inputs": [
        {
          "internalType": "uint256",
          "name": "_amount",
          "type": "uint256"
        }
      ],
      "name": "transferToCreator",
      "outputs": [],
      "stateMutability": "nonpayable",
      "type": "function"
    }
  ],
  "bytecode": "0x60806040523480156200001157600080fd5b50604051620034e5380380620034e5833981810160405281019062000037919062000227565b6040518060400160405280600f81526020017f44656164206f7220576f756e64656400000000000000000000000000000000008152506040518060400160405280600381526020017f444f5700000000000000000000000000000000000000000000000000000000008152508160039080519060200190620000bb92919062000160565b508060049080519060200190620000d492919062000160565b50505033600760006101000a81548173ffffffffffffffffffffffffffffffffffffffff021916908373ffffffffffffffffffffffffffffffffffffffff16021790555080600860006101000a81548173ffffffffffffffffffffffffffffffffffffffff021916908373ffffffffffffffffffffffffffffffffffffffff1602179055505062000311565b8280546200016e906200028d565b90600052602060002090601f016020900481019282620001925760008555620001de565b82601f10620001ad57805160ff1916838001178555620001de565b82800160010185558215620001de579182015b82811115620001dd578251825591602001919060010190620001c0565b5b509050620001ed9190620001f1565b5090565b5b808211156200020c576000816000905550600101620001f2565b5090565b6000815190506200022181620002f7565b92915050565b60006020828403121562000240576200023f620002f2565b5b6000620002508482850162000210565b91505092915050565b600062000266826200026d565b9050919050565b600073ffffffffffffffffffffffffffffffffffffffff82169050919050565b60006002820490506001821680620002a657607f821691505b60208210811415620002bd57620002bc620002c3565b5b50919050565b7f4e487b7100000000000000000000000000000000000000000000000000000000600052602260045260246000fd5b600080fd5b620003028162000259565b81146200030e57600080fd5b50565b6131c480620003216000396000f3fe608060405234801561001057600080fd5b506004361061014d5760003560e01c806373fde543116100c3578063b1513e9e1161007c578063b1513e9e146103ce578063d65ab5f2146103d8578063dd62ed3e146103f6578063e297038814610426578063f14d218114610442578063f52a6a411461044c5761014d565b806373fde5431461030a578063773a11541461032857806395d89b41146103325780639ac8c0ef14610350578063a457c2d71461036e578063a9059cbb1461039e5761014d565b806323b872dd1161011557806323b872dd1461020a578063313ce5671461023a578063395093511461025857806355cd16e2146102885780635c53d334146102a657806370a08231146102da5761014d565b806306fdde0314610152578063095ea7b3146101705780630b4dab98146101a05780630de079b1146101bc57806318160ddd146101ec575b600080fd5b61015a610456565b604051610167919061296d565b60405180910390f35b61018a60048036038101906101859190612466565b6104e8565b6040516101979190612952565b60405180910390f35b6101ba60048036038101906101b591906124a6565b61050b565b005b6101d660048036038101906101d191906124a6565b6105c1565b6040516101e39190612aaa565b60405180910390f35b6101f46105e5565b6040516102019190612aaa565b60405180910390f35b610224600480360381019061021f9190612413565b6105ef565b6040516102319190612952565b60405180910390f35b61024261061e565b60405161024f9190612b18565b60405180910390f35b610272600480360381019061026d9190612466565b610627565b60405161027f9190612952565b60405180910390f35b6102906106d1565b60405161029d9190612a8f565b60405180910390f35b6102c060048036038101906102bb91906123a6565b610800565b6040516102d1959493929190612ac5565b60405180910390f35b6102f460048036038101906102ef91906123a6565b610886565b6040516103019190612aaa565b60405180910390f35b6103126108ce565b60405161031f9190612930565b60405180910390f35b610330610ac8565b005b61033a610bf2565b604051610347919061296d565b60405180910390f35b610358610c84565b6040516103659190612aaa565b60405180910390f35b61038860048036038101906103839190612466565b610c8a565b6040516103959190612952565b60405180910390f35b6103b860048036038101906103b39190612466565b610d74565b6040516103c59190612952565b60405180910390f35b6103d6610d97565b005b6103e0610db4565b6040516103ed919061290e565b60405180910390f35b610410600480360381019061040b91906123d3565b611213565b60405161041d9190612aaa565b60405180910390f35b610440600480360381019061043b9190612500565b61129a565b005b61044a611a15565b005b610454611b06565b005b60606003805461046590612cd5565b80601f016020809104026020016040519081016040528092919081815260200182805461049190612cd5565b80156104de5780601f106104b3576101008083540402835291602001916104de565b820191906000526020600020905b8154815290600101906020018083116104c157829003601f168201915b5050505050905090565b6000806104f3611b23565b9050610500818585611b2b565b600191505092915050565b600760009054906101000a900473ffffffffffffffffffffffffffffffffffffffff1673ffffffffffffffffffffffffffffffffffffffff163373ffffffffffffffffffffffffffffffffffffffff1614610592576040517f30cd747100000000000000000000000000000000000000000000000000000000815260040160405180910390fd5b6105be600760009054906101000a900473ffffffffffffffffffffffffffffffffffffffff1682611cf6565b50565b600981815481106105d157600080fd5b906000526020600020016000915090505481565b6000600254905090565b6000806105fa611b23565b9050610607858285611e56565b610612858585611ee2565b60019150509392505050565b60006012905090565b600080610632611b23565b90506106c6818585600160008673ffffffffffffffffffffffffffffffffffffffff1673ffffffffffffffffffffffffffffffffffffffff16815260200190815260200160002060008973ffffffffffffffffffffffffffffffffffffffff1673ffffffffffffffffffffffffffffffffffffffff168152602001908152602001600020546106c19190612bc1565b611b2b565b600191505092915050565b6106d96122bd565b6000600b60003373ffffffffffffffffffffffffffffffffffffffff1673ffffffffffffffffffffffffffffffffffffffff1681526020019081526020016000209050806040518060a0016040529081600082015481526020016001820160009054906101000a900467ffffffffffffffff1667ffffffffffffffff1667ffffffffffffffff1681526020016001820160089054906101000a900467ffffffffffffffff1667ffffffffffffffff1667ffffffffffffffff1681526020016001820160109054906101000a900467ffffffffffffffff1667ffffffffffffffff1667ffffffffffffffff1681526020016001820160189054906101000a900467ffffffffffffffff1667ffffffffffffffff1667ffffffffffffffff168152505091505090565b600b6020528060005260406000206000915090508060000154908060010160009054906101000a900467ffffffffffffffff16908060010160089054906101000a900467ffffffffffffffff16908060010160109054906101000a900467ffffffffffffffff16908060010160189054906101000a900467ffffffffffffffff16905085565b60008060008373ffffffffffffffffffffffffffffffffffffffff1673ffffffffffffffffffffffffffffffffffffffff168152602001908152602001600020549050919050565b6060600a8054905067ffffffffffffffff8111156108ef576108ee612ecb565b5b60405190808252806020026020018201604052801561092857816020015b610915612314565b81526020019060019003908161090d5790505b50905060005b600a80549050811015610ac4576000600b6000600a848154811061095557610954612e9c565b5b9060005260206000200160009054906101000a900473ffffffffffffffffffffffffffffffffffffffff1673ffffffffffffffffffffffffffffffffffffffff1673ffffffffffffffffffffffffffffffffffffffff1681526020019081526020016000209050600a82815481106109d0576109cf612e9c565b5b9060005260206000200160009054906101000a900473ffffffffffffffffffffffffffffffffffffffff16838381518110610a0e57610a0d612e9c565b5b60200260200101516000019073ffffffffffffffffffffffffffffffffffffffff16908173ffffffffffffffffffffffffffffffffffffffff16815250508060010160189054906101000a900467ffffffffffffffff1667ffffffffffffffff16838381518110610a8257610a81612e9c565b5b6020026020010151602001906bffffffffffffffffffffffff1690816bffffffffffffffffffffffff1681525050508080610abc90612d07565b91505061092e565b5090565b600860009054906101000a900473ffffffffffffffffffffffffffffffffffffffff1673ffffffffffffffffffffffffffffffffffffffff1663e0c862896040518163ffffffff1660e01b8152600401600060405180830381600087803b158015610b3257600080fd5b505af1158015610b46573d6000803e3d6000fd5b50505050600860009054906101000a900473ffffffffffffffffffffffffffffffffffffffff1673ffffffffffffffffffffffffffffffffffffffff1663e89e106a6040518163ffffffff1660e01b815260040160206040518083038186803b158015610bb257600080fd5b505afa158015610bc6573d6000803e3d6000fd5b505050506040513d601f19601f82011682018060405250810190610bea91906124d3565b600681905550565b606060048054610c0190612cd5565b80601f0160208091040260200160405190810160405280929190818152602001828054610c2d90612cd5565b8015610c7a5780601f10610c4f57610100808354040283529160200191610c7a565b820191906000526020600020905b815481529060010190602001808311610c5d57829003601f168201915b5050505050905090565b60065481565b600080610c95611b23565b90506000600160008373ffffffffffffffffffffffffffffffffffffffff1673ffffffffffffffffffffffffffffffffffffffff16815260200190815260200160002060008673ffffffffffffffffffffffffffffffffffffffff1673ffffffffffffffffffffffffffffffffffffffff16815260200190815260200160002054905083811015610d5b576040517f08c379a0000000000000000000000000000000000000000000000000000000008152600401610d5290612a4f565b60405180910390fd5b610d688286868403611b2b565b60019250505092915050565b600080610d7f611b23565b9050610d8c818585611ee2565b600191505092915050565b6000600760146101000a81548160ff021916908315150217905550565b6060600c60003373ffffffffffffffffffffffffffffffffffffffff1673ffffffffffffffffffffffffffffffffffffffff16815260200190815260200160002060009054906101000a900460ff16610ec3576001600c60003373ffffffffffffffffffffffffffffffffffffffff1673ffffffffffffffffffffffffffffffffffffffff16815260200190815260200160002060006101000a81548160ff021916908315150217905550600a339080600181540180825580915050600190039060005260206000200160009091909190916101000a81548173ffffffffffffffffffffffffffffffffffffffff021916908373ffffffffffffffffffffffffffffffffffffffff1602179055505b6000600b60003373ffffffffffffffffffffffffffffffffffffffff1673ffffffffffffffffffffffffffffffffffffffff1681526020019081526020016000209050674563918244f40000610f1833610886565b1015610f50576040517ff1b7e15e00000000000000000000000000000000000000000000000000000000815260040160405180910390fd5b610f633330674563918244f40000611ee2565b600467ffffffffffffffff811115610f7e57610f7d612ecb565b5b604051908082528060200260200182016040528015610fac5781602001602082028036833780820191505090505b5091505b60046009805490501015610fcb57610fc6612163565b610fb0565b6009600081548110610fe057610fdf612e9c565b5b9060005260206000200154604051602001610ffb91906128b6565b604051602081830303815290604052805190602001208260008151811061102557611024612e9c565b5b602002602001018181525050600960018154811061104657611045612e9c565b5b906000526020600020015460405160200161106191906128b6565b604051602081830303815290604052805190602001208260018151811061108b5761108a612e9c565b5b60200260200101818152505060096002815481106110ac576110ab612e9c565b5b90600052602060002001546040516020016110c791906128b6565b60405160208183030381529060405280519060200120826002815181106110f1576110f0612e9c565b5b602002602001018181525050600960038154811061111257611111612e9c565b5b906000526020600020015460405160200161112d91906128b6565b604051602081830303815290604052805190602001208260038151811061115757611156612e9c565b5b60200260200101818152505061116b612213565b6001600e60003373ffffffffffffffffffffffffffffffffffffffff1673ffffffffffffffffffffffffffffffffffffffff16815260200190815260200160002060008360000154815260200190815260200160002060006101000a81548160ff0219169083151502179055507f2d420b6adc054c35e933874423a84e095ec2c4f2f7ac7b1f9781d6858a1b7be282604051611207919061290e565b60405180910390a15090565b6000600160008473ffffffffffffffffffffffffffffffffffffffff1673ffffffffffffffffffffffffffffffffffffffff16815260200190815260200160002060008373ffffffffffffffffffffffffffffffffffffffff1673ffffffffffffffffffffffffffffffffffffffff16815260200190815260200160002054905092915050565b6000600b60003373ffffffffffffffffffffffffffffffffffffffff1673ffffffffffffffffffffffffffffffffffffffff168152602001908152602001600020905060001515600e60003373ffffffffffffffffffffffffffffffffffffffff1673ffffffffffffffffffffffffffffffffffffffff16815260200190815260200160002060008360000154815260200190815260200160002060009054906101000a900460ff161515141561137d576040517f1fcd583900000000000000000000000000000000000000000000000000000000815260040160405180910390fd5b80600001600081548092919061139290612d07565b919050555060018260ff1614156114595780600101600881819054906101000a900467ffffffffffffffff16809291906113cb90612d50565b91906101000a81548167ffffffffffffffff021916908367ffffffffffffffff1602179055505080600101601881819054906101000a900467ffffffffffffffff168092919061141a90612d50565b91906101000a81548167ffffffffffffffff021916908367ffffffffffffffff16021790555050611454336801158e460913d00000611cf6565b611982565b60028260ff16141561151b5780600101600881819054906101000a900467ffffffffffffffff168092919061148d90612d50565b91906101000a81548167ffffffffffffffff021916908367ffffffffffffffff1602179055505080600101601881819054906101000a900467ffffffffffffffff16809291906114dc90612d50565b91906101000a81548167ffffffffffffffff021916908367ffffffffffffffff16021790555050611516336801158e460913d00000611cf6565b611981565b60038260ff1614156115dd5780600101600881819054906101000a900467ffffffffffffffff168092919061154f90612d50565b91906101000a81548167ffffffffffffffff021916908367ffffffffffffffff1602179055505080600101601881819054906101000a900467ffffffffffffffff168092919061159e90612d50565b91906101000a81548167ffffffffffffffff021916908367ffffffffffffffff160217905550506115d8336801158e460913d00000611cf6565b611980565b60048260ff16141561169e5780600101600881819054906101000a900467ffffffffffffffff168092919061161190612d50565b91906101000a81548167ffffffffffffffff021916908367ffffffffffffffff1602179055505080600101601881819054906101000a900467ffffffffffffffff168092919061166090612d50565b91906101000a81548167ffffffffffffffff021916908367ffffffffffffffff160217905550506116993367a688906bd8b00000611cf6565b61197f565b60058260ff16141561175f5780600101600881819054906101000a900467ffffffffffffffff16809291906116d290612d50565b91906101000a81548167ffffffffffffffff021916908367ffffffffffffffff1602179055505080600101601881819054906101000a900467ffffffffffffffff168092919061172190612d50565b91906101000a81548167ffffffffffffffff021916908367ffffffffffffffff1602179055505061175a3367a688906bd8b00000611cf6565b61197e565b60068260ff1614156118205780600101600881819054906101000a900467ffffffffffffffff168092919061179390612d50565b91906101000a81548167ffffffffffffffff021916908367ffffffffffffffff1602179055505080600101601881819054906101000a900467ffffffffffffffff16809291906117e290612d50565b91906101000a81548167ffffffffffffffff021916908367ffffffffffffffff1602179055505061181b33676124fee993bc0000611cf6565b61197d565b60078260ff1614156118e15780600101600881819054906101000a900467ffffffffffffffff168092919061185490612d50565b91906101000a81548167ffffffffffffffff021916908367ffffffffffffffff1602179055505080600101601881819054906101000a900467ffffffffffffffff16809291906118a390612d50565b91906101000a81548167ffffffffffffffff021916908367ffffffffffffffff160217905550506118dc33676124fee993bc0000611cf6565b61197c565b60088260ff16141561197b5760008160010160086101000a81548167ffffffffffffffff021916908367ffffffffffffffff16021790555080600101600081819054906101000a900467ffffffffffffffff168092919061194190612d50565b91906101000a81548167ffffffffffffffff021916908367ffffffffffffffff1602179055505061197a33676124fee993bc0000611cf6565b5b5b5b5b5b5b5b5b8060010160109054906101000a900467ffffffffffffffff1667ffffffffffffffff168160010160089054906101000a900467ffffffffffffffff1667ffffffffffffffff1610611a11578060010160089054906101000a900467ffffffffffffffff168160010160106101000a81548167ffffffffffffffff021916908367ffffffffffffffff1602179055505b5050565b600d60003373ffffffffffffffffffffffffffffffffffffffff1673ffffffffffffffffffffffffffffffffffffffff16815260200190815260200160002060009054906101000a900460ff1615611a99576040517f53733ff700000000000000000000000000000000000000000000000000000000815260040160405180910390fd5b6001600d60003373ffffffffffffffffffffffffffffffffffffffff1673ffffffffffffffffffffffffffffffffffffffff16815260200190815260200160002060006101000a81548160ff021916908315150217905550611b043368056bc75e2d63100000611cf6565b565b6001600760146101000a81548160ff021916908315150217905550565b600033905090565b600073ffffffffffffffffffffffffffffffffffffffff168373ffffffffffffffffffffffffffffffffffffffff161415611b9b576040517f08c379a0000000000000000000000000000000000000000000000000000000008152600401611b9290612a2f565b60405180910390fd5b600073ffffffffffffffffffffffffffffffffffffffff168273ffffffffffffffffffffffffffffffffffffffff161415611c0b576040517f08c379a0000000000000000000000000000000000000000000000000000000008152600401611c02906129af565b60405180910390fd5b80600160008573ffffffffffffffffffffffffffffffffffffffff1673ffffffffffffffffffffffffffffffffffffffff16815260200190815260200160002060008473ffffffffffffffffffffffffffffffffffffffff1673ffffffffffffffffffffffffffffffffffffffff168152602001908152602001600020819055508173ffffffffffffffffffffffffffffffffffffffff168373ffffffffffffffffffffffffffffffffffffffff167f8c5be1e5ebec7d5bd14f71427d1e84f3dd0314c0f7b2291e5b200ac8c7c3b92583604051611ce99190612aaa565b60405180910390a3505050565b600073ffffffffffffffffffffffffffffffffffffffff168273ffffffffffffffffffffffffffffffffffffffff161415611d66576040517f08c379a0000000000000000000000000000000000000000000000000000000008152600401611d5d90612a6f565b60405180910390fd5b611d7260008383612251565b8060026000828254611d849190612bc1565b92505081905550806000808473ffffffffffffffffffffffffffffffffffffffff1673ffffffffffffffffffffffffffffffffffffffff1681526020019081526020016000206000828254611dd99190612bc1565b925050819055508173ffffffffffffffffffffffffffffffffffffffff16600073ffffffffffffffffffffffffffffffffffffffff167fddf252ad1be2c89b69c2b068fc378daa952ba7f163c4a11628f55a4df523b3ef83604051611e3e9190612aaa565b60405180910390a3611e5260008383612256565b5050565b6000611e628484611213565b90507fffffffffffffffffffffffffffffffffffffffffffffffffffffffffffffffff8114611edc5781811015611ece576040517f08c379a0000000000000000000000000000000000000000000000000000000008152600401611ec5906129cf565b60405180910390fd5b611edb8484848403611b2b565b5b50505050565b600073ffffffffffffffffffffffffffffffffffffffff168373ffffffffffffffffffffffffffffffffffffffff161415611f52576040517f08c379a0000000000000000000000000000000000000000000000000000000008152600401611f4990612a0f565b60405180910390fd5b600073ffffffffffffffffffffffffffffffffffffffff168273ffffffffffffffffffffffffffffffffffffffff161415611fc2576040517f08c379a0000000000000000000000000000000000000000000000000000000008152600401611fb99061298f565b60405180910390fd5b611fcd838383612251565b60008060008573ffffffffffffffffffffffffffffffffffffffff1673ffffffffffffffffffffffffffffffffffffffff16815260200190815260200160002054905081811015612053576040517f08c379a000000000000000000000000000000000000000000000000000000000815260040161204a906129ef565b60405180910390fd5b8181036000808673ffffffffffffffffffffffffffffffffffffffff1673ffffffffffffffffffffffffffffffffffffffff16815260200190815260200160002081905550816000808573ffffffffffffffffffffffffffffffffffffffff1673ffffffffffffffffffffffffffffffffffffffff16815260200190815260200160002060008282546120e69190612bc1565b925050819055508273ffffffffffffffffffffffffffffffffffffffff168473ffffffffffffffffffffffffffffffffffffffff167fddf252ad1be2c89b69c2b068fc378daa952ba7f163c4a11628f55a4df523b3ef8460405161214a9190612aaa565b60405180910390a361215d848484612256565b50505050565b600061216d61225b565b600654901c90506000805b6009805490508110156121d357600a836121929190612daf565b600982815481106121a6576121a5612e9c565b5b906000526020600020015414156121c057600191506121d3565b80806121cb90612d07565b915050612178565b508061220f576009600a836121e89190612daf565b90806001815401808255809150506001900390600052602060002001600090919091909150555b5050565b5b6000600980549050111561224f57600980548061223457612233612e6d565b5b60019003818190600052602060002001600090559055612214565b565b505050565b505050565b600080600a90506001600560008282546122759190612bc1565b92505081905550804260055433604051602001612294939291906128d1565b6040516020818303038152906040528051906020012060001c6122b79190612daf565b91505090565b6040518060a0016040528060008152602001600067ffffffffffffffff168152602001600067ffffffffffffffff168152602001600067ffffffffffffffff168152602001600067ffffffffffffffff1681525090565b6040518060400160405280600073ffffffffffffffffffffffffffffffffffffffff16815260200160006bffffffffffffffffffffffff1681525090565b60008135905061236181613149565b92915050565b60008135905061237681613160565b92915050565b60008151905061238b81613160565b92915050565b6000813590506123a081613177565b92915050565b6000602082840312156123bc576123bb612efa565b5b60006123ca84828501612352565b91505092915050565b600080604083850312156123ea576123e9612efa565b5b60006123f885828601612352565b925050602061240985828601612352565b9150509250929050565b60008060006060848603121561242c5761242b612efa565b5b600061243a86828701612352565b935050602061244b86828701612352565b925050604061245c86828701612367565b9150509250925092565b6000806040838503121561247d5761247c612efa565b5b600061248b85828601612352565b925050602061249c85828601612367565b9150509250929050565b6000602082840312156124bc576124bb612efa565b5b60006124ca84828501612367565b91505092915050565b6000602082840312156124e9576124e8612efa565b5b60006124f78482850161237c565b91505092915050565b60006020828403121561251657612515612efa565b5b600061252484828501612391565b91505092915050565b6000612539838361264e565b60208301905092915050565b600061255183836127ae565b60408301905092915050565b61256681612c17565b82525050565b61257d61257882612c17565b612d81565b82525050565b600061258e82612b53565b6125988185612b8e565b93506125a383612b33565b8060005b838110156125d45781516125bb888261252d565b97506125c683612b74565b9250506001810190506125a7565b5085935050505092915050565b60006125ec82612b5e565b6125f68185612b9f565b935061260183612b43565b8060005b838110156126325781516126198882612545565b975061262483612b81565b925050600181019050612605565b5085935050505092915050565b61264881612c29565b82525050565b61265781612c35565b82525050565b600061266882612b69565b6126728185612bb0565b9350612682818560208601612ca2565b61268b81612eff565b840191505092915050565b60006126a3602383612bb0565b91506126ae82612f1d565b604082019050919050565b60006126c6602283612bb0565b91506126d182612f6c565b604082019050919050565b60006126e9601d83612bb0565b91506126f482612fbb565b602082019050919050565b600061270c602683612bb0565b915061271782612fe4565b604082019050919050565b600061272f602583612bb0565b915061273a82613033565b604082019050919050565b6000612752602483612bb0565b915061275d82613082565b604082019050919050565b6000612775602583612bb0565b9150612780826130d1565b604082019050919050565b6000612798601f83612bb0565b91506127a382613120565b602082019050919050565b6040820160008201516127c4600085018261255d565b5060208201516127d760208501826128a7565b50505050565b60a0820160008201516127f36000850182612845565b506020820151612806602085018261287a565b506040820151612819604085018261287a565b50606082015161282c606085018261287a565b50608082015161283f608085018261287a565b50505050565b61284e81612c5f565b82525050565b61285d81612c5f565b82525050565b61287461286f82612c5f565b612da5565b82525050565b61288381612c69565b82525050565b61289281612c69565b82525050565b6128a181612c7d565b82525050565b6128b081612c8a565b82525050565b60006128c28284612863565b60208201915081905092915050565b60006128dd8286612863565b6020820191506128ed8285612863565b6020820191506128fd828461256c565b601482019150819050949350505050565b600060208201905081810360008301526129288184612583565b905092915050565b6000602082019050818103600083015261294a81846125e1565b905092915050565b6000602082019050612967600083018461263f565b92915050565b60006020820190508181036000830152612987818461265d565b905092915050565b600060208201905081810360008301526129a881612696565b9050919050565b600060208201905081810360008301526129c8816126b9565b9050919050565b600060208201905081810360008301526129e8816126dc565b9050919050565b60006020820190508181036000830152612a08816126ff565b9050919050565b60006020820190508181036000830152612a2881612722565b9050919050565b60006020820190508181036000830152612a4881612745565b9050919050565b60006020820190508181036000830152612a6881612768565b9050919050565b60006020820190508181036000830152612a888161278b565b9050919050565b600060a082019050612aa460008301846127dd565b92915050565b6000602082019050612abf6000830184612854565b92915050565b600060a082019050612ada6000830188612854565b612ae76020830187612889565b612af46040830186612889565b612b016060830185612889565b612b0e6080830184612889565b9695505050505050565b6000602082019050612b2d6000830184612898565b92915050565b6000819050602082019050919050565b6000819050602082019050919050565b600081519050919050565b600081519050919050565b600081519050919050565b6000602082019050919050565b6000602082019050919050565b600082825260208201905092915050565b600082825260208201905092915050565b600082825260208201905092915050565b6000612bcc82612c5f565b9150612bd783612c5f565b9250827fffffffffffffffffffffffffffffffffffffffffffffffffffffffffffffffff03821115612c0c57612c0b612de0565b5b828201905092915050565b6000612c2282612c3f565b9050919050565b60008115159050919050565b6000819050919050565b600073ffffffffffffffffffffffffffffffffffffffff82169050919050565b6000819050919050565b600067ffffffffffffffff82169050919050565b600060ff82169050919050565b60006bffffffffffffffffffffffff82169050919050565b60005b83811015612cc0578082015181840152602081019050612ca5565b83811115612ccf576000848401525b50505050565b60006002820490506001821680612ced57607f821691505b60208210811415612d0157612d00612e3e565b5b50919050565b6000612d1282612c5f565b91507fffffffffffffffffffffffffffffffffffffffffffffffffffffffffffffffff821415612d4557612d44612de0565b5b600182019050919050565b6000612d5b82612c69565b915067ffffffffffffffff821415612d7657612d75612de0565b5b600182019050919050565b6000612d8c82612d93565b9050919050565b6000612d9e82612f10565b9050919050565b6000819050919050565b6000612dba82612c5f565b9150612dc583612c5f565b925082612dd557612dd4612e0f565b5b828206905092915050565b7f4e487b7100000000000000000000000000000000000000000000000000000000600052601160045260246000fd5b7f4e487b7100000000000000000000000000000000000000000000000000000000600052601260045260246000fd5b7f4e487b7100000000000000000000000000000000000000000000000000000000600052602260045260246000fd5b7f4e487b7100000000000000000000000000000000000000000000000000000000600052603160045260246000fd5b7f4e487b7100000000000000000000000000000000000000000000000000000000600052603260045260246000fd5b7f4e487b7100000000000000000000000000000000000000000000000000000000600052604160045260246000fd5b600080fd5b6000601f19601f8301169050919050565b60008160601b9050919050565b7f45524332303a207472616e7366657220746f20746865207a65726f206164647260008201527f6573730000000000000000000000000000000000000000000000000000000000602082015250565b7f45524332303a20617070726f766520746f20746865207a65726f20616464726560008201527f7373000000000000000000000000000000000000000000000000000000000000602082015250565b7f45524332303a20696e73756666696369656e7420616c6c6f77616e6365000000600082015250565b7f45524332303a207472616e7366657220616d6f756e742065786365656473206260008201527f616c616e63650000000000000000000000000000000000000000000000000000602082015250565b7f45524332303a207472616e736665722066726f6d20746865207a65726f20616460008201527f6472657373000000000000000000000000000000000000000000000000000000602082015250565b7f45524332303a20617070726f76652066726f6d20746865207a65726f2061646460008201527f7265737300000000000000000000000000000000000000000000000000000000602082015250565b7f45524332303a2064656372656173656420616c6c6f77616e63652062656c6f7760008201527f207a65726f000000000000000000000000000000000000000000000000000000602082015250565b7f45524332303a206d696e7420746f20746865207a65726f206164647265737300600082015250565b61315281612c17565b811461315d57600080fd5b50565b61316981612c5f565b811461317457600080fd5b50565b61318081612c7d565b811461318b57600080fd5b5056fea26469706673582212201f06bb87344692815e453b41956fec81099e6e995034fdf2e87b1bc2ab6dabf064736f6c63430008070033",
  "linkReferences": {},
  "deployedLinkReferences": {}
}