{
  "_format": "hh-sol-artifact-1",
  "contractName": "DOW",
  "sourceName": "contracts/DOW.sol",
  "abi": [
    {
      "inputs": [
        {
          "internalType": "address",
          "name": "VRFaddress",
          "type": "address"
        }
      ],
      "stateMutability": "nonpayable",
      "type": "constructor"
    },
    {
      "inputs": [],
      "name": "AlreadyClaimedFreeTokens",
      "type": "error"
    },
    {
      "inputs": [],
      "name": "Enter4Numbers",
      "type": "error"
    },
    {
      "inputs": [],
      "name": "InsufficientTokens",
      "type": "error"
    },
    {
      "inputs": [],
      "name": "NotOwner",
      "type": "error"
    },
    {
      "inputs": [],
      "name": "NumbersMustBeUnique",
      "type": "error"
    },
    {
      "inputs": [],
      "name": "PlayerHasNotPlayed",
      "type": "error"
    },
    {
      "inputs": [],
      "name": "YouLost",
      "type": "error"
    },
    {
      "anonymous": false,
      "inputs": [
        {
          "indexed": true,
          "internalType": "address",
          "name": "owner",
          "type": "address"
        },
        {
          "indexed": true,
          "internalType": "address",
          "name": "spender",
          "type": "address"
        },
        {
          "indexed": false,
          "internalType": "uint256",
          "name": "value",
          "type": "uint256"
        }
      ],
      "name": "Approval",
      "type": "event"
    },
    {
      "anonymous": false,
      "inputs": [
        {
          "indexed": false,
          "internalType": "bytes32[]",
          "name": "compNum",
          "type": "bytes32[]"
        }
      ],
      "name": "PlayerNumbers",
      "type": "event"
    },
    {
      "anonymous": false,
      "inputs": [
        {
          "indexed": true,
          "internalType": "address",
          "name": "from",
          "type": "address"
        },
        {
          "indexed": true,
          "internalType": "address",
          "name": "to",
          "type": "address"
        },
        {
          "indexed": false,
          "internalType": "uint256",
          "name": "value",
          "type": "uint256"
        }
      ],
      "name": "Transfer",
      "type": "event"
    },
    {
      "anonymous": false,
      "inputs": [
        {
          "indexed": false,
          "internalType": "uint256[]",
          "name": "compNumber",
          "type": "uint256[]"
        }
      ],
      "name": "compNumber",
      "type": "event"
    },
    {
      "inputs": [],
      "name": "LeaderBoard",
      "outputs": [
        {
          "components": [
            {
              "internalType": "address",
              "name": "playerAddress",
              "type": "address"
            },
            {
              "internalType": "uint96",
              "name": "wins",
              "type": "uint96"
            }
          ],
          "internalType": "struct DOW.PlayerScore[]",
          "name": "leaderBoard",
          "type": "tuple[]"
        }
      ],
      "stateMutability": "view",
      "type": "function"
    },
    {
      "inputs": [
        {
          "internalType": "address",
          "name": "",
          "type": "address"
        }
      ],
      "name": "PlayerStruct",
      "outputs": [
        {
          "internalType": "uint256",
          "name": "gamesPlayed",
          "type": "uint256"
        },
        {
          "internalType": "uint64",
          "name": "gamesLost",
          "type": "uint64"
        },
        {
          "internalType": "uint64",
          "name": "currentWinStreak",
          "type": "uint64"
        },
        {
          "internalType": "uint64",
          "name": "maxWinStreak",
          "type": "uint64"
        },
        {
          "internalType": "uint64",
          "name": "gamesWon",
          "type": "uint64"
        }
      ],
      "stateMutability": "view",
      "type": "function"
    },
    {
      "inputs": [
        {
          "internalType": "address",
          "name": "owner",
          "type": "address"
        },
        {
          "internalType": "address",
          "name": "spender",
          "type": "address"
        }
      ],
      "name": "allowance",
      "outputs": [
        {
          "internalType": "uint256",
          "name": "",
          "type": "uint256"
        }
      ],
      "stateMutability": "view",
      "type": "function"
    },
    {
      "inputs": [
        {
          "internalType": "address",
          "name": "spender",
          "type": "address"
        },
        {
          "internalType": "uint256",
          "name": "amount",
          "type": "uint256"
        }
      ],
      "name": "approve",
      "outputs": [
        {
          "internalType": "bool",
          "name": "",
          "type": "bool"
        }
      ],
      "stateMutability": "nonpayable",
      "type": "function"
    },
    {
      "inputs": [
        {
          "internalType": "address",
          "name": "account",
          "type": "address"
        }
      ],
      "name": "balanceOf",
      "outputs": [
        {
          "internalType": "uint256",
          "name": "",
          "type": "uint256"
        }
      ],
      "stateMutability": "view",
      "type": "function"
    },
    {
      "inputs": [],
      "name": "checkStreak",
      "outputs": [
        {
          "components": [
            {
              "internalType": "uint256",
              "name": "gamesPlayed",
              "type": "uint256"
            },
            {
              "internalType": "uint64",
              "name": "gamesLost",
              "type": "uint64"
            },
            {
              "internalType": "uint64",
              "name": "currentWinStreak",
              "type": "uint64"
            },
            {
              "internalType": "uint64",
              "name": "maxWinStreak",
              "type": "uint64"
            },
            {
              "internalType": "uint64",
              "name": "gamesWon",
              "type": "uint64"
            }
          ],
          "internalType": "struct DOW.Player",
          "name": "",
          "type": "tuple"
        }
      ],
      "stateMutability": "view",
      "type": "function"
    },
    {
      "inputs": [
        {
          "internalType": "uint8",
          "name": "trial",
          "type": "uint8"
        }
      ],
      "name": "checkTrials",
      "outputs": [],
      "stateMutability": "nonpayable",
      "type": "function"
    },
    {
      "inputs": [],
      "name": "claimFreeTokens",
      "outputs": [],
      "stateMutability": "nonpayable",
      "type": "function"
    },
    {
      "inputs": [
        {
          "internalType": "uint256",
          "name": "",
          "type": "uint256"
        }
      ],
      "name": "compNum",
      "outputs": [
        {
          "internalType": "uint256",
          "name": "",
          "type": "uint256"
        }
      ],
      "stateMutability": "view",
      "type": "function"
    },
    {
      "inputs": [],
      "name": "decimals",
      "outputs": [
        {
          "internalType": "uint8",
          "name": "",
          "type": "uint8"
        }
      ],
      "stateMutability": "view",
      "type": "function"
    },
    {
      "inputs": [
        {
          "internalType": "address",
          "name": "spender",
          "type": "address"
        },
        {
          "internalType": "uint256",
          "name": "subtractedValue",
          "type": "uint256"
        }
      ],
      "name": "decreaseAllowance",
      "outputs": [
        {
          "internalType": "bool",
          "name": "",
          "type": "bool"
        }
      ],
      "stateMutability": "nonpayable",
      "type": "function"
    },
    {
      "inputs": [],
      "name": "generateRandomNumber",
      "outputs": [],
      "stateMutability": "nonpayable",
      "type": "function"
    },
    {
      "inputs": [
        {
          "internalType": "address",
          "name": "spender",
          "type": "address"
        },
        {
          "internalType": "uint256",
          "name": "addedValue",
          "type": "uint256"
        }
      ],
      "name": "increaseAllowance",
      "outputs": [
        {
          "internalType": "bool",
          "name": "",
          "type": "bool"
        }
      ],
      "stateMutability": "nonpayable",
      "type": "function"
    },
    {
      "inputs": [],
      "name": "name",
      "outputs": [
        {
          "internalType": "string",
          "name": "",
          "type": "string"
        }
      ],
      "stateMutability": "view",
      "type": "function"
    },
    {
      "inputs": [],
      "name": "randNum",
      "outputs": [
        {
          "internalType": "uint256",
          "name": "",
          "type": "uint256"
        }
      ],
      "stateMutability": "view",
      "type": "function"
    },
    {
      "inputs": [],
      "name": "setTNotoUseVRF",
      "outputs": [],
      "stateMutability": "nonpayable",
      "type": "function"
    },
    {
      "inputs": [],
      "name": "setToUseVRF",
      "outputs": [],
      "stateMutability": "nonpayable",
      "type": "function"
    },
    {
      "inputs": [],
      "name": "startGame",
      "outputs": [
        {
          "internalType": "bytes32[]",
          "name": "playerNumbers",
          "type": "bytes32[]"
        }
      ],
      "stateMutability": "nonpayable",
      "type": "function"
    },
    {
      "inputs": [],
      "name": "symbol",
      "outputs": [
        {
          "internalType": "string",
          "name": "",
          "type": "string"
        }
      ],
      "stateMutability": "view",
      "type": "function"
    },
    {
      "inputs": [],
      "name": "totalSupply",
      "outputs": [
        {
          "internalType": "uint256",
          "name": "",
          "type": "uint256"
        }
      ],
      "stateMutability": "view",
      "type": "function"
    },
    {
      "inputs": [
        {
          "internalType": "address",
          "name": "to",
          "type": "address"
        },
        {
          "internalType": "uint256",
          "name": "amount",
          "type": "uint256"
        }
      ],
      "name": "transfer",
      "outputs": [
        {
          "internalType": "bool",
          "name": "",
          "type": "bool"
        }
      ],
      "stateMutability": "nonpayable",
      "type": "function"
    },
    {
      "inputs": [
        {
          "internalType": "address",
          "name": "from",
          "type": "address"
        },
        {
          "internalType": "address",
          "name": "to",
          "type": "address"
        },
        {
          "internalType": "uint256",
          "name": "amount",
          "type": "uint256"
        }
      ],
      "name": "transferFrom",
      "outputs": [
        {
          "internalType": "bool",
          "name": "",
          "type": "bool"
        }
      ],
      "stateMutability": "nonpayable",
      "type": "function"
    },
    {
      "inputs": [
        {
          "internalType": "uint256",
          "name": "_amount",
          "type": "uint256"
        }
      ],
      "name": "transferToCreator",
      "outputs": [],
      "stateMutability": "nonpayable",
      "type": "function"
    }
  ],
  "bytecode": "0x60806040523480156200001157600080fd5b50604051620034e4380380620034e4833981810160405281019062000037919062000227565b6040518060400160405280600f81526020017f44656164206f7220576f756e64656400000000000000000000000000000000008152506040518060400160405280600381526020017f444f5700000000000000000000000000000000000000000000000000000000008152508160039080519060200190620000bb92919062000160565b508060049080519060200190620000d492919062000160565b50505033600760006101000a81548173ffffffffffffffffffffffffffffffffffffffff021916908373ffffffffffffffffffffffffffffffffffffffff16021790555080600860006101000a81548173ffffffffffffffffffffffffffffffffffffffff021916908373ffffffffffffffffffffffffffffffffffffffff1602179055505062000311565b8280546200016e906200028d565b90600052602060002090601f016020900481019282620001925760008555620001de565b82601f10620001ad57805160ff1916838001178555620001de565b82800160010185558215620001de579182015b82811115620001dd578251825591602001919060010190620001c0565b5b509050620001ed9190620001f1565b5090565b5b808211156200020c576000816000905550600101620001f2565b5090565b6000815190506200022181620002f7565b92915050565b60006020828403121562000240576200023f620002f2565b5b6000620002508482850162000210565b91505092915050565b600062000266826200026d565b9050919050565b600073ffffffffffffffffffffffffffffffffffffffff82169050919050565b60006002820490506001821680620002a657607f821691505b60208210811415620002bd57620002bc620002c3565b5b50919050565b7f4e487b7100000000000000000000000000000000000000000000000000000000600052602260045260246000fd5b600080fd5b620003028162000259565b81146200030e57600080fd5b50565b6131c380620003216000396000f3fe608060405234801561001057600080fd5b506004361061014d5760003560e01c806373fde543116100c3578063bcf50e8b1161007c578063bcf50e8b146103ce578063d65ab5f2146103d8578063dd62ed3e146103f6578063e297038814610426578063f14d218114610442578063f52a6a411461044c5761014d565b806373fde5431461030a578063773a11541461032857806395d89b41146103325780639ac8c0ef14610350578063a457c2d71461036e578063a9059cbb1461039e5761014d565b806323b872dd1161011557806323b872dd1461020a578063313ce5671461023a578063395093511461025857806355cd16e2146102885780635c53d334146102a657806370a08231146102da5761014d565b806306fdde0314610152578063095ea7b3146101705780630b4dab98146101a05780630de079b1146101bc57806318160ddd146101ec575b600080fd5b61015a610456565b604051610167919061296c565b60405180910390f35b61018a60048036038101906101859190612465565b6104e8565b6040516101979190612951565b60405180910390f35b6101ba60048036038101906101b591906124a5565b61050b565b005b6101d660048036038101906101d191906124a5565b6105c1565b6040516101e39190612aa9565b60405180910390f35b6101f46105e5565b6040516102019190612aa9565b60405180910390f35b610224600480360381019061021f9190612412565b6105ef565b6040516102319190612951565b60405180910390f35b61024261061e565b60405161024f9190612b17565b60405180910390f35b610272600480360381019061026d9190612465565b610627565b60405161027f9190612951565b60405180910390f35b6102906106d1565b60405161029d9190612a8e565b60405180910390f35b6102c060048036038101906102bb91906123a5565b610800565b6040516102d1959493929190612ac4565b60405180910390f35b6102f460048036038101906102ef91906123a5565b610886565b6040516103019190612aa9565b60405180910390f35b6103126108ce565b60405161031f919061292f565b60405180910390f35b610330610ac8565b005b61033a610bf2565b604051610347919061296c565b60405180910390f35b610358610c84565b6040516103659190612aa9565b60405180910390f35b61038860048036038101906103839190612465565b610c8a565b6040516103959190612951565b60405180910390f35b6103b860048036038101906103b39190612465565b610d74565b6040516103c59190612951565b60405180910390f35b6103d6610d97565b005b6103e0610db4565b6040516103ed919061290d565b60405180910390f35b610410600480360381019061040b91906123d2565b611213565b60405161041d9190612aa9565b60405180910390f35b610440600480360381019061043b91906124ff565b61129a565b005b61044a611a15565b005b610454611b05565b005b60606003805461046590612cd4565b80601f016020809104026020016040519081016040528092919081815260200182805461049190612cd4565b80156104de5780601f106104b3576101008083540402835291602001916104de565b820191906000526020600020905b8154815290600101906020018083116104c157829003601f168201915b5050505050905090565b6000806104f3611b22565b9050610500818585611b2a565b600191505092915050565b600760009054906101000a900473ffffffffffffffffffffffffffffffffffffffff1673ffffffffffffffffffffffffffffffffffffffff163373ffffffffffffffffffffffffffffffffffffffff1614610592576040517f30cd747100000000000000000000000000000000000000000000000000000000815260040160405180910390fd5b6105be600760009054906101000a900473ffffffffffffffffffffffffffffffffffffffff1682611cf5565b50565b600981815481106105d157600080fd5b906000526020600020016000915090505481565b6000600254905090565b6000806105fa611b22565b9050610607858285611e55565b610612858585611ee1565b60019150509392505050565b60006012905090565b600080610632611b22565b90506106c6818585600160008673ffffffffffffffffffffffffffffffffffffffff1673ffffffffffffffffffffffffffffffffffffffff16815260200190815260200160002060008973ffffffffffffffffffffffffffffffffffffffff1673ffffffffffffffffffffffffffffffffffffffff168152602001908152602001600020546106c19190612bc0565b611b2a565b600191505092915050565b6106d96122bc565b6000600b60003373ffffffffffffffffffffffffffffffffffffffff1673ffffffffffffffffffffffffffffffffffffffff1681526020019081526020016000209050806040518060a0016040529081600082015481526020016001820160009054906101000a900467ffffffffffffffff1667ffffffffffffffff1667ffffffffffffffff1681526020016001820160089054906101000a900467ffffffffffffffff1667ffffffffffffffff1667ffffffffffffffff1681526020016001820160109054906101000a900467ffffffffffffffff1667ffffffffffffffff1667ffffffffffffffff1681526020016001820160189054906101000a900467ffffffffffffffff1667ffffffffffffffff1667ffffffffffffffff168152505091505090565b600b6020528060005260406000206000915090508060000154908060010160009054906101000a900467ffffffffffffffff16908060010160089054906101000a900467ffffffffffffffff16908060010160109054906101000a900467ffffffffffffffff16908060010160189054906101000a900467ffffffffffffffff16905085565b60008060008373ffffffffffffffffffffffffffffffffffffffff1673ffffffffffffffffffffffffffffffffffffffff168152602001908152602001600020549050919050565b6060600a8054905067ffffffffffffffff8111156108ef576108ee612eca565b5b60405190808252806020026020018201604052801561092857816020015b610915612313565b81526020019060019003908161090d5790505b50905060005b600a80549050811015610ac4576000600b6000600a848154811061095557610954612e9b565b5b9060005260206000200160009054906101000a900473ffffffffffffffffffffffffffffffffffffffff1673ffffffffffffffffffffffffffffffffffffffff1673ffffffffffffffffffffffffffffffffffffffff1681526020019081526020016000209050600a82815481106109d0576109cf612e9b565b5b9060005260206000200160009054906101000a900473ffffffffffffffffffffffffffffffffffffffff16838381518110610a0e57610a0d612e9b565b5b60200260200101516000019073ffffffffffffffffffffffffffffffffffffffff16908173ffffffffffffffffffffffffffffffffffffffff16815250508060010160189054906101000a900467ffffffffffffffff1667ffffffffffffffff16838381518110610a8257610a81612e9b565b5b6020026020010151602001906bffffffffffffffffffffffff1690816bffffffffffffffffffffffff1681525050508080610abc90612d06565b91505061092e565b5090565b600860009054906101000a900473ffffffffffffffffffffffffffffffffffffffff1673ffffffffffffffffffffffffffffffffffffffff1663e0c862896040518163ffffffff1660e01b8152600401600060405180830381600087803b158015610b3257600080fd5b505af1158015610b46573d6000803e3d6000fd5b50505050600860009054906101000a900473ffffffffffffffffffffffffffffffffffffffff1673ffffffffffffffffffffffffffffffffffffffff1663e89e106a6040518163ffffffff1660e01b815260040160206040518083038186803b158015610bb257600080fd5b505afa158015610bc6573d6000803e3d6000fd5b505050506040513d601f19601f82011682018060405250810190610bea91906124d2565b600681905550565b606060048054610c0190612cd4565b80601f0160208091040260200160405190810160405280929190818152602001828054610c2d90612cd4565b8015610c7a5780601f10610c4f57610100808354040283529160200191610c7a565b820191906000526020600020905b815481529060010190602001808311610c5d57829003601f168201915b5050505050905090565b60065481565b600080610c95611b22565b90506000600160008373ffffffffffffffffffffffffffffffffffffffff1673ffffffffffffffffffffffffffffffffffffffff16815260200190815260200160002060008673ffffffffffffffffffffffffffffffffffffffff1673ffffffffffffffffffffffffffffffffffffffff16815260200190815260200160002054905083811015610d5b576040517f08c379a0000000000000000000000000000000000000000000000000000000008152600401610d5290612a4e565b60405180910390fd5b610d688286868403611b2a565b60019250505092915050565b600080610d7f611b22565b9050610d8c818585611ee1565b600191505092915050565b6000600760146101000a81548160ff021916908315150217905550565b6060600c60003373ffffffffffffffffffffffffffffffffffffffff1673ffffffffffffffffffffffffffffffffffffffff16815260200190815260200160002060009054906101000a900460ff16610ec3576001600c60003373ffffffffffffffffffffffffffffffffffffffff1673ffffffffffffffffffffffffffffffffffffffff16815260200190815260200160002060006101000a81548160ff021916908315150217905550600a339080600181540180825580915050600190039060005260206000200160009091909190916101000a81548173ffffffffffffffffffffffffffffffffffffffff021916908373ffffffffffffffffffffffffffffffffffffffff1602179055505b6000600b60003373ffffffffffffffffffffffffffffffffffffffff1673ffffffffffffffffffffffffffffffffffffffff1681526020019081526020016000209050674563918244f40000610f1833610886565b1015610f50576040517ff1b7e15e00000000000000000000000000000000000000000000000000000000815260040160405180910390fd5b610f633330674563918244f40000611ee1565b600467ffffffffffffffff811115610f7e57610f7d612eca565b5b604051908082528060200260200182016040528015610fac5781602001602082028036833780820191505090505b5091505b60046009805490501015610fcb57610fc6612162565b610fb0565b6009600081548110610fe057610fdf612e9b565b5b9060005260206000200154604051602001610ffb91906128b5565b604051602081830303815290604052805190602001208260008151811061102557611024612e9b565b5b602002602001018181525050600960018154811061104657611045612e9b565b5b906000526020600020015460405160200161106191906128b5565b604051602081830303815290604052805190602001208260018151811061108b5761108a612e9b565b5b60200260200101818152505060096002815481106110ac576110ab612e9b565b5b90600052602060002001546040516020016110c791906128b5565b60405160208183030381529060405280519060200120826002815181106110f1576110f0612e9b565b5b602002602001018181525050600960038154811061111257611111612e9b565b5b906000526020600020015460405160200161112d91906128b5565b604051602081830303815290604052805190602001208260038151811061115757611156612e9b565b5b60200260200101818152505061116b612212565b6001600e60003373ffffffffffffffffffffffffffffffffffffffff1673ffffffffffffffffffffffffffffffffffffffff16815260200190815260200160002060008360000154815260200190815260200160002060006101000a81548160ff0219169083151502179055507f2d420b6adc054c35e933874423a84e095ec2c4f2f7ac7b1f9781d6858a1b7be282604051611207919061290d565b60405180910390a15090565b6000600160008473ffffffffffffffffffffffffffffffffffffffff1673ffffffffffffffffffffffffffffffffffffffff16815260200190815260200160002060008373ffffffffffffffffffffffffffffffffffffffff1673ffffffffffffffffffffffffffffffffffffffff16815260200190815260200160002054905092915050565b6000600b60003373ffffffffffffffffffffffffffffffffffffffff1673ffffffffffffffffffffffffffffffffffffffff168152602001908152602001600020905060001515600e60003373ffffffffffffffffffffffffffffffffffffffff1673ffffffffffffffffffffffffffffffffffffffff16815260200190815260200160002060008360000154815260200190815260200160002060009054906101000a900460ff161515141561137d576040517f1fcd583900000000000000000000000000000000000000000000000000000000815260040160405180910390fd5b80600001600081548092919061139290612d06565b919050555060018260ff1614156114595780600101600881819054906101000a900467ffffffffffffffff16809291906113cb90612d4f565b91906101000a81548167ffffffffffffffff021916908367ffffffffffffffff1602179055505080600101601881819054906101000a900467ffffffffffffffff168092919061141a90612d4f565b91906101000a81548167ffffffffffffffff021916908367ffffffffffffffff16021790555050611454336801158e460913d00000611cf5565b611982565b60028260ff16141561151b5780600101600881819054906101000a900467ffffffffffffffff168092919061148d90612d4f565b91906101000a81548167ffffffffffffffff021916908367ffffffffffffffff1602179055505080600101601881819054906101000a900467ffffffffffffffff16809291906114dc90612d4f565b91906101000a81548167ffffffffffffffff021916908367ffffffffffffffff16021790555050611516336801158e460913d00000611cf5565b611981565b60038260ff1614156115dd5780600101600881819054906101000a900467ffffffffffffffff168092919061154f90612d4f565b91906101000a81548167ffffffffffffffff021916908367ffffffffffffffff1602179055505080600101601881819054906101000a900467ffffffffffffffff168092919061159e90612d4f565b91906101000a81548167ffffffffffffffff021916908367ffffffffffffffff160217905550506115d8336801158e460913d00000611cf5565b611980565b60048260ff16141561169e5780600101600881819054906101000a900467ffffffffffffffff168092919061161190612d4f565b91906101000a81548167ffffffffffffffff021916908367ffffffffffffffff1602179055505080600101601881819054906101000a900467ffffffffffffffff168092919061166090612d4f565b91906101000a81548167ffffffffffffffff021916908367ffffffffffffffff160217905550506116993367a688906bd8b00000611cf5565b61197f565b60058260ff16141561175f5780600101600881819054906101000a900467ffffffffffffffff16809291906116d290612d4f565b91906101000a81548167ffffffffffffffff021916908367ffffffffffffffff1602179055505080600101601881819054906101000a900467ffffffffffffffff168092919061172190612d4f565b91906101000a81548167ffffffffffffffff021916908367ffffffffffffffff1602179055505061175a3367a688906bd8b00000611cf5565b61197e565b60068260ff1614156118205780600101600881819054906101000a900467ffffffffffffffff168092919061179390612d4f565b91906101000a81548167ffffffffffffffff021916908367ffffffffffffffff1602179055505080600101601881819054906101000a900467ffffffffffffffff16809291906117e290612d4f565b91906101000a81548167ffffffffffffffff021916908367ffffffffffffffff1602179055505061181b33676124fee993bc0000611cf5565b61197d565b60078260ff1614156118e15780600101600881819054906101000a900467ffffffffffffffff168092919061185490612d4f565b91906101000a81548167ffffffffffffffff021916908367ffffffffffffffff1602179055505080600101601881819054906101000a900467ffffffffffffffff16809291906118a390612d4f565b91906101000a81548167ffffffffffffffff021916908367ffffffffffffffff160217905550506118dc33676124fee993bc0000611cf5565b61197c565b60088260ff16141561197b5760008160010160086101000a81548167ffffffffffffffff021916908367ffffffffffffffff16021790555080600101600081819054906101000a900467ffffffffffffffff168092919061194190612d4f565b91906101000a81548167ffffffffffffffff021916908367ffffffffffffffff1602179055505061197a33676124fee993bc0000611cf5565b5b5b5b5b5b5b5b5b8060010160109054906101000a900467ffffffffffffffff1667ffffffffffffffff168160010160089054906101000a900467ffffffffffffffff1667ffffffffffffffff1610611a11578060010160089054906101000a900467ffffffffffffffff168160010160106101000a81548167ffffffffffffffff021916908367ffffffffffffffff1602179055505b5050565b600d60003373ffffffffffffffffffffffffffffffffffffffff1673ffffffffffffffffffffffffffffffffffffffff16815260200190815260200160002060009054906101000a900460ff1615611a99576040517f53733ff700000000000000000000000000000000000000000000000000000000815260040160405180910390fd5b6001600d60003373ffffffffffffffffffffffffffffffffffffffff1673ffffffffffffffffffffffffffffffffffffffff16815260200190815260200160002060006101000a81548160ff021916908315150217905550611b0333678ac7230489e80000611cf5565b565b6001600760146101000a81548160ff021916908315150217905550565b600033905090565b600073ffffffffffffffffffffffffffffffffffffffff168373ffffffffffffffffffffffffffffffffffffffff161415611b9a576040517f08c379a0000000000000000000000000000000000000000000000000000000008152600401611b9190612a2e565b60405180910390fd5b600073ffffffffffffffffffffffffffffffffffffffff168273ffffffffffffffffffffffffffffffffffffffff161415611c0a576040517f08c379a0000000000000000000000000000000000000000000000000000000008152600401611c01906129ae565b60405180910390fd5b80600160008573ffffffffffffffffffffffffffffffffffffffff1673ffffffffffffffffffffffffffffffffffffffff16815260200190815260200160002060008473ffffffffffffffffffffffffffffffffffffffff1673ffffffffffffffffffffffffffffffffffffffff168152602001908152602001600020819055508173ffffffffffffffffffffffffffffffffffffffff168373ffffffffffffffffffffffffffffffffffffffff167f8c5be1e5ebec7d5bd14f71427d1e84f3dd0314c0f7b2291e5b200ac8c7c3b92583604051611ce89190612aa9565b60405180910390a3505050565b600073ffffffffffffffffffffffffffffffffffffffff168273ffffffffffffffffffffffffffffffffffffffff161415611d65576040517f08c379a0000000000000000000000000000000000000000000000000000000008152600401611d5c90612a6e565b60405180910390fd5b611d7160008383612250565b8060026000828254611d839190612bc0565b92505081905550806000808473ffffffffffffffffffffffffffffffffffffffff1673ffffffffffffffffffffffffffffffffffffffff1681526020019081526020016000206000828254611dd89190612bc0565b925050819055508173ffffffffffffffffffffffffffffffffffffffff16600073ffffffffffffffffffffffffffffffffffffffff167fddf252ad1be2c89b69c2b068fc378daa952ba7f163c4a11628f55a4df523b3ef83604051611e3d9190612aa9565b60405180910390a3611e5160008383612255565b5050565b6000611e618484611213565b90507fffffffffffffffffffffffffffffffffffffffffffffffffffffffffffffffff8114611edb5781811015611ecd576040517f08c379a0000000000000000000000000000000000000000000000000000000008152600401611ec4906129ce565b60405180910390fd5b611eda8484848403611b2a565b5b50505050565b600073ffffffffffffffffffffffffffffffffffffffff168373ffffffffffffffffffffffffffffffffffffffff161415611f51576040517f08c379a0000000000000000000000000000000000000000000000000000000008152600401611f4890612a0e565b60405180910390fd5b600073ffffffffffffffffffffffffffffffffffffffff168273ffffffffffffffffffffffffffffffffffffffff161415611fc1576040517f08c379a0000000000000000000000000000000000000000000000000000000008152600401611fb89061298e565b60405180910390fd5b611fcc838383612250565b60008060008573ffffffffffffffffffffffffffffffffffffffff1673ffffffffffffffffffffffffffffffffffffffff16815260200190815260200160002054905081811015612052576040517f08c379a0000000000000000000000000000000000000000000000000000000008152600401612049906129ee565b60405180910390fd5b8181036000808673ffffffffffffffffffffffffffffffffffffffff1673ffffffffffffffffffffffffffffffffffffffff16815260200190815260200160002081905550816000808573ffffffffffffffffffffffffffffffffffffffff1673ffffffffffffffffffffffffffffffffffffffff16815260200190815260200160002060008282546120e59190612bc0565b925050819055508273ffffffffffffffffffffffffffffffffffffffff168473ffffffffffffffffffffffffffffffffffffffff167fddf252ad1be2c89b69c2b068fc378daa952ba7f163c4a11628f55a4df523b3ef846040516121499190612aa9565b60405180910390a361215c848484612255565b50505050565b600061216c61225a565b600654901c90506000805b6009805490508110156121d257600a836121919190612dae565b600982815481106121a5576121a4612e9b565b5b906000526020600020015414156121bf57600191506121d2565b80806121ca90612d06565b915050612177565b508061220e576009600a836121e79190612dae565b90806001815401808255809150506001900390600052602060002001600090919091909150555b5050565b5b6000600980549050111561224e57600980548061223357612232612e6c565b5b60019003818190600052602060002001600090559055612213565b565b505050565b505050565b600080600a90506001600560008282546122749190612bc0565b92505081905550804260055433604051602001612293939291906128d0565b6040516020818303038152906040528051906020012060001c6122b69190612dae565b91505090565b6040518060a0016040528060008152602001600067ffffffffffffffff168152602001600067ffffffffffffffff168152602001600067ffffffffffffffff168152602001600067ffffffffffffffff1681525090565b6040518060400160405280600073ffffffffffffffffffffffffffffffffffffffff16815260200160006bffffffffffffffffffffffff1681525090565b60008135905061236081613148565b92915050565b6000813590506123758161315f565b92915050565b60008151905061238a8161315f565b92915050565b60008135905061239f81613176565b92915050565b6000602082840312156123bb576123ba612ef9565b5b60006123c984828501612351565b91505092915050565b600080604083850312156123e9576123e8612ef9565b5b60006123f785828601612351565b925050602061240885828601612351565b9150509250929050565b60008060006060848603121561242b5761242a612ef9565b5b600061243986828701612351565b935050602061244a86828701612351565b925050604061245b86828701612366565b9150509250925092565b6000806040838503121561247c5761247b612ef9565b5b600061248a85828601612351565b925050602061249b85828601612366565b9150509250929050565b6000602082840312156124bb576124ba612ef9565b5b60006124c984828501612366565b91505092915050565b6000602082840312156124e8576124e7612ef9565b5b60006124f68482850161237b565b91505092915050565b60006020828403121561251557612514612ef9565b5b600061252384828501612390565b91505092915050565b6000612538838361264d565b60208301905092915050565b600061255083836127ad565b60408301905092915050565b61256581612c16565b82525050565b61257c61257782612c16565b612d80565b82525050565b600061258d82612b52565b6125978185612b8d565b93506125a283612b32565b8060005b838110156125d35781516125ba888261252c565b97506125c583612b73565b9250506001810190506125a6565b5085935050505092915050565b60006125eb82612b5d565b6125f58185612b9e565b935061260083612b42565b8060005b838110156126315781516126188882612544565b975061262383612b80565b925050600181019050612604565b5085935050505092915050565b61264781612c28565b82525050565b61265681612c34565b82525050565b600061266782612b68565b6126718185612baf565b9350612681818560208601612ca1565b61268a81612efe565b840191505092915050565b60006126a2602383612baf565b91506126ad82612f1c565b604082019050919050565b60006126c5602283612baf565b91506126d082612f6b565b604082019050919050565b60006126e8601d83612baf565b91506126f382612fba565b602082019050919050565b600061270b602683612baf565b915061271682612fe3565b604082019050919050565b600061272e602583612baf565b915061273982613032565b604082019050919050565b6000612751602483612baf565b915061275c82613081565b604082019050919050565b6000612774602583612baf565b915061277f826130d0565b604082019050919050565b6000612797601f83612baf565b91506127a28261311f565b602082019050919050565b6040820160008201516127c3600085018261255c565b5060208201516127d660208501826128a6565b50505050565b60a0820160008201516127f26000850182612844565b5060208201516128056020850182612879565b5060408201516128186040850182612879565b50606082015161282b6060850182612879565b50608082015161283e6080850182612879565b50505050565b61284d81612c5e565b82525050565b61285c81612c5e565b82525050565b61287361286e82612c5e565b612da4565b82525050565b61288281612c68565b82525050565b61289181612c68565b82525050565b6128a081612c7c565b82525050565b6128af81612c89565b82525050565b60006128c18284612862565b60208201915081905092915050565b60006128dc8286612862565b6020820191506128ec8285612862565b6020820191506128fc828461256b565b601482019150819050949350505050565b600060208201905081810360008301526129278184612582565b905092915050565b6000602082019050818103600083015261294981846125e0565b905092915050565b6000602082019050612966600083018461263e565b92915050565b60006020820190508181036000830152612986818461265c565b905092915050565b600060208201905081810360008301526129a781612695565b9050919050565b600060208201905081810360008301526129c7816126b8565b9050919050565b600060208201905081810360008301526129e7816126db565b9050919050565b60006020820190508181036000830152612a07816126fe565b9050919050565b60006020820190508181036000830152612a2781612721565b9050919050565b60006020820190508181036000830152612a4781612744565b9050919050565b60006020820190508181036000830152612a6781612767565b9050919050565b60006020820190508181036000830152612a878161278a565b9050919050565b600060a082019050612aa360008301846127dc565b92915050565b6000602082019050612abe6000830184612853565b92915050565b600060a082019050612ad96000830188612853565b612ae66020830187612888565b612af36040830186612888565b612b006060830185612888565b612b0d6080830184612888565b9695505050505050565b6000602082019050612b2c6000830184612897565b92915050565b6000819050602082019050919050565b6000819050602082019050919050565b600081519050919050565b600081519050919050565b600081519050919050565b6000602082019050919050565b6000602082019050919050565b600082825260208201905092915050565b600082825260208201905092915050565b600082825260208201905092915050565b6000612bcb82612c5e565b9150612bd683612c5e565b9250827fffffffffffffffffffffffffffffffffffffffffffffffffffffffffffffffff03821115612c0b57612c0a612ddf565b5b828201905092915050565b6000612c2182612c3e565b9050919050565b60008115159050919050565b6000819050919050565b600073ffffffffffffffffffffffffffffffffffffffff82169050919050565b6000819050919050565b600067ffffffffffffffff82169050919050565b600060ff82169050919050565b60006bffffffffffffffffffffffff82169050919050565b60005b83811015612cbf578082015181840152602081019050612ca4565b83811115612cce576000848401525b50505050565b60006002820490506001821680612cec57607f821691505b60208210811415612d0057612cff612e3d565b5b50919050565b6000612d1182612c5e565b91507fffffffffffffffffffffffffffffffffffffffffffffffffffffffffffffffff821415612d4457612d43612ddf565b5b600182019050919050565b6000612d5a82612c68565b915067ffffffffffffffff821415612d7557612d74612ddf565b5b600182019050919050565b6000612d8b82612d92565b9050919050565b6000612d9d82612f0f565b9050919050565b6000819050919050565b6000612db982612c5e565b9150612dc483612c5e565b925082612dd457612dd3612e0e565b5b828206905092915050565b7f4e487b7100000000000000000000000000000000000000000000000000000000600052601160045260246000fd5b7f4e487b7100000000000000000000000000000000000000000000000000000000600052601260045260246000fd5b7f4e487b7100000000000000000000000000000000000000000000000000000000600052602260045260246000fd5b7f4e487b7100000000000000000000000000000000000000000000000000000000600052603160045260246000fd5b7f4e487b7100000000000000000000000000000000000000000000000000000000600052603260045260246000fd5b7f4e487b7100000000000000000000000000000000000000000000000000000000600052604160045260246000fd5b600080fd5b6000601f19601f8301169050919050565b60008160601b9050919050565b7f45524332303a207472616e7366657220746f20746865207a65726f206164647260008201527f6573730000000000000000000000000000000000000000000000000000000000602082015250565b7f45524332303a20617070726f766520746f20746865207a65726f20616464726560008201527f7373000000000000000000000000000000000000000000000000000000000000602082015250565b7f45524332303a20696e73756666696369656e7420616c6c6f77616e6365000000600082015250565b7f45524332303a207472616e7366657220616d6f756e742065786365656473206260008201527f616c616e63650000000000000000000000000000000000000000000000000000602082015250565b7f45524332303a207472616e736665722066726f6d20746865207a65726f20616460008201527f6472657373000000000000000000000000000000000000000000000000000000602082015250565b7f45524332303a20617070726f76652066726f6d20746865207a65726f2061646460008201527f7265737300000000000000000000000000000000000000000000000000000000602082015250565b7f45524332303a2064656372656173656420616c6c6f77616e63652062656c6f7760008201527f207a65726f000000000000000000000000000000000000000000000000000000602082015250565b7f45524332303a206d696e7420746f20746865207a65726f206164647265737300600082015250565b61315181612c16565b811461315c57600080fd5b50565b61316881612c5e565b811461317357600080fd5b50565b61317f81612c7c565b811461318a57600080fd5b5056fea2646970667358221220d9aeb3a25ff644d19bc7baf0a16e9082cc76a6aecb90b39eb28ba4eeb8ef492f64736f6c63430008070033",
  "linkReferences": {},
  "deployedLinkReferences": {}
}