{
  "_format": "hh-sol-artifact-1",
  "contractName": "DOW",
  "sourceName": "contracts/DOW.sol",
  "abi": [
    {
      "inputs": [
        {
          "internalType": "uint256",
          "name": "",
          "type": "uint256"
        }
      ],
      "name": "computerNumber",
      "outputs": [
        {
          "internalType": "uint256",
          "name": "",
          "type": "uint256"
        }
      ],
      "stateMutability": "view",
      "type": "function"
    },
    {
      "inputs": [],
      "name": "randomNumber",
      "outputs": [
        {
          "internalType": "uint256",
          "name": "",
          "type": "uint256"
        }
      ],
      "stateMutability": "nonpayable",
      "type": "function"
    },
    {
      "inputs": [],
      "name": "startGame",
      "outputs": [
        {
          "internalType": "uint256[]",
          "name": "",
          "type": "uint256[]"
        }
      ],
      "stateMutability": "nonpayable",
      "type": "function"
    }
  ],
  "bytecode": "0x608060405234801561001057600080fd5b5061066b806100206000396000f3fe608060405234801561001057600080fd5b50600436106100415760003560e01c8063672661c814610046578063ccbac9f514610076578063d65ab5f214610094575b600080fd5b610060600480360381019061005b91906102db565b6100b2565b60405161006d9190610425565b60405180910390f35b61007e6100d6565b60405161008b9190610425565b60405180910390f35b61009c610138565b6040516100a99190610403565b60405180910390f35b600081815481106100c257600080fd5b906000526020600020016000915090505481565b600080600a90506001600260008282546100f09190610479565b9250508190555080426002543360405160200161010f939291906103c6565b6040516020818303038152906040528051906020012060001c6101329190610582565b91505090565b6060610142610263565b5b6004600080549050101561020d57600061015b6100d6565b90506000805b6000805490508110156101d65782600082815481106101a9577f4e487b7100000000000000000000000000000000000000000000000000000000600052603260045260246000fd5b906000526020600020015414156101c357600191506101d6565b80806101ce9061050b565b915050610161565b50806102065760008290806001815401808255809150506001900390600052602060002001600090919091909150555b5050610143565b600080548060200260200160405190810160405280929190818152602001828054801561025957602002820191906000526020600020905b815481526020019060010190808311610245575b5050505050905090565b5b6000808054905011156102c45760008054806102a9577f4e487b7100000000000000000000000000000000000000000000000000000000600052603160045260246000fd5b60019003818190600052602060002001600090559055610264565b565b6000813590506102d58161061e565b92915050565b6000602082840312156102ed57600080fd5b60006102fb848285016102c6565b91505092915050565b60006103108383610391565b60208301905092915050565b61032d610328826104cf565b610554565b82525050565b600061033e82610450565b6103488185610468565b935061035383610440565b8060005b8381101561038457815161036b8882610304565b97506103768361045b565b925050600181019050610357565b5085935050505092915050565b61039a81610501565b82525050565b6103a981610501565b82525050565b6103c06103bb82610501565b610578565b82525050565b60006103d282866103af565b6020820191506103e282856103af565b6020820191506103f2828461031c565b601482019150819050949350505050565b6000602082019050818103600083015261041d8184610333565b905092915050565b600060208201905061043a60008301846103a0565b92915050565b6000819050602082019050919050565b600081519050919050565b6000602082019050919050565b600082825260208201905092915050565b600061048482610501565b915061048f83610501565b9250827fffffffffffffffffffffffffffffffffffffffffffffffffffffffffffffffff038211156104c4576104c36105b3565b5b828201905092915050565b60006104da826104e1565b9050919050565b600073ffffffffffffffffffffffffffffffffffffffff82169050919050565b6000819050919050565b600061051682610501565b91507fffffffffffffffffffffffffffffffffffffffffffffffffffffffffffffffff821415610549576105486105b3565b5b600182019050919050565b600061055f82610566565b9050919050565b600061057182610611565b9050919050565b6000819050919050565b600061058d82610501565b915061059883610501565b9250826105a8576105a76105e2565b5b828206905092915050565b7f4e487b7100000000000000000000000000000000000000000000000000000000600052601160045260246000fd5b7f4e487b7100000000000000000000000000000000000000000000000000000000600052601260045260246000fd5b60008160601b9050919050565b61062781610501565b811461063257600080fd5b5056fea26469706673582212201166e785996949eeef4ceb270b4f6a9919776194d8deddd7ae8236f230a6672f64736f6c63430008000033",
  "linkReferences": {},
  "deployedLinkReferences": {}
}