{
	"data": {
		"bytecode": {
			"linkReferences": {},
			"object": "608060405234801561001057600080fd5b506105e1806100206000396000f3fe608060405234801561001057600080fd5b506004361061004c5760003560e01c806330593c6c14610051578063a28b749a1461006d578063b70d960814610077578063d65ab5f214610095575b600080fd5b61006b6004803603810190610066919061024e565b6100b3565b005b6100756100b9565b005b61007f6100bb565b60405161008c9190610373565b60405180910390f35b61009d6100c0565b6040516100aa9190610373565b60405180910390f35b50505050565b565b606090565b60605b60046000805490501015610177576000806100dc6101cd565b905060005b6000805490508160ff16101561013c578160008260ff168154811061010957610108610395565b5b90600052602060002001541415610129578280610125906103f3565b9350505b808061013490610449565b9150506100e1565b5060008214156101705760008190806001815401808255809150506001900390600052602060002001600090919091909150555b50506100c3565b60008054806020026020016040519081016040528092919081815260200182805480156101c357602002820191906000526020600020905b8154815260200190600101908083116101af575b5050505050905090565b600080600a9050804244336040516020016101ea9392919061050e565b6040516020818303038152906040528051906020012060001c61020d919061057a565b91505090565b600080fd5b6000819050919050565b61022b81610218565b811461023657600080fd5b50565b60008135905061024881610222565b92915050565b6000806000806080858703121561026857610267610213565b5b600061027687828801610239565b945050602061028787828801610239565b935050604061029887828801610239565b92505060606102a987828801610239565b91505092959194509250565b600081519050919050565b600082825260208201905092915050565b6000819050602082019050919050565b6102ea81610218565b82525050565b60006102fc83836102e1565b60208301905092915050565b6000602082019050919050565b6000610320826102b5565b61032a81856102c0565b9350610335836102d1565b8060005b8381101561036657815161034d88826102f0565b975061035883610308565b925050600181019050610339565b5085935050505092915050565b6000602082019050818103600083015261038d8184610315565b905092915050565b7f4e487b7100000000000000000000000000000000000000000000000000000000600052603260045260246000fd5b7f4e487b7100000000000000000000000000000000000000000000000000000000600052601160045260246000fd5b60006103fe82610218565b91507fffffffffffffffffffffffffffffffffffffffffffffffffffffffffffffffff821415610431576104306103c4565b5b600182019050919050565b600060ff82169050919050565b60006104548261043c565b915060ff821415610468576104676103c4565b5b600182019050919050565b6000819050919050565b61048e61048982610218565b610473565b82525050565b600073ffffffffffffffffffffffffffffffffffffffff82169050919050565b60006104bf82610494565b9050919050565b60008160601b9050919050565b60006104de826104c6565b9050919050565b60006104f0826104d3565b9050919050565b610508610503826104b4565b6104e5565b82525050565b600061051a828661047d565b60208201915061052a828561047d565b60208201915061053a82846104f7565b601482019150819050949350505050565b7f4e487b7100000000000000000000000000000000000000000000000000000000600052601260045260246000fd5b600061058582610218565b915061059083610218565b9250826105a05761059f61054b565b5b82820690509291505056fea2646970667358221220e07b6ae72d553c7c123eacf904f086a88d7edbcba416b6011ba1ac341ba86f3564736f6c634300080b0033",
			"opcodes": "PUSH1 0x80 PUSH1 0x40 MSTORE CALLVALUE DUP1 ISZERO PUSH2 0x10 JUMPI PUSH1 0x0 DUP1 REVERT JUMPDEST POP PUSH2 0x5E1 DUP1 PUSH2 0x20 PUSH1 0x0 CODECOPY PUSH1 0x0 RETURN INVALID PUSH1 0x80 PUSH1 0x40 MSTORE CALLVALUE DUP1 ISZERO PUSH2 0x10 JUMPI PUSH1 0x0 DUP1 REVERT JUMPDEST POP PUSH1 0x4 CALLDATASIZE LT PUSH2 0x4C JUMPI PUSH1 0x0 CALLDATALOAD PUSH1 0xE0 SHR DUP1 PUSH4 0x30593C6C EQ PUSH2 0x51 JUMPI DUP1 PUSH4 0xA28B749A EQ PUSH2 0x6D JUMPI DUP1 PUSH4 0xB70D9608 EQ PUSH2 0x77 JUMPI DUP1 PUSH4 0xD65AB5F2 EQ PUSH2 0x95 JUMPI JUMPDEST PUSH1 0x0 DUP1 REVERT JUMPDEST PUSH2 0x6B PUSH1 0x4 DUP1 CALLDATASIZE SUB DUP2 ADD SWAP1 PUSH2 0x66 SWAP2 SWAP1 PUSH2 0x24E JUMP JUMPDEST PUSH2 0xB3 JUMP JUMPDEST STOP JUMPDEST PUSH2 0x75 PUSH2 0xB9 JUMP JUMPDEST STOP JUMPDEST PUSH2 0x7F PUSH2 0xBB JUMP JUMPDEST PUSH1 0x40 MLOAD PUSH2 0x8C SWAP2 SWAP1 PUSH2 0x373 JUMP JUMPDEST PUSH1 0x40 MLOAD DUP1 SWAP2 SUB SWAP1 RETURN JUMPDEST PUSH2 0x9D PUSH2 0xC0 JUMP JUMPDEST PUSH1 0x40 MLOAD PUSH2 0xAA SWAP2 SWAP1 PUSH2 0x373 JUMP JUMPDEST PUSH1 0x40 MLOAD DUP1 SWAP2 SUB SWAP1 RETURN JUMPDEST POP POP POP POP JUMP JUMPDEST JUMP JUMPDEST PUSH1 0x60 SWAP1 JUMP JUMPDEST PUSH1 0x60 JUMPDEST PUSH1 0x4 PUSH1 0x0 DUP1 SLOAD SWAP1 POP LT ISZERO PUSH2 0x177 JUMPI PUSH1 0x0 DUP1 PUSH2 0xDC PUSH2 0x1CD JUMP JUMPDEST SWAP1 POP PUSH1 0x0 JUMPDEST PUSH1 0x0 DUP1 SLOAD SWAP1 POP DUP2 PUSH1 0xFF AND LT ISZERO PUSH2 0x13C JUMPI DUP2 PUSH1 0x0 DUP3 PUSH1 0xFF AND DUP2 SLOAD DUP2 LT PUSH2 0x109 JUMPI PUSH2 0x108 PUSH2 0x395 JUMP JUMPDEST JUMPDEST SWAP1 PUSH1 0x0 MSTORE PUSH1 0x20 PUSH1 0x0 KECCAK256 ADD SLOAD EQ ISZERO PUSH2 0x129 JUMPI DUP3 DUP1 PUSH2 0x125 SWAP1 PUSH2 0x3F3 JUMP JUMPDEST SWAP4 POP POP JUMPDEST DUP1 DUP1 PUSH2 0x134 SWAP1 PUSH2 0x449 JUMP JUMPDEST SWAP2 POP POP PUSH2 0xE1 JUMP JUMPDEST POP PUSH1 0x0 DUP3 EQ ISZERO PUSH2 0x170 JUMPI PUSH1 0x0 DUP2 SWAP1 DUP1 PUSH1 0x1 DUP2 SLOAD ADD DUP1 DUP3 SSTORE DUP1 SWAP2 POP POP PUSH1 0x1 SWAP1 SUB SWAP1 PUSH1 0x0 MSTORE PUSH1 0x20 PUSH1 0x0 KECCAK256 ADD PUSH1 0x0 SWAP1 SWAP2 SWAP1 SWAP2 SWAP1 SWAP2 POP SSTORE JUMPDEST POP POP PUSH2 0xC3 JUMP JUMPDEST PUSH1 0x0 DUP1 SLOAD DUP1 PUSH1 0x20 MUL PUSH1 0x20 ADD PUSH1 0x40 MLOAD SWAP1 DUP2 ADD PUSH1 0x40 MSTORE DUP1 SWAP3 SWAP2 SWAP1 DUP2 DUP2 MSTORE PUSH1 0x20 ADD DUP3 DUP1 SLOAD DUP1 ISZERO PUSH2 0x1C3 JUMPI PUSH1 0x20 MUL DUP3 ADD SWAP2 SWAP1 PUSH1 0x0 MSTORE PUSH1 0x20 PUSH1 0x0 KECCAK256 SWAP1 JUMPDEST DUP2 SLOAD DUP2 MSTORE PUSH1 0x20 ADD SWAP1 PUSH1 0x1 ADD SWAP1 DUP1 DUP4 GT PUSH2 0x1AF JUMPI JUMPDEST POP POP POP POP POP SWAP1 POP SWAP1 JUMP JUMPDEST PUSH1 0x0 DUP1 PUSH1 0xA SWAP1 POP DUP1 TIMESTAMP DIFFICULTY CALLER PUSH1 0x40 MLOAD PUSH1 0x20 ADD PUSH2 0x1EA SWAP4 SWAP3 SWAP2 SWAP1 PUSH2 0x50E JUMP JUMPDEST PUSH1 0x40 MLOAD PUSH1 0x20 DUP2 DUP4 SUB SUB DUP2 MSTORE SWAP1 PUSH1 0x40 MSTORE DUP1 MLOAD SWAP1 PUSH1 0x20 ADD KECCAK256 PUSH1 0x0 SHR PUSH2 0x20D SWAP2 SWAP1 PUSH2 0x57A JUMP JUMPDEST SWAP2 POP POP SWAP1 JUMP JUMPDEST PUSH1 0x0 DUP1 REVERT JUMPDEST PUSH1 0x0 DUP2 SWAP1 POP SWAP2 SWAP1 POP JUMP JUMPDEST PUSH2 0x22B DUP2 PUSH2 0x218 JUMP JUMPDEST DUP2 EQ PUSH2 0x236 JUMPI PUSH1 0x0 DUP1 REVERT JUMPDEST POP JUMP JUMPDEST PUSH1 0x0 DUP2 CALLDATALOAD SWAP1 POP PUSH2 0x248 DUP2 PUSH2 0x222 JUMP JUMPDEST SWAP3 SWAP2 POP POP JUMP JUMPDEST PUSH1 0x0 DUP1 PUSH1 0x0 DUP1 PUSH1 0x80 DUP6 DUP8 SUB SLT ISZERO PUSH2 0x268 JUMPI PUSH2 0x267 PUSH2 0x213 JUMP JUMPDEST JUMPDEST PUSH1 0x0 PUSH2 0x276 DUP8 DUP3 DUP9 ADD PUSH2 0x239 JUMP JUMPDEST SWAP5 POP POP PUSH1 0x20 PUSH2 0x287 DUP8 DUP3 DUP9 ADD PUSH2 0x239 JUMP JUMPDEST SWAP4 POP POP PUSH1 0x40 PUSH2 0x298 DUP8 DUP3 DUP9 ADD PUSH2 0x239 JUMP JUMPDEST SWAP3 POP POP PUSH1 0x60 PUSH2 0x2A9 DUP8 DUP3 DUP9 ADD PUSH2 0x239 JUMP JUMPDEST SWAP2 POP POP SWAP3 SWAP6 SWAP2 SWAP5 POP SWAP3 POP JUMP JUMPDEST PUSH1 0x0 DUP2 MLOAD SWAP1 POP SWAP2 SWAP1 POP JUMP JUMPDEST PUSH1 0x0 DUP3 DUP3 MSTORE PUSH1 0x20 DUP3 ADD SWAP1 POP SWAP3 SWAP2 POP POP JUMP JUMPDEST PUSH1 0x0 DUP2 SWAP1 POP PUSH1 0x20 DUP3 ADD SWAP1 POP SWAP2 SWAP1 POP JUMP JUMPDEST PUSH2 0x2EA DUP2 PUSH2 0x218 JUMP JUMPDEST DUP3 MSTORE POP POP JUMP JUMPDEST PUSH1 0x0 PUSH2 0x2FC DUP4 DUP4 PUSH2 0x2E1 JUMP JUMPDEST PUSH1 0x20 DUP4 ADD SWAP1 POP SWAP3 SWAP2 POP POP JUMP JUMPDEST PUSH1 0x0 PUSH1 0x20 DUP3 ADD SWAP1 POP SWAP2 SWAP1 POP JUMP JUMPDEST PUSH1 0x0 PUSH2 0x320 DUP3 PUSH2 0x2B5 JUMP JUMPDEST PUSH2 0x32A DUP2 DUP6 PUSH2 0x2C0 JUMP JUMPDEST SWAP4 POP PUSH2 0x335 DUP4 PUSH2 0x2D1 JUMP JUMPDEST DUP1 PUSH1 0x0 JUMPDEST DUP4 DUP2 LT ISZERO PUSH2 0x366 JUMPI DUP2 MLOAD PUSH2 0x34D DUP9 DUP3 PUSH2 0x2F0 JUMP JUMPDEST SWAP8 POP PUSH2 0x358 DUP4 PUSH2 0x308 JUMP JUMPDEST SWAP3 POP POP PUSH1 0x1 DUP2 ADD SWAP1 POP PUSH2 0x339 JUMP JUMPDEST POP DUP6 SWAP4 POP POP POP POP SWAP3 SWAP2 POP POP JUMP JUMPDEST PUSH1 0x0 PUSH1 0x20 DUP3 ADD SWAP1 POP DUP2 DUP2 SUB PUSH1 0x0 DUP4 ADD MSTORE PUSH2 0x38D DUP2 DUP5 PUSH2 0x315 JUMP JUMPDEST SWAP1 POP SWAP3 SWAP2 POP POP JUMP JUMPDEST PUSH32 0x4E487B7100000000000000000000000000000000000000000000000000000000 PUSH1 0x0 MSTORE PUSH1 0x32 PUSH1 0x4 MSTORE PUSH1 0x24 PUSH1 0x0 REVERT JUMPDEST PUSH32 0x4E487B7100000000000000000000000000000000000000000000000000000000 PUSH1 0x0 MSTORE PUSH1 0x11 PUSH1 0x4 MSTORE PUSH1 0x24 PUSH1 0x0 REVERT JUMPDEST PUSH1 0x0 PUSH2 0x3FE DUP3 PUSH2 0x218 JUMP JUMPDEST SWAP2 POP PUSH32 0xFFFFFFFFFFFFFFFFFFFFFFFFFFFFFFFFFFFFFFFFFFFFFFFFFFFFFFFFFFFFFFFF DUP3 EQ ISZERO PUSH2 0x431 JUMPI PUSH2 0x430 PUSH2 0x3C4 JUMP JUMPDEST JUMPDEST PUSH1 0x1 DUP3 ADD SWAP1 POP SWAP2 SWAP1 POP JUMP JUMPDEST PUSH1 0x0 PUSH1 0xFF DUP3 AND SWAP1 POP SWAP2 SWAP1 POP JUMP JUMPDEST PUSH1 0x0 PUSH2 0x454 DUP3 PUSH2 0x43C JUMP JUMPDEST SWAP2 POP PUSH1 0xFF DUP3 EQ ISZERO PUSH2 0x468 JUMPI PUSH2 0x467 PUSH2 0x3C4 JUMP JUMPDEST JUMPDEST PUSH1 0x1 DUP3 ADD SWAP1 POP SWAP2 SWAP1 POP JUMP JUMPDEST PUSH1 0x0 DUP2 SWAP1 POP SWAP2 SWAP1 POP JUMP JUMPDEST PUSH2 0x48E PUSH2 0x489 DUP3 PUSH2 0x218 JUMP JUMPDEST PUSH2 0x473 JUMP JUMPDEST DUP3 MSTORE POP POP JUMP JUMPDEST PUSH1 0x0 PUSH20 0xFFFFFFFFFFFFFFFFFFFFFFFFFFFFFFFFFFFFFFFF DUP3 AND SWAP1 POP SWAP2 SWAP1 POP JUMP JUMPDEST PUSH1 0x0 PUSH2 0x4BF DUP3 PUSH2 0x494 JUMP JUMPDEST SWAP1 POP SWAP2 SWAP1 POP JUMP JUMPDEST PUSH1 0x0 DUP2 PUSH1 0x60 SHL SWAP1 POP SWAP2 SWAP1 POP JUMP JUMPDEST PUSH1 0x0 PUSH2 0x4DE DUP3 PUSH2 0x4C6 JUMP JUMPDEST SWAP1 POP SWAP2 SWAP1 POP JUMP JUMPDEST PUSH1 0x0 PUSH2 0x4F0 DUP3 PUSH2 0x4D3 JUMP JUMPDEST SWAP1 POP SWAP2 SWAP1 POP JUMP JUMPDEST PUSH2 0x508 PUSH2 0x503 DUP3 PUSH2 0x4B4 JUMP JUMPDEST PUSH2 0x4E5 JUMP JUMPDEST DUP3 MSTORE POP POP JUMP JUMPDEST PUSH1 0x0 PUSH2 0x51A DUP3 DUP7 PUSH2 0x47D JUMP JUMPDEST PUSH1 0x20 DUP3 ADD SWAP2 POP PUSH2 0x52A DUP3 DUP6 PUSH2 0x47D JUMP JUMPDEST PUSH1 0x20 DUP3 ADD SWAP2 POP PUSH2 0x53A DUP3 DUP5 PUSH2 0x4F7 JUMP JUMPDEST PUSH1 0x14 DUP3 ADD SWAP2 POP DUP2 SWAP1 POP SWAP5 SWAP4 POP POP POP POP JUMP JUMPDEST PUSH32 0x4E487B7100000000000000000000000000000000000000000000000000000000 PUSH1 0x0 MSTORE PUSH1 0x12 PUSH1 0x4 MSTORE PUSH1 0x24 PUSH1 0x0 REVERT JUMPDEST PUSH1 0x0 PUSH2 0x585 DUP3 PUSH2 0x218 JUMP JUMPDEST SWAP2 POP PUSH2 0x590 DUP4 PUSH2 0x218 JUMP JUMPDEST SWAP3 POP DUP3 PUSH2 0x5A0 JUMPI PUSH2 0x59F PUSH2 0x54B JUMP JUMPDEST JUMPDEST DUP3 DUP3 MOD SWAP1 POP SWAP3 SWAP2 POP POP JUMP INVALID LOG2 PUSH5 0x6970667358 0x22 SLT KECCAK256 0xE0 PUSH28 0x6AE72D553C7C123EACF904F086A88D7EDBCBA416B6011BA1AC341BA8 PUSH16 0x3564736F6C634300080B003300000000 "
		},
		"gasEstimates": {
			"creation": {
				"codeDepositCost": "301000",
				"executionCost": "343",
				"totalCost": "301343"
			},
			"external": {
				"generateComputerNumbers()": "infinite",
				"guess()": "144",
				"playerNumber(uint256,uint256,uint256,uint256)": "infinite",
				"startGame()": "infinite"
			},
			"internal": {
				"randModulus()": "infinite"
			}
		},
		"methodIdentifiers": {
			"generateComputerNumbers()": "b70d9608",
			"guess()": "a28b749a",
			"playerNumber(uint256,uint256,uint256,uint256)": "30593c6c",
			"startGame()": "d65ab5f2"
		}
	},
	"abi": [
		{
			"inputs": [],
			"name": "generateComputerNumbers",
			"outputs": [
				{
					"internalType": "uint256[]",
					"name": "",
					"type": "uint256[]"
				}
			],
			"stateMutability": "nonpayable",
			"type": "function"
		},
		{
			"inputs": [],
			"name": "guess",
			"outputs": [],
			"stateMutability": "nonpayable",
			"type": "function"
		},
		{
			"inputs": [
				{
					"internalType": "uint256",
					"name": "num1",
					"type": "uint256"
				},
				{
					"internalType": "uint256",
					"name": "num2",
					"type": "uint256"
				},
				{
					"internalType": "uint256",
					"name": "num3",
					"type": "uint256"
				},
				{
					"internalType": "uint256",
					"name": "num4",
					"type": "uint256"
				}
			],
			"name": "playerNumber",
			"outputs": [],
			"stateMutability": "nonpayable",
			"type": "function"
		},
		{
			"inputs": [],
			"name": "startGame",
			"outputs": [
				{
					"internalType": "uint256[]",
					"name": "",
					"type": "uint256[]"
				}
			],
			"stateMutability": "nonpayable",
			"type": "function"
		}
	]
}