{
  "_format": "hh-sol-artifact-1",
  "contractName": "VRFv2Consumer",
  "sourceName": "contracts/VRFv2Consumer.sol",
  "abi": [
    {
      "inputs": [
        {
          "internalType": "uint64",
          "name": "subscriptionId",
          "type": "uint64"
        }
      ],
      "stateMutability": "nonpayable",
      "type": "constructor"
    },
    {
      "inputs": [
        {
          "internalType": "address",
          "name": "have",
          "type": "address"
        },
        {
          "internalType": "address",
          "name": "want",
          "type": "address"
        }
      ],
      "name": "OnlyCoordinatorCanFulfill",
      "type": "error"
    },
    {
      "inputs": [
        {
          "internalType": "uint256",
          "name": "requestId",
          "type": "uint256"
        },
        {
          "internalType": "uint256[]",
          "name": "randomWords",
          "type": "uint256[]"
        }
      ],
      "name": "rawFulfillRandomWords",
      "outputs": [],
      "stateMutability": "nonpayable",
      "type": "function"
    },
    {
      "inputs": [],
      "name": "requestRandomWords",
      "outputs": [],
      "stateMutability": "nonpayable",
      "type": "function"
    },
    {
      "inputs": [
        {
          "internalType": "uint256",
          "name": "",
          "type": "uint256"
        }
      ],
      "name": "s_randomWords",
      "outputs": [
        {
          "internalType": "uint256",
          "name": "",
          "type": "uint256"
        }
      ],
      "stateMutability": "view",
      "type": "function"
    },
    {
      "inputs": [],
      "name": "s_requestId",
      "outputs": [
        {
          "internalType": "uint256",
          "name": "",
          "type": "uint256"
        }
      ],
      "stateMutability": "view",
      "type": "function"
    }
  ],
  "bytecode": "0x60a0604052737a1bac17ccc5b313516c5e16fb24f7659aa5ebed600160006101000a81548173ffffffffffffffffffffffffffffffffffffffff021916908373ffffffffffffffffffffffffffffffffffffffff1602179055507f4b09e658ed251bcafeebbc69400383d49f344ace09b9576fe248bb02c003fe9f60001b600255620186a0600360006101000a81548163ffffffff021916908363ffffffff16021790555060038060046101000a81548161ffff021916908361ffff1602179055506002600360066101000a81548163ffffffff021916908363ffffffff1602179055503480156100ef57600080fd5b50604051610a19380380610a1983398181016040528101906101119190610253565b600160009054906101000a900473ffffffffffffffffffffffffffffffffffffffff168073ffffffffffffffffffffffffffffffffffffffff1660808173ffffffffffffffffffffffffffffffffffffffff1660601b8152505050600160009054906101000a900473ffffffffffffffffffffffffffffffffffffffff166000806101000a81548173ffffffffffffffffffffffffffffffffffffffff021916908373ffffffffffffffffffffffffffffffffffffffff16021790555033600660006101000a81548173ffffffffffffffffffffffffffffffffffffffff021916908373ffffffffffffffffffffffffffffffffffffffff16021790555080600060146101000a81548167ffffffffffffffff021916908367ffffffffffffffff160217905550506102b0565b60008151905061024d81610299565b92915050565b60006020828403121561026957610268610294565b5b60006102778482850161023e565b91505092915050565b600067ffffffffffffffff82169050919050565b600080fd5b6102a281610280565b81146102ad57600080fd5b50565b60805160601c6107456102d46000396000818160c7015261011b01526107456000f3fe608060405234801561001057600080fd5b506004361061004c5760003560e01c80631fe543e314610051578063e0c862891461006d578063e89e106a14610077578063f6eaffc814610095575b600080fd5b61006b6004803603810190610066919061045d565b6100c5565b005b610075610185565b005b61007f61028c565b60405161008c919061058f565b60405180910390f35b6100af60048036038101906100aa9190610403565b610292565b6040516100bc919061058f565b60405180910390f35b7f000000000000000000000000000000000000000000000000000000000000000073ffffffffffffffffffffffffffffffffffffffff163373ffffffffffffffffffffffffffffffffffffffff161461017757337f00000000000000000000000000000000000000000000000000000000000000006040517f1cf993f400000000000000000000000000000000000000000000000000000000815260040161016e929190610513565b60405180910390fd5b61018182826102b6565b5050565b60008054906101000a900473ffffffffffffffffffffffffffffffffffffffff1673ffffffffffffffffffffffffffffffffffffffff16635d3b1d30600254600060149054906101000a900467ffffffffffffffff16600360049054906101000a900461ffff16600360009054906101000a900463ffffffff16600360069054906101000a900463ffffffff166040518663ffffffff1660e01b815260040161023295949392919061053c565b602060405180830381600087803b15801561024c57600080fd5b505af1158015610260573d6000803e3d6000fd5b505050506040513d601f19601f820116820180604052508101906102849190610430565b600581905550565b60055481565b600481815481106102a257600080fd5b906000526020600020016000915090505481565b80600490805190602001906102cc9291906102d1565b505050565b82805482825590600052602060002090810192821561030d579160200282015b8281111561030c5782518255916020019190600101906102f1565b5b50905061031a919061031e565b5090565b5b8082111561033757600081600090555060010161031f565b5090565b600061034e610349846105cf565b6105aa565b90508083825260208201905082856020860282011115610371576103706106d8565b5b60005b858110156103a1578161038788826103d9565b845260208401935060208301925050600181019050610374565b5050509392505050565b600082601f8301126103c0576103bf6106d3565b5b81356103d084826020860161033b565b91505092915050565b6000813590506103e8816106f8565b92915050565b6000815190506103fd816106f8565b92915050565b600060208284031215610419576104186106e2565b5b6000610427848285016103d9565b91505092915050565b600060208284031215610446576104456106e2565b5b6000610454848285016103ee565b91505092915050565b60008060408385031215610474576104736106e2565b5b6000610482858286016103d9565b925050602083013567ffffffffffffffff8111156104a3576104a26106dd565b5b6104af858286016103ab565b9150509250929050565b6104c2816105fb565b82525050565b6104d18161060d565b82525050565b6104e081610617565b82525050565b6104ef81610645565b82525050565b6104fe8161064f565b82525050565b61050d8161065f565b82525050565b600060408201905061052860008301856104b9565b61053560208301846104b9565b9392505050565b600060a08201905061055160008301886104c8565b61055e6020830187610504565b61056b60408301866104d7565b61057860608301856104f5565b61058560808301846104f5565b9695505050505050565b60006020820190506105a460008301846104e6565b92915050565b60006105b46105c5565b90506105c08282610673565b919050565b6000604051905090565b600067ffffffffffffffff8211156105ea576105e96106a4565b5b602082029050602081019050919050565b600061060682610625565b9050919050565b6000819050919050565b600061ffff82169050919050565b600073ffffffffffffffffffffffffffffffffffffffff82169050919050565b6000819050919050565b600063ffffffff82169050919050565b600067ffffffffffffffff82169050919050565b61067c826106e7565b810181811067ffffffffffffffff8211171561069b5761069a6106a4565b5b80604052505050565b7f4e487b7100000000000000000000000000000000000000000000000000000000600052604160045260246000fd5b600080fd5b600080fd5b600080fd5b600080fd5b6000601f19601f8301169050919050565b61070181610645565b811461070c57600080fd5b5056fea2646970667358221220156b04b2950cb4ce4d9555f6f1e290c2735c76518b54dfb8a41b5e951d0dd4a464736f6c63430008070033",
  "linkReferences": {},
  "deployedLinkReferences": {}
}